{
  "_format": "hh-sol-artifact-1",
  "contractName": "NFTimeshareMonth",
  "sourceName": "contracts/NFTimeshareMonth.sol",
  "abi": [
    {
      "anonymous": false,
      "inputs": [
        {
          "indexed": true,
          "internalType": "address",
          "name": "owner",
          "type": "address"
        },
        {
          "indexed": true,
          "internalType": "address",
          "name": "approved",
          "type": "address"
        },
        {
          "indexed": true,
          "internalType": "uint256",
          "name": "tokenId",
          "type": "uint256"
        }
      ],
      "name": "Approval",
      "type": "event"
    },
    {
      "anonymous": false,
      "inputs": [
        {
          "indexed": true,
          "internalType": "address",
          "name": "owner",
          "type": "address"
        },
        {
          "indexed": true,
          "internalType": "address",
          "name": "operator",
          "type": "address"
        },
        {
          "indexed": false,
          "internalType": "bool",
          "name": "approved",
          "type": "bool"
        }
      ],
      "name": "ApprovalForAll",
      "type": "event"
    },
    {
      "anonymous": false,
      "inputs": [
        {
          "indexed": true,
          "internalType": "address",
          "name": "previousOwner",
          "type": "address"
        },
        {
          "indexed": true,
          "internalType": "address",
          "name": "newOwner",
          "type": "address"
        }
      ],
      "name": "OwnershipTransferred",
      "type": "event"
    },
    {
      "anonymous": false,
      "inputs": [
        {
          "indexed": true,
          "internalType": "address",
          "name": "from",
          "type": "address"
        },
        {
          "indexed": true,
          "internalType": "address",
          "name": "to",
          "type": "address"
        },
        {
          "indexed": true,
          "internalType": "uint256",
          "name": "tokenId",
          "type": "uint256"
        }
      ],
      "name": "Transfer",
      "type": "event"
    },
    {
      "inputs": [
        {
          "internalType": "address",
          "name": "to",
          "type": "address"
        },
        {
          "internalType": "uint256",
          "name": "tokenId",
          "type": "uint256"
        }
      ],
      "name": "approve",
      "outputs": [],
      "stateMutability": "nonpayable",
      "type": "function"
    },
    {
      "inputs": [
        {
          "internalType": "address",
          "name": "owner",
          "type": "address"
        }
      ],
      "name": "balanceOf",
      "outputs": [
        {
          "internalType": "uint256",
          "name": "",
          "type": "uint256"
        }
      ],
      "stateMutability": "view",
      "type": "function"
    },
    {
      "inputs": [
        {
          "internalType": "address",
          "name": "spender",
          "type": "address"
        },
        {
          "internalType": "uint256",
          "name": "timeshareTokenId",
          "type": "uint256"
        }
      ],
      "name": "burnTimeshareMonthsFor",
      "outputs": [],
      "stateMutability": "nonpayable",
      "type": "function"
    },
    {
      "inputs": [
        {
          "internalType": "uint256",
          "name": "tokenId",
          "type": "uint256"
        }
      ],
      "name": "getApproved",
      "outputs": [
        {
          "internalType": "address",
          "name": "",
          "type": "address"
        }
      ],
      "stateMutability": "view",
      "type": "function"
    },
    {
      "inputs": [],
      "name": "getNFTimeshareAddress",
      "outputs": [
        {
          "internalType": "address",
          "name": "",
          "type": "address"
        }
      ],
      "stateMutability": "view",
      "type": "function"
    },
    {
      "inputs": [
        {
          "internalType": "uint256",
          "name": "timeshareMonthTokenId",
          "type": "uint256"
        }
      ],
      "name": "getParentTimeshare",
      "outputs": [
        {
          "internalType": "uint256",
          "name": "",
          "type": "uint256"
        }
      ],
      "stateMutability": "view",
      "type": "function"
    },
    {
      "inputs": [
        {
          "internalType": "uint256",
          "name": "timeshareTokenId",
          "type": "uint256"
        }
      ],
      "name": "getTimeshareMonths",
      "outputs": [
        {
          "internalType": "uint256[12]",
          "name": "",
          "type": "uint256[12]"
        }
      ],
      "stateMutability": "view",
      "type": "function"
    },
    {
      "inputs": [],
      "name": "initialize",
      "outputs": [],
      "stateMutability": "nonpayable",
      "type": "function"
    },
    {
      "inputs": [
        {
          "internalType": "address",
          "name": "owner",
          "type": "address"
        },
        {
          "internalType": "address",
          "name": "operator",
          "type": "address"
        }
      ],
      "name": "isApprovedForAll",
      "outputs": [
        {
          "internalType": "bool",
          "name": "",
          "type": "bool"
        }
      ],
      "stateMutability": "view",
      "type": "function"
    },
    {
      "inputs": [
        {
          "internalType": "address",
          "name": "spender",
          "type": "address"
        },
        {
          "internalType": "uint256",
          "name": "timeshareTokenId",
          "type": "uint256"
        }
      ],
      "name": "isApprovedForAllMonths",
      "outputs": [
        {
          "internalType": "bool",
          "name": "",
          "type": "bool"
        }
      ],
      "stateMutability": "view",
      "type": "function"
    },
    {
      "inputs": [
        {
          "internalType": "uint256",
          "name": "timeshareTokenId",
          "type": "uint256"
        },
        {
          "internalType": "address",
          "name": "to",
          "type": "address"
        }
      ],
      "name": "makeTimesharesFor",
      "outputs": [],
      "stateMutability": "nonpayable",
      "type": "function"
    },
    {
      "inputs": [
        {
          "internalType": "uint256",
          "name": "tokenId",
          "type": "uint256"
        }
      ],
      "name": "month",
      "outputs": [
        {
          "internalType": "uint8",
          "name": "",
          "type": "uint8"
        }
      ],
      "stateMutability": "view",
      "type": "function"
    },
    {
      "inputs": [],
      "name": "name",
      "outputs": [
        {
          "internalType": "string",
          "name": "",
          "type": "string"
        }
      ],
      "stateMutability": "view",
      "type": "function"
    },
    {
      "inputs": [],
      "name": "owner",
      "outputs": [
        {
          "internalType": "address",
          "name": "",
          "type": "address"
        }
      ],
      "stateMutability": "view",
      "type": "function"
    },
    {
      "inputs": [
        {
          "internalType": "uint256",
          "name": "tokenId",
          "type": "uint256"
        }
      ],
      "name": "ownerOf",
      "outputs": [
        {
          "internalType": "address",
          "name": "",
          "type": "address"
        }
      ],
      "stateMutability": "view",
      "type": "function"
    },
    {
      "inputs": [],
      "name": "renounceOwnership",
      "outputs": [],
      "stateMutability": "nonpayable",
      "type": "function"
    },
    {
      "inputs": [
        {
          "internalType": "address",
          "name": "from",
          "type": "address"
        },
        {
          "internalType": "address",
          "name": "to",
          "type": "address"
        },
        {
          "internalType": "uint256",
          "name": "tokenId",
          "type": "uint256"
        }
      ],
      "name": "safeTransferFrom",
      "outputs": [],
      "stateMutability": "nonpayable",
      "type": "function"
    },
    {
      "inputs": [
        {
          "internalType": "address",
          "name": "from",
          "type": "address"
        },
        {
          "internalType": "address",
          "name": "to",
          "type": "address"
        },
        {
          "internalType": "uint256",
          "name": "tokenId",
          "type": "uint256"
        },
        {
          "internalType": "bytes",
          "name": "_data",
          "type": "bytes"
        }
      ],
      "name": "safeTransferFrom",
      "outputs": [],
      "stateMutability": "nonpayable",
      "type": "function"
    },
    {
      "inputs": [
        {
          "internalType": "address",
          "name": "operator",
          "type": "address"
        },
        {
          "internalType": "bool",
          "name": "approved",
          "type": "bool"
        }
      ],
      "name": "setApprovalForAll",
      "outputs": [],
      "stateMutability": "nonpayable",
      "type": "function"
    },
    {
      "inputs": [
        {
          "internalType": "address",
          "name": "addr",
          "type": "address"
        }
      ],
      "name": "setNFTimeshareAddress",
      "outputs": [],
      "stateMutability": "nonpayable",
      "type": "function"
    },
    {
      "inputs": [
        {
          "internalType": "bytes4",
          "name": "interfaceId",
          "type": "bytes4"
        }
      ],
      "name": "supportsInterface",
      "outputs": [
        {
          "internalType": "bool",
          "name": "",
          "type": "bool"
        }
      ],
      "stateMutability": "view",
      "type": "function"
    },
    {
      "inputs": [],
      "name": "symbol",
      "outputs": [
        {
          "internalType": "string",
          "name": "",
          "type": "string"
        }
      ],
      "stateMutability": "view",
      "type": "function"
    },
    {
      "inputs": [
        {
          "internalType": "uint256",
          "name": "index",
          "type": "uint256"
        }
      ],
      "name": "tokenByIndex",
      "outputs": [
        {
          "internalType": "uint256",
          "name": "",
          "type": "uint256"
        }
      ],
      "stateMutability": "view",
      "type": "function"
    },
    {
      "inputs": [
        {
          "internalType": "address",
          "name": "owner",
          "type": "address"
        },
        {
          "internalType": "uint256",
          "name": "index",
          "type": "uint256"
        }
      ],
      "name": "tokenOfOwnerByIndex",
      "outputs": [
        {
          "internalType": "uint256",
          "name": "",
          "type": "uint256"
        }
      ],
      "stateMutability": "view",
      "type": "function"
    },
    {
      "inputs": [
        {
          "internalType": "uint256",
          "name": "tokenId",
          "type": "uint256"
        }
      ],
      "name": "tokenURI",
      "outputs": [
        {
          "internalType": "string",
          "name": "",
          "type": "string"
        }
      ],
      "stateMutability": "view",
      "type": "function"
    },
    {
      "inputs": [
        {
          "internalType": "address",
          "name": "owner",
          "type": "address"
        }
      ],
      "name": "tokensOf",
      "outputs": [
        {
          "components": [
            {
              "internalType": "uint256",
              "name": "tokenId",
              "type": "uint256"
            },
            {
              "internalType": "uint8",
              "name": "month",
              "type": "uint8"
            },
            {
              "internalType": "string",
              "name": "tokenURI",
              "type": "string"
            }
          ],
          "internalType": "struct NFTimeshareMonth.TimeshareMonthInfo[]",
          "name": "",
          "type": "tuple[]"
        }
      ],
      "stateMutability": "view",
      "type": "function"
    },
    {
      "inputs": [],
      "name": "totalSupply",
      "outputs": [
        {
          "internalType": "uint256",
          "name": "",
          "type": "uint256"
        }
      ],
      "stateMutability": "view",
      "type": "function"
    },
    {
      "inputs": [
        {
          "internalType": "address",
          "name": "from",
          "type": "address"
        },
        {
          "internalType": "address",
          "name": "to",
          "type": "address"
        },
        {
          "internalType": "uint256",
          "name": "tokenId",
          "type": "uint256"
        }
      ],
      "name": "transferFrom",
      "outputs": [],
      "stateMutability": "nonpayable",
      "type": "function"
    },
    {
      "inputs": [
        {
          "internalType": "address",
          "name": "newOwner",
          "type": "address"
        }
      ],
      "name": "transferOwnership",
      "outputs": [],
      "stateMutability": "nonpayable",
      "type": "function"
    },
    {
      "inputs": [
        {
          "internalType": "uint256",
          "name": "tokenId",
          "type": "uint256"
        }
      ],
      "name": "underlyingTokenURI",
      "outputs": [
        {
          "internalType": "string",
          "name": "",
          "type": "string"
        }
      ],
      "stateMutability": "view",
      "type": "function"
    }
  ],
  "bytecode": "0x608060405234801561001057600080fd5b5061585e80620000216000396000f3fe608060405234801561001057600080fd5b50600436106101da5760003560e01c80636352211e1161010457806395d89b41116100a2578063b88d4fde11610071578063b88d4fde1461058d578063c87b56dd146105a9578063e985e9c5146105d9578063f2fde38b14610609576101da565b806395d89b41146104f3578063984754fa14610511578063989620df14610541578063a22cb46514610571576101da565b8063802b9645116100de578063802b9645146104915780638129fc1c146104af5780638d6e1b67146104b95780638da5cb5b146104d5576101da565b80636352211e1461042757806370a0823114610457578063715018a614610487576101da565b8063286e55081161017c5780634f6ccce71161014b5780634f6ccce71461037b57806359574c38146103ab5780635a3f2672146103db5780635f9357b81461040b576101da565b8063286e5508146102cf5780632f745c59146102ff57806342842e0e1461032f5780634be9ea351461034b576101da565b8063081812fc116101b8578063081812fc14610249578063095ea7b31461027957806318160ddd1461029557806323b872dd146102b3576101da565b806301ffc9a7146101df57806306d64af71461020f57806306fdde031461022b575b600080fd5b6101f960048036038101906101f49190613fb4565b610625565b60405161020691906147a4565b60405180910390f35b61022960048036038101906102249190614070565b61069f565b005b6102336109c2565b60405161024091906147bf565b60405180910390f35b610263600480360381019061025e9190614047565b610a54565b60405161027091906146ff565b60405180910390f35b610293600480360381019061028e9190613f78565b610ad9565b005b61029d610bf1565b6040516102aa9190614b41565b60405180910390f35b6102cd60048036038101906102c89190613e72565b610bfe565b005b6102e960048036038101906102e49190614047565b610c5e565b6040516102f691906147bf565b60405180910390f35b61031960048036038101906103149190613f78565b610e41565b6040516103269190614b41565b60405180910390f35b61034960048036038101906103449190613e72565b610ee6565b005b61036560048036038101906103609190613f78565b610f06565b60405161037291906147a4565b60405180910390f35b61039560048036038101906103909190614047565b610fe2565b6040516103a29190614b41565b60405180910390f35b6103c560048036038101906103c09190614047565b611079565b6040516103d29190614788565b60405180910390f35b6103f560048036038101906103f09190613e0d565b6110d7565b6040516104029190614766565b60405180910390f35b61042560048036038101906104209190613e0d565b611221565b005b610441600480360381019061043c9190614047565b6112e1565b60405161044e91906146ff565b60405180910390f35b610471600480360381019061046c9190613e0d565b611393565b60405161047e9190614b41565b60405180910390f35b61048f61144b565b005b610499611588565b6040516104a691906146ff565b60405180910390f35b6104b76115b2565b005b6104d360048036038101906104ce9190613f78565b61170f565b005b6104dd611a59565b6040516104ea91906146ff565b60405180910390f35b6104fb611a83565b60405161050891906147bf565b60405180910390f35b61052b60048036038101906105269190614047565b611b15565b6040516105389190614b41565b60405180910390f35b61055b60048036038101906105569190614047565b611b32565b6040516105689190614b5c565b60405180910390f35b61058b60048036038101906105869190613f3c565b611d55565b005b6105a760048036038101906105a29190613ec1565b611ed6565b005b6105c360048036038101906105be9190614047565b611f38565b6040516105d091906147bf565b60405180910390f35b6105f360048036038101906105ee9190613e36565b611fdf565b60405161060091906147a4565b60405180910390f35b610623600480360381019061061e9190613e0d565b612073565b005b60007f780e9d63000000000000000000000000000000000000000000000000000000007bffffffffffffffffffffffffffffffffffffffffffffffffffffffff1916827bffffffffffffffffffffffffffffffffffffffffffffffffffffffff1916148061069857506106978261221f565b5b9050919050565b600073ffffffffffffffffffffffffffffffffffffffff1660fc60009054906101000a900473ffffffffffffffffffffffffffffffffffffffff1673ffffffffffffffffffffffffffffffffffffffff161415610731576040517f08c379a000000000000000000000000000000000000000000000000000000000815260040161072890614b01565b60405180910390fd5b60fc60009054906101000a900473ffffffffffffffffffffffffffffffffffffffff1673ffffffffffffffffffffffffffffffffffffffff163373ffffffffffffffffffffffffffffffffffffffff16146107c1576040517f08c379a00000000000000000000000000000000000000000000000000000000081526004016107b890614a01565b60405180910390fd5b60fc60009054906101000a900473ffffffffffffffffffffffffffffffffffffffff1673ffffffffffffffffffffffffffffffffffffffff163373ffffffffffffffffffffffffffffffffffffffff1614610851576040517f08c379a000000000000000000000000000000000000000000000000000000000815260040161084890614801565b60405180910390fd5b610859613b97565b60005b600c8160ff16101561092c5761087260fb612301565b61087c60fb612317565b828260ff16600c81106108b8577f4e487b7100000000000000000000000000000000000000000000000000000000600052603260045260246000fd5b6020020181815250508360fd6000848460ff16600c8110610902577f4e487b7100000000000000000000000000000000000000000000000000000000600052603260045260246000fd5b6020020151815260200190815260200160002081905550808061092490614ee2565b91505061085c565b508060fe600085815260200190815260200160002090600c61094f929190613bba565b5060005b600c8160ff1610156109bc576109a983838360ff16600c811061099f577f4e487b7100000000000000000000000000000000000000000000000000000000600052603260045260246000fd5b6020020151612325565b80806109b490614ee2565b915050610953565b50505050565b6060606580546109d190614e36565b80601f01602080910402602001604051908101604052809291908181526020018280546109fd90614e36565b8015610a4a5780601f10610a1f57610100808354040283529160200191610a4a565b820191906000526020600020905b815481529060010190602001808311610a2d57829003601f168201915b5050505050905090565b6000610a5f82612343565b610a9e576040517f08c379a0000000000000000000000000000000000000000000000000000000008152600401610a95906149e1565b60405180910390fd5b6069600083815260200190815260200160002060009054906101000a900473ffffffffffffffffffffffffffffffffffffffff169050919050565b6000610ae4826112e1565b90508073ffffffffffffffffffffffffffffffffffffffff168373ffffffffffffffffffffffffffffffffffffffff161415610b55576040517f08c379a0000000000000000000000000000000000000000000000000000000008152600401610b4c90614a81565b60405180910390fd5b8073ffffffffffffffffffffffffffffffffffffffff16610b746123af565b73ffffffffffffffffffffffffffffffffffffffff161480610ba35750610ba281610b9d6123af565b611fdf565b5b610be2576040517f08c379a0000000000000000000000000000000000000000000000000000000008152600401610bd990614901565b60405180910390fd5b610bec83836123b7565b505050565b6000609980549050905090565b610c0f610c096123af565b82612470565b610c4e576040517f08c379a0000000000000000000000000000000000000000000000000000000008152600401610c4590614ac1565b60405180910390fd5b610c5983838361254e565b505050565b6060600073ffffffffffffffffffffffffffffffffffffffff1660fc60009054906101000a900473ffffffffffffffffffffffffffffffffffffffff1673ffffffffffffffffffffffffffffffffffffffff161415610cf2576040517f08c379a0000000000000000000000000000000000000000000000000000000008152600401610ce990614b21565b60405180910390fd5b610cfb82612343565b610d3a576040517f08c379a0000000000000000000000000000000000000000000000000000000008152600401610d3190614a61565b60405180910390fd5b600060fd600084815260200190815260200160002054905060008111610d89577f4e487b7100000000000000000000000000000000000000000000000000000000600052600160045260246000fd5b60fc60009054906101000a900473ffffffffffffffffffffffffffffffffffffffff1673ffffffffffffffffffffffffffffffffffffffff1663286e5508826040518263ffffffff1660e01b8152600401610de49190614b41565b60006040518083038186803b158015610dfc57600080fd5b505afa158015610e10573d6000803e3d6000fd5b505050506040513d6000823e3d601f19601f82011682018060405250810190610e399190614006565b915050919050565b6000610e4c83611393565b8210610e8d576040517f08c379a0000000000000000000000000000000000000000000000000000000008152600401610e8490614821565b60405180910390fd5b609760008473ffffffffffffffffffffffffffffffffffffffff1673ffffffffffffffffffffffffffffffffffffffff168152602001908152602001600020600083815260200190815260200160002054905092915050565b610f0183838360405180602001604052806000815250611ed6565b505050565b60008060fe6000848152602001908152602001600020600c806020026040519081016040528092919082600c8015610f53576020028201915b815481526020019060010190808311610f3f575b5050505050905060005b600c8160ff161015610fd557610fb385838360ff16600c8110610fa9577f4e487b7100000000000000000000000000000000000000000000000000000000600052603260045260246000fd5b6020020151612470565b610fc257600092505050610fdc565b8080610fcd90614ee2565b915050610f5d565b5060019150505b92915050565b6000610fec610bf1565b821061102d576040517f08c379a000000000000000000000000000000000000000000000000000000000815260040161102490614ae1565b60405180910390fd5b60998281548110611067577f4e487b7100000000000000000000000000000000000000000000000000000000600052603260045260246000fd5b90600052602060002001549050919050565b611081613b97565b60fe6000838152602001908152602001600020600c806020026040519081016040528092919082600c80156110cb576020028201915b8154815260200190600101908083116110b7575b50505050509050919050565b606060006110e483611393565b905060008167ffffffffffffffff811115611128577f4e487b7100000000000000000000000000000000000000000000000000000000600052604160045260246000fd5b60405190808252806020026020018201604052801561116157816020015b61114e613bfa565b8152602001906001900390816111465790505b50905060005b8281101561121657611177613bfa565b6111818683610e41565b8160000181815250506111978160000151611b32565b816020019060ff16908160ff16815250506111b58160000151611f38565b8160400181905250808383815181106111f7577f4e487b7100000000000000000000000000000000000000000000000000000000600052603260045260246000fd5b602002602001018190525050808061120e90614e99565b915050611167565b508092505050919050565b6112296123af565b73ffffffffffffffffffffffffffffffffffffffff16611247611a59565b73ffffffffffffffffffffffffffffffffffffffff161461129d576040517f08c379a000000000000000000000000000000000000000000000000000000000815260040161129490614a21565b60405180910390fd5b8060fc60006101000a81548173ffffffffffffffffffffffffffffffffffffffff021916908373ffffffffffffffffffffffffffffffffffffffff16021790555050565b6000806067600084815260200190815260200160002060009054906101000a900473ffffffffffffffffffffffffffffffffffffffff169050600073ffffffffffffffffffffffffffffffffffffffff168173ffffffffffffffffffffffffffffffffffffffff16141561138a576040517f08c379a000000000000000000000000000000000000000000000000000000000815260040161138190614941565b60405180910390fd5b80915050919050565b60008073ffffffffffffffffffffffffffffffffffffffff168273ffffffffffffffffffffffffffffffffffffffff161415611404576040517f08c379a00000000000000000000000000000000000000000000000000000000081526004016113fb90614921565b60405180910390fd5b606860008373ffffffffffffffffffffffffffffffffffffffff1673ffffffffffffffffffffffffffffffffffffffff168152602001908152602001600020549050919050565b6114536123af565b73ffffffffffffffffffffffffffffffffffffffff16611471611a59565b73ffffffffffffffffffffffffffffffffffffffff16146114c7576040517f08c379a00000000000000000000000000000000000000000000000000000000081526004016114be90614a21565b60405180910390fd5b600073ffffffffffffffffffffffffffffffffffffffff1660c960009054906101000a900473ffffffffffffffffffffffffffffffffffffffff1673ffffffffffffffffffffffffffffffffffffffff167f8be0079c531659141344cd1fd0a4f28419497f9722a3daafe3b4186f6b6457e060405160405180910390a3600060c960006101000a81548173ffffffffffffffffffffffffffffffffffffffff021916908373ffffffffffffffffffffffffffffffffffffffff160217905550565b600060fc60009054906101000a900473ffffffffffffffffffffffffffffffffffffffff16905090565b600060019054906101000a900460ff16806115d8575060008054906101000a900460ff16155b611617576040517f08c379a000000000000000000000000000000000000000000000000000000000815260040161160e90614961565b60405180910390fd5b60008060019054906101000a900460ff161590508015611667576001600060016101000a81548160ff02191690831515021790555060016000806101000a81548160ff0219169083151502179055505b6116db6040518060400160405280600e81526020017f54696d6573686172654d6f6e74680000000000000000000000000000000000008152506040518060400160405280600481526020017f54696d65000000000000000000000000000000000000000000000000000000008152506127aa565b6116e361289f565b6116eb612990565b801561170c5760008060016101000a81548160ff0219169083151502179055505b50565b600073ffffffffffffffffffffffffffffffffffffffff1660fc60009054906101000a900473ffffffffffffffffffffffffffffffffffffffff1673ffffffffffffffffffffffffffffffffffffffff1614156117a1576040517f08c379a000000000000000000000000000000000000000000000000000000000815260040161179890614b01565b60405180910390fd5b60fc60009054906101000a900473ffffffffffffffffffffffffffffffffffffffff1673ffffffffffffffffffffffffffffffffffffffff163373ffffffffffffffffffffffffffffffffffffffff1614611831576040517f08c379a000000000000000000000000000000000000000000000000000000000815260040161182890614a01565b60405180910390fd5b600060fe6000838152602001908152602001600020600c806020026040519081016040528092919082600c801561187d576020028201915b815481526020019060010190808311611869575b505050505090506000816000600c81106118c0577f4e487b7100000000000000000000000000000000000000000000000000000000600052603260045260246000fd5b60200201511415611906576040517f08c379a00000000000000000000000000000000000000000000000000000000081526004016118fd90614981565b60405180910390fd5b6119108383610f06565b61194f576040517f08c379a000000000000000000000000000000000000000000000000000000000815260040161194690614aa1565b60405180910390fd5b60fe6000838152602001908152602001600020600061196e9190613c1e565b60005b600c8160ff1610156119e75760fd6000838360ff16600c81106119bd577f4e487b7100000000000000000000000000000000000000000000000000000000600052603260045260246000fd5b602002015181526020019081526020016000206000905580806119df90614ee2565b915050611971565b5060005b600c8160ff161015611a5357611a40828260ff16600c8110611a36577f4e487b7100000000000000000000000000000000000000000000000000000000600052603260045260246000fd5b6020020151612a79565b8080611a4b90614ee2565b9150506119eb565b50505050565b600060c960009054906101000a900473ffffffffffffffffffffffffffffffffffffffff16905090565b606060668054611a9290614e36565b80601f0160208091040260200160405190810160405280929190818152602001828054611abe90614e36565b8015611b0b5780601f10611ae057610100808354040283529160200191611b0b565b820191906000526020600020905b815481529060010190602001808311611aee57829003601f168201915b5050505050905090565b600060fd6000838152602001908152602001600020549050919050565b6000611b3d82612343565b611b7c576040517f08c379a0000000000000000000000000000000000000000000000000000000008152600401611b73906149c1565b60405180910390fd5b600060fd60008481526020019081526020016000205490506000811415611bd8576040517f08c379a0000000000000000000000000000000000000000000000000000000008152600401611bcf906147e1565b60405180910390fd5b600060fe6000838152602001908152602001600020600c806020026040519081016040528092919082600c8015611c24576020028201915b815481526020019060010190808311611c10575b5050505050905060005b600c8160ff161015611d1757818160ff16600c8110611c76577f4e487b7100000000000000000000000000000000000000000000000000000000600052603260045260246000fd5b6020020151851415611c8d57809350505050611d50565b6000828260ff16600c8110611ccb577f4e487b7100000000000000000000000000000000000000000000000000000000600052603260045260246000fd5b602002015111611d04577f4e487b7100000000000000000000000000000000000000000000000000000000600052600160045260246000fd5b8080611d0f90614ee2565b915050611c2e565b506000611d4d577f4e487b7100000000000000000000000000000000000000000000000000000000600052600160045260246000fd5b50505b919050565b611d5d6123af565b73ffffffffffffffffffffffffffffffffffffffff168273ffffffffffffffffffffffffffffffffffffffff161415611dcb576040517f08c379a0000000000000000000000000000000000000000000000000000000008152600401611dc2906148c1565b60405180910390fd5b80606a6000611dd86123af565b73ffffffffffffffffffffffffffffffffffffffff1673ffffffffffffffffffffffffffffffffffffffff16815260200190815260200160002060008473ffffffffffffffffffffffffffffffffffffffff1673ffffffffffffffffffffffffffffffffffffffff16815260200190815260200160002060006101000a81548160ff0219169083151502179055508173ffffffffffffffffffffffffffffffffffffffff16611e856123af565b73ffffffffffffffffffffffffffffffffffffffff167f17307eab39ab6107e8899845ad3d59bd9653f200f220920489ca2b5937696c3183604051611eca91906147a4565b60405180910390a35050565b611ee7611ee16123af565b83612470565b611f26576040517f08c379a0000000000000000000000000000000000000000000000000000000008152600401611f1d90614ac1565b60405180910390fd5b611f3284848484612b8a565b50505050565b6060611f4382612343565b611f82576040517f08c379a0000000000000000000000000000000000000000000000000000000008152600401611f7990614a61565b60405180910390fd5b6000611f8c612be6565b90506000815111611fac5760405180602001604052806000815250611fd7565b80611fb684612c06565b604051602001611fc79291906146db565b6040516020818303038152906040525b915050919050565b6000606a60008473ffffffffffffffffffffffffffffffffffffffff1673ffffffffffffffffffffffffffffffffffffffff16815260200190815260200160002060008373ffffffffffffffffffffffffffffffffffffffff1673ffffffffffffffffffffffffffffffffffffffff16815260200190815260200160002060009054906101000a900460ff16905092915050565b61207b6123af565b73ffffffffffffffffffffffffffffffffffffffff16612099611a59565b73ffffffffffffffffffffffffffffffffffffffff16146120ef576040517f08c379a00000000000000000000000000000000000000000000000000000000081526004016120e690614a21565b60405180910390fd5b600073ffffffffffffffffffffffffffffffffffffffff168173ffffffffffffffffffffffffffffffffffffffff16141561215f576040517f08c379a000000000000000000000000000000000000000000000000000000000815260040161215690614861565b60405180910390fd5b8073ffffffffffffffffffffffffffffffffffffffff1660c960009054906101000a900473ffffffffffffffffffffffffffffffffffffffff1673ffffffffffffffffffffffffffffffffffffffff167f8be0079c531659141344cd1fd0a4f28419497f9722a3daafe3b4186f6b6457e060405160405180910390a38060c960006101000a81548173ffffffffffffffffffffffffffffffffffffffff021916908373ffffffffffffffffffffffffffffffffffffffff16021790555050565b60007f80ac58cd000000000000000000000000000000000000000000000000000000007bffffffffffffffffffffffffffffffffffffffffffffffffffffffff1916827bffffffffffffffffffffffffffffffffffffffffffffffffffffffff191614806122ea57507f5b5e139f000000000000000000000000000000000000000000000000000000007bffffffffffffffffffffffffffffffffffffffffffffffffffffffff1916827bffffffffffffffffffffffffffffffffffffffffffffffffffffffff1916145b806122fa57506122f982612db3565b5b9050919050565b6001816000016000828254019250508190555050565b600081600001549050919050565b61233f828260405180602001604052806000815250612e1d565b5050565b60008073ffffffffffffffffffffffffffffffffffffffff166067600084815260200190815260200160002060009054906101000a900473ffffffffffffffffffffffffffffffffffffffff1673ffffffffffffffffffffffffffffffffffffffff1614159050919050565b600033905090565b816069600083815260200190815260200160002060006101000a81548173ffffffffffffffffffffffffffffffffffffffff021916908373ffffffffffffffffffffffffffffffffffffffff160217905550808273ffffffffffffffffffffffffffffffffffffffff1661242a836112e1565b73ffffffffffffffffffffffffffffffffffffffff167f8c5be1e5ebec7d5bd14f71427d1e84f3dd0314c0f7b2291e5b200ac8c7c3b92560405160405180910390a45050565b600061247b82612343565b6124ba576040517f08c379a00000000000000000000000000000000000000000000000000000000081526004016124b1906148e1565b60405180910390fd5b60006124c5836112e1565b90508073ffffffffffffffffffffffffffffffffffffffff168473ffffffffffffffffffffffffffffffffffffffff16148061253457508373ffffffffffffffffffffffffffffffffffffffff1661251c84610a54565b73ffffffffffffffffffffffffffffffffffffffff16145b8061254557506125448185611fdf565b5b91505092915050565b8273ffffffffffffffffffffffffffffffffffffffff1661256e826112e1565b73ffffffffffffffffffffffffffffffffffffffff16146125c4576040517f08c379a00000000000000000000000000000000000000000000000000000000081526004016125bb90614a41565b60405180910390fd5b600073ffffffffffffffffffffffffffffffffffffffff168273ffffffffffffffffffffffffffffffffffffffff161415612634576040517f08c379a000000000000000000000000000000000000000000000000000000000815260040161262b906148a1565b60405180910390fd5b61263f838383612e78565b61264a6000826123b7565b6001606860008573ffffffffffffffffffffffffffffffffffffffff1673ffffffffffffffffffffffffffffffffffffffff168152602001908152602001600020600082825461269a9190614d3f565b925050819055506001606860008473ffffffffffffffffffffffffffffffffffffffff1673ffffffffffffffffffffffffffffffffffffffff16815260200190815260200160002060008282546126f19190614cb8565b92505081905550816067600083815260200190815260200160002060006101000a81548173ffffffffffffffffffffffffffffffffffffffff021916908373ffffffffffffffffffffffffffffffffffffffff160217905550808273ffffffffffffffffffffffffffffffffffffffff168473ffffffffffffffffffffffffffffffffffffffff167fddf252ad1be2c89b69c2b068fc378daa952ba7f163c4a11628f55a4df523b3ef60405160405180910390a4505050565b600060019054906101000a900460ff16806127d0575060008054906101000a900460ff16155b61280f576040517f08c379a000000000000000000000000000000000000000000000000000000000815260040161280690614961565b60405180910390fd5b60008060019054906101000a900460ff16159050801561285f576001600060016101000a81548160ff02191690831515021790555060016000806101000a81548160ff0219169083151502179055505b612867612f8c565b61286f613065565b612879838361313e565b801561289a5760008060016101000a81548160ff0219169083151502179055505b505050565b600060019054906101000a900460ff16806128c5575060008054906101000a900460ff16155b612904576040517f08c379a00000000000000000000000000000000000000000000000000000000081526004016128fb90614961565b60405180910390fd5b60008060019054906101000a900460ff161590508015612954576001600060016101000a81548160ff02191690831515021790555060016000806101000a81548160ff0219169083151502179055505b61295c612f8c565b612964613065565b61296c613247565b801561298d5760008060016101000a81548160ff0219169083151502179055505b50565b600060019054906101000a900460ff16806129b6575060008054906101000a900460ff16155b6129f5576040517f08c379a00000000000000000000000000000000000000000000000000000000081526004016129ec90614961565b60405180910390fd5b60008060019054906101000a900460ff161590508015612a45576001600060016101000a81548160ff02191690831515021790555060016000806101000a81548160ff0219169083151502179055505b612a4d612f8c565b612a55613320565b8015612a765760008060016101000a81548160ff0219169083151502179055505b50565b6000612a84826112e1565b9050612a9281600084612e78565b612a9d6000836123b7565b6001606860008373ffffffffffffffffffffffffffffffffffffffff1673ffffffffffffffffffffffffffffffffffffffff1681526020019081526020016000206000828254612aed9190614d3f565b925050819055506067600083815260200190815260200160002060006101000a81549073ffffffffffffffffffffffffffffffffffffffff021916905581600073ffffffffffffffffffffffffffffffffffffffff168273ffffffffffffffffffffffffffffffffffffffff167fddf252ad1be2c89b69c2b068fc378daa952ba7f163c4a11628f55a4df523b3ef60405160405180910390a45050565b612b9584848461254e565b612ba1848484846134a2565b612be0576040517f08c379a0000000000000000000000000000000000000000000000000000000008152600401612bd790614841565b60405180910390fd5b50505050565b60606040518060600160405280602b81526020016157fe602b9139905090565b60606000821415612c4e576040518060400160405280600181526020017f30000000000000000000000000000000000000000000000000000000000000008152509050612dae565b600082905060005b60008214612c80578080612c6990614e99565b915050600a82612c799190614d0e565b9150612c56565b60008167ffffffffffffffff811115612cc2577f4e487b7100000000000000000000000000000000000000000000000000000000600052604160045260246000fd5b6040519080825280601f01601f191660200182016040528015612cf45781602001600182028036833780820191505090505b5090505b60008514612da757600182612d0d9190614d3f565b9150600a85612d1c9190614f0c565b6030612d289190614cb8565b60f81b818381518110612d64577f4e487b7100000000000000000000000000000000000000000000000000000000600052603260045260246000fd5b60200101907effffffffffffffffffffffffffffffffffffffffffffffffffffffffffffff1916908160001a905350600a85612da09190614d0e565b9450612cf8565b8093505050505b919050565b60007f01ffc9a7000000000000000000000000000000000000000000000000000000007bffffffffffffffffffffffffffffffffffffffffffffffffffffffff1916827bffffffffffffffffffffffffffffffffffffffffffffffffffffffff1916149050919050565b612e278383613639565b612e3460008484846134a2565b612e73576040517f08c379a0000000000000000000000000000000000000000000000000000000008152600401612e6a90614841565b60405180910390fd5b505050565b612e83838383613807565b600073ffffffffffffffffffffffffffffffffffffffff168373ffffffffffffffffffffffffffffffffffffffff161415612ec657612ec18161380c565b612f05565b8173ffffffffffffffffffffffffffffffffffffffff168373ffffffffffffffffffffffffffffffffffffffff1614612f0457612f038382613855565b5b5b600073ffffffffffffffffffffffffffffffffffffffff168273ffffffffffffffffffffffffffffffffffffffff161415612f4857612f43816139c2565b612f87565b8273ffffffffffffffffffffffffffffffffffffffff168273ffffffffffffffffffffffffffffffffffffffff1614612f8657612f858282613b05565b5b5b505050565b600060019054906101000a900460ff1680612fb2575060008054906101000a900460ff16155b612ff1576040517f08c379a0000000000000000000000000000000000000000000000000000000008152600401612fe890614961565b60405180910390fd5b60008060019054906101000a900460ff161590508015613041576001600060016101000a81548160ff02191690831515021790555060016000806101000a81548160ff0219169083151502179055505b80156130625760008060016101000a81548160ff0219169083151502179055505b50565b600060019054906101000a900460ff168061308b575060008054906101000a900460ff16155b6130ca576040517f08c379a00000000000000000000000000000000000000000000000000000000081526004016130c190614961565b60405180910390fd5b60008060019054906101000a900460ff16159050801561311a576001600060016101000a81548160ff02191690831515021790555060016000806101000a81548160ff0219169083151502179055505b801561313b5760008060016101000a81548160ff0219169083151502179055505b50565b600060019054906101000a900460ff1680613164575060008054906101000a900460ff16155b6131a3576040517f08c379a000000000000000000000000000000000000000000000000000000000815260040161319a90614961565b60405180910390fd5b60008060019054906101000a900460ff1615905080156131f3576001600060016101000a81548160ff02191690831515021790555060016000806101000a81548160ff0219169083151502179055505b8260659080519060200190613209929190613c31565b508160669080519060200190613220929190613c31565b5080156132425760008060016101000a81548160ff0219169083151502179055505b505050565b600060019054906101000a900460ff168061326d575060008054906101000a900460ff16155b6132ac576040517f08c379a00000000000000000000000000000000000000000000000000000000081526004016132a390614961565b60405180910390fd5b60008060019054906101000a900460ff1615905080156132fc576001600060016101000a81548160ff02191690831515021790555060016000806101000a81548160ff0219169083151502179055505b801561331d5760008060016101000a81548160ff0219169083151502179055505b50565b600060019054906101000a900460ff1680613346575060008054906101000a900460ff16155b613385576040517f08c379a000000000000000000000000000000000000000000000000000000000815260040161337c90614961565b60405180910390fd5b60008060019054906101000a900460ff1615905080156133d5576001600060016101000a81548160ff02191690831515021790555060016000806101000a81548160ff0219169083151502179055505b60006133df6123af565b90508060c960006101000a81548173ffffffffffffffffffffffffffffffffffffffff021916908373ffffffffffffffffffffffffffffffffffffffff1602179055508073ffffffffffffffffffffffffffffffffffffffff16600073ffffffffffffffffffffffffffffffffffffffff167f8be0079c531659141344cd1fd0a4f28419497f9722a3daafe3b4186f6b6457e060405160405180910390a350801561349f5760008060016101000a81548160ff0219169083151502179055505b50565b60006134c38473ffffffffffffffffffffffffffffffffffffffff16613b84565b1561362c578373ffffffffffffffffffffffffffffffffffffffff1663150b7a026134ec6123af565b8786866040518563ffffffff1660e01b815260040161350e949392919061471a565b602060405180830381600087803b15801561352857600080fd5b505af192505050801561355957506040513d601f19601f820116820180604052508101906135569190613fdd565b60015b6135dc573d8060008114613589576040519150601f19603f3d011682016040523d82523d6000602084013e61358e565b606091505b506000815114156135d4576040517f08c379a00000000000000000000000000000000000000000000000000000000081526004016135cb90614841565b60405180910390fd5b805181602001fd5b63150b7a0260e01b7bffffffffffffffffffffffffffffffffffffffffffffffffffffffff1916817bffffffffffffffffffffffffffffffffffffffffffffffffffffffff191614915050613631565b600190505b949350505050565b600073ffffffffffffffffffffffffffffffffffffffff168273ffffffffffffffffffffffffffffffffffffffff1614156136a9576040517f08c379a00000000000000000000000000000000000000000000000000000000081526004016136a0906149a1565b60405180910390fd5b6136b281612343565b156136f2576040517f08c379a00000000000000000000000000000000000000000000000000000000081526004016136e990614881565b60405180910390fd5b6136fe60008383612e78565b6001606860008473ffffffffffffffffffffffffffffffffffffffff1673ffffffffffffffffffffffffffffffffffffffff168152602001908152602001600020600082825461374e9190614cb8565b92505081905550816067600083815260200190815260200160002060006101000a81548173ffffffffffffffffffffffffffffffffffffffff021916908373ffffffffffffffffffffffffffffffffffffffff160217905550808273ffffffffffffffffffffffffffffffffffffffff16600073ffffffffffffffffffffffffffffffffffffffff167fddf252ad1be2c89b69c2b068fc378daa952ba7f163c4a11628f55a4df523b3ef60405160405180910390a45050565b505050565b609980549050609a600083815260200190815260200160002081905550609981908060018154018082558091505060019003906000526020600020016000909190919091505550565b6000600161386284611393565b61386c9190614d3f565b9050600060986000848152602001908152602001600020549050818114613951576000609760008673ffffffffffffffffffffffffffffffffffffffff1673ffffffffffffffffffffffffffffffffffffffff168152602001908152602001600020600084815260200190815260200160002054905080609760008773ffffffffffffffffffffffffffffffffffffffff1673ffffffffffffffffffffffffffffffffffffffff168152602001908152602001600020600084815260200190815260200160002081905550816098600083815260200190815260200160002081905550505b6098600084815260200190815260200160002060009055609760008573ffffffffffffffffffffffffffffffffffffffff1673ffffffffffffffffffffffffffffffffffffffff16815260200190815260200160002060008381526020019081526020016000206000905550505050565b600060016099805490506139d69190614d3f565b90506000609a6000848152602001908152602001600020549050600060998381548110613a2c577f4e487b7100000000000000000000000000000000000000000000000000000000600052603260045260246000fd5b906000526020600020015490508060998381548110613a74577f4e487b7100000000000000000000000000000000000000000000000000000000600052603260045260246000fd5b906000526020600020018190555081609a600083815260200190815260200160002081905550609a6000858152602001908152602001600020600090556099805480613ae9577f4e487b7100000000000000000000000000000000000000000000000000000000600052603160045260246000fd5b6001900381819060005260206000200160009055905550505050565b6000613b1083611393565b905081609760008573ffffffffffffffffffffffffffffffffffffffff1673ffffffffffffffffffffffffffffffffffffffff168152602001908152602001600020600083815260200190815260200160002081905550806098600084815260200190815260200160002081905550505050565b600080823b905060008111915050919050565b604051806101800160405280600c90602082028036833780820191505090505090565b82600c8101928215613be9579160200282015b82811115613be8578251825591602001919060010190613bcd565b5b509050613bf69190613cb7565b5090565b604051806060016040528060008152602001600060ff168152602001606081525090565b5080600c0190613c2e9190613cb7565b50565b828054613c3d90614e36565b90600052602060002090601f016020900481019282613c5f5760008555613ca6565b82601f10613c7857805160ff1916838001178555613ca6565b82800160010185558215613ca6579182015b82811115613ca5578251825591602001919060010190613c8a565b5b509050613cb39190613cb7565b5090565b5b80821115613cd0576000816000905550600101613cb8565b5090565b6000613ce7613ce284614b9c565b614b77565b905082815260208101848484011115613cff57600080fd5b613d0a848285614df4565b509392505050565b6000613d25613d2084614bcd565b614b77565b905082815260208101848484011115613d3d57600080fd5b613d48848285614e03565b509392505050565b600081359050613d5f816157a1565b92915050565b600081359050613d74816157b8565b92915050565b600081359050613d89816157cf565b92915050565b600081519050613d9e816157cf565b92915050565b600082601f830112613db557600080fd5b8135613dc5848260208601613cd4565b91505092915050565b600082601f830112613ddf57600080fd5b8151613def848260208601613d12565b91505092915050565b600081359050613e07816157e6565b92915050565b600060208284031215613e1f57600080fd5b6000613e2d84828501613d50565b91505092915050565b60008060408385031215613e4957600080fd5b6000613e5785828601613d50565b9250506020613e6885828601613d50565b9150509250929050565b600080600060608486031215613e8757600080fd5b6000613e9586828701613d50565b9350506020613ea686828701613d50565b9250506040613eb786828701613df8565b9150509250925092565b60008060008060808587031215613ed757600080fd5b6000613ee587828801613d50565b9450506020613ef687828801613d50565b9350506040613f0787828801613df8565b925050606085013567ffffffffffffffff811115613f2457600080fd5b613f3087828801613da4565b91505092959194509250565b60008060408385031215613f4f57600080fd5b6000613f5d85828601613d50565b9250506020613f6e85828601613d65565b9150509250929050565b60008060408385031215613f8b57600080fd5b6000613f9985828601613d50565b9250506020613faa85828601613df8565b9150509250929050565b600060208284031215613fc657600080fd5b6000613fd484828501613d7a565b91505092915050565b600060208284031215613fef57600080fd5b6000613ffd84828501613d8f565b91505092915050565b60006020828403121561401857600080fd5b600082015167ffffffffffffffff81111561403257600080fd5b61403e84828501613dce565b91505092915050565b60006020828403121561405957600080fd5b600061406784828501613df8565b91505092915050565b6000806040838503121561408357600080fd5b600061409185828601613df8565b92505060206140a285828601613d50565b9150509250929050565b60006140b8838361464f565b905092915050565b60006140cc838361469f565b60208301905092915050565b6140e181614d73565b82525050565b60006140f282614c18565b6140fc8185614c5e565b93508360208202850161410e85614bfe565b8060005b8581101561414a578484038952815161412b85826140ac565b945061413683614c44565b925060208a01995050600181019050614112565b50829750879550505050505092915050565b61416581614c23565b61416f8184614c6f565b925061417a82614c0e565b8060005b838110156141ab57815161419287826140c0565b965061419d83614c51565b92505060018101905061417e565b505050505050565b6141bc81614d85565b82525050565b60006141cd82614c2e565b6141d78185614c7a565b93506141e7818560208601614e03565b6141f081614ff9565b840191505092915050565b600061420682614c39565b6142108185614c8b565b9350614220818560208601614e03565b61422981614ff9565b840191505092915050565b600061423f82614c39565b6142498185614c9c565b9350614259818560208601614e03565b61426281614ff9565b840191505092915050565b600061427882614c39565b6142828185614cad565b9350614292818560208601614e03565b80840191505092915050565b60006142ab601383614c9c565b91506142b68261500a565b602082019050919050565b60006142ce603d83614c9c565b91506142d982615033565b604082019050919050565b60006142f1602b83614c9c565b91506142fc82615082565b604082019050919050565b6000614314603283614c9c565b915061431f826150d1565b604082019050919050565b6000614337602683614c9c565b915061434282615120565b604082019050919050565b600061435a601c83614c9c565b91506143658261516f565b602082019050919050565b600061437d602483614c9c565b915061438882615198565b604082019050919050565b60006143a0601983614c9c565b91506143ab826151e7565b602082019050919050565b60006143c3602c83614c9c565b91506143ce82615210565b604082019050919050565b60006143e6603883614c9c565b91506143f18261525f565b604082019050919050565b6000614409602a83614c9c565b9150614414826152ae565b604082019050919050565b600061442c602983614c9c565b9150614437826152fd565b604082019050919050565b600061444f602e83614c9c565b915061445a8261534c565b604082019050919050565b6000614472602683614c9c565b915061447d8261539b565b604082019050919050565b6000614495602083614c9c565b91506144a0826153ea565b602082019050919050565b60006144b8602183614c9c565b91506144c382615413565b604082019050919050565b60006144db602c83614c9c565b91506144e682615462565b604082019050919050565b60006144fe602f83614c9c565b9150614509826154b1565b604082019050919050565b6000614521602083614c9c565b915061452c82615500565b602082019050919050565b6000614544602983614c9c565b915061454f82615529565b604082019050919050565b6000614567602f83614c9c565b915061457282615578565b604082019050919050565b600061458a602183614c9c565b9150614595826155c7565b604082019050919050565b60006145ad603083614c9c565b91506145b882615616565b604082019050919050565b60006145d0603183614c9c565b91506145db82615665565b604082019050919050565b60006145f3602c83614c9c565b91506145fe826156b4565b604082019050919050565b6000614616602d83614c9c565b915061462182615703565b604082019050919050565b6000614639603b83614c9c565b915061464482615752565b604082019050919050565b6000606083016000830151614667600086018261469f565b50602083015161467a60208601826146bd565b506040830151848203604086015261469282826141fb565b9150508091505092915050565b6146a881614ddd565b82525050565b6146b781614ddd565b82525050565b6146c681614de7565b82525050565b6146d581614de7565b82525050565b60006146e7828561426d565b91506146f3828461426d565b91508190509392505050565b600060208201905061471460008301846140d8565b92915050565b600060808201905061472f60008301876140d8565b61473c60208301866140d8565b61474960408301856146ae565b818103606083015261475b81846141c2565b905095945050505050565b6000602082019050818103600083015261478081846140e7565b905092915050565b60006101808201905061479e600083018461415c565b92915050565b60006020820190506147b960008301846141b3565b92915050565b600060208201905081810360008301526147d98184614234565b905092915050565b600060208201905081810360008301526147fa8161429e565b9050919050565b6000602082019050818103600083015261481a816142c1565b9050919050565b6000602082019050818103600083015261483a816142e4565b9050919050565b6000602082019050818103600083015261485a81614307565b9050919050565b6000602082019050818103600083015261487a8161432a565b9050919050565b6000602082019050818103600083015261489a8161434d565b9050919050565b600060208201905081810360008301526148ba81614370565b9050919050565b600060208201905081810360008301526148da81614393565b9050919050565b600060208201905081810360008301526148fa816143b6565b9050919050565b6000602082019050818103600083015261491a816143d9565b9050919050565b6000602082019050818103600083015261493a816143fc565b9050919050565b6000602082019050818103600083015261495a8161441f565b9050919050565b6000602082019050818103600083015261497a81614442565b9050919050565b6000602082019050818103600083015261499a81614465565b9050919050565b600060208201905081810360008301526149ba81614488565b9050919050565b600060208201905081810360008301526149da816144ab565b9050919050565b600060208201905081810360008301526149fa816144ce565b9050919050565b60006020820190508181036000830152614a1a816144f1565b9050919050565b60006020820190508181036000830152614a3a81614514565b9050919050565b60006020820190508181036000830152614a5a81614537565b9050919050565b60006020820190508181036000830152614a7a8161455a565b9050919050565b60006020820190508181036000830152614a9a8161457d565b9050919050565b60006020820190508181036000830152614aba816145a0565b9050919050565b60006020820190508181036000830152614ada816145c3565b9050919050565b60006020820190508181036000830152614afa816145e6565b9050919050565b60006020820190508181036000830152614b1a81614609565b9050919050565b60006020820190508181036000830152614b3a8161462c565b9050919050565b6000602082019050614b5660008301846146ae565b92915050565b6000602082019050614b7160008301846146cc565b92915050565b6000614b81614b92565b9050614b8d8282614e68565b919050565b6000604051905090565b600067ffffffffffffffff821115614bb757614bb6614fca565b5b614bc082614ff9565b9050602081019050919050565b600067ffffffffffffffff821115614be857614be7614fca565b5b614bf182614ff9565b9050602081019050919050565b6000819050602082019050919050565b6000819050919050565b600081519050919050565b6000600c9050919050565b600081519050919050565b600081519050919050565b6000602082019050919050565b6000602082019050919050565b600082825260208201905092915050565b600081905092915050565b600082825260208201905092915050565b600082825260208201905092915050565b600082825260208201905092915050565b600081905092915050565b6000614cc382614ddd565b9150614cce83614ddd565b9250827fffffffffffffffffffffffffffffffffffffffffffffffffffffffffffffffff03821115614d0357614d02614f3d565b5b828201905092915050565b6000614d1982614ddd565b9150614d2483614ddd565b925082614d3457614d33614f6c565b5b828204905092915050565b6000614d4a82614ddd565b9150614d5583614ddd565b925082821015614d6857614d67614f3d565b5b828203905092915050565b6000614d7e82614dbd565b9050919050565b60008115159050919050565b60007fffffffff0000000000000000000000000000000000000000000000000000000082169050919050565b600073ffffffffffffffffffffffffffffffffffffffff82169050919050565b6000819050919050565b600060ff82169050919050565b82818337600083830152505050565b60005b83811015614e21578082015181840152602081019050614e06565b83811115614e30576000848401525b50505050565b60006002820490506001821680614e4e57607f821691505b60208210811415614e6257614e61614f9b565b5b50919050565b614e7182614ff9565b810181811067ffffffffffffffff82111715614e9057614e8f614fca565b5b80604052505050565b6000614ea482614ddd565b91507fffffffffffffffffffffffffffffffffffffffffffffffffffffffffffffffff821415614ed757614ed6614f3d565b5b600182019050919050565b6000614eed82614de7565b915060ff821415614f0157614f00614f3d565b5b600182019050919050565b6000614f1782614ddd565b9150614f2283614ddd565b925082614f3257614f31614f6c565b5b828206905092915050565b7f4e487b7100000000000000000000000000000000000000000000000000000000600052601160045260246000fd5b7f4e487b7100000000000000000000000000000000000000000000000000000000600052601260045260246000fd5b7f4e487b7100000000000000000000000000000000000000000000000000000000600052602260045260246000fd5b7f4e487b7100000000000000000000000000000000000000000000000000000000600052604160045260246000fd5b6000601f19601f8301169050919050565b7f546f6b656e20646f65736e277420657869737400000000000000000000000000600082015250565b7f4f6e6c792074686520706172656e74204e4654696d65736861726520636f6e7460008201527f726163742063616e206d696e742054696d6573686172654d6f6e746873000000602082015250565b7f455243373231456e756d657261626c653a206f776e657220696e646578206f7560008201527f74206f6620626f756e6473000000000000000000000000000000000000000000602082015250565b7f4552433732313a207472616e7366657220746f206e6f6e20455243373231526560008201527f63656976657220696d706c656d656e7465720000000000000000000000000000602082015250565b7f4f776e61626c653a206e6577206f776e657220697320746865207a65726f206160008201527f6464726573730000000000000000000000000000000000000000000000000000602082015250565b7f4552433732313a20746f6b656e20616c7265616479206d696e74656400000000600082015250565b7f4552433732313a207472616e7366657220746f20746865207a65726f2061646460008201527f7265737300000000000000000000000000000000000000000000000000000000602082015250565b7f4552433732313a20617070726f766520746f2063616c6c657200000000000000600082015250565b7f4552433732313a206f70657261746f7220717565727920666f72206e6f6e657860008201527f697374656e7420746f6b656e0000000000000000000000000000000000000000602082015250565b7f4552433732313a20617070726f76652063616c6c6572206973206e6f74206f7760008201527f6e6572206e6f7220617070726f76656420666f7220616c6c0000000000000000602082015250565b7f4552433732313a2062616c616e636520717565727920666f7220746865207a6560008201527f726f206164647265737300000000000000000000000000000000000000000000602082015250565b7f4552433732313a206f776e657220717565727920666f72206e6f6e657869737460008201527f656e7420746f6b656e0000000000000000000000000000000000000000000000602082015250565b7f496e697469616c697a61626c653a20636f6e747261637420697320616c72656160008201527f647920696e697469616c697a6564000000000000000000000000000000000000602082015250565b7f4e6f2054696d6573686172654d6f6e74687320746f206275726e20666f72207460008201527f6f6b656e49640000000000000000000000000000000000000000000000000000602082015250565b7f4552433732313a206d696e7420746f20746865207a65726f2061646472657373600082015250565b7f6d6f6e746820717565727920666f72206e6f6e6578697374656e7420746f6b6560008201527f6e00000000000000000000000000000000000000000000000000000000000000602082015250565b7f4552433732313a20617070726f76656420717565727920666f72206e6f6e657860008201527f697374656e7420746f6b656e0000000000000000000000000000000000000000602082015250565b7f46756e6374696f6e2063616e206f6e6c792062652063616c6c6564206279207060008201527f6172656e742054696d6573686172650000000000000000000000000000000000602082015250565b7f4f776e61626c653a2063616c6c6572206973206e6f7420746865206f776e6572600082015250565b7f4552433732313a207472616e73666572206f6620746f6b656e2074686174206960008201527f73206e6f74206f776e0000000000000000000000000000000000000000000000602082015250565b7f4552433732314d657461646174613a2055524920717565727920666f72206e6f60008201527f6e6578697374656e7420746f6b656e0000000000000000000000000000000000602082015250565b7f4552433732313a20617070726f76616c20746f2063757272656e74206f776e6560008201527f7200000000000000000000000000000000000000000000000000000000000000602082015250565b7f52656465656d3a2053656e6465722063616e2774206f70657261746520616c6c60008201527f2054696d6573686172654d6f6e74687300000000000000000000000000000000602082015250565b7f4552433732313a207472616e736665722063616c6c6572206973206e6f74206f60008201527f776e6572206e6f7220617070726f766564000000000000000000000000000000602082015250565b7f455243373231456e756d657261626c653a20676c6f62616c20696e646578206f60008201527f7574206f6620626f756e64730000000000000000000000000000000000000000602082015250565b7f4e4654696d65736861726520636f6e747261637420616464726573732068617360008201527f206e6f74206265656e2073657400000000000000000000000000000000000000602082015250565b7f54696d6573686172654d6f6e746820746f6b656e5552493a2054696d6573686160008201527f726520636f6e7472616374206861736e2774206265656e207365740000000000602082015250565b6157aa81614d73565b81146157b557600080fd5b50565b6157c181614d85565b81146157cc57600080fd5b50565b6157d881614d91565b81146157e357600080fd5b50565b6157ef81614ddd565b81146157fa57600080fd5b5056fe687474703a2f2f7777772e6e6674696d657368617265732e66756e2f74696d6573686172656d6f6e74682fa26469706673582212204a689977bcba032c22aaeab494f9a200e7a8e65e8db9c31e82eb33843d2791cc64736f6c63430008040033",
  "linkReferences": {},
  "deployedLinkReferences": {}
}