{
  "_format": "hh-sol-artifact-1",
  "contractName": "NFTimeshareMonth",
  "sourceName": "contracts/NFTimeshareMonth.sol",
  "abi": [
    {
      "anonymous": false,
      "inputs": [
        {
          "indexed": true,
          "internalType": "address",
          "name": "owner",
          "type": "address"
        },
        {
          "indexed": true,
          "internalType": "address",
          "name": "approved",
          "type": "address"
        },
        {
          "indexed": true,
          "internalType": "uint256",
          "name": "tokenId",
          "type": "uint256"
        }
      ],
      "name": "Approval",
      "type": "event"
    },
    {
      "anonymous": false,
      "inputs": [
        {
          "indexed": true,
          "internalType": "address",
          "name": "owner",
          "type": "address"
        },
        {
          "indexed": true,
          "internalType": "address",
          "name": "operator",
          "type": "address"
        },
        {
          "indexed": false,
          "internalType": "bool",
          "name": "approved",
          "type": "bool"
        }
      ],
      "name": "ApprovalForAll",
      "type": "event"
    },
    {
      "anonymous": false,
      "inputs": [
        {
          "indexed": true,
          "internalType": "address",
          "name": "previousOwner",
          "type": "address"
        },
        {
          "indexed": true,
          "internalType": "address",
          "name": "newOwner",
          "type": "address"
        }
      ],
      "name": "OwnershipTransferred",
      "type": "event"
    },
    {
      "anonymous": false,
      "inputs": [
        {
          "indexed": true,
          "internalType": "address",
          "name": "from",
          "type": "address"
        },
        {
          "indexed": true,
          "internalType": "address",
          "name": "to",
          "type": "address"
        },
        {
          "indexed": true,
          "internalType": "uint256",
          "name": "tokenId",
          "type": "uint256"
        }
      ],
      "name": "Transfer",
      "type": "event"
    },
    {
      "inputs": [
        {
          "internalType": "address",
          "name": "to",
          "type": "address"
        },
        {
          "internalType": "uint256",
          "name": "tokenId",
          "type": "uint256"
        }
      ],
      "name": "approve",
      "outputs": [],
      "stateMutability": "nonpayable",
      "type": "function"
    },
    {
      "inputs": [
        {
          "internalType": "address",
          "name": "owner",
          "type": "address"
        }
      ],
      "name": "balanceOf",
      "outputs": [
        {
          "internalType": "uint256",
          "name": "",
          "type": "uint256"
        }
      ],
      "stateMutability": "view",
      "type": "function"
    },
    {
      "inputs": [
        {
          "internalType": "address",
          "name": "spender",
          "type": "address"
        },
        {
          "internalType": "uint256",
          "name": "timeshareTokenId",
          "type": "uint256"
        }
      ],
      "name": "burnTimeshareMonthsFor",
      "outputs": [],
      "stateMutability": "nonpayable",
      "type": "function"
    },
    {
      "inputs": [
        {
          "internalType": "uint256",
          "name": "tokenId",
          "type": "uint256"
        }
      ],
      "name": "getApproved",
      "outputs": [
        {
          "internalType": "address",
          "name": "",
          "type": "address"
        }
      ],
      "stateMutability": "view",
      "type": "function"
    },
    {
      "inputs": [],
      "name": "getNFTimeshareAddress",
      "outputs": [
        {
          "internalType": "address",
          "name": "",
          "type": "address"
        }
      ],
      "stateMutability": "view",
      "type": "function"
    },
    {
      "inputs": [
        {
          "internalType": "uint256",
          "name": "timeshareMonthTokenId",
          "type": "uint256"
        }
      ],
      "name": "getParentTimeshare",
      "outputs": [
        {
          "internalType": "uint256",
          "name": "",
          "type": "uint256"
        }
      ],
      "stateMutability": "view",
      "type": "function"
    },
    {
      "inputs": [
        {
          "internalType": "uint256",
          "name": "timeshareTokenId",
          "type": "uint256"
        }
      ],
      "name": "getTimeshareMonths",
      "outputs": [
        {
          "internalType": "uint256[12]",
          "name": "",
          "type": "uint256[12]"
        }
      ],
      "stateMutability": "view",
      "type": "function"
    },
    {
      "inputs": [],
      "name": "initialize",
      "outputs": [],
      "stateMutability": "nonpayable",
      "type": "function"
    },
    {
      "inputs": [
        {
          "internalType": "address",
          "name": "owner",
          "type": "address"
        },
        {
          "internalType": "address",
          "name": "operator",
          "type": "address"
        }
      ],
      "name": "isApprovedForAll",
      "outputs": [
        {
          "internalType": "bool",
          "name": "",
          "type": "bool"
        }
      ],
      "stateMutability": "view",
      "type": "function"
    },
    {
      "inputs": [
        {
          "internalType": "address",
          "name": "spender",
          "type": "address"
        },
        {
          "internalType": "uint256",
          "name": "timeshareTokenId",
          "type": "uint256"
        }
      ],
      "name": "isApprovedForAllMonths",
      "outputs": [
        {
          "internalType": "bool",
          "name": "",
          "type": "bool"
        }
      ],
      "stateMutability": "view",
      "type": "function"
    },
    {
      "inputs": [
        {
          "internalType": "uint256",
          "name": "timeshareTokenId",
          "type": "uint256"
        },
        {
          "internalType": "address",
          "name": "to",
          "type": "address"
        }
      ],
      "name": "makeTimesharesFor",
      "outputs": [],
      "stateMutability": "nonpayable",
      "type": "function"
    },
    {
      "inputs": [
        {
          "internalType": "uint256",
          "name": "tokenId",
          "type": "uint256"
        }
      ],
      "name": "month",
      "outputs": [
        {
          "internalType": "uint8",
          "name": "",
          "type": "uint8"
        }
      ],
      "stateMutability": "view",
      "type": "function"
    },
    {
      "inputs": [],
      "name": "name",
      "outputs": [
        {
          "internalType": "string",
          "name": "",
          "type": "string"
        }
      ],
      "stateMutability": "view",
      "type": "function"
    },
    {
      "inputs": [],
      "name": "owner",
      "outputs": [
        {
          "internalType": "address",
          "name": "",
          "type": "address"
        }
      ],
      "stateMutability": "view",
      "type": "function"
    },
    {
      "inputs": [
        {
          "internalType": "uint256",
          "name": "tokenId",
          "type": "uint256"
        }
      ],
      "name": "ownerOf",
      "outputs": [
        {
          "internalType": "address",
          "name": "",
          "type": "address"
        }
      ],
      "stateMutability": "view",
      "type": "function"
    },
    {
      "inputs": [],
      "name": "renounceOwnership",
      "outputs": [],
      "stateMutability": "nonpayable",
      "type": "function"
    },
    {
      "inputs": [
        {
          "internalType": "address",
          "name": "from",
          "type": "address"
        },
        {
          "internalType": "address",
          "name": "to",
          "type": "address"
        },
        {
          "internalType": "uint256",
          "name": "tokenId",
          "type": "uint256"
        }
      ],
      "name": "safeTransferFrom",
      "outputs": [],
      "stateMutability": "nonpayable",
      "type": "function"
    },
    {
      "inputs": [
        {
          "internalType": "address",
          "name": "from",
          "type": "address"
        },
        {
          "internalType": "address",
          "name": "to",
          "type": "address"
        },
        {
          "internalType": "uint256",
          "name": "tokenId",
          "type": "uint256"
        },
        {
          "internalType": "bytes",
          "name": "_data",
          "type": "bytes"
        }
      ],
      "name": "safeTransferFrom",
      "outputs": [],
      "stateMutability": "nonpayable",
      "type": "function"
    },
    {
      "inputs": [
        {
          "internalType": "address",
          "name": "operator",
          "type": "address"
        },
        {
          "internalType": "bool",
          "name": "approved",
          "type": "bool"
        }
      ],
      "name": "setApprovalForAll",
      "outputs": [],
      "stateMutability": "nonpayable",
      "type": "function"
    },
    {
      "inputs": [
        {
          "internalType": "address",
          "name": "addr",
          "type": "address"
        }
      ],
      "name": "setNFTimeshareAddress",
      "outputs": [],
      "stateMutability": "nonpayable",
      "type": "function"
    },
    {
      "inputs": [
        {
          "internalType": "bytes4",
          "name": "interfaceId",
          "type": "bytes4"
        }
      ],
      "name": "supportsInterface",
      "outputs": [
        {
          "internalType": "bool",
          "name": "",
          "type": "bool"
        }
      ],
      "stateMutability": "view",
      "type": "function"
    },
    {
      "inputs": [],
      "name": "symbol",
      "outputs": [
        {
          "internalType": "string",
          "name": "",
          "type": "string"
        }
      ],
      "stateMutability": "view",
      "type": "function"
    },
    {
      "inputs": [
        {
          "internalType": "uint256",
          "name": "index",
          "type": "uint256"
        }
      ],
      "name": "tokenByIndex",
      "outputs": [
        {
          "internalType": "uint256",
          "name": "",
          "type": "uint256"
        }
      ],
      "stateMutability": "view",
      "type": "function"
    },
    {
      "inputs": [
        {
          "internalType": "address",
          "name": "owner",
          "type": "address"
        },
        {
          "internalType": "uint256",
          "name": "index",
          "type": "uint256"
        }
      ],
      "name": "tokenOfOwnerByIndex",
      "outputs": [
        {
          "internalType": "uint256",
          "name": "",
          "type": "uint256"
        }
      ],
      "stateMutability": "view",
      "type": "function"
    },
    {
      "inputs": [
        {
          "internalType": "uint256",
          "name": "tokenId",
          "type": "uint256"
        }
      ],
      "name": "tokenURI",
      "outputs": [
        {
          "internalType": "string",
          "name": "",
          "type": "string"
        }
      ],
      "stateMutability": "view",
      "type": "function"
    },
    {
      "inputs": [],
      "name": "totalSupply",
      "outputs": [
        {
          "internalType": "uint256",
          "name": "",
          "type": "uint256"
        }
      ],
      "stateMutability": "view",
      "type": "function"
    },
    {
      "inputs": [
        {
          "internalType": "address",
          "name": "from",
          "type": "address"
        },
        {
          "internalType": "address",
          "name": "to",
          "type": "address"
        },
        {
          "internalType": "uint256",
          "name": "tokenId",
          "type": "uint256"
        }
      ],
      "name": "transferFrom",
      "outputs": [],
      "stateMutability": "nonpayable",
      "type": "function"
    },
    {
      "inputs": [
        {
          "internalType": "address",
          "name": "newOwner",
          "type": "address"
        }
      ],
      "name": "transferOwnership",
      "outputs": [],
      "stateMutability": "nonpayable",
      "type": "function"
    },
    {
      "inputs": [
        {
          "internalType": "uint256",
          "name": "tokenId",
          "type": "uint256"
        }
      ],
      "name": "underlyingTokenURI",
      "outputs": [
        {
          "internalType": "string",
          "name": "",
          "type": "string"
        }
      ],
      "stateMutability": "view",
      "type": "function"
    }
  ],
  "bytecode": "0x608060405234801561001057600080fd5b50615528806100206000396000f3fe608060405234801561001057600080fd5b50600436106101cf5760003560e01c80636352211e1161010457806395d89b41116100a2578063b88d4fde11610071578063b88d4fde14610552578063c87b56dd1461056e578063e985e9c51461059e578063f2fde38b146105ce576101cf565b806395d89b41146104b8578063984754fa146104d6578063989620df14610506578063a22cb46514610536576101cf565b8063802b9645116100de578063802b9645146104565780638129fc1c146104745780638d6e1b671461047e5780638da5cb5b1461049a576101cf565b80636352211e146103ec57806370a082311461041c578063715018a61461044c576101cf565b8063286e5508116101715780634be9ea351161014b5780634be9ea35146103405780634f6ccce71461037057806359574c38146103a05780635f9357b8146103d0576101cf565b8063286e5508146102c45780632f745c59146102f457806342842e0e14610324576101cf565b8063081812fc116101ad578063081812fc1461023e578063095ea7b31461026e57806318160ddd1461028a57806323b872dd146102a8576101cf565b806301ffc9a7146101d457806306d64af71461020457806306fdde0314610220575b600080fd5b6101ee60048036038101906101e99190613e0b565b6105ea565b6040516101fb91906144b8565b60405180910390f35b61021e60048036038101906102199190613ec7565b610664565b005b610228610987565b60405161023591906144d3565b60405180910390f35b61025860048036038101906102539190613e9e565b610a19565b6040516102659190614435565b60405180910390f35b61028860048036038101906102839190613dcf565b610a9e565b005b610292610bb6565b60405161029f9190614855565b60405180910390f35b6102c260048036038101906102bd9190613cc9565b610bc3565b005b6102de60048036038101906102d99190613e9e565b610c23565b6040516102eb91906144d3565b60405180910390f35b61030e60048036038101906103099190613dcf565b610e06565b60405161031b9190614855565b60405180910390f35b61033e60048036038101906103399190613cc9565b610eab565b005b61035a60048036038101906103559190613dcf565b610ecb565b60405161036791906144b8565b60405180910390f35b61038a60048036038101906103859190613e9e565b610fa7565b6040516103979190614855565b60405180910390f35b6103ba60048036038101906103b59190613e9e565b61103e565b6040516103c7919061449c565b60405180910390f35b6103ea60048036038101906103e59190613c64565b61109c565b005b61040660048036038101906104019190613e9e565b61115c565b6040516104139190614435565b60405180910390f35b61043660048036038101906104319190613c64565b61120e565b6040516104439190614855565b60405180910390f35b6104546112c6565b005b61045e611403565b60405161046b9190614435565b60405180910390f35b61047c61142d565b005b61049860048036038101906104939190613dcf565b61158a565b005b6104a26118d4565b6040516104af9190614435565b60405180910390f35b6104c06118fe565b6040516104cd91906144d3565b60405180910390f35b6104f060048036038101906104eb9190613e9e565b611990565b6040516104fd9190614855565b60405180910390f35b610520600480360381019061051b9190613e9e565b6119ad565b60405161052d9190614870565b60405180910390f35b610550600480360381019061054b9190613d93565b611bd0565b005b61056c60048036038101906105679190613d18565b611d51565b005b61058860048036038101906105839190613e9e565b611db3565b60405161059591906144d3565b60405180910390f35b6105b860048036038101906105b39190613c8d565b611e5a565b6040516105c591906144b8565b60405180910390f35b6105e860048036038101906105e39190613c64565b611eee565b005b60007f780e9d63000000000000000000000000000000000000000000000000000000007bffffffffffffffffffffffffffffffffffffffffffffffffffffffff1916827bffffffffffffffffffffffffffffffffffffffffffffffffffffffff1916148061065d575061065c8261209a565b5b9050919050565b600073ffffffffffffffffffffffffffffffffffffffff1660fc60009054906101000a900473ffffffffffffffffffffffffffffffffffffffff1673ffffffffffffffffffffffffffffffffffffffff1614156106f6576040517f08c379a00000000000000000000000000000000000000000000000000000000081526004016106ed90614815565b60405180910390fd5b60fc60009054906101000a900473ffffffffffffffffffffffffffffffffffffffff1673ffffffffffffffffffffffffffffffffffffffff163373ffffffffffffffffffffffffffffffffffffffff1614610786576040517f08c379a000000000000000000000000000000000000000000000000000000000815260040161077d90614715565b60405180910390fd5b60fc60009054906101000a900473ffffffffffffffffffffffffffffffffffffffff1673ffffffffffffffffffffffffffffffffffffffff163373ffffffffffffffffffffffffffffffffffffffff1614610816576040517f08c379a000000000000000000000000000000000000000000000000000000000815260040161080d90614515565b60405180910390fd5b61081e613a12565b60005b600c8160ff1610156108f15761083760fb61217c565b61084160fb612192565b828260ff16600c811061087d577f4e487b7100000000000000000000000000000000000000000000000000000000600052603260045260246000fd5b6020020181815250508360fd6000848460ff16600c81106108c7577f4e487b7100000000000000000000000000000000000000000000000000000000600052603260045260246000fd5b602002015181526020019081526020016000208190555080806108e990614bac565b915050610821565b508060fe600085815260200190815260200160002090600c610914929190613a35565b5060005b600c8160ff1610156109815761096e83838360ff16600c8110610964577f4e487b7100000000000000000000000000000000000000000000000000000000600052603260045260246000fd5b60200201516121a0565b808061097990614bac565b915050610918565b50505050565b60606065805461099690614b00565b80601f01602080910402602001604051908101604052809291908181526020018280546109c290614b00565b8015610a0f5780601f106109e457610100808354040283529160200191610a0f565b820191906000526020600020905b8154815290600101906020018083116109f257829003601f168201915b5050505050905090565b6000610a24826121be565b610a63576040517f08c379a0000000000000000000000000000000000000000000000000000000008152600401610a5a906146f5565b60405180910390fd5b6069600083815260200190815260200160002060009054906101000a900473ffffffffffffffffffffffffffffffffffffffff169050919050565b6000610aa98261115c565b90508073ffffffffffffffffffffffffffffffffffffffff168373ffffffffffffffffffffffffffffffffffffffff161415610b1a576040517f08c379a0000000000000000000000000000000000000000000000000000000008152600401610b1190614795565b60405180910390fd5b8073ffffffffffffffffffffffffffffffffffffffff16610b3961222a565b73ffffffffffffffffffffffffffffffffffffffff161480610b685750610b6781610b6261222a565b611e5a565b5b610ba7576040517f08c379a0000000000000000000000000000000000000000000000000000000008152600401610b9e90614615565b60405180910390fd5b610bb18383612232565b505050565b6000609980549050905090565b610bd4610bce61222a565b826122eb565b610c13576040517f08c379a0000000000000000000000000000000000000000000000000000000008152600401610c0a906147d5565b60405180910390fd5b610c1e8383836123c9565b505050565b6060600073ffffffffffffffffffffffffffffffffffffffff1660fc60009054906101000a900473ffffffffffffffffffffffffffffffffffffffff1673ffffffffffffffffffffffffffffffffffffffff161415610cb7576040517f08c379a0000000000000000000000000000000000000000000000000000000008152600401610cae90614835565b60405180910390fd5b610cc0826121be565b610cff576040517f08c379a0000000000000000000000000000000000000000000000000000000008152600401610cf690614775565b60405180910390fd5b600060fd600084815260200190815260200160002054905060008111610d4e577f4e487b7100000000000000000000000000000000000000000000000000000000600052600160045260246000fd5b60fc60009054906101000a900473ffffffffffffffffffffffffffffffffffffffff1673ffffffffffffffffffffffffffffffffffffffff1663286e5508826040518263ffffffff1660e01b8152600401610da99190614855565b60006040518083038186803b158015610dc157600080fd5b505afa158015610dd5573d6000803e3d6000fd5b505050506040513d6000823e3d601f19601f82011682018060405250810190610dfe9190613e5d565b915050919050565b6000610e118361120e565b8210610e52576040517f08c379a0000000000000000000000000000000000000000000000000000000008152600401610e4990614535565b60405180910390fd5b609760008473ffffffffffffffffffffffffffffffffffffffff1673ffffffffffffffffffffffffffffffffffffffff168152602001908152602001600020600083815260200190815260200160002054905092915050565b610ec683838360405180602001604052806000815250611d51565b505050565b60008060fe6000848152602001908152602001600020600c806020026040519081016040528092919082600c8015610f18576020028201915b815481526020019060010190808311610f04575b5050505050905060005b600c8160ff161015610f9a57610f7885838360ff16600c8110610f6e577f4e487b7100000000000000000000000000000000000000000000000000000000600052603260045260246000fd5b60200201516122eb565b610f8757600092505050610fa1565b8080610f9290614bac565b915050610f22565b5060019150505b92915050565b6000610fb1610bb6565b8210610ff2576040517f08c379a0000000000000000000000000000000000000000000000000000000008152600401610fe9906147f5565b60405180910390fd5b6099828154811061102c577f4e487b7100000000000000000000000000000000000000000000000000000000600052603260045260246000fd5b90600052602060002001549050919050565b611046613a12565b60fe6000838152602001908152602001600020600c806020026040519081016040528092919082600c8015611090576020028201915b81548152602001906001019080831161107c575b50505050509050919050565b6110a461222a565b73ffffffffffffffffffffffffffffffffffffffff166110c26118d4565b73ffffffffffffffffffffffffffffffffffffffff1614611118576040517f08c379a000000000000000000000000000000000000000000000000000000000815260040161110f90614735565b60405180910390fd5b8060fc60006101000a81548173ffffffffffffffffffffffffffffffffffffffff021916908373ffffffffffffffffffffffffffffffffffffffff16021790555050565b6000806067600084815260200190815260200160002060009054906101000a900473ffffffffffffffffffffffffffffffffffffffff169050600073ffffffffffffffffffffffffffffffffffffffff168173ffffffffffffffffffffffffffffffffffffffff161415611205576040517f08c379a00000000000000000000000000000000000000000000000000000000081526004016111fc90614655565b60405180910390fd5b80915050919050565b60008073ffffffffffffffffffffffffffffffffffffffff168273ffffffffffffffffffffffffffffffffffffffff16141561127f576040517f08c379a000000000000000000000000000000000000000000000000000000000815260040161127690614635565b60405180910390fd5b606860008373ffffffffffffffffffffffffffffffffffffffff1673ffffffffffffffffffffffffffffffffffffffff168152602001908152602001600020549050919050565b6112ce61222a565b73ffffffffffffffffffffffffffffffffffffffff166112ec6118d4565b73ffffffffffffffffffffffffffffffffffffffff1614611342576040517f08c379a000000000000000000000000000000000000000000000000000000000815260040161133990614735565b60405180910390fd5b600073ffffffffffffffffffffffffffffffffffffffff1660c960009054906101000a900473ffffffffffffffffffffffffffffffffffffffff1673ffffffffffffffffffffffffffffffffffffffff167f8be0079c531659141344cd1fd0a4f28419497f9722a3daafe3b4186f6b6457e060405160405180910390a3600060c960006101000a81548173ffffffffffffffffffffffffffffffffffffffff021916908373ffffffffffffffffffffffffffffffffffffffff160217905550565b600060fc60009054906101000a900473ffffffffffffffffffffffffffffffffffffffff16905090565b600060019054906101000a900460ff1680611453575060008054906101000a900460ff16155b611492576040517f08c379a000000000000000000000000000000000000000000000000000000000815260040161148990614675565b60405180910390fd5b60008060019054906101000a900460ff1615905080156114e2576001600060016101000a81548160ff02191690831515021790555060016000806101000a81548160ff0219169083151502179055505b6115566040518060400160405280600e81526020017f54696d6573686172654d6f6e74680000000000000000000000000000000000008152506040518060400160405280600481526020017f54696d6500000000000000000000000000000000000000000000000000000000815250612625565b61155e61271a565b61156661280b565b80156115875760008060016101000a81548160ff0219169083151502179055505b50565b600073ffffffffffffffffffffffffffffffffffffffff1660fc60009054906101000a900473ffffffffffffffffffffffffffffffffffffffff1673ffffffffffffffffffffffffffffffffffffffff16141561161c576040517f08c379a000000000000000000000000000000000000000000000000000000000815260040161161390614815565b60405180910390fd5b60fc60009054906101000a900473ffffffffffffffffffffffffffffffffffffffff1673ffffffffffffffffffffffffffffffffffffffff163373ffffffffffffffffffffffffffffffffffffffff16146116ac576040517f08c379a00000000000000000000000000000000000000000000000000000000081526004016116a390614715565b60405180910390fd5b600060fe6000838152602001908152602001600020600c806020026040519081016040528092919082600c80156116f8576020028201915b8154815260200190600101908083116116e4575b505050505090506000816000600c811061173b577f4e487b7100000000000000000000000000000000000000000000000000000000600052603260045260246000fd5b60200201511415611781576040517f08c379a000000000000000000000000000000000000000000000000000000000815260040161177890614695565b60405180910390fd5b61178b8383610ecb565b6117ca576040517f08c379a00000000000000000000000000000000000000000000000000000000081526004016117c1906147b5565b60405180910390fd5b60fe600083815260200190815260200160002060006117e99190613a75565b60005b600c8160ff1610156118625760fd6000838360ff16600c8110611838577f4e487b7100000000000000000000000000000000000000000000000000000000600052603260045260246000fd5b6020020151815260200190815260200160002060009055808061185a90614bac565b9150506117ec565b5060005b600c8160ff1610156118ce576118bb828260ff16600c81106118b1577f4e487b7100000000000000000000000000000000000000000000000000000000600052603260045260246000fd5b60200201516128f4565b80806118c690614bac565b915050611866565b50505050565b600060c960009054906101000a900473ffffffffffffffffffffffffffffffffffffffff16905090565b60606066805461190d90614b00565b80601f016020809104026020016040519081016040528092919081815260200182805461193990614b00565b80156119865780601f1061195b57610100808354040283529160200191611986565b820191906000526020600020905b81548152906001019060200180831161196957829003601f168201915b5050505050905090565b600060fd6000838152602001908152602001600020549050919050565b60006119b8826121be565b6119f7576040517f08c379a00000000000000000000000000000000000000000000000000000000081526004016119ee906146d5565b60405180910390fd5b600060fd60008481526020019081526020016000205490506000811415611a53576040517f08c379a0000000000000000000000000000000000000000000000000000000008152600401611a4a906144f5565b60405180910390fd5b600060fe6000838152602001908152602001600020600c806020026040519081016040528092919082600c8015611a9f576020028201915b815481526020019060010190808311611a8b575b5050505050905060005b600c8160ff161015611b9257818160ff16600c8110611af1577f4e487b7100000000000000000000000000000000000000000000000000000000600052603260045260246000fd5b6020020151851415611b0857809350505050611bcb565b6000828260ff16600c8110611b46577f4e487b7100000000000000000000000000000000000000000000000000000000600052603260045260246000fd5b602002015111611b7f577f4e487b7100000000000000000000000000000000000000000000000000000000600052600160045260246000fd5b8080611b8a90614bac565b915050611aa9565b506000611bc8577f4e487b7100000000000000000000000000000000000000000000000000000000600052600160045260246000fd5b50505b919050565b611bd861222a565b73ffffffffffffffffffffffffffffffffffffffff168273ffffffffffffffffffffffffffffffffffffffff161415611c46576040517f08c379a0000000000000000000000000000000000000000000000000000000008152600401611c3d906145d5565b60405180910390fd5b80606a6000611c5361222a565b73ffffffffffffffffffffffffffffffffffffffff1673ffffffffffffffffffffffffffffffffffffffff16815260200190815260200160002060008473ffffffffffffffffffffffffffffffffffffffff1673ffffffffffffffffffffffffffffffffffffffff16815260200190815260200160002060006101000a81548160ff0219169083151502179055508173ffffffffffffffffffffffffffffffffffffffff16611d0061222a565b73ffffffffffffffffffffffffffffffffffffffff167f17307eab39ab6107e8899845ad3d59bd9653f200f220920489ca2b5937696c3183604051611d4591906144b8565b60405180910390a35050565b611d62611d5c61222a565b836122eb565b611da1576040517f08c379a0000000000000000000000000000000000000000000000000000000008152600401611d98906147d5565b60405180910390fd5b611dad84848484612a05565b50505050565b6060611dbe826121be565b611dfd576040517f08c379a0000000000000000000000000000000000000000000000000000000008152600401611df490614775565b60405180910390fd5b6000611e07612a61565b90506000815111611e275760405180602001604052806000815250611e52565b80611e3184612a81565b604051602001611e42929190614411565b6040516020818303038152906040525b915050919050565b6000606a60008473ffffffffffffffffffffffffffffffffffffffff1673ffffffffffffffffffffffffffffffffffffffff16815260200190815260200160002060008373ffffffffffffffffffffffffffffffffffffffff1673ffffffffffffffffffffffffffffffffffffffff16815260200190815260200160002060009054906101000a900460ff16905092915050565b611ef661222a565b73ffffffffffffffffffffffffffffffffffffffff16611f146118d4565b73ffffffffffffffffffffffffffffffffffffffff1614611f6a576040517f08c379a0000000000000000000000000000000000000000000000000000000008152600401611f6190614735565b60405180910390fd5b600073ffffffffffffffffffffffffffffffffffffffff168173ffffffffffffffffffffffffffffffffffffffff161415611fda576040517f08c379a0000000000000000000000000000000000000000000000000000000008152600401611fd190614575565b60405180910390fd5b8073ffffffffffffffffffffffffffffffffffffffff1660c960009054906101000a900473ffffffffffffffffffffffffffffffffffffffff1673ffffffffffffffffffffffffffffffffffffffff167f8be0079c531659141344cd1fd0a4f28419497f9722a3daafe3b4186f6b6457e060405160405180910390a38060c960006101000a81548173ffffffffffffffffffffffffffffffffffffffff021916908373ffffffffffffffffffffffffffffffffffffffff16021790555050565b60007f80ac58cd000000000000000000000000000000000000000000000000000000007bffffffffffffffffffffffffffffffffffffffffffffffffffffffff1916827bffffffffffffffffffffffffffffffffffffffffffffffffffffffff1916148061216557507f5b5e139f000000000000000000000000000000000000000000000000000000007bffffffffffffffffffffffffffffffffffffffffffffffffffffffff1916827bffffffffffffffffffffffffffffffffffffffffffffffffffffffff1916145b80612175575061217482612c2e565b5b9050919050565b6001816000016000828254019250508190555050565b600081600001549050919050565b6121ba828260405180602001604052806000815250612c98565b5050565b60008073ffffffffffffffffffffffffffffffffffffffff166067600084815260200190815260200160002060009054906101000a900473ffffffffffffffffffffffffffffffffffffffff1673ffffffffffffffffffffffffffffffffffffffff1614159050919050565b600033905090565b816069600083815260200190815260200160002060006101000a81548173ffffffffffffffffffffffffffffffffffffffff021916908373ffffffffffffffffffffffffffffffffffffffff160217905550808273ffffffffffffffffffffffffffffffffffffffff166122a58361115c565b73ffffffffffffffffffffffffffffffffffffffff167f8c5be1e5ebec7d5bd14f71427d1e84f3dd0314c0f7b2291e5b200ac8c7c3b92560405160405180910390a45050565b60006122f6826121be565b612335576040517f08c379a000000000000000000000000000000000000000000000000000000000815260040161232c906145f5565b60405180910390fd5b60006123408361115c565b90508073ffffffffffffffffffffffffffffffffffffffff168473ffffffffffffffffffffffffffffffffffffffff1614806123af57508373ffffffffffffffffffffffffffffffffffffffff1661239784610a19565b73ffffffffffffffffffffffffffffffffffffffff16145b806123c057506123bf8185611e5a565b5b91505092915050565b8273ffffffffffffffffffffffffffffffffffffffff166123e98261115c565b73ffffffffffffffffffffffffffffffffffffffff161461243f576040517f08c379a000000000000000000000000000000000000000000000000000000000815260040161243690614755565b60405180910390fd5b600073ffffffffffffffffffffffffffffffffffffffff168273ffffffffffffffffffffffffffffffffffffffff1614156124af576040517f08c379a00000000000000000000000000000000000000000000000000000000081526004016124a6906145b5565b60405180910390fd5b6124ba838383612cf3565b6124c5600082612232565b6001606860008573ffffffffffffffffffffffffffffffffffffffff1673ffffffffffffffffffffffffffffffffffffffff16815260200190815260200160002060008282546125159190614a09565b925050819055506001606860008473ffffffffffffffffffffffffffffffffffffffff1673ffffffffffffffffffffffffffffffffffffffff168152602001908152602001600020600082825461256c9190614982565b92505081905550816067600083815260200190815260200160002060006101000a81548173ffffffffffffffffffffffffffffffffffffffff021916908373ffffffffffffffffffffffffffffffffffffffff160217905550808273ffffffffffffffffffffffffffffffffffffffff168473ffffffffffffffffffffffffffffffffffffffff167fddf252ad1be2c89b69c2b068fc378daa952ba7f163c4a11628f55a4df523b3ef60405160405180910390a4505050565b600060019054906101000a900460ff168061264b575060008054906101000a900460ff16155b61268a576040517f08c379a000000000000000000000000000000000000000000000000000000000815260040161268190614675565b60405180910390fd5b60008060019054906101000a900460ff1615905080156126da576001600060016101000a81548160ff02191690831515021790555060016000806101000a81548160ff0219169083151502179055505b6126e2612e07565b6126ea612ee0565b6126f48383612fb9565b80156127155760008060016101000a81548160ff0219169083151502179055505b505050565b600060019054906101000a900460ff1680612740575060008054906101000a900460ff16155b61277f576040517f08c379a000000000000000000000000000000000000000000000000000000000815260040161277690614675565b60405180910390fd5b60008060019054906101000a900460ff1615905080156127cf576001600060016101000a81548160ff02191690831515021790555060016000806101000a81548160ff0219169083151502179055505b6127d7612e07565b6127df612ee0565b6127e76130c2565b80156128085760008060016101000a81548160ff0219169083151502179055505b50565b600060019054906101000a900460ff1680612831575060008054906101000a900460ff16155b612870576040517f08c379a000000000000000000000000000000000000000000000000000000000815260040161286790614675565b60405180910390fd5b60008060019054906101000a900460ff1615905080156128c0576001600060016101000a81548160ff02191690831515021790555060016000806101000a81548160ff0219169083151502179055505b6128c8612e07565b6128d061319b565b80156128f15760008060016101000a81548160ff0219169083151502179055505b50565b60006128ff8261115c565b905061290d81600084612cf3565b612918600083612232565b6001606860008373ffffffffffffffffffffffffffffffffffffffff1673ffffffffffffffffffffffffffffffffffffffff16815260200190815260200160002060008282546129689190614a09565b925050819055506067600083815260200190815260200160002060006101000a81549073ffffffffffffffffffffffffffffffffffffffff021916905581600073ffffffffffffffffffffffffffffffffffffffff168273ffffffffffffffffffffffffffffffffffffffff167fddf252ad1be2c89b69c2b068fc378daa952ba7f163c4a11628f55a4df523b3ef60405160405180910390a45050565b612a108484846123c9565b612a1c8484848461331d565b612a5b576040517f08c379a0000000000000000000000000000000000000000000000000000000008152600401612a5290614555565b60405180910390fd5b50505050565b60606040518060600160405280602b81526020016154c8602b9139905090565b60606000821415612ac9576040518060400160405280600181526020017f30000000000000000000000000000000000000000000000000000000000000008152509050612c29565b600082905060005b60008214612afb578080612ae490614b63565b915050600a82612af491906149d8565b9150612ad1565b60008167ffffffffffffffff811115612b3d577f4e487b7100000000000000000000000000000000000000000000000000000000600052604160045260246000fd5b6040519080825280601f01601f191660200182016040528015612b6f5781602001600182028036833780820191505090505b5090505b60008514612c2257600182612b889190614a09565b9150600a85612b979190614bd6565b6030612ba39190614982565b60f81b818381518110612bdf577f4e487b7100000000000000000000000000000000000000000000000000000000600052603260045260246000fd5b60200101907effffffffffffffffffffffffffffffffffffffffffffffffffffffffffffff1916908160001a905350600a85612c1b91906149d8565b9450612b73565b8093505050505b919050565b60007f01ffc9a7000000000000000000000000000000000000000000000000000000007bffffffffffffffffffffffffffffffffffffffffffffffffffffffff1916827bffffffffffffffffffffffffffffffffffffffffffffffffffffffff1916149050919050565b612ca283836134b4565b612caf600084848461331d565b612cee576040517f08c379a0000000000000000000000000000000000000000000000000000000008152600401612ce590614555565b60405180910390fd5b505050565b612cfe838383613682565b600073ffffffffffffffffffffffffffffffffffffffff168373ffffffffffffffffffffffffffffffffffffffff161415612d4157612d3c81613687565b612d80565b8173ffffffffffffffffffffffffffffffffffffffff168373ffffffffffffffffffffffffffffffffffffffff1614612d7f57612d7e83826136d0565b5b5b600073ffffffffffffffffffffffffffffffffffffffff168273ffffffffffffffffffffffffffffffffffffffff161415612dc357612dbe8161383d565b612e02565b8273ffffffffffffffffffffffffffffffffffffffff168273ffffffffffffffffffffffffffffffffffffffff1614612e0157612e008282613980565b5b5b505050565b600060019054906101000a900460ff1680612e2d575060008054906101000a900460ff16155b612e6c576040517f08c379a0000000000000000000000000000000000000000000000000000000008152600401612e6390614675565b60405180910390fd5b60008060019054906101000a900460ff161590508015612ebc576001600060016101000a81548160ff02191690831515021790555060016000806101000a81548160ff0219169083151502179055505b8015612edd5760008060016101000a81548160ff0219169083151502179055505b50565b600060019054906101000a900460ff1680612f06575060008054906101000a900460ff16155b612f45576040517f08c379a0000000000000000000000000000000000000000000000000000000008152600401612f3c90614675565b60405180910390fd5b60008060019054906101000a900460ff161590508015612f95576001600060016101000a81548160ff02191690831515021790555060016000806101000a81548160ff0219169083151502179055505b8015612fb65760008060016101000a81548160ff0219169083151502179055505b50565b600060019054906101000a900460ff1680612fdf575060008054906101000a900460ff16155b61301e576040517f08c379a000000000000000000000000000000000000000000000000000000000815260040161301590614675565b60405180910390fd5b60008060019054906101000a900460ff16159050801561306e576001600060016101000a81548160ff02191690831515021790555060016000806101000a81548160ff0219169083151502179055505b8260659080519060200190613084929190613a88565b50816066908051906020019061309b929190613a88565b5080156130bd5760008060016101000a81548160ff0219169083151502179055505b505050565b600060019054906101000a900460ff16806130e8575060008054906101000a900460ff16155b613127576040517f08c379a000000000000000000000000000000000000000000000000000000000815260040161311e90614675565b60405180910390fd5b60008060019054906101000a900460ff161590508015613177576001600060016101000a81548160ff02191690831515021790555060016000806101000a81548160ff0219169083151502179055505b80156131985760008060016101000a81548160ff0219169083151502179055505b50565b600060019054906101000a900460ff16806131c1575060008054906101000a900460ff16155b613200576040517f08c379a00000000000000000000000000000000000000000000000000000000081526004016131f790614675565b60405180910390fd5b60008060019054906101000a900460ff161590508015613250576001600060016101000a81548160ff02191690831515021790555060016000806101000a81548160ff0219169083151502179055505b600061325a61222a565b90508060c960006101000a81548173ffffffffffffffffffffffffffffffffffffffff021916908373ffffffffffffffffffffffffffffffffffffffff1602179055508073ffffffffffffffffffffffffffffffffffffffff16600073ffffffffffffffffffffffffffffffffffffffff167f8be0079c531659141344cd1fd0a4f28419497f9722a3daafe3b4186f6b6457e060405160405180910390a350801561331a5760008060016101000a81548160ff0219169083151502179055505b50565b600061333e8473ffffffffffffffffffffffffffffffffffffffff166139ff565b156134a7578373ffffffffffffffffffffffffffffffffffffffff1663150b7a0261336761222a565b8786866040518563ffffffff1660e01b81526004016133899493929190614450565b602060405180830381600087803b1580156133a357600080fd5b505af19250505080156133d457506040513d601f19601f820116820180604052508101906133d19190613e34565b60015b613457573d8060008114613404576040519150601f19603f3d011682016040523d82523d6000602084013e613409565b606091505b5060008151141561344f576040517f08c379a000000000000000000000000000000000000000000000000000000000815260040161344690614555565b60405180910390fd5b805181602001fd5b63150b7a0260e01b7bffffffffffffffffffffffffffffffffffffffffffffffffffffffff1916817bffffffffffffffffffffffffffffffffffffffffffffffffffffffff1916149150506134ac565b600190505b949350505050565b600073ffffffffffffffffffffffffffffffffffffffff168273ffffffffffffffffffffffffffffffffffffffff161415613524576040517f08c379a000000000000000000000000000000000000000000000000000000000815260040161351b906146b5565b60405180910390fd5b61352d816121be565b1561356d576040517f08c379a000000000000000000000000000000000000000000000000000000000815260040161356490614595565b60405180910390fd5b61357960008383612cf3565b6001606860008473ffffffffffffffffffffffffffffffffffffffff1673ffffffffffffffffffffffffffffffffffffffff16815260200190815260200160002060008282546135c99190614982565b92505081905550816067600083815260200190815260200160002060006101000a81548173ffffffffffffffffffffffffffffffffffffffff021916908373ffffffffffffffffffffffffffffffffffffffff160217905550808273ffffffffffffffffffffffffffffffffffffffff16600073ffffffffffffffffffffffffffffffffffffffff167fddf252ad1be2c89b69c2b068fc378daa952ba7f163c4a11628f55a4df523b3ef60405160405180910390a45050565b505050565b609980549050609a600083815260200190815260200160002081905550609981908060018154018082558091505060019003906000526020600020016000909190919091505550565b600060016136dd8461120e565b6136e79190614a09565b90506000609860008481526020019081526020016000205490508181146137cc576000609760008673ffffffffffffffffffffffffffffffffffffffff1673ffffffffffffffffffffffffffffffffffffffff168152602001908152602001600020600084815260200190815260200160002054905080609760008773ffffffffffffffffffffffffffffffffffffffff1673ffffffffffffffffffffffffffffffffffffffff168152602001908152602001600020600084815260200190815260200160002081905550816098600083815260200190815260200160002081905550505b6098600084815260200190815260200160002060009055609760008573ffffffffffffffffffffffffffffffffffffffff1673ffffffffffffffffffffffffffffffffffffffff16815260200190815260200160002060008381526020019081526020016000206000905550505050565b600060016099805490506138519190614a09565b90506000609a60008481526020019081526020016000205490506000609983815481106138a7577f4e487b7100000000000000000000000000000000000000000000000000000000600052603260045260246000fd5b9060005260206000200154905080609983815481106138ef577f4e487b7100000000000000000000000000000000000000000000000000000000600052603260045260246000fd5b906000526020600020018190555081609a600083815260200190815260200160002081905550609a6000858152602001908152602001600020600090556099805480613964577f4e487b7100000000000000000000000000000000000000000000000000000000600052603160045260246000fd5b6001900381819060005260206000200160009055905550505050565b600061398b8361120e565b905081609760008573ffffffffffffffffffffffffffffffffffffffff1673ffffffffffffffffffffffffffffffffffffffff168152602001908152602001600020600083815260200190815260200160002081905550806098600084815260200190815260200160002081905550505050565b600080823b905060008111915050919050565b604051806101800160405280600c90602082028036833780820191505090505090565b82600c8101928215613a64579160200282015b82811115613a63578251825591602001919060010190613a48565b5b509050613a719190613b0e565b5090565b5080600c0190613a859190613b0e565b50565b828054613a9490614b00565b90600052602060002090601f016020900481019282613ab65760008555613afd565b82601f10613acf57805160ff1916838001178555613afd565b82800160010185558215613afd579182015b82811115613afc578251825591602001919060010190613ae1565b5b509050613b0a9190613b0e565b5090565b5b80821115613b27576000816000905550600101613b0f565b5090565b6000613b3e613b39846148b0565b61488b565b905082815260208101848484011115613b5657600080fd5b613b61848285614abe565b509392505050565b6000613b7c613b77846148e1565b61488b565b905082815260208101848484011115613b9457600080fd5b613b9f848285614acd565b509392505050565b600081359050613bb68161546b565b92915050565b600081359050613bcb81615482565b92915050565b600081359050613be081615499565b92915050565b600081519050613bf581615499565b92915050565b600082601f830112613c0c57600080fd5b8135613c1c848260208601613b2b565b91505092915050565b600082601f830112613c3657600080fd5b8151613c46848260208601613b69565b91505092915050565b600081359050613c5e816154b0565b92915050565b600060208284031215613c7657600080fd5b6000613c8484828501613ba7565b91505092915050565b60008060408385031215613ca057600080fd5b6000613cae85828601613ba7565b9250506020613cbf85828601613ba7565b9150509250929050565b600080600060608486031215613cde57600080fd5b6000613cec86828701613ba7565b9350506020613cfd86828701613ba7565b9250506040613d0e86828701613c4f565b9150509250925092565b60008060008060808587031215613d2e57600080fd5b6000613d3c87828801613ba7565b9450506020613d4d87828801613ba7565b9350506040613d5e87828801613c4f565b925050606085013567ffffffffffffffff811115613d7b57600080fd5b613d8787828801613bfb565b91505092959194509250565b60008060408385031215613da657600080fd5b6000613db485828601613ba7565b9250506020613dc585828601613bbc565b9150509250929050565b60008060408385031215613de257600080fd5b6000613df085828601613ba7565b9250506020613e0185828601613c4f565b9150509250929050565b600060208284031215613e1d57600080fd5b6000613e2b84828501613bd1565b91505092915050565b600060208284031215613e4657600080fd5b6000613e5484828501613be6565b91505092915050565b600060208284031215613e6f57600080fd5b600082015167ffffffffffffffff811115613e8957600080fd5b613e9584828501613c25565b91505092915050565b600060208284031215613eb057600080fd5b6000613ebe84828501613c4f565b91505092915050565b60008060408385031215613eda57600080fd5b6000613ee885828601613c4f565b9250506020613ef985828601613ba7565b9150509250929050565b6000613f0f83836143e4565b60208301905092915050565b613f2481614a3d565b82525050565b613f338161491c565b613f3d818461494a565b9250613f4882614912565b8060005b83811015613f79578151613f608782613f03565b9650613f6b8361493d565b925050600181019050613f4c565b505050505050565b613f8a81614a4f565b82525050565b6000613f9b82614927565b613fa58185614955565b9350613fb5818560208601614acd565b613fbe81614cc3565b840191505092915050565b6000613fd482614932565b613fde8185614966565b9350613fee818560208601614acd565b613ff781614cc3565b840191505092915050565b600061400d82614932565b6140178185614977565b9350614027818560208601614acd565b80840191505092915050565b6000614040601383614966565b915061404b82614cd4565b602082019050919050565b6000614063603d83614966565b915061406e82614cfd565b604082019050919050565b6000614086602b83614966565b915061409182614d4c565b604082019050919050565b60006140a9603283614966565b91506140b482614d9b565b604082019050919050565b60006140cc602683614966565b91506140d782614dea565b604082019050919050565b60006140ef601c83614966565b91506140fa82614e39565b602082019050919050565b6000614112602483614966565b915061411d82614e62565b604082019050919050565b6000614135601983614966565b915061414082614eb1565b602082019050919050565b6000614158602c83614966565b915061416382614eda565b604082019050919050565b600061417b603883614966565b915061418682614f29565b604082019050919050565b600061419e602a83614966565b91506141a982614f78565b604082019050919050565b60006141c1602983614966565b91506141cc82614fc7565b604082019050919050565b60006141e4602e83614966565b91506141ef82615016565b604082019050919050565b6000614207602683614966565b915061421282615065565b604082019050919050565b600061422a602083614966565b9150614235826150b4565b602082019050919050565b600061424d602183614966565b9150614258826150dd565b604082019050919050565b6000614270602c83614966565b915061427b8261512c565b604082019050919050565b6000614293602f83614966565b915061429e8261517b565b604082019050919050565b60006142b6602083614966565b91506142c1826151ca565b602082019050919050565b60006142d9602983614966565b91506142e4826151f3565b604082019050919050565b60006142fc602f83614966565b915061430782615242565b604082019050919050565b600061431f602183614966565b915061432a82615291565b604082019050919050565b6000614342603083614966565b915061434d826152e0565b604082019050919050565b6000614365603183614966565b91506143708261532f565b604082019050919050565b6000614388602c83614966565b91506143938261537e565b604082019050919050565b60006143ab602d83614966565b91506143b6826153cd565b604082019050919050565b60006143ce603b83614966565b91506143d98261541c565b604082019050919050565b6143ed81614aa7565b82525050565b6143fc81614aa7565b82525050565b61440b81614ab1565b82525050565b600061441d8285614002565b91506144298284614002565b91508190509392505050565b600060208201905061444a6000830184613f1b565b92915050565b60006080820190506144656000830187613f1b565b6144726020830186613f1b565b61447f60408301856143f3565b81810360608301526144918184613f90565b905095945050505050565b6000610180820190506144b26000830184613f2a565b92915050565b60006020820190506144cd6000830184613f81565b92915050565b600060208201905081810360008301526144ed8184613fc9565b905092915050565b6000602082019050818103600083015261450e81614033565b9050919050565b6000602082019050818103600083015261452e81614056565b9050919050565b6000602082019050818103600083015261454e81614079565b9050919050565b6000602082019050818103600083015261456e8161409c565b9050919050565b6000602082019050818103600083015261458e816140bf565b9050919050565b600060208201905081810360008301526145ae816140e2565b9050919050565b600060208201905081810360008301526145ce81614105565b9050919050565b600060208201905081810360008301526145ee81614128565b9050919050565b6000602082019050818103600083015261460e8161414b565b9050919050565b6000602082019050818103600083015261462e8161416e565b9050919050565b6000602082019050818103600083015261464e81614191565b9050919050565b6000602082019050818103600083015261466e816141b4565b9050919050565b6000602082019050818103600083015261468e816141d7565b9050919050565b600060208201905081810360008301526146ae816141fa565b9050919050565b600060208201905081810360008301526146ce8161421d565b9050919050565b600060208201905081810360008301526146ee81614240565b9050919050565b6000602082019050818103600083015261470e81614263565b9050919050565b6000602082019050818103600083015261472e81614286565b9050919050565b6000602082019050818103600083015261474e816142a9565b9050919050565b6000602082019050818103600083015261476e816142cc565b9050919050565b6000602082019050818103600083015261478e816142ef565b9050919050565b600060208201905081810360008301526147ae81614312565b9050919050565b600060208201905081810360008301526147ce81614335565b9050919050565b600060208201905081810360008301526147ee81614358565b9050919050565b6000602082019050818103600083015261480e8161437b565b9050919050565b6000602082019050818103600083015261482e8161439e565b9050919050565b6000602082019050818103600083015261484e816143c1565b9050919050565b600060208201905061486a60008301846143f3565b92915050565b60006020820190506148856000830184614402565b92915050565b60006148956148a6565b90506148a18282614b32565b919050565b6000604051905090565b600067ffffffffffffffff8211156148cb576148ca614c94565b5b6148d482614cc3565b9050602081019050919050565b600067ffffffffffffffff8211156148fc576148fb614c94565b5b61490582614cc3565b9050602081019050919050565b6000819050919050565b6000600c9050919050565b600081519050919050565b600081519050919050565b6000602082019050919050565b600081905092915050565b600082825260208201905092915050565b600082825260208201905092915050565b600081905092915050565b600061498d82614aa7565b915061499883614aa7565b9250827fffffffffffffffffffffffffffffffffffffffffffffffffffffffffffffffff038211156149cd576149cc614c07565b5b828201905092915050565b60006149e382614aa7565b91506149ee83614aa7565b9250826149fe576149fd614c36565b5b828204905092915050565b6000614a1482614aa7565b9150614a1f83614aa7565b925082821015614a3257614a31614c07565b5b828203905092915050565b6000614a4882614a87565b9050919050565b60008115159050919050565b60007fffffffff0000000000000000000000000000000000000000000000000000000082169050919050565b600073ffffffffffffffffffffffffffffffffffffffff82169050919050565b6000819050919050565b600060ff82169050919050565b82818337600083830152505050565b60005b83811015614aeb578082015181840152602081019050614ad0565b83811115614afa576000848401525b50505050565b60006002820490506001821680614b1857607f821691505b60208210811415614b2c57614b2b614c65565b5b50919050565b614b3b82614cc3565b810181811067ffffffffffffffff82111715614b5a57614b59614c94565b5b80604052505050565b6000614b6e82614aa7565b91507fffffffffffffffffffffffffffffffffffffffffffffffffffffffffffffffff821415614ba157614ba0614c07565b5b600182019050919050565b6000614bb782614ab1565b915060ff821415614bcb57614bca614c07565b5b600182019050919050565b6000614be182614aa7565b9150614bec83614aa7565b925082614bfc57614bfb614c36565b5b828206905092915050565b7f4e487b7100000000000000000000000000000000000000000000000000000000600052601160045260246000fd5b7f4e487b7100000000000000000000000000000000000000000000000000000000600052601260045260246000fd5b7f4e487b7100000000000000000000000000000000000000000000000000000000600052602260045260246000fd5b7f4e487b7100000000000000000000000000000000000000000000000000000000600052604160045260246000fd5b6000601f19601f8301169050919050565b7f546f6b656e20646f65736e277420657869737400000000000000000000000000600082015250565b7f4f6e6c792074686520706172656e74204e4654696d65736861726520636f6e7460008201527f726163742063616e206d696e742054696d6573686172654d6f6e746873000000602082015250565b7f455243373231456e756d657261626c653a206f776e657220696e646578206f7560008201527f74206f6620626f756e6473000000000000000000000000000000000000000000602082015250565b7f4552433732313a207472616e7366657220746f206e6f6e20455243373231526560008201527f63656976657220696d706c656d656e7465720000000000000000000000000000602082015250565b7f4f776e61626c653a206e6577206f776e657220697320746865207a65726f206160008201527f6464726573730000000000000000000000000000000000000000000000000000602082015250565b7f4552433732313a20746f6b656e20616c7265616479206d696e74656400000000600082015250565b7f4552433732313a207472616e7366657220746f20746865207a65726f2061646460008201527f7265737300000000000000000000000000000000000000000000000000000000602082015250565b7f4552433732313a20617070726f766520746f2063616c6c657200000000000000600082015250565b7f4552433732313a206f70657261746f7220717565727920666f72206e6f6e657860008201527f697374656e7420746f6b656e0000000000000000000000000000000000000000602082015250565b7f4552433732313a20617070726f76652063616c6c6572206973206e6f74206f7760008201527f6e6572206e6f7220617070726f76656420666f7220616c6c0000000000000000602082015250565b7f4552433732313a2062616c616e636520717565727920666f7220746865207a6560008201527f726f206164647265737300000000000000000000000000000000000000000000602082015250565b7f4552433732313a206f776e657220717565727920666f72206e6f6e657869737460008201527f656e7420746f6b656e0000000000000000000000000000000000000000000000602082015250565b7f496e697469616c697a61626c653a20636f6e747261637420697320616c72656160008201527f647920696e697469616c697a6564000000000000000000000000000000000000602082015250565b7f4e6f2054696d6573686172654d6f6e74687320746f206275726e20666f72207460008201527f6f6b656e49640000000000000000000000000000000000000000000000000000602082015250565b7f4552433732313a206d696e7420746f20746865207a65726f2061646472657373600082015250565b7f6d6f6e746820717565727920666f72206e6f6e6578697374656e7420746f6b6560008201527f6e00000000000000000000000000000000000000000000000000000000000000602082015250565b7f4552433732313a20617070726f76656420717565727920666f72206e6f6e657860008201527f697374656e7420746f6b656e0000000000000000000000000000000000000000602082015250565b7f46756e6374696f6e2063616e206f6e6c792062652063616c6c6564206279207060008201527f6172656e742054696d6573686172650000000000000000000000000000000000602082015250565b7f4f776e61626c653a2063616c6c6572206973206e6f7420746865206f776e6572600082015250565b7f4552433732313a207472616e73666572206f6620746f6b656e2074686174206960008201527f73206e6f74206f776e0000000000000000000000000000000000000000000000602082015250565b7f4552433732314d657461646174613a2055524920717565727920666f72206e6f60008201527f6e6578697374656e7420746f6b656e0000000000000000000000000000000000602082015250565b7f4552433732313a20617070726f76616c20746f2063757272656e74206f776e6560008201527f7200000000000000000000000000000000000000000000000000000000000000602082015250565b7f52656465656d3a2053656e6465722063616e2774206f70657261746520616c6c60008201527f2054696d6573686172654d6f6e74687300000000000000000000000000000000602082015250565b7f4552433732313a207472616e736665722063616c6c6572206973206e6f74206f60008201527f776e6572206e6f7220617070726f766564000000000000000000000000000000602082015250565b7f455243373231456e756d657261626c653a20676c6f62616c20696e646578206f60008201527f7574206f6620626f756e64730000000000000000000000000000000000000000602082015250565b7f4e4654696d65736861726520636f6e747261637420616464726573732068617360008201527f206e6f74206265656e2073657400000000000000000000000000000000000000602082015250565b7f54696d6573686172654d6f6e746820746f6b656e5552493a2054696d6573686160008201527f726520636f6e7472616374206861736e2774206265656e207365740000000000602082015250565b61547481614a3d565b811461547f57600080fd5b50565b61548b81614a4f565b811461549657600080fd5b50565b6154a281614a5b565b81146154ad57600080fd5b50565b6154b981614aa7565b81146154c457600080fd5b5056fe687474703a2f2f7777772e6e6674696d657368617265732e66756e2f74696d6573686172656d6f6e74682fa26469706673582212208bde7eb951dc10afc3aa137721a7a8ce3ce019539b910f564b2992164f19c8fc64736f6c63430008040033",
  "linkReferences": {},
  "deployedLinkReferences": {}
}