{
  "_format": "hh-sol-artifact-1",
  "contractName": "NFTimeshareMonth",
  "sourceName": "contracts/NFTimeshareMonth.sol",
  "abi": [
    {
      "anonymous": false,
      "inputs": [
        {
          "indexed": true,
          "internalType": "address",
          "name": "owner",
          "type": "address"
        },
        {
          "indexed": true,
          "internalType": "address",
          "name": "approved",
          "type": "address"
        },
        {
          "indexed": true,
          "internalType": "uint256",
          "name": "tokenId",
          "type": "uint256"
        }
      ],
      "name": "Approval",
      "type": "event"
    },
    {
      "anonymous": false,
      "inputs": [
        {
          "indexed": true,
          "internalType": "address",
          "name": "owner",
          "type": "address"
        },
        {
          "indexed": true,
          "internalType": "address",
          "name": "operator",
          "type": "address"
        },
        {
          "indexed": false,
          "internalType": "bool",
          "name": "approved",
          "type": "bool"
        }
      ],
      "name": "ApprovalForAll",
      "type": "event"
    },
    {
      "anonymous": false,
      "inputs": [
        {
          "indexed": true,
          "internalType": "address",
          "name": "previousOwner",
          "type": "address"
        },
        {
          "indexed": true,
          "internalType": "address",
          "name": "newOwner",
          "type": "address"
        }
      ],
      "name": "OwnershipTransferred",
      "type": "event"
    },
    {
      "anonymous": false,
      "inputs": [
        {
          "indexed": true,
          "internalType": "address",
          "name": "from",
          "type": "address"
        },
        {
          "indexed": true,
          "internalType": "address",
          "name": "to",
          "type": "address"
        },
        {
          "indexed": true,
          "internalType": "uint256",
          "name": "tokenId",
          "type": "uint256"
        }
      ],
      "name": "Transfer",
      "type": "event"
    },
    {
      "inputs": [
        {
          "internalType": "address",
          "name": "to",
          "type": "address"
        },
        {
          "internalType": "uint256",
          "name": "tokenId",
          "type": "uint256"
        }
      ],
      "name": "approve",
      "outputs": [],
      "stateMutability": "nonpayable",
      "type": "function"
    },
    {
      "inputs": [
        {
          "internalType": "address",
          "name": "owner",
          "type": "address"
        }
      ],
      "name": "balanceOf",
      "outputs": [
        {
          "internalType": "uint256",
          "name": "",
          "type": "uint256"
        }
      ],
      "stateMutability": "view",
      "type": "function"
    },
    {
      "inputs": [
        {
          "internalType": "address",
          "name": "spender",
          "type": "address"
        },
        {
          "internalType": "uint256",
          "name": "timeshareTokenId",
          "type": "uint256"
        }
      ],
      "name": "burnTimeshareMonthsFor",
      "outputs": [],
      "stateMutability": "nonpayable",
      "type": "function"
    },
    {
      "inputs": [
        {
          "internalType": "uint256",
          "name": "tokenId",
          "type": "uint256"
        }
      ],
      "name": "getApproved",
      "outputs": [
        {
          "internalType": "address",
          "name": "",
          "type": "address"
        }
      ],
      "stateMutability": "view",
      "type": "function"
    },
    {
      "inputs": [],
      "name": "getNFTimeshareAddress",
      "outputs": [
        {
          "internalType": "address",
          "name": "",
          "type": "address"
        }
      ],
      "stateMutability": "view",
      "type": "function"
    },
    {
      "inputs": [
        {
          "internalType": "uint256",
          "name": "timeshareMonthTokenId",
          "type": "uint256"
        }
      ],
      "name": "getParentTimeshare",
      "outputs": [
        {
          "internalType": "uint256",
          "name": "",
          "type": "uint256"
        }
      ],
      "stateMutability": "view",
      "type": "function"
    },
    {
      "inputs": [
        {
          "internalType": "uint256",
          "name": "timeshareTokenId",
          "type": "uint256"
        }
      ],
      "name": "getTimeshareMonths",
      "outputs": [
        {
          "internalType": "uint256[12]",
          "name": "",
          "type": "uint256[12]"
        }
      ],
      "stateMutability": "view",
      "type": "function"
    },
    {
      "inputs": [],
      "name": "initialize",
      "outputs": [],
      "stateMutability": "nonpayable",
      "type": "function"
    },
    {
      "inputs": [
        {
          "internalType": "address",
          "name": "owner",
          "type": "address"
        },
        {
          "internalType": "address",
          "name": "operator",
          "type": "address"
        }
      ],
      "name": "isApprovedForAll",
      "outputs": [
        {
          "internalType": "bool",
          "name": "",
          "type": "bool"
        }
      ],
      "stateMutability": "view",
      "type": "function"
    },
    {
      "inputs": [
        {
          "internalType": "address",
          "name": "spender",
          "type": "address"
        },
        {
          "internalType": "uint256",
          "name": "timeshareTokenId",
          "type": "uint256"
        }
      ],
      "name": "isApprovedForAllMonths",
      "outputs": [
        {
          "internalType": "bool",
          "name": "",
          "type": "bool"
        }
      ],
      "stateMutability": "view",
      "type": "function"
    },
    {
      "inputs": [
        {
          "internalType": "uint256",
          "name": "timeshareTokenId",
          "type": "uint256"
        },
        {
          "internalType": "address",
          "name": "to",
          "type": "address"
        }
      ],
      "name": "makeTimesharesFor",
      "outputs": [],
      "stateMutability": "nonpayable",
      "type": "function"
    },
    {
      "inputs": [
        {
          "internalType": "uint256",
          "name": "tokenId",
          "type": "uint256"
        }
      ],
      "name": "month",
      "outputs": [
        {
          "internalType": "uint8",
          "name": "",
          "type": "uint8"
        }
      ],
      "stateMutability": "view",
      "type": "function"
    },
    {
      "inputs": [],
      "name": "name",
      "outputs": [
        {
          "internalType": "string",
          "name": "",
          "type": "string"
        }
      ],
      "stateMutability": "view",
      "type": "function"
    },
    {
      "inputs": [],
      "name": "owner",
      "outputs": [
        {
          "internalType": "address",
          "name": "",
          "type": "address"
        }
      ],
      "stateMutability": "view",
      "type": "function"
    },
    {
      "inputs": [
        {
          "internalType": "uint256",
          "name": "tokenId",
          "type": "uint256"
        }
      ],
      "name": "ownerOf",
      "outputs": [
        {
          "internalType": "address",
          "name": "",
          "type": "address"
        }
      ],
      "stateMutability": "view",
      "type": "function"
    },
    {
      "inputs": [],
      "name": "renounceOwnership",
      "outputs": [],
      "stateMutability": "nonpayable",
      "type": "function"
    },
    {
      "inputs": [
        {
          "internalType": "address",
          "name": "from",
          "type": "address"
        },
        {
          "internalType": "address",
          "name": "to",
          "type": "address"
        },
        {
          "internalType": "uint256",
          "name": "tokenId",
          "type": "uint256"
        }
      ],
      "name": "safeTransferFrom",
      "outputs": [],
      "stateMutability": "nonpayable",
      "type": "function"
    },
    {
      "inputs": [
        {
          "internalType": "address",
          "name": "from",
          "type": "address"
        },
        {
          "internalType": "address",
          "name": "to",
          "type": "address"
        },
        {
          "internalType": "uint256",
          "name": "tokenId",
          "type": "uint256"
        },
        {
          "internalType": "bytes",
          "name": "_data",
          "type": "bytes"
        }
      ],
      "name": "safeTransferFrom",
      "outputs": [],
      "stateMutability": "nonpayable",
      "type": "function"
    },
    {
      "inputs": [
        {
          "internalType": "address",
          "name": "operator",
          "type": "address"
        },
        {
          "internalType": "bool",
          "name": "approved",
          "type": "bool"
        }
      ],
      "name": "setApprovalForAll",
      "outputs": [],
      "stateMutability": "nonpayable",
      "type": "function"
    },
    {
      "inputs": [
        {
          "internalType": "address",
          "name": "addr",
          "type": "address"
        }
      ],
      "name": "setNFTimeshareAddress",
      "outputs": [],
      "stateMutability": "nonpayable",
      "type": "function"
    },
    {
      "inputs": [
        {
          "internalType": "bytes4",
          "name": "interfaceId",
          "type": "bytes4"
        }
      ],
      "name": "supportsInterface",
      "outputs": [
        {
          "internalType": "bool",
          "name": "",
          "type": "bool"
        }
      ],
      "stateMutability": "view",
      "type": "function"
    },
    {
      "inputs": [],
      "name": "symbol",
      "outputs": [
        {
          "internalType": "string",
          "name": "",
          "type": "string"
        }
      ],
      "stateMutability": "view",
      "type": "function"
    },
    {
      "inputs": [
        {
          "internalType": "uint256",
          "name": "index",
          "type": "uint256"
        }
      ],
      "name": "tokenByIndex",
      "outputs": [
        {
          "internalType": "uint256",
          "name": "",
          "type": "uint256"
        }
      ],
      "stateMutability": "view",
      "type": "function"
    },
    {
      "inputs": [
        {
          "internalType": "address",
          "name": "owner",
          "type": "address"
        },
        {
          "internalType": "uint256",
          "name": "index",
          "type": "uint256"
        }
      ],
      "name": "tokenOfOwnerByIndex",
      "outputs": [
        {
          "internalType": "uint256",
          "name": "",
          "type": "uint256"
        }
      ],
      "stateMutability": "view",
      "type": "function"
    },
    {
      "inputs": [
        {
          "internalType": "uint256",
          "name": "tokenId",
          "type": "uint256"
        }
      ],
      "name": "tokenURI",
      "outputs": [
        {
          "internalType": "string",
          "name": "",
          "type": "string"
        }
      ],
      "stateMutability": "view",
      "type": "function"
    },
    {
      "inputs": [
        {
          "internalType": "address",
          "name": "owner",
          "type": "address"
        }
      ],
      "name": "tokensOf",
      "outputs": [
        {
          "components": [
            {
              "internalType": "uint256",
              "name": "tokenId",
              "type": "uint256"
            },
            {
              "internalType": "uint8",
              "name": "month",
              "type": "uint8"
            },
            {
              "internalType": "string",
              "name": "tokenURI",
              "type": "string"
            }
          ],
          "internalType": "struct NFTimeshareMonth.TimeshareMonthInfo[]",
          "name": "",
          "type": "tuple[]"
        }
      ],
      "stateMutability": "view",
      "type": "function"
    },
    {
      "inputs": [],
      "name": "totalSupply",
      "outputs": [
        {
          "internalType": "uint256",
          "name": "",
          "type": "uint256"
        }
      ],
      "stateMutability": "view",
      "type": "function"
    },
    {
      "inputs": [
        {
          "internalType": "address",
          "name": "from",
          "type": "address"
        },
        {
          "internalType": "address",
          "name": "to",
          "type": "address"
        },
        {
          "internalType": "uint256",
          "name": "tokenId",
          "type": "uint256"
        }
      ],
      "name": "transferFrom",
      "outputs": [],
      "stateMutability": "nonpayable",
      "type": "function"
    },
    {
      "inputs": [
        {
          "internalType": "address",
          "name": "newOwner",
          "type": "address"
        }
      ],
      "name": "transferOwnership",
      "outputs": [],
      "stateMutability": "nonpayable",
      "type": "function"
    },
    {
      "inputs": [
        {
          "internalType": "uint256",
          "name": "tokenId",
          "type": "uint256"
        }
      ],
      "name": "underlyingTokenURI",
      "outputs": [
        {
          "internalType": "string",
          "name": "",
          "type": "string"
        }
      ],
      "stateMutability": "view",
      "type": "function"
    }
  ],
  "bytecode": "0x608060405234801561001057600080fd5b5061576980620000216000396000f3fe608060405234801561001057600080fd5b50600436106101da5760003560e01c80636352211e1161010457806395d89b41116100a2578063b88d4fde11610071578063b88d4fde1461058d578063c87b56dd146105a9578063e985e9c5146105d9578063f2fde38b14610609576101da565b806395d89b41146104f3578063984754fa14610511578063989620df14610541578063a22cb46514610571576101da565b8063802b9645116100de578063802b9645146104915780638129fc1c146104af5780638d6e1b67146104b95780638da5cb5b146104d5576101da565b80636352211e1461042757806370a0823114610457578063715018a614610487576101da565b8063286e55081161017c5780634f6ccce71161014b5780634f6ccce71461037b57806359574c38146103ab5780635a3f2672146103db5780635f9357b81461040b576101da565b8063286e5508146102cf5780632f745c59146102ff57806342842e0e1461032f5780634be9ea351461034b576101da565b8063081812fc116101b8578063081812fc14610249578063095ea7b31461027957806318160ddd1461029557806323b872dd146102b3576101da565b806301ffc9a7146101df57806306d64af71461020f57806306fdde031461022b575b600080fd5b6101f960048036038101906101f49190613ebf565b610625565b60405161020691906146af565b60405180910390f35b61022960048036038101906102249190613f7b565b61069f565b005b6102336109c2565b60405161024091906146ca565b60405180910390f35b610263600480360381019061025e9190613f52565b610a54565b604051610270919061460a565b60405180910390f35b610293600480360381019061028e9190613e83565b610ad9565b005b61029d610bf1565b6040516102aa9190614a4c565b60405180910390f35b6102cd60048036038101906102c89190613d7d565b610bfe565b005b6102e960048036038101906102e49190613f52565b610c5e565b6040516102f691906146ca565b60405180910390f35b61031960048036038101906103149190613e83565b610e41565b6040516103269190614a4c565b60405180910390f35b61034960048036038101906103449190613d7d565b610ee6565b005b61036560048036038101906103609190613e83565b610f06565b60405161037291906146af565b60405180910390f35b61039560048036038101906103909190613f52565b610fe2565b6040516103a29190614a4c565b60405180910390f35b6103c560048036038101906103c09190613f52565b611079565b6040516103d29190614693565b60405180910390f35b6103f560048036038101906103f09190613d18565b6110d7565b6040516104029190614671565b60405180910390f35b61042560048036038101906104209190613d18565b611221565b005b610441600480360381019061043c9190613f52565b6112e1565b60405161044e919061460a565b60405180910390f35b610471600480360381019061046c9190613d18565b611393565b60405161047e9190614a4c565b60405180910390f35b61048f61144b565b005b610499611588565b6040516104a6919061460a565b60405180910390f35b6104b76115b2565b005b6104d360048036038101906104ce9190613e83565b61170f565b005b6104dd611a59565b6040516104ea919061460a565b60405180910390f35b6104fb611a83565b60405161050891906146ca565b60405180910390f35b61052b60048036038101906105269190613f52565b611b15565b6040516105389190614a4c565b60405180910390f35b61055b60048036038101906105569190613f52565b611b32565b6040516105689190614a67565b60405180910390f35b61058b60048036038101906105869190613e47565b611d55565b005b6105a760048036038101906105a29190613dcc565b611ed6565b005b6105c360048036038101906105be9190613f52565b611f38565b6040516105d091906146ca565b60405180910390f35b6105f360048036038101906105ee9190613d41565b611fdf565b60405161060091906146af565b60405180910390f35b610623600480360381019061061e9190613d18565b612073565b005b60007f780e9d63000000000000000000000000000000000000000000000000000000007bffffffffffffffffffffffffffffffffffffffffffffffffffffffff1916827bffffffffffffffffffffffffffffffffffffffffffffffffffffffff1916148061069857506106978261221f565b5b9050919050565b600073ffffffffffffffffffffffffffffffffffffffff1660fc60009054906101000a900473ffffffffffffffffffffffffffffffffffffffff1673ffffffffffffffffffffffffffffffffffffffff161415610731576040517f08c379a000000000000000000000000000000000000000000000000000000000815260040161072890614a0c565b60405180910390fd5b60fc60009054906101000a900473ffffffffffffffffffffffffffffffffffffffff1673ffffffffffffffffffffffffffffffffffffffff163373ffffffffffffffffffffffffffffffffffffffff16146107c1576040517f08c379a00000000000000000000000000000000000000000000000000000000081526004016107b89061490c565b60405180910390fd5b60fc60009054906101000a900473ffffffffffffffffffffffffffffffffffffffff1673ffffffffffffffffffffffffffffffffffffffff163373ffffffffffffffffffffffffffffffffffffffff1614610851576040517f08c379a00000000000000000000000000000000000000000000000000000000081526004016108489061470c565b60405180910390fd5b610859613aa2565b60005b600c8160ff16101561092c5761087260fb612301565b61087c60fb612317565b828260ff16600c81106108b8577f4e487b7100000000000000000000000000000000000000000000000000000000600052603260045260246000fd5b6020020181815250508360fd6000848460ff16600c8110610902577f4e487b7100000000000000000000000000000000000000000000000000000000600052603260045260246000fd5b6020020151815260200190815260200160002081905550808061092490614ded565b91505061085c565b508060fe600085815260200190815260200160002090600c61094f929190613ac5565b5060005b600c8160ff1610156109bc576109a983838360ff16600c811061099f577f4e487b7100000000000000000000000000000000000000000000000000000000600052603260045260246000fd5b6020020151612325565b80806109b490614ded565b915050610953565b50505050565b6060606580546109d190614d41565b80601f01602080910402602001604051908101604052809291908181526020018280546109fd90614d41565b8015610a4a5780601f10610a1f57610100808354040283529160200191610a4a565b820191906000526020600020905b815481529060010190602001808311610a2d57829003601f168201915b5050505050905090565b6000610a5f82612343565b610a9e576040517f08c379a0000000000000000000000000000000000000000000000000000000008152600401610a95906148ec565b60405180910390fd5b6069600083815260200190815260200160002060009054906101000a900473ffffffffffffffffffffffffffffffffffffffff169050919050565b6000610ae4826112e1565b90508073ffffffffffffffffffffffffffffffffffffffff168373ffffffffffffffffffffffffffffffffffffffff161415610b55576040517f08c379a0000000000000000000000000000000000000000000000000000000008152600401610b4c9061498c565b60405180910390fd5b8073ffffffffffffffffffffffffffffffffffffffff16610b746123af565b73ffffffffffffffffffffffffffffffffffffffff161480610ba35750610ba281610b9d6123af565b611fdf565b5b610be2576040517f08c379a0000000000000000000000000000000000000000000000000000000008152600401610bd99061480c565b60405180910390fd5b610bec83836123b7565b505050565b6000609980549050905090565b610c0f610c096123af565b82612470565b610c4e576040517f08c379a0000000000000000000000000000000000000000000000000000000008152600401610c45906149cc565b60405180910390fd5b610c5983838361254e565b505050565b6060600073ffffffffffffffffffffffffffffffffffffffff1660fc60009054906101000a900473ffffffffffffffffffffffffffffffffffffffff1673ffffffffffffffffffffffffffffffffffffffff161415610cf2576040517f08c379a0000000000000000000000000000000000000000000000000000000008152600401610ce990614a2c565b60405180910390fd5b610cfb82612343565b610d3a576040517f08c379a0000000000000000000000000000000000000000000000000000000008152600401610d319061496c565b60405180910390fd5b600060fd600084815260200190815260200160002054905060008111610d89577f4e487b7100000000000000000000000000000000000000000000000000000000600052600160045260246000fd5b60fc60009054906101000a900473ffffffffffffffffffffffffffffffffffffffff1673ffffffffffffffffffffffffffffffffffffffff1663286e5508826040518263ffffffff1660e01b8152600401610de49190614a4c565b60006040518083038186803b158015610dfc57600080fd5b505afa158015610e10573d6000803e3d6000fd5b505050506040513d6000823e3d601f19601f82011682018060405250810190610e399190613f11565b915050919050565b6000610e4c83611393565b8210610e8d576040517f08c379a0000000000000000000000000000000000000000000000000000000008152600401610e849061472c565b60405180910390fd5b609760008473ffffffffffffffffffffffffffffffffffffffff1673ffffffffffffffffffffffffffffffffffffffff168152602001908152602001600020600083815260200190815260200160002054905092915050565b610f0183838360405180602001604052806000815250611ed6565b505050565b60008060fe6000848152602001908152602001600020600c806020026040519081016040528092919082600c8015610f53576020028201915b815481526020019060010190808311610f3f575b5050505050905060005b600c8160ff161015610fd557610fb385838360ff16600c8110610fa9577f4e487b7100000000000000000000000000000000000000000000000000000000600052603260045260246000fd5b6020020151612470565b610fc257600092505050610fdc565b8080610fcd90614ded565b915050610f5d565b5060019150505b92915050565b6000610fec610bf1565b821061102d576040517f08c379a0000000000000000000000000000000000000000000000000000000008152600401611024906149ec565b60405180910390fd5b60998281548110611067577f4e487b7100000000000000000000000000000000000000000000000000000000600052603260045260246000fd5b90600052602060002001549050919050565b611081613aa2565b60fe6000838152602001908152602001600020600c806020026040519081016040528092919082600c80156110cb576020028201915b8154815260200190600101908083116110b7575b50505050509050919050565b606060006110e483611393565b905060008167ffffffffffffffff811115611128577f4e487b7100000000000000000000000000000000000000000000000000000000600052604160045260246000fd5b60405190808252806020026020018201604052801561116157816020015b61114e613b05565b8152602001906001900390816111465790505b50905060005b8281101561121657611177613b05565b6111818683610e41565b8160000181815250506111978160000151611b32565b816020019060ff16908160ff16815250506111b58160000151611f38565b8160400181905250808383815181106111f7577f4e487b7100000000000000000000000000000000000000000000000000000000600052603260045260246000fd5b602002602001018190525050808061120e90614da4565b915050611167565b508092505050919050565b6112296123af565b73ffffffffffffffffffffffffffffffffffffffff16611247611a59565b73ffffffffffffffffffffffffffffffffffffffff161461129d576040517f08c379a00000000000000000000000000000000000000000000000000000000081526004016112949061492c565b60405180910390fd5b8060fc60006101000a81548173ffffffffffffffffffffffffffffffffffffffff021916908373ffffffffffffffffffffffffffffffffffffffff16021790555050565b6000806067600084815260200190815260200160002060009054906101000a900473ffffffffffffffffffffffffffffffffffffffff169050600073ffffffffffffffffffffffffffffffffffffffff168173ffffffffffffffffffffffffffffffffffffffff16141561138a576040517f08c379a00000000000000000000000000000000000000000000000000000000081526004016113819061484c565b60405180910390fd5b80915050919050565b60008073ffffffffffffffffffffffffffffffffffffffff168273ffffffffffffffffffffffffffffffffffffffff161415611404576040517f08c379a00000000000000000000000000000000000000000000000000000000081526004016113fb9061482c565b60405180910390fd5b606860008373ffffffffffffffffffffffffffffffffffffffff1673ffffffffffffffffffffffffffffffffffffffff168152602001908152602001600020549050919050565b6114536123af565b73ffffffffffffffffffffffffffffffffffffffff16611471611a59565b73ffffffffffffffffffffffffffffffffffffffff16146114c7576040517f08c379a00000000000000000000000000000000000000000000000000000000081526004016114be9061492c565b60405180910390fd5b600073ffffffffffffffffffffffffffffffffffffffff1660c960009054906101000a900473ffffffffffffffffffffffffffffffffffffffff1673ffffffffffffffffffffffffffffffffffffffff167f8be0079c531659141344cd1fd0a4f28419497f9722a3daafe3b4186f6b6457e060405160405180910390a3600060c960006101000a81548173ffffffffffffffffffffffffffffffffffffffff021916908373ffffffffffffffffffffffffffffffffffffffff160217905550565b600060fc60009054906101000a900473ffffffffffffffffffffffffffffffffffffffff16905090565b600060019054906101000a900460ff16806115d8575060008054906101000a900460ff16155b611617576040517f08c379a000000000000000000000000000000000000000000000000000000000815260040161160e9061486c565b60405180910390fd5b60008060019054906101000a900460ff161590508015611667576001600060016101000a81548160ff02191690831515021790555060016000806101000a81548160ff0219169083151502179055505b61166f6127aa565b61167761289b565b6116eb6040518060400160405280600e81526020017f54696d6573686172654d6f6e74680000000000000000000000000000000000008152506040518060400160405280600481526020017f54494d4500000000000000000000000000000000000000000000000000000000815250612984565b801561170c5760008060016101000a81548160ff0219169083151502179055505b50565b600073ffffffffffffffffffffffffffffffffffffffff1660fc60009054906101000a900473ffffffffffffffffffffffffffffffffffffffff1673ffffffffffffffffffffffffffffffffffffffff1614156117a1576040517f08c379a000000000000000000000000000000000000000000000000000000000815260040161179890614a0c565b60405180910390fd5b60fc60009054906101000a900473ffffffffffffffffffffffffffffffffffffffff1673ffffffffffffffffffffffffffffffffffffffff163373ffffffffffffffffffffffffffffffffffffffff1614611831576040517f08c379a00000000000000000000000000000000000000000000000000000000081526004016118289061490c565b60405180910390fd5b600060fe6000838152602001908152602001600020600c806020026040519081016040528092919082600c801561187d576020028201915b815481526020019060010190808311611869575b505050505090506000816000600c81106118c0577f4e487b7100000000000000000000000000000000000000000000000000000000600052603260045260246000fd5b60200201511415611906576040517f08c379a00000000000000000000000000000000000000000000000000000000081526004016118fd9061488c565b60405180910390fd5b6119108383610f06565b61194f576040517f08c379a0000000000000000000000000000000000000000000000000000000008152600401611946906149ac565b60405180910390fd5b60fe6000838152602001908152602001600020600061196e9190613b29565b60005b600c8160ff1610156119e75760fd6000838360ff16600c81106119bd577f4e487b7100000000000000000000000000000000000000000000000000000000600052603260045260246000fd5b602002015181526020019081526020016000206000905580806119df90614ded565b915050611971565b5060005b600c8160ff161015611a5357611a40828260ff16600c8110611a36577f4e487b7100000000000000000000000000000000000000000000000000000000600052603260045260246000fd5b6020020151612a8d565b8080611a4b90614ded565b9150506119eb565b50505050565b600060c960009054906101000a900473ffffffffffffffffffffffffffffffffffffffff16905090565b606060668054611a9290614d41565b80601f0160208091040260200160405190810160405280929190818152602001828054611abe90614d41565b8015611b0b5780601f10611ae057610100808354040283529160200191611b0b565b820191906000526020600020905b815481529060010190602001808311611aee57829003601f168201915b5050505050905090565b600060fd6000838152602001908152602001600020549050919050565b6000611b3d82612343565b611b7c576040517f08c379a0000000000000000000000000000000000000000000000000000000008152600401611b73906148cc565b60405180910390fd5b600060fd60008481526020019081526020016000205490506000811415611bd8576040517f08c379a0000000000000000000000000000000000000000000000000000000008152600401611bcf906146ec565b60405180910390fd5b600060fe6000838152602001908152602001600020600c806020026040519081016040528092919082600c8015611c24576020028201915b815481526020019060010190808311611c10575b5050505050905060005b600c8160ff161015611d1757818160ff16600c8110611c76577f4e487b7100000000000000000000000000000000000000000000000000000000600052603260045260246000fd5b6020020151851415611c8d57809350505050611d50565b6000828260ff16600c8110611ccb577f4e487b7100000000000000000000000000000000000000000000000000000000600052603260045260246000fd5b602002015111611d04577f4e487b7100000000000000000000000000000000000000000000000000000000600052600160045260246000fd5b8080611d0f90614ded565b915050611c2e565b506000611d4d577f4e487b7100000000000000000000000000000000000000000000000000000000600052600160045260246000fd5b50505b919050565b611d5d6123af565b73ffffffffffffffffffffffffffffffffffffffff168273ffffffffffffffffffffffffffffffffffffffff161415611dcb576040517f08c379a0000000000000000000000000000000000000000000000000000000008152600401611dc2906147cc565b60405180910390fd5b80606a6000611dd86123af565b73ffffffffffffffffffffffffffffffffffffffff1673ffffffffffffffffffffffffffffffffffffffff16815260200190815260200160002060008473ffffffffffffffffffffffffffffffffffffffff1673ffffffffffffffffffffffffffffffffffffffff16815260200190815260200160002060006101000a81548160ff0219169083151502179055508173ffffffffffffffffffffffffffffffffffffffff16611e856123af565b73ffffffffffffffffffffffffffffffffffffffff167f17307eab39ab6107e8899845ad3d59bd9653f200f220920489ca2b5937696c3183604051611eca91906146af565b60405180910390a35050565b611ee7611ee16123af565b83612470565b611f26576040517f08c379a0000000000000000000000000000000000000000000000000000000008152600401611f1d906149cc565b60405180910390fd5b611f3284848484612b9e565b50505050565b6060611f4382612343565b611f82576040517f08c379a0000000000000000000000000000000000000000000000000000000008152600401611f799061496c565b60405180910390fd5b6000611f8c612bfa565b90506000815111611fac5760405180602001604052806000815250611fd7565b80611fb684612c1a565b604051602001611fc79291906145e6565b6040516020818303038152906040525b915050919050565b6000606a60008473ffffffffffffffffffffffffffffffffffffffff1673ffffffffffffffffffffffffffffffffffffffff16815260200190815260200160002060008373ffffffffffffffffffffffffffffffffffffffff1673ffffffffffffffffffffffffffffffffffffffff16815260200190815260200160002060009054906101000a900460ff16905092915050565b61207b6123af565b73ffffffffffffffffffffffffffffffffffffffff16612099611a59565b73ffffffffffffffffffffffffffffffffffffffff16146120ef576040517f08c379a00000000000000000000000000000000000000000000000000000000081526004016120e69061492c565b60405180910390fd5b600073ffffffffffffffffffffffffffffffffffffffff168173ffffffffffffffffffffffffffffffffffffffff16141561215f576040517f08c379a00000000000000000000000000000000000000000000000000000000081526004016121569061476c565b60405180910390fd5b8073ffffffffffffffffffffffffffffffffffffffff1660c960009054906101000a900473ffffffffffffffffffffffffffffffffffffffff1673ffffffffffffffffffffffffffffffffffffffff167f8be0079c531659141344cd1fd0a4f28419497f9722a3daafe3b4186f6b6457e060405160405180910390a38060c960006101000a81548173ffffffffffffffffffffffffffffffffffffffff021916908373ffffffffffffffffffffffffffffffffffffffff16021790555050565b60007f80ac58cd000000000000000000000000000000000000000000000000000000007bffffffffffffffffffffffffffffffffffffffffffffffffffffffff1916827bffffffffffffffffffffffffffffffffffffffffffffffffffffffff191614806122ea57507f5b5e139f000000000000000000000000000000000000000000000000000000007bffffffffffffffffffffffffffffffffffffffffffffffffffffffff1916827bffffffffffffffffffffffffffffffffffffffffffffffffffffffff1916145b806122fa57506122f982612dc7565b5b9050919050565b6001816000016000828254019250508190555050565b600081600001549050919050565b61233f828260405180602001604052806000815250612e31565b5050565b60008073ffffffffffffffffffffffffffffffffffffffff166067600084815260200190815260200160002060009054906101000a900473ffffffffffffffffffffffffffffffffffffffff1673ffffffffffffffffffffffffffffffffffffffff1614159050919050565b600033905090565b816069600083815260200190815260200160002060006101000a81548173ffffffffffffffffffffffffffffffffffffffff021916908373ffffffffffffffffffffffffffffffffffffffff160217905550808273ffffffffffffffffffffffffffffffffffffffff1661242a836112e1565b73ffffffffffffffffffffffffffffffffffffffff167f8c5be1e5ebec7d5bd14f71427d1e84f3dd0314c0f7b2291e5b200ac8c7c3b92560405160405180910390a45050565b600061247b82612343565b6124ba576040517f08c379a00000000000000000000000000000000000000000000000000000000081526004016124b1906147ec565b60405180910390fd5b60006124c5836112e1565b90508073ffffffffffffffffffffffffffffffffffffffff168473ffffffffffffffffffffffffffffffffffffffff16148061253457508373ffffffffffffffffffffffffffffffffffffffff1661251c84610a54565b73ffffffffffffffffffffffffffffffffffffffff16145b8061254557506125448185611fdf565b5b91505092915050565b8273ffffffffffffffffffffffffffffffffffffffff1661256e826112e1565b73ffffffffffffffffffffffffffffffffffffffff16146125c4576040517f08c379a00000000000000000000000000000000000000000000000000000000081526004016125bb9061494c565b60405180910390fd5b600073ffffffffffffffffffffffffffffffffffffffff168273ffffffffffffffffffffffffffffffffffffffff161415612634576040517f08c379a000000000000000000000000000000000000000000000000000000000815260040161262b906147ac565b60405180910390fd5b61263f838383612e8c565b61264a6000826123b7565b6001606860008573ffffffffffffffffffffffffffffffffffffffff1673ffffffffffffffffffffffffffffffffffffffff168152602001908152602001600020600082825461269a9190614c4a565b925050819055506001606860008473ffffffffffffffffffffffffffffffffffffffff1673ffffffffffffffffffffffffffffffffffffffff16815260200190815260200160002060008282546126f19190614bc3565b92505081905550816067600083815260200190815260200160002060006101000a81548173ffffffffffffffffffffffffffffffffffffffff021916908373ffffffffffffffffffffffffffffffffffffffff160217905550808273ffffffffffffffffffffffffffffffffffffffff168473ffffffffffffffffffffffffffffffffffffffff167fddf252ad1be2c89b69c2b068fc378daa952ba7f163c4a11628f55a4df523b3ef60405160405180910390a4505050565b600060019054906101000a900460ff16806127d0575060008054906101000a900460ff16155b61280f576040517f08c379a00000000000000000000000000000000000000000000000000000000081526004016128069061486c565b60405180910390fd5b60008060019054906101000a900460ff16159050801561285f576001600060016101000a81548160ff02191690831515021790555060016000806101000a81548160ff0219169083151502179055505b612867612fa0565b61286f613079565b612877613152565b80156128985760008060016101000a81548160ff0219169083151502179055505b50565b600060019054906101000a900460ff16806128c1575060008054906101000a900460ff16155b612900576040517f08c379a00000000000000000000000000000000000000000000000000000000081526004016128f79061486c565b60405180910390fd5b60008060019054906101000a900460ff161590508015612950576001600060016101000a81548160ff02191690831515021790555060016000806101000a81548160ff0219169083151502179055505b612958612fa0565b61296061322b565b80156129815760008060016101000a81548160ff0219169083151502179055505b50565b600060019054906101000a900460ff16806129aa575060008054906101000a900460ff16155b6129e9576040517f08c379a00000000000000000000000000000000000000000000000000000000081526004016129e09061486c565b60405180910390fd5b60008060019054906101000a900460ff161590508015612a39576001600060016101000a81548160ff02191690831515021790555060016000806101000a81548160ff0219169083151502179055505b8260659080519060200190612a4f929190613b3c565b508160669080519060200190612a66929190613b3c565b508015612a885760008060016101000a81548160ff0219169083151502179055505b505050565b6000612a98826112e1565b9050612aa681600084612e8c565b612ab16000836123b7565b6001606860008373ffffffffffffffffffffffffffffffffffffffff1673ffffffffffffffffffffffffffffffffffffffff1681526020019081526020016000206000828254612b019190614c4a565b925050819055506067600083815260200190815260200160002060006101000a81549073ffffffffffffffffffffffffffffffffffffffff021916905581600073ffffffffffffffffffffffffffffffffffffffff168273ffffffffffffffffffffffffffffffffffffffff167fddf252ad1be2c89b69c2b068fc378daa952ba7f163c4a11628f55a4df523b3ef60405160405180910390a45050565b612ba984848461254e565b612bb5848484846133ad565b612bf4576040517f08c379a0000000000000000000000000000000000000000000000000000000008152600401612beb9061474c565b60405180910390fd5b50505050565b60606040518060600160405280602b8152602001615709602b9139905090565b60606000821415612c62576040518060400160405280600181526020017f30000000000000000000000000000000000000000000000000000000000000008152509050612dc2565b600082905060005b60008214612c94578080612c7d90614da4565b915050600a82612c8d9190614c19565b9150612c6a565b60008167ffffffffffffffff811115612cd6577f4e487b7100000000000000000000000000000000000000000000000000000000600052604160045260246000fd5b6040519080825280601f01601f191660200182016040528015612d085781602001600182028036833780820191505090505b5090505b60008514612dbb57600182612d219190614c4a565b9150600a85612d309190614e17565b6030612d3c9190614bc3565b60f81b818381518110612d78577f4e487b7100000000000000000000000000000000000000000000000000000000600052603260045260246000fd5b60200101907effffffffffffffffffffffffffffffffffffffffffffffffffffffffffffff1916908160001a905350600a85612db49190614c19565b9450612d0c565b8093505050505b919050565b60007f01ffc9a7000000000000000000000000000000000000000000000000000000007bffffffffffffffffffffffffffffffffffffffffffffffffffffffff1916827bffffffffffffffffffffffffffffffffffffffffffffffffffffffff1916149050919050565b612e3b8383613544565b612e4860008484846133ad565b612e87576040517f08c379a0000000000000000000000000000000000000000000000000000000008152600401612e7e9061474c565b60405180910390fd5b505050565b612e97838383613712565b600073ffffffffffffffffffffffffffffffffffffffff168373ffffffffffffffffffffffffffffffffffffffff161415612eda57612ed581613717565b612f19565b8173ffffffffffffffffffffffffffffffffffffffff168373ffffffffffffffffffffffffffffffffffffffff1614612f1857612f178382613760565b5b5b600073ffffffffffffffffffffffffffffffffffffffff168273ffffffffffffffffffffffffffffffffffffffff161415612f5c57612f57816138cd565b612f9b565b8273ffffffffffffffffffffffffffffffffffffffff168273ffffffffffffffffffffffffffffffffffffffff1614612f9a57612f998282613a10565b5b5b505050565b600060019054906101000a900460ff1680612fc6575060008054906101000a900460ff16155b613005576040517f08c379a0000000000000000000000000000000000000000000000000000000008152600401612ffc9061486c565b60405180910390fd5b60008060019054906101000a900460ff161590508015613055576001600060016101000a81548160ff02191690831515021790555060016000806101000a81548160ff0219169083151502179055505b80156130765760008060016101000a81548160ff0219169083151502179055505b50565b600060019054906101000a900460ff168061309f575060008054906101000a900460ff16155b6130de576040517f08c379a00000000000000000000000000000000000000000000000000000000081526004016130d59061486c565b60405180910390fd5b60008060019054906101000a900460ff16159050801561312e576001600060016101000a81548160ff02191690831515021790555060016000806101000a81548160ff0219169083151502179055505b801561314f5760008060016101000a81548160ff0219169083151502179055505b50565b600060019054906101000a900460ff1680613178575060008054906101000a900460ff16155b6131b7576040517f08c379a00000000000000000000000000000000000000000000000000000000081526004016131ae9061486c565b60405180910390fd5b60008060019054906101000a900460ff161590508015613207576001600060016101000a81548160ff02191690831515021790555060016000806101000a81548160ff0219169083151502179055505b80156132285760008060016101000a81548160ff0219169083151502179055505b50565b600060019054906101000a900460ff1680613251575060008054906101000a900460ff16155b613290576040517f08c379a00000000000000000000000000000000000000000000000000000000081526004016132879061486c565b60405180910390fd5b60008060019054906101000a900460ff1615905080156132e0576001600060016101000a81548160ff02191690831515021790555060016000806101000a81548160ff0219169083151502179055505b60006132ea6123af565b90508060c960006101000a81548173ffffffffffffffffffffffffffffffffffffffff021916908373ffffffffffffffffffffffffffffffffffffffff1602179055508073ffffffffffffffffffffffffffffffffffffffff16600073ffffffffffffffffffffffffffffffffffffffff167f8be0079c531659141344cd1fd0a4f28419497f9722a3daafe3b4186f6b6457e060405160405180910390a35080156133aa5760008060016101000a81548160ff0219169083151502179055505b50565b60006133ce8473ffffffffffffffffffffffffffffffffffffffff16613a8f565b15613537578373ffffffffffffffffffffffffffffffffffffffff1663150b7a026133f76123af565b8786866040518563ffffffff1660e01b81526004016134199493929190614625565b602060405180830381600087803b15801561343357600080fd5b505af192505050801561346457506040513d601f19601f820116820180604052508101906134619190613ee8565b60015b6134e7573d8060008114613494576040519150601f19603f3d011682016040523d82523d6000602084013e613499565b606091505b506000815114156134df576040517f08c379a00000000000000000000000000000000000000000000000000000000081526004016134d69061474c565b60405180910390fd5b805181602001fd5b63150b7a0260e01b7bffffffffffffffffffffffffffffffffffffffffffffffffffffffff1916817bffffffffffffffffffffffffffffffffffffffffffffffffffffffff19161491505061353c565b600190505b949350505050565b600073ffffffffffffffffffffffffffffffffffffffff168273ffffffffffffffffffffffffffffffffffffffff1614156135b4576040517f08c379a00000000000000000000000000000000000000000000000000000000081526004016135ab906148ac565b60405180910390fd5b6135bd81612343565b156135fd576040517f08c379a00000000000000000000000000000000000000000000000000000000081526004016135f49061478c565b60405180910390fd5b61360960008383612e8c565b6001606860008473ffffffffffffffffffffffffffffffffffffffff1673ffffffffffffffffffffffffffffffffffffffff16815260200190815260200160002060008282546136599190614bc3565b92505081905550816067600083815260200190815260200160002060006101000a81548173ffffffffffffffffffffffffffffffffffffffff021916908373ffffffffffffffffffffffffffffffffffffffff160217905550808273ffffffffffffffffffffffffffffffffffffffff16600073ffffffffffffffffffffffffffffffffffffffff167fddf252ad1be2c89b69c2b068fc378daa952ba7f163c4a11628f55a4df523b3ef60405160405180910390a45050565b505050565b609980549050609a600083815260200190815260200160002081905550609981908060018154018082558091505060019003906000526020600020016000909190919091505550565b6000600161376d84611393565b6137779190614c4a565b905060006098600084815260200190815260200160002054905081811461385c576000609760008673ffffffffffffffffffffffffffffffffffffffff1673ffffffffffffffffffffffffffffffffffffffff168152602001908152602001600020600084815260200190815260200160002054905080609760008773ffffffffffffffffffffffffffffffffffffffff1673ffffffffffffffffffffffffffffffffffffffff168152602001908152602001600020600084815260200190815260200160002081905550816098600083815260200190815260200160002081905550505b6098600084815260200190815260200160002060009055609760008573ffffffffffffffffffffffffffffffffffffffff1673ffffffffffffffffffffffffffffffffffffffff16815260200190815260200160002060008381526020019081526020016000206000905550505050565b600060016099805490506138e19190614c4a565b90506000609a6000848152602001908152602001600020549050600060998381548110613937577f4e487b7100000000000000000000000000000000000000000000000000000000600052603260045260246000fd5b90600052602060002001549050806099838154811061397f577f4e487b7100000000000000000000000000000000000000000000000000000000600052603260045260246000fd5b906000526020600020018190555081609a600083815260200190815260200160002081905550609a60008581526020019081526020016000206000905560998054806139f4577f4e487b7100000000000000000000000000000000000000000000000000000000600052603160045260246000fd5b6001900381819060005260206000200160009055905550505050565b6000613a1b83611393565b905081609760008573ffffffffffffffffffffffffffffffffffffffff1673ffffffffffffffffffffffffffffffffffffffff168152602001908152602001600020600083815260200190815260200160002081905550806098600084815260200190815260200160002081905550505050565b600080823b905060008111915050919050565b604051806101800160405280600c90602082028036833780820191505090505090565b82600c8101928215613af4579160200282015b82811115613af3578251825591602001919060010190613ad8565b5b509050613b019190613bc2565b5090565b604051806060016040528060008152602001600060ff168152602001606081525090565b5080600c0190613b399190613bc2565b50565b828054613b4890614d41565b90600052602060002090601f016020900481019282613b6a5760008555613bb1565b82601f10613b8357805160ff1916838001178555613bb1565b82800160010185558215613bb1579182015b82811115613bb0578251825591602001919060010190613b95565b5b509050613bbe9190613bc2565b5090565b5b80821115613bdb576000816000905550600101613bc3565b5090565b6000613bf2613bed84614aa7565b614a82565b905082815260208101848484011115613c0a57600080fd5b613c15848285614cff565b509392505050565b6000613c30613c2b84614ad8565b614a82565b905082815260208101848484011115613c4857600080fd5b613c53848285614d0e565b509392505050565b600081359050613c6a816156ac565b92915050565b600081359050613c7f816156c3565b92915050565b600081359050613c94816156da565b92915050565b600081519050613ca9816156da565b92915050565b600082601f830112613cc057600080fd5b8135613cd0848260208601613bdf565b91505092915050565b600082601f830112613cea57600080fd5b8151613cfa848260208601613c1d565b91505092915050565b600081359050613d12816156f1565b92915050565b600060208284031215613d2a57600080fd5b6000613d3884828501613c5b565b91505092915050565b60008060408385031215613d5457600080fd5b6000613d6285828601613c5b565b9250506020613d7385828601613c5b565b9150509250929050565b600080600060608486031215613d9257600080fd5b6000613da086828701613c5b565b9350506020613db186828701613c5b565b9250506040613dc286828701613d03565b9150509250925092565b60008060008060808587031215613de257600080fd5b6000613df087828801613c5b565b9450506020613e0187828801613c5b565b9350506040613e1287828801613d03565b925050606085013567ffffffffffffffff811115613e2f57600080fd5b613e3b87828801613caf565b91505092959194509250565b60008060408385031215613e5a57600080fd5b6000613e6885828601613c5b565b9250506020613e7985828601613c70565b9150509250929050565b60008060408385031215613e9657600080fd5b6000613ea485828601613c5b565b9250506020613eb585828601613d03565b9150509250929050565b600060208284031215613ed157600080fd5b6000613edf84828501613c85565b91505092915050565b600060208284031215613efa57600080fd5b6000613f0884828501613c9a565b91505092915050565b600060208284031215613f2357600080fd5b600082015167ffffffffffffffff811115613f3d57600080fd5b613f4984828501613cd9565b91505092915050565b600060208284031215613f6457600080fd5b6000613f7284828501613d03565b91505092915050565b60008060408385031215613f8e57600080fd5b6000613f9c85828601613d03565b9250506020613fad85828601613c5b565b9150509250929050565b6000613fc3838361455a565b905092915050565b6000613fd783836145aa565b60208301905092915050565b613fec81614c7e565b82525050565b6000613ffd82614b23565b6140078185614b69565b93508360208202850161401985614b09565b8060005b8581101561405557848403895281516140368582613fb7565b945061404183614b4f565b925060208a0199505060018101905061401d565b50829750879550505050505092915050565b61407081614b2e565b61407a8184614b7a565b925061408582614b19565b8060005b838110156140b657815161409d8782613fcb565b96506140a883614b5c565b925050600181019050614089565b505050505050565b6140c781614c90565b82525050565b60006140d882614b39565b6140e28185614b85565b93506140f2818560208601614d0e565b6140fb81614f04565b840191505092915050565b600061411182614b44565b61411b8185614b96565b935061412b818560208601614d0e565b61413481614f04565b840191505092915050565b600061414a82614b44565b6141548185614ba7565b9350614164818560208601614d0e565b61416d81614f04565b840191505092915050565b600061418382614b44565b61418d8185614bb8565b935061419d818560208601614d0e565b80840191505092915050565b60006141b6601383614ba7565b91506141c182614f15565b602082019050919050565b60006141d9603d83614ba7565b91506141e482614f3e565b604082019050919050565b60006141fc602b83614ba7565b915061420782614f8d565b604082019050919050565b600061421f603283614ba7565b915061422a82614fdc565b604082019050919050565b6000614242602683614ba7565b915061424d8261502b565b604082019050919050565b6000614265601c83614ba7565b91506142708261507a565b602082019050919050565b6000614288602483614ba7565b9150614293826150a3565b604082019050919050565b60006142ab601983614ba7565b91506142b6826150f2565b602082019050919050565b60006142ce602c83614ba7565b91506142d98261511b565b604082019050919050565b60006142f1603883614ba7565b91506142fc8261516a565b604082019050919050565b6000614314602a83614ba7565b915061431f826151b9565b604082019050919050565b6000614337602983614ba7565b915061434282615208565b604082019050919050565b600061435a602e83614ba7565b915061436582615257565b604082019050919050565b600061437d602683614ba7565b9150614388826152a6565b604082019050919050565b60006143a0602083614ba7565b91506143ab826152f5565b602082019050919050565b60006143c3602183614ba7565b91506143ce8261531e565b604082019050919050565b60006143e6602c83614ba7565b91506143f18261536d565b604082019050919050565b6000614409602f83614ba7565b9150614414826153bc565b604082019050919050565b600061442c602083614ba7565b91506144378261540b565b602082019050919050565b600061444f602983614ba7565b915061445a82615434565b604082019050919050565b6000614472602f83614ba7565b915061447d82615483565b604082019050919050565b6000614495602183614ba7565b91506144a0826154d2565b604082019050919050565b60006144b8603083614ba7565b91506144c382615521565b604082019050919050565b60006144db603183614ba7565b91506144e682615570565b604082019050919050565b60006144fe602c83614ba7565b9150614509826155bf565b604082019050919050565b6000614521602d83614ba7565b915061452c8261560e565b604082019050919050565b6000614544603b83614ba7565b915061454f8261565d565b604082019050919050565b600060608301600083015161457260008601826145aa565b50602083015161458560208601826145c8565b506040830151848203604086015261459d8282614106565b9150508091505092915050565b6145b381614ce8565b82525050565b6145c281614ce8565b82525050565b6145d181614cf2565b82525050565b6145e081614cf2565b82525050565b60006145f28285614178565b91506145fe8284614178565b91508190509392505050565b600060208201905061461f6000830184613fe3565b92915050565b600060808201905061463a6000830187613fe3565b6146476020830186613fe3565b61465460408301856145b9565b818103606083015261466681846140cd565b905095945050505050565b6000602082019050818103600083015261468b8184613ff2565b905092915050565b6000610180820190506146a96000830184614067565b92915050565b60006020820190506146c460008301846140be565b92915050565b600060208201905081810360008301526146e4818461413f565b905092915050565b60006020820190508181036000830152614705816141a9565b9050919050565b60006020820190508181036000830152614725816141cc565b9050919050565b60006020820190508181036000830152614745816141ef565b9050919050565b6000602082019050818103600083015261476581614212565b9050919050565b6000602082019050818103600083015261478581614235565b9050919050565b600060208201905081810360008301526147a581614258565b9050919050565b600060208201905081810360008301526147c58161427b565b9050919050565b600060208201905081810360008301526147e58161429e565b9050919050565b60006020820190508181036000830152614805816142c1565b9050919050565b60006020820190508181036000830152614825816142e4565b9050919050565b6000602082019050818103600083015261484581614307565b9050919050565b600060208201905081810360008301526148658161432a565b9050919050565b600060208201905081810360008301526148858161434d565b9050919050565b600060208201905081810360008301526148a581614370565b9050919050565b600060208201905081810360008301526148c581614393565b9050919050565b600060208201905081810360008301526148e5816143b6565b9050919050565b60006020820190508181036000830152614905816143d9565b9050919050565b60006020820190508181036000830152614925816143fc565b9050919050565b600060208201905081810360008301526149458161441f565b9050919050565b6000602082019050818103600083015261496581614442565b9050919050565b6000602082019050818103600083015261498581614465565b9050919050565b600060208201905081810360008301526149a581614488565b9050919050565b600060208201905081810360008301526149c5816144ab565b9050919050565b600060208201905081810360008301526149e5816144ce565b9050919050565b60006020820190508181036000830152614a05816144f1565b9050919050565b60006020820190508181036000830152614a2581614514565b9050919050565b60006020820190508181036000830152614a4581614537565b9050919050565b6000602082019050614a6160008301846145b9565b92915050565b6000602082019050614a7c60008301846145d7565b92915050565b6000614a8c614a9d565b9050614a988282614d73565b919050565b6000604051905090565b600067ffffffffffffffff821115614ac257614ac1614ed5565b5b614acb82614f04565b9050602081019050919050565b600067ffffffffffffffff821115614af357614af2614ed5565b5b614afc82614f04565b9050602081019050919050565b6000819050602082019050919050565b6000819050919050565b600081519050919050565b6000600c9050919050565b600081519050919050565b600081519050919050565b6000602082019050919050565b6000602082019050919050565b600082825260208201905092915050565b600081905092915050565b600082825260208201905092915050565b600082825260208201905092915050565b600082825260208201905092915050565b600081905092915050565b6000614bce82614ce8565b9150614bd983614ce8565b9250827fffffffffffffffffffffffffffffffffffffffffffffffffffffffffffffffff03821115614c0e57614c0d614e48565b5b828201905092915050565b6000614c2482614ce8565b9150614c2f83614ce8565b925082614c3f57614c3e614e77565b5b828204905092915050565b6000614c5582614ce8565b9150614c6083614ce8565b925082821015614c7357614c72614e48565b5b828203905092915050565b6000614c8982614cc8565b9050919050565b60008115159050919050565b60007fffffffff0000000000000000000000000000000000000000000000000000000082169050919050565b600073ffffffffffffffffffffffffffffffffffffffff82169050919050565b6000819050919050565b600060ff82169050919050565b82818337600083830152505050565b60005b83811015614d2c578082015181840152602081019050614d11565b83811115614d3b576000848401525b50505050565b60006002820490506001821680614d5957607f821691505b60208210811415614d6d57614d6c614ea6565b5b50919050565b614d7c82614f04565b810181811067ffffffffffffffff82111715614d9b57614d9a614ed5565b5b80604052505050565b6000614daf82614ce8565b91507fffffffffffffffffffffffffffffffffffffffffffffffffffffffffffffffff821415614de257614de1614e48565b5b600182019050919050565b6000614df882614cf2565b915060ff821415614e0c57614e0b614e48565b5b600182019050919050565b6000614e2282614ce8565b9150614e2d83614ce8565b925082614e3d57614e3c614e77565b5b828206905092915050565b7f4e487b7100000000000000000000000000000000000000000000000000000000600052601160045260246000fd5b7f4e487b7100000000000000000000000000000000000000000000000000000000600052601260045260246000fd5b7f4e487b7100000000000000000000000000000000000000000000000000000000600052602260045260246000fd5b7f4e487b7100000000000000000000000000000000000000000000000000000000600052604160045260246000fd5b6000601f19601f8301169050919050565b7f546f6b656e20646f65736e277420657869737400000000000000000000000000600082015250565b7f4f6e6c792074686520706172656e74204e4654696d65736861726520636f6e7460008201527f726163742063616e206d696e742054696d6573686172654d6f6e746873000000602082015250565b7f455243373231456e756d657261626c653a206f776e657220696e646578206f7560008201527f74206f6620626f756e6473000000000000000000000000000000000000000000602082015250565b7f4552433732313a207472616e7366657220746f206e6f6e20455243373231526560008201527f63656976657220696d706c656d656e7465720000000000000000000000000000602082015250565b7f4f776e61626c653a206e6577206f776e657220697320746865207a65726f206160008201527f6464726573730000000000000000000000000000000000000000000000000000602082015250565b7f4552433732313a20746f6b656e20616c7265616479206d696e74656400000000600082015250565b7f4552433732313a207472616e7366657220746f20746865207a65726f2061646460008201527f7265737300000000000000000000000000000000000000000000000000000000602082015250565b7f4552433732313a20617070726f766520746f2063616c6c657200000000000000600082015250565b7f4552433732313a206f70657261746f7220717565727920666f72206e6f6e657860008201527f697374656e7420746f6b656e0000000000000000000000000000000000000000602082015250565b7f4552433732313a20617070726f76652063616c6c6572206973206e6f74206f7760008201527f6e6572206e6f7220617070726f76656420666f7220616c6c0000000000000000602082015250565b7f4552433732313a2062616c616e636520717565727920666f7220746865207a6560008201527f726f206164647265737300000000000000000000000000000000000000000000602082015250565b7f4552433732313a206f776e657220717565727920666f72206e6f6e657869737460008201527f656e7420746f6b656e0000000000000000000000000000000000000000000000602082015250565b7f496e697469616c697a61626c653a20636f6e747261637420697320616c72656160008201527f647920696e697469616c697a6564000000000000000000000000000000000000602082015250565b7f4e6f2054696d6573686172654d6f6e74687320746f206275726e20666f72207460008201527f6f6b656e49640000000000000000000000000000000000000000000000000000602082015250565b7f4552433732313a206d696e7420746f20746865207a65726f2061646472657373600082015250565b7f6d6f6e746820717565727920666f72206e6f6e6578697374656e7420746f6b6560008201527f6e00000000000000000000000000000000000000000000000000000000000000602082015250565b7f4552433732313a20617070726f76656420717565727920666f72206e6f6e657860008201527f697374656e7420746f6b656e0000000000000000000000000000000000000000602082015250565b7f46756e6374696f6e2063616e206f6e6c792062652063616c6c6564206279207060008201527f6172656e742054696d6573686172650000000000000000000000000000000000602082015250565b7f4f776e61626c653a2063616c6c6572206973206e6f7420746865206f776e6572600082015250565b7f4552433732313a207472616e73666572206f6620746f6b656e2074686174206960008201527f73206e6f74206f776e0000000000000000000000000000000000000000000000602082015250565b7f4552433732314d657461646174613a2055524920717565727920666f72206e6f60008201527f6e6578697374656e7420746f6b656e0000000000000000000000000000000000602082015250565b7f4552433732313a20617070726f76616c20746f2063757272656e74206f776e6560008201527f7200000000000000000000000000000000000000000000000000000000000000602082015250565b7f52656465656d3a2053656e6465722063616e2774206f70657261746520616c6c60008201527f2054696d6573686172654d6f6e74687300000000000000000000000000000000602082015250565b7f4552433732313a207472616e736665722063616c6c6572206973206e6f74206f60008201527f776e6572206e6f7220617070726f766564000000000000000000000000000000602082015250565b7f455243373231456e756d657261626c653a20676c6f62616c20696e646578206f60008201527f7574206f6620626f756e64730000000000000000000000000000000000000000602082015250565b7f4e4654696d65736861726520636f6e747261637420616464726573732068617360008201527f206e6f74206265656e2073657400000000000000000000000000000000000000602082015250565b7f54696d6573686172654d6f6e746820746f6b656e5552493a2054696d6573686160008201527f726520636f6e7472616374206861736e2774206265656e207365740000000000602082015250565b6156b581614c7e565b81146156c057600080fd5b50565b6156cc81614c90565b81146156d757600080fd5b50565b6156e381614c9c565b81146156ee57600080fd5b50565b6156fa81614ce8565b811461570557600080fd5b5056fe687474703a2f2f7777772e6e6674696d657368617265732e66756e2f74696d6573686172656d6f6e74682fa2646970667358221220213dfaef63d7a842f961b7963f2012a6b12100759d59c66a2d8f166bb5ce54c264736f6c63430008040033",
  "linkReferences": {},
  "deployedLinkReferences": {}
}