{
  "_format": "hh-sol-artifact-1",
  "contractName": "NFTimeshare",
  "sourceName": "contracts/NFTimeshare.sol",
  "abi": [
    {
      "anonymous": false,
      "inputs": [
        {
          "indexed": true,
          "internalType": "address",
          "name": "owner",
          "type": "address"
        },
        {
          "indexed": true,
          "internalType": "address",
          "name": "approved",
          "type": "address"
        },
        {
          "indexed": true,
          "internalType": "uint256",
          "name": "tokenId",
          "type": "uint256"
        }
      ],
      "name": "Approval",
      "type": "event"
    },
    {
      "anonymous": false,
      "inputs": [
        {
          "indexed": true,
          "internalType": "address",
          "name": "owner",
          "type": "address"
        },
        {
          "indexed": true,
          "internalType": "address",
          "name": "operator",
          "type": "address"
        },
        {
          "indexed": false,
          "internalType": "bool",
          "name": "approved",
          "type": "bool"
        }
      ],
      "name": "ApprovalForAll",
      "type": "event"
    },
    {
      "anonymous": false,
      "inputs": [
        {
          "indexed": true,
          "internalType": "address",
          "name": "holder",
          "type": "address"
        },
        {
          "indexed": true,
          "internalType": "address",
          "name": "sender",
          "type": "address"
        },
        {
          "indexed": true,
          "internalType": "address",
          "name": "recipient",
          "type": "address"
        },
        {
          "indexed": false,
          "internalType": "address",
          "name": "wrapped_contract",
          "type": "address"
        },
        {
          "indexed": false,
          "internalType": "uint256",
          "name": "wrapped_tokenId",
          "type": "uint256"
        },
        {
          "indexed": false,
          "internalType": "uint256",
          "name": "timeshareTokenId",
          "type": "uint256"
        }
      ],
      "name": "Deposit",
      "type": "event"
    },
    {
      "anonymous": false,
      "inputs": [
        {
          "indexed": true,
          "internalType": "address",
          "name": "previousOwner",
          "type": "address"
        },
        {
          "indexed": true,
          "internalType": "address",
          "name": "newOwner",
          "type": "address"
        }
      ],
      "name": "OwnershipTransferred",
      "type": "event"
    },
    {
      "anonymous": false,
      "inputs": [
        {
          "indexed": true,
          "internalType": "address",
          "name": "sender",
          "type": "address"
        },
        {
          "indexed": true,
          "internalType": "address",
          "name": "recipient",
          "type": "address"
        },
        {
          "indexed": false,
          "internalType": "address",
          "name": "unwrapped_contract",
          "type": "address"
        },
        {
          "indexed": false,
          "internalType": "uint256",
          "name": "unwrapped_tokenId",
          "type": "uint256"
        },
        {
          "indexed": false,
          "internalType": "uint256",
          "name": "timeshareTokenId",
          "type": "uint256"
        }
      ],
      "name": "Redeem",
      "type": "event"
    },
    {
      "anonymous": false,
      "inputs": [
        {
          "indexed": true,
          "internalType": "address",
          "name": "from",
          "type": "address"
        },
        {
          "indexed": true,
          "internalType": "address",
          "name": "to",
          "type": "address"
        },
        {
          "indexed": true,
          "internalType": "uint256",
          "name": "tokenId",
          "type": "uint256"
        }
      ],
      "name": "Transfer",
      "type": "event"
    },
    {
      "inputs": [
        {
          "internalType": "address",
          "name": "to",
          "type": "address"
        },
        {
          "internalType": "uint256",
          "name": "tokenId",
          "type": "uint256"
        }
      ],
      "name": "approve",
      "outputs": [],
      "stateMutability": "nonpayable",
      "type": "function"
    },
    {
      "inputs": [
        {
          "internalType": "address",
          "name": "owner",
          "type": "address"
        }
      ],
      "name": "balanceOf",
      "outputs": [
        {
          "internalType": "uint256",
          "name": "",
          "type": "uint256"
        }
      ],
      "stateMutability": "view",
      "type": "function"
    },
    {
      "inputs": [
        {
          "internalType": "address",
          "name": "_underlying",
          "type": "address"
        },
        {
          "internalType": "uint256",
          "name": "_underlyingTokenId",
          "type": "uint256"
        },
        {
          "internalType": "address",
          "name": "_from",
          "type": "address"
        },
        {
          "internalType": "address",
          "name": "_to",
          "type": "address"
        }
      ],
      "name": "deposit",
      "outputs": [],
      "stateMutability": "nonpayable",
      "type": "function"
    },
    {
      "inputs": [
        {
          "internalType": "uint256",
          "name": "tokenId",
          "type": "uint256"
        }
      ],
      "name": "getApproved",
      "outputs": [
        {
          "internalType": "address",
          "name": "",
          "type": "address"
        }
      ],
      "stateMutability": "view",
      "type": "function"
    },
    {
      "inputs": [],
      "name": "getNFTimeshareMonthAddress",
      "outputs": [
        {
          "internalType": "address",
          "name": "",
          "type": "address"
        }
      ],
      "stateMutability": "view",
      "type": "function"
    },
    {
      "inputs": [
        {
          "internalType": "address",
          "name": "addr",
          "type": "address"
        },
        {
          "internalType": "uint256",
          "name": "externalTokenId",
          "type": "uint256"
        }
      ],
      "name": "getTokenIdForUnderlyingNFT",
      "outputs": [
        {
          "internalType": "uint256",
          "name": "",
          "type": "uint256"
        }
      ],
      "stateMutability": "view",
      "type": "function"
    },
    {
      "inputs": [
        {
          "internalType": "uint256",
          "name": "tokenId",
          "type": "uint256"
        }
      ],
      "name": "getWrappedNFT",
      "outputs": [
        {
          "internalType": "address",
          "name": "",
          "type": "address"
        },
        {
          "internalType": "uint256",
          "name": "",
          "type": "uint256"
        }
      ],
      "stateMutability": "view",
      "type": "function"
    },
    {
      "inputs": [],
      "name": "initialize",
      "outputs": [],
      "stateMutability": "nonpayable",
      "type": "function"
    },
    {
      "inputs": [
        {
          "internalType": "address",
          "name": "owner",
          "type": "address"
        },
        {
          "internalType": "address",
          "name": "operator",
          "type": "address"
        }
      ],
      "name": "isApprovedForAll",
      "outputs": [
        {
          "internalType": "bool",
          "name": "",
          "type": "bool"
        }
      ],
      "stateMutability": "view",
      "type": "function"
    },
    {
      "inputs": [],
      "name": "name",
      "outputs": [
        {
          "internalType": "string",
          "name": "",
          "type": "string"
        }
      ],
      "stateMutability": "view",
      "type": "function"
    },
    {
      "inputs": [
        {
          "internalType": "address",
          "name": "",
          "type": "address"
        },
        {
          "internalType": "address",
          "name": "",
          "type": "address"
        },
        {
          "internalType": "uint256",
          "name": "",
          "type": "uint256"
        },
        {
          "internalType": "bytes",
          "name": "",
          "type": "bytes"
        }
      ],
      "name": "onERC721Received",
      "outputs": [
        {
          "internalType": "bytes4",
          "name": "",
          "type": "bytes4"
        }
      ],
      "stateMutability": "nonpayable",
      "type": "function"
    },
    {
      "inputs": [],
      "name": "owner",
      "outputs": [
        {
          "internalType": "address",
          "name": "",
          "type": "address"
        }
      ],
      "stateMutability": "view",
      "type": "function"
    },
    {
      "inputs": [
        {
          "internalType": "uint256",
          "name": "tokenId",
          "type": "uint256"
        }
      ],
      "name": "ownerOf",
      "outputs": [
        {
          "internalType": "address",
          "name": "",
          "type": "address"
        }
      ],
      "stateMutability": "view",
      "type": "function"
    },
    {
      "inputs": [
        {
          "internalType": "uint256",
          "name": "tokenId",
          "type": "uint256"
        },
        {
          "internalType": "address",
          "name": "_to",
          "type": "address"
        }
      ],
      "name": "redeem",
      "outputs": [],
      "stateMutability": "nonpayable",
      "type": "function"
    },
    {
      "inputs": [],
      "name": "renounceOwnership",
      "outputs": [],
      "stateMutability": "nonpayable",
      "type": "function"
    },
    {
      "inputs": [
        {
          "internalType": "address",
          "name": "from",
          "type": "address"
        },
        {
          "internalType": "address",
          "name": "to",
          "type": "address"
        },
        {
          "internalType": "uint256",
          "name": "tokenId",
          "type": "uint256"
        }
      ],
      "name": "safeTransferFrom",
      "outputs": [],
      "stateMutability": "nonpayable",
      "type": "function"
    },
    {
      "inputs": [
        {
          "internalType": "address",
          "name": "from",
          "type": "address"
        },
        {
          "internalType": "address",
          "name": "to",
          "type": "address"
        },
        {
          "internalType": "uint256",
          "name": "tokenId",
          "type": "uint256"
        },
        {
          "internalType": "bytes",
          "name": "data",
          "type": "bytes"
        }
      ],
      "name": "safeTransferFrom",
      "outputs": [],
      "stateMutability": "nonpayable",
      "type": "function"
    },
    {
      "inputs": [
        {
          "internalType": "address",
          "name": "operator",
          "type": "address"
        },
        {
          "internalType": "bool",
          "name": "_approved",
          "type": "bool"
        }
      ],
      "name": "setApprovalForAll",
      "outputs": [],
      "stateMutability": "nonpayable",
      "type": "function"
    },
    {
      "inputs": [
        {
          "internalType": "address",
          "name": "_addr",
          "type": "address"
        }
      ],
      "name": "setNFTimeshareMonthAddress",
      "outputs": [],
      "stateMutability": "nonpayable",
      "type": "function"
    },
    {
      "inputs": [
        {
          "internalType": "bytes4",
          "name": "interfaceId",
          "type": "bytes4"
        }
      ],
      "name": "supportsInterface",
      "outputs": [
        {
          "internalType": "bool",
          "name": "",
          "type": "bool"
        }
      ],
      "stateMutability": "view",
      "type": "function"
    },
    {
      "inputs": [],
      "name": "symbol",
      "outputs": [
        {
          "internalType": "string",
          "name": "",
          "type": "string"
        }
      ],
      "stateMutability": "view",
      "type": "function"
    },
    {
      "inputs": [
        {
          "internalType": "uint256",
          "name": "index",
          "type": "uint256"
        }
      ],
      "name": "tokenByIndex",
      "outputs": [
        {
          "internalType": "uint256",
          "name": "",
          "type": "uint256"
        }
      ],
      "stateMutability": "view",
      "type": "function"
    },
    {
      "inputs": [
        {
          "internalType": "address",
          "name": "owner",
          "type": "address"
        },
        {
          "internalType": "uint256",
          "name": "index",
          "type": "uint256"
        }
      ],
      "name": "tokenOfOwnerByIndex",
      "outputs": [
        {
          "internalType": "uint256",
          "name": "",
          "type": "uint256"
        }
      ],
      "stateMutability": "view",
      "type": "function"
    },
    {
      "inputs": [
        {
          "internalType": "uint256",
          "name": "tokenId",
          "type": "uint256"
        }
      ],
      "name": "tokenURI",
      "outputs": [
        {
          "internalType": "string",
          "name": "",
          "type": "string"
        }
      ],
      "stateMutability": "view",
      "type": "function"
    },
    {
      "inputs": [],
      "name": "totalSupply",
      "outputs": [
        {
          "internalType": "uint256",
          "name": "",
          "type": "uint256"
        }
      ],
      "stateMutability": "view",
      "type": "function"
    },
    {
      "inputs": [
        {
          "internalType": "address",
          "name": "from",
          "type": "address"
        },
        {
          "internalType": "address",
          "name": "to",
          "type": "address"
        },
        {
          "internalType": "uint256",
          "name": "tokenId",
          "type": "uint256"
        }
      ],
      "name": "transferFrom",
      "outputs": [],
      "stateMutability": "nonpayable",
      "type": "function"
    },
    {
      "inputs": [
        {
          "internalType": "address",
          "name": "newOwner",
          "type": "address"
        }
      ],
      "name": "transferOwnership",
      "outputs": [],
      "stateMutability": "nonpayable",
      "type": "function"
    },
    {
      "inputs": [
        {
          "internalType": "uint256",
          "name": "tokenId",
          "type": "uint256"
        }
      ],
      "name": "underlyingTokenURI",
      "outputs": [
        {
          "internalType": "string",
          "name": "",
          "type": "string"
        }
      ],
      "stateMutability": "view",
      "type": "function"
    }
  ],
  "bytecode": "0x608060405234801561001057600080fd5b50615067806100206000396000f3fe608060405234801561001057600080fd5b50600436106101c45760003560e01c80637bde82f2116100f9578063c3cf1e5611610097578063e0d3c2bd11610071578063e0d3c2bd14610515578063e75726cb14610533578063e985e9c514610564578063f2fde38b14610594576101c4565b8063c3cf1e5614610499578063c6f1649f146104c9578063c87b56dd146104e5576101c4565b80638da5cb5b116100d35780638da5cb5b1461042557806395d89b4114610443578063a22cb46514610461578063b88d4fde1461047d576101c4565b80637bde82f2146103e357806380fe989e146103ff5780638129fc1c1461041b576101c4565b8063286e5508116101665780634f6ccce7116101405780634f6ccce7146103495780636352211e1461037957806370a08231146103a9578063715018a6146103d9576101c4565b8063286e5508146102cd5780632f745c59146102fd57806342842e0e1461032d576101c4565b8063095ea7b3116101a2578063095ea7b314610247578063150b7a021461026357806318160ddd1461029357806323b872dd146102b1576101c4565b806301ffc9a7146101c957806306fdde03146101f9578063081812fc14610217575b600080fd5b6101e360048036038101906101de9190613cca565b6105b0565b6040516101f09190614222565b60405180910390f35b61020161062a565b60405161020e9190614258565b60405180910390f35b610231600480360381019061022c9190613d5d565b6106bc565b60405161023e9190614124565b60405180910390f35b610261600480360381019061025c9190613c01565b610707565b005b61027d60048036038101906102789190613b4a565b61074c565b60405161028a919061423d565b60405180910390f35b61029b610760565b6040516102a8919061445a565b60405180910390f35b6102cb60048036038101906102c69190613afb565b61076d565b005b6102e760048036038101906102e29190613d5d565b6107b3565b6040516102f49190614258565b60405180910390f35b61031760048036038101906103129190613c01565b61096f565b604051610324919061445a565b60405180910390f35b61034760048036038101906103429190613afb565b610a14565b005b610363600480360381019061035e9190613d5d565b610a5a565b604051610370919061445a565b60405180910390f35b610393600480360381019061038e9190613d5d565b610af1565b6040516103a09190614124565b60405180910390f35b6103c360048036038101906103be9190613a6d565b610cae565b6040516103d0919061445a565b60405180910390f35b6103e1610fb4565b005b6103fd60048036038101906103f89190613daf565b6110f1565b005b61041960048036038101906104149190613a6d565b6114b5565b005b610423611576565b005b61042d6116eb565b60405161043a9190614124565b60405180910390f35b61044b611715565b6040516104589190614258565b60405180910390f35b61047b60048036038101906104769190613bc5565b6117a7565b005b61049760048036038101906104929190613b4a565b6117ec565b005b6104b360048036038101906104ae9190613c01565b611833565b6040516104c0919061445a565b60405180910390f35b6104e360048036038101906104de9190613c3d565b61188f565b005b6104ff60048036038101906104fa9190613d5d565b611c47565b60405161050c9190614258565b60405180910390f35b61051d611cee565b60405161052a9190614124565b60405180910390f35b61054d60048036038101906105489190613d5d565b611d19565b60405161055b9291906141c2565b60405180910390f35b61057e60048036038101906105799190613abf565b611db3565b60405161058b9190614222565b60405180910390f35b6105ae60048036038101906105a99190613a6d565b611dff565b005b60007f780e9d63000000000000000000000000000000000000000000000000000000007bffffffffffffffffffffffffffffffffffffffffffffffffffffffff1916827bffffffffffffffffffffffffffffffffffffffffffffffffffffffff19161480610623575061062282611fab565b5b9050919050565b606060658054610639906149bf565b80601f0160208091040260200160405190810160405280929190818152602001828054610665906149bf565b80156106b25780601f10610687576101008083540402835291602001916106b2565b820191906000526020600020905b81548152906001019060200180831161069557829003601f168201915b5050505050905090565b6000806106fe576040517f08c379a00000000000000000000000000000000000000000000000000000000081526004016106f59061443a565b60405180910390fd5b60009050919050565b6000610748576040517f08c379a000000000000000000000000000000000000000000000000000000000815260040161073f9061443a565b60405180910390fd5b5050565b600063150b7a0260e01b9050949350505050565b6000609980549050905090565b60006107ae576040517f08c379a00000000000000000000000000000000000000000000000000000000081526004016107a59061443a565b60405180910390fd5b505050565b6060600073ffffffffffffffffffffffffffffffffffffffff1661012e60009054906101000a900473ffffffffffffffffffffffffffffffffffffffff1673ffffffffffffffffffffffffffffffffffffffff161415610848576040517f08c379a000000000000000000000000000000000000000000000000000000000815260040161083f9061427a565b60405180910390fd5b600061013060008481526020019081526020016000206040518060400160405290816000820160009054906101000a900473ffffffffffffffffffffffffffffffffffffffff1673ffffffffffffffffffffffffffffffffffffffff1673ffffffffffffffffffffffffffffffffffffffff16815260200160018201548152505090506000816000015173ffffffffffffffffffffffffffffffffffffffff1663c87b56dd83602001516040518263ffffffff1660e01b815260040161090e919061445a565b60006040518083038186803b15801561092657600080fd5b505afa15801561093a573d6000803e3d6000fd5b505050506040513d6000823e3d601f19601f820116820180604052508101906109639190613d1c565b90508092505050919050565b600061097a8361208d565b82106109bb576040517f08c379a00000000000000000000000000000000000000000000000000000000081526004016109b29061429a565b60405180910390fd5b609760008473ffffffffffffffffffffffffffffffffffffffff1673ffffffffffffffffffffffffffffffffffffffff168152602001908152602001600020600083815260200190815260200160002054905092915050565b6000610a55576040517f08c379a0000000000000000000000000000000000000000000000000000000008152600401610a4c9061443a565b60405180910390fd5b505050565b6000610a64610760565b8210610aa5576040517f08c379a0000000000000000000000000000000000000000000000000000000008152600401610a9c906143fa565b60405180910390fd5b60998281548110610adf577f4e487b7100000000000000000000000000000000000000000000000000000000600052603260045260246000fd5b90600052602060002001549050919050565b6000806001610aff42612145565b610b0991906148be565b9050600061012e60009054906101000a900473ffffffffffffffffffffffffffffffffffffffff1673ffffffffffffffffffffffffffffffffffffffff166359574c38856040518263ffffffff1660e01b8152600401610b69919061445a565b6101806040518083038186803b158015610b8257600080fd5b505afa158015610b96573d6000803e3d6000fd5b505050506040513d601f19601f82011682018060405250810190610bba9190613ca0565b905061012e60009054906101000a900473ffffffffffffffffffffffffffffffffffffffff1673ffffffffffffffffffffffffffffffffffffffff16636352211e8284600c8110610c34577f4e487b7100000000000000000000000000000000000000000000000000000000600052603260045260246000fd5b60200201516040518263ffffffff1660e01b8152600401610c55919061445a565b60206040518083038186803b158015610c6d57600080fd5b505afa158015610c81573d6000803e3d6000fd5b505050506040513d601f19601f82011682018060405250810190610ca59190613a96565b92505050919050565b60008073ffffffffffffffffffffffffffffffffffffffff1661012e60009054906101000a900473ffffffffffffffffffffffffffffffffffffffff1673ffffffffffffffffffffffffffffffffffffffff161415610d42576040517f08c379a0000000000000000000000000000000000000000000000000000000008152600401610d399061427a565b60405180910390fd5b600061012e60009054906101000a900473ffffffffffffffffffffffffffffffffffffffff1673ffffffffffffffffffffffffffffffffffffffff166370a08231846040518263ffffffff1660e01b8152600401610da09190614124565b60206040518083038186803b158015610db857600080fd5b505afa158015610dcc573d6000803e3d6000fd5b505050506040513d601f19601f82011682018060405250810190610df09190613d86565b905060006001610dff42612145565b610e0991906148be565b90506000805b83811015610fa857600061012e60009054906101000a900473ffffffffffffffffffffffffffffffffffffffff1673ffffffffffffffffffffffffffffffffffffffff16632f745c5988846040518363ffffffff1660e01b8152600401610e779291906141c2565b60206040518083038186803b158015610e8f57600080fd5b505afa158015610ea3573d6000803e3d6000fd5b505050506040513d601f19601f82011682018060405250810190610ec79190613d86565b9050600061012e60009054906101000a900473ffffffffffffffffffffffffffffffffffffffff1673ffffffffffffffffffffffffffffffffffffffff1663989620df836040518263ffffffff1660e01b8152600401610f27919061445a565b60206040518083038186803b158015610f3f57600080fd5b505afa158015610f53573d6000803e3d6000fd5b505050506040513d601f19601f82011682018060405250810190610f779190613deb565b60ff16905084811415610f93578380610f8f90614a22565b9450505b50508080610fa090614a22565b915050610e0f565b50809350505050919050565b610fbc612174565b73ffffffffffffffffffffffffffffffffffffffff16610fda6116eb565b73ffffffffffffffffffffffffffffffffffffffff1614611030576040517f08c379a00000000000000000000000000000000000000000000000000000000081526004016110279061439a565b60405180910390fd5b600073ffffffffffffffffffffffffffffffffffffffff1660fb60009054906101000a900473ffffffffffffffffffffffffffffffffffffffff1673ffffffffffffffffffffffffffffffffffffffff167f8be0079c531659141344cd1fd0a4f28419497f9722a3daafe3b4186f6b6457e060405160405180910390a3600060fb60006101000a81548173ffffffffffffffffffffffffffffffffffffffff021916908373ffffffffffffffffffffffffffffffffffffffff160217905550565b600073ffffffffffffffffffffffffffffffffffffffff1661012e60009054906101000a900473ffffffffffffffffffffffffffffffffffffffff1673ffffffffffffffffffffffffffffffffffffffff161415611184576040517f08c379a000000000000000000000000000000000000000000000000000000000815260040161117b9061427a565b60405180910390fd5b600061013060008481526020019081526020016000206040518060400160405290816000820160009054906101000a900473ffffffffffffffffffffffffffffffffffffffff1673ffffffffffffffffffffffffffffffffffffffff1673ffffffffffffffffffffffffffffffffffffffff1681526020016001820154815250509050600073ffffffffffffffffffffffffffffffffffffffff16816000015173ffffffffffffffffffffffffffffffffffffffff161415801561124d57506000816020015114155b61128c576040517f08c379a00000000000000000000000000000000000000000000000000000000081526004016112839061441a565b60405180910390fd5b61012f6000826000015173ffffffffffffffffffffffffffffffffffffffff1673ffffffffffffffffffffffffffffffffffffffff168152602001908152602001600020600082602001518152602001908152602001600020600090556101306000848152602001908152602001600020600080820160006101000a81549073ffffffffffffffffffffffffffffffffffffffff02191690556001820160009055505061012e60009054906101000a900473ffffffffffffffffffffffffffffffffffffffff1673ffffffffffffffffffffffffffffffffffffffff16638d6e1b6733856040518363ffffffff1660e01b815260040161138d9291906141c2565b600060405180830381600087803b1580156113a757600080fd5b505af11580156113bb573d6000803e3d6000fd5b50505050806000015173ffffffffffffffffffffffffffffffffffffffff166342842e0e308484602001516040518463ffffffff1660e01b81526004016114049392919061413f565b600060405180830381600087803b15801561141e57600080fd5b505af1158015611432573d6000803e3d6000fd5b5050505061143f8361217c565b8173ffffffffffffffffffffffffffffffffffffffff163373ffffffffffffffffffffffffffffffffffffffff167faee47cdf925cf525fdae94f9777ee5a06cac37e1c41220d0a8a89ed154f62d1c83600001518460200151876040516114a8939291906141eb565b60405180910390a3505050565b6114bd612174565b73ffffffffffffffffffffffffffffffffffffffff166114db6116eb565b73ffffffffffffffffffffffffffffffffffffffff1614611531576040517f08c379a00000000000000000000000000000000000000000000000000000000081526004016115289061439a565b60405180910390fd5b8061012e60006101000a81548173ffffffffffffffffffffffffffffffffffffffff021916908373ffffffffffffffffffffffffffffffffffffffff16021790555050565b600060019054906101000a900460ff168061159c575060008054906101000a900460ff16155b6115db576040517f08c379a00000000000000000000000000000000000000000000000000000000081526004016115d29061435a565b60405180910390fd5b60008060019054906101000a900460ff16159050801561162b576001600060016101000a81548160ff02191690831515021790555060016000806101000a81548160ff0219169083151502179055505b61163361228d565b61163b612366565b61164361243f565b6116b76040518060400160405280600981526020017f54696d65736861726500000000000000000000000000000000000000000000008152506040518060400160405280600581526020017f53484152450000000000000000000000000000000000000000000000000000008152506125c1565b6116bf6126b6565b6116c761278f565b80156116e85760008060016101000a81548160ff0219169083151502179055505b50565b600060fb60009054906101000a900473ffffffffffffffffffffffffffffffffffffffff16905090565b606060668054611724906149bf565b80601f0160208091040260200160405190810160405280929190818152602001828054611750906149bf565b801561179d5780601f106117725761010080835404028352916020019161179d565b820191906000526020600020905b81548152906001019060200180831161178057829003601f168201915b5050505050905090565b60006117e8576040517f08c379a00000000000000000000000000000000000000000000000000000000081526004016117df9061443a565b60405180910390fd5b5050565b600061182d576040517f08c379a00000000000000000000000000000000000000000000000000000000081526004016118249061443a565b60405180910390fd5b50505050565b600061012f60008473ffffffffffffffffffffffffffffffffffffffff1673ffffffffffffffffffffffffffffffffffffffff168152602001908152602001600020600083815260200190815260200160002054905092915050565b600073ffffffffffffffffffffffffffffffffffffffff1661012e60009054906101000a900473ffffffffffffffffffffffffffffffffffffffff1673ffffffffffffffffffffffffffffffffffffffff161415611922576040517f08c379a00000000000000000000000000000000000000000000000000000000081526004016119199061427a565b60405180910390fd5b61012e60009054906101000a900473ffffffffffffffffffffffffffffffffffffffff1673ffffffffffffffffffffffffffffffffffffffff168473ffffffffffffffffffffffffffffffffffffffff1614156119b4576040517f08c379a00000000000000000000000000000000000000000000000000000000081526004016119ab906143da565b60405180910390fd5b6119bf61012d612868565b60006119cc61012d61287e565b90506119d8308261288c565b8061012f60008773ffffffffffffffffffffffffffffffffffffffff1673ffffffffffffffffffffffffffffffffffffffff16815260200190815260200160002060008681526020019081526020016000208190555060405180604001604052808673ffffffffffffffffffffffffffffffffffffffff16815260200185815250610130600083815260200190815260200160002060008201518160000160006101000a81548173ffffffffffffffffffffffffffffffffffffffff021916908373ffffffffffffffffffffffffffffffffffffffff1602179055506020820151816001015590505061012e60009054906101000a900473ffffffffffffffffffffffffffffffffffffffff1673ffffffffffffffffffffffffffffffffffffffff166306d64af782846040518363ffffffff1660e01b8152600401611b1f929190614475565b600060405180830381600087803b158015611b3957600080fd5b505af1158015611b4d573d6000803e3d6000fd5b505050508473ffffffffffffffffffffffffffffffffffffffff166342842e0e8430876040518463ffffffff1660e01b8152600401611b8e9392919061413f565b600060405180830381600087803b158015611ba857600080fd5b505af1158015611bbc573d6000803e3d6000fd5b505050508173ffffffffffffffffffffffffffffffffffffffff163373ffffffffffffffffffffffffffffffffffffffff168473ffffffffffffffffffffffffffffffffffffffff167fe354026b0ea4d7022834b4903ab420cdc10b109a8506dc68061124854cd353c8888886604051611c38939291906141eb565b60405180910390a45050505050565b6060611c52826128aa565b611c91576040517f08c379a0000000000000000000000000000000000000000000000000000000008152600401611c88906143ba565b60405180910390fd5b6000611c9b61291a565b90506000815111611cbb5760405180602001604052806000815250611ce6565b80611cc58461293a565b604051602001611cd6929190614100565b6040516020818303038152906040525b915050919050565b600061012e60009054906101000a900473ffffffffffffffffffffffffffffffffffffffff16905090565b600080600061013060008581526020019081526020016000206040518060400160405290816000820160009054906101000a900473ffffffffffffffffffffffffffffffffffffffff1673ffffffffffffffffffffffffffffffffffffffff1673ffffffffffffffffffffffffffffffffffffffff1681526020016001820154815250509050806000015181602001519250925050915091565b600080611df5576040517f08c379a0000000000000000000000000000000000000000000000000000000008152600401611dec9061443a565b60405180910390fd5b6000905092915050565b611e07612174565b73ffffffffffffffffffffffffffffffffffffffff16611e256116eb565b73ffffffffffffffffffffffffffffffffffffffff1614611e7b576040517f08c379a0000000000000000000000000000000000000000000000000000000008152600401611e729061439a565b60405180910390fd5b600073ffffffffffffffffffffffffffffffffffffffff168173ffffffffffffffffffffffffffffffffffffffff161415611eeb576040517f08c379a0000000000000000000000000000000000000000000000000000000008152600401611ee2906142da565b60405180910390fd5b8073ffffffffffffffffffffffffffffffffffffffff1660fb60009054906101000a900473ffffffffffffffffffffffffffffffffffffffff1673ffffffffffffffffffffffffffffffffffffffff167f8be0079c531659141344cd1fd0a4f28419497f9722a3daafe3b4186f6b6457e060405160405180910390a38060fb60006101000a81548173ffffffffffffffffffffffffffffffffffffffff021916908373ffffffffffffffffffffffffffffffffffffffff16021790555050565b60007f80ac58cd000000000000000000000000000000000000000000000000000000007bffffffffffffffffffffffffffffffffffffffffffffffffffffffff1916827bffffffffffffffffffffffffffffffffffffffffffffffffffffffff1916148061207657507f5b5e139f000000000000000000000000000000000000000000000000000000007bffffffffffffffffffffffffffffffffffffffffffffffffffffffff1916827bffffffffffffffffffffffffffffffffffffffffffffffffffffffff1916145b80612086575061208582612ae7565b5b9050919050565b60008073ffffffffffffffffffffffffffffffffffffffff168273ffffffffffffffffffffffffffffffffffffffff1614156120fe576040517f08c379a00000000000000000000000000000000000000000000000000000000081526004016120f59061431a565b60405180910390fd5b606860008373ffffffffffffffffffffffffffffffffffffffff1673ffffffffffffffffffffffffffffffffffffffff168152602001908152602001600020549050919050565b6000806000612161620151808561215c91906146e2565b612b51565b8093508195508294505050505050919050565b600033905090565b600061218782612cf0565b905061219581600084612da2565b6121a0600083612eb6565b6001606860008373ffffffffffffffffffffffffffffffffffffffff1673ffffffffffffffffffffffffffffffffffffffff16815260200190815260200160002060008282546121f091906148be565b925050819055506067600083815260200190815260200160002060006101000a81549073ffffffffffffffffffffffffffffffffffffffff021916905581600073ffffffffffffffffffffffffffffffffffffffff168273ffffffffffffffffffffffffffffffffffffffff167fddf252ad1be2c89b69c2b068fc378daa952ba7f163c4a11628f55a4df523b3ef60405160405180910390a45050565b600060019054906101000a900460ff16806122b3575060008054906101000a900460ff16155b6122f2576040517f08c379a00000000000000000000000000000000000000000000000000000000081526004016122e99061435a565b60405180910390fd5b60008060019054906101000a900460ff161590508015612342576001600060016101000a81548160ff02191690831515021790555060016000806101000a81548160ff0219169083151502179055505b80156123635760008060016101000a81548160ff0219169083151502179055505b50565b600060019054906101000a900460ff168061238c575060008054906101000a900460ff16155b6123cb576040517f08c379a00000000000000000000000000000000000000000000000000000000081526004016123c29061435a565b60405180910390fd5b60008060019054906101000a900460ff16159050801561241b576001600060016101000a81548160ff02191690831515021790555060016000806101000a81548160ff0219169083151502179055505b801561243c5760008060016101000a81548160ff0219169083151502179055505b50565b600060019054906101000a900460ff1680612465575060008054906101000a900460ff16155b6124a4576040517f08c379a000000000000000000000000000000000000000000000000000000000815260040161249b9061435a565b60405180910390fd5b60008060019054906101000a900460ff1615905080156124f4576001600060016101000a81548160ff02191690831515021790555060016000806101000a81548160ff0219169083151502179055505b60006124fe612174565b90508060fb60006101000a81548173ffffffffffffffffffffffffffffffffffffffff021916908373ffffffffffffffffffffffffffffffffffffffff1602179055508073ffffffffffffffffffffffffffffffffffffffff16600073ffffffffffffffffffffffffffffffffffffffff167f8be0079c531659141344cd1fd0a4f28419497f9722a3daafe3b4186f6b6457e060405160405180910390a35080156125be5760008060016101000a81548160ff0219169083151502179055505b50565b600060019054906101000a900460ff16806125e7575060008054906101000a900460ff16155b612626576040517f08c379a000000000000000000000000000000000000000000000000000000000815260040161261d9061435a565b60405180910390fd5b60008060019054906101000a900460ff161590508015612676576001600060016101000a81548160ff02191690831515021790555060016000806101000a81548160ff0219169083151502179055505b61267e61228d565b612686612366565b6126908383612f6f565b80156126b15760008060016101000a81548160ff0219169083151502179055505b505050565b600060019054906101000a900460ff16806126dc575060008054906101000a900460ff16155b61271b576040517f08c379a00000000000000000000000000000000000000000000000000000000081526004016127129061435a565b60405180910390fd5b60008060019054906101000a900460ff16159050801561276b576001600060016101000a81548160ff02191690831515021790555060016000806101000a81548160ff0219169083151502179055505b801561278c5760008060016101000a81548160ff0219169083151502179055505b50565b600060019054906101000a900460ff16806127b5575060008054906101000a900460ff16155b6127f4576040517f08c379a00000000000000000000000000000000000000000000000000000000081526004016127eb9061435a565b60405180910390fd5b60008060019054906101000a900460ff161590508015612844576001600060016101000a81548160ff02191690831515021790555060016000806101000a81548160ff0219169083151502179055505b80156128655760008060016101000a81548160ff0219169083151502179055505b50565b6001816000016000828254019250508190555050565b600081600001549050919050565b6128a6828260405180602001604052806000815250613078565b5050565b60008073ffffffffffffffffffffffffffffffffffffffff16610130600084815260200190815260200160002060000160009054906101000a900473ffffffffffffffffffffffffffffffffffffffff1673ffffffffffffffffffffffffffffffffffffffff1614159050919050565b606060405180606001604052806026815260200161500c60269139905090565b60606000821415612982576040518060400160405280600181526020017f30000000000000000000000000000000000000000000000000000000000000008152509050612ae2565b600082905060005b600082146129b457808061299d90614a22565b915050600a826129ad91906146e2565b915061298a565b60008167ffffffffffffffff8111156129f6577f4e487b7100000000000000000000000000000000000000000000000000000000600052604160045260246000fd5b6040519080825280601f01601f191660200182016040528015612a285781602001600182028036833780820191505090505b5090505b60008514612adb57600182612a4191906148be565b9150600a85612a509190614a6b565b6030612a5c9190614622565b60f81b818381518110612a98577f4e487b7100000000000000000000000000000000000000000000000000000000600052603260045260246000fd5b60200101907effffffffffffffffffffffffffffffffffffffffffffffffffffffffffffff1916908160001a905350600a85612ad491906146e2565b9450612a2c565b8093505050505b919050565b60007f01ffc9a7000000000000000000000000000000000000000000000000000000007bffffffffffffffffffffffffffffffffffffffffffffffffffffffff1916827bffffffffffffffffffffffffffffffffffffffffffffffffffffffff1916149050919050565b600080600080849050600062253d8c62010bd983612b6f919061458e565b612b79919061458e565b9050600062023ab1826004612b8e9190614713565b612b989190614678565b9050600460038262023ab1612bad9190614713565b612bb7919061458e565b612bc19190614678565b82612bcc919061482a565b9150600062164b09600184612be1919061458e565b610fa0612bee9190614713565b612bf89190614678565b9050601f6004826105b5612c0c9190614713565b612c169190614678565b84612c21919061482a565b612c2b919061458e565b9250600061098f846050612c3f9190614713565b612c499190614678565b9050600060508261098f612c5d9190614713565b612c679190614678565b85612c72919061482a565b9050600b82612c819190614678565b945084600c612c909190614713565b600283612c9d919061458e565b612ca7919061482a565b91508483603186612cb8919061482a565b6064612cc49190614713565b612cce919061458e565b612cd8919061458e565b92508298508197508096505050505050509193909250565b6000806067600084815260200190815260200160002060009054906101000a900473ffffffffffffffffffffffffffffffffffffffff169050600073ffffffffffffffffffffffffffffffffffffffff168173ffffffffffffffffffffffffffffffffffffffff161415612d99576040517f08c379a0000000000000000000000000000000000000000000000000000000008152600401612d909061433a565b60405180910390fd5b80915050919050565b612dad8383836130d3565b600073ffffffffffffffffffffffffffffffffffffffff168373ffffffffffffffffffffffffffffffffffffffff161415612df057612deb816130d8565b612e2f565b8173ffffffffffffffffffffffffffffffffffffffff168373ffffffffffffffffffffffffffffffffffffffff1614612e2e57612e2d8382613121565b5b5b600073ffffffffffffffffffffffffffffffffffffffff168273ffffffffffffffffffffffffffffffffffffffff161415612e7257612e6d8161328e565b612eb1565b8273ffffffffffffffffffffffffffffffffffffffff168273ffffffffffffffffffffffffffffffffffffffff1614612eb057612eaf82826133d1565b5b5b505050565b816069600083815260200190815260200160002060006101000a81548173ffffffffffffffffffffffffffffffffffffffff021916908373ffffffffffffffffffffffffffffffffffffffff160217905550808273ffffffffffffffffffffffffffffffffffffffff16612f2983612cf0565b73ffffffffffffffffffffffffffffffffffffffff167f8c5be1e5ebec7d5bd14f71427d1e84f3dd0314c0f7b2291e5b200ac8c7c3b92560405160405180910390a45050565b600060019054906101000a900460ff1680612f95575060008054906101000a900460ff16155b612fd4576040517f08c379a0000000000000000000000000000000000000000000000000000000008152600401612fcb9061435a565b60405180910390fd5b60008060019054906101000a900460ff161590508015613024576001600060016101000a81548160ff02191690831515021790555060016000806101000a81548160ff0219169083151502179055505b826065908051906020019061303a9291906137c8565b5081606690805190602001906130519291906137c8565b5080156130735760008060016101000a81548160ff0219169083151502179055505b505050565b6130828383613450565b61308f600084848461361e565b6130ce576040517f08c379a00000000000000000000000000000000000000000000000000000000081526004016130c5906142ba565b60405180910390fd5b505050565b505050565b609980549050609a600083815260200190815260200160002081905550609981908060018154018082558091505060019003906000526020600020016000909190919091505550565b6000600161312e8461208d565b61313891906148be565b905060006098600084815260200190815260200160002054905081811461321d576000609760008673ffffffffffffffffffffffffffffffffffffffff1673ffffffffffffffffffffffffffffffffffffffff168152602001908152602001600020600084815260200190815260200160002054905080609760008773ffffffffffffffffffffffffffffffffffffffff1673ffffffffffffffffffffffffffffffffffffffff168152602001908152602001600020600084815260200190815260200160002081905550816098600083815260200190815260200160002081905550505b6098600084815260200190815260200160002060009055609760008573ffffffffffffffffffffffffffffffffffffffff1673ffffffffffffffffffffffffffffffffffffffff16815260200190815260200160002060008381526020019081526020016000206000905550505050565b600060016099805490506132a291906148be565b90506000609a60008481526020019081526020016000205490506000609983815481106132f8577f4e487b7100000000000000000000000000000000000000000000000000000000600052603260045260246000fd5b906000526020600020015490508060998381548110613340577f4e487b7100000000000000000000000000000000000000000000000000000000600052603260045260246000fd5b906000526020600020018190555081609a600083815260200190815260200160002081905550609a60008581526020019081526020016000206000905560998054806133b5577f4e487b7100000000000000000000000000000000000000000000000000000000600052603160045260246000fd5b6001900381819060005260206000200160009055905550505050565b60006133dc8361208d565b905081609760008573ffffffffffffffffffffffffffffffffffffffff1673ffffffffffffffffffffffffffffffffffffffff168152602001908152602001600020600083815260200190815260200160002081905550806098600084815260200190815260200160002081905550505050565b600073ffffffffffffffffffffffffffffffffffffffff168273ffffffffffffffffffffffffffffffffffffffff1614156134c0576040517f08c379a00000000000000000000000000000000000000000000000000000000081526004016134b79061437a565b60405180910390fd5b6134c9816128aa565b15613509576040517f08c379a0000000000000000000000000000000000000000000000000000000008152600401613500906142fa565b60405180910390fd5b61351560008383612da2565b6001606860008473ffffffffffffffffffffffffffffffffffffffff1673ffffffffffffffffffffffffffffffffffffffff16815260200190815260200160002060008282546135659190614622565b92505081905550816067600083815260200190815260200160002060006101000a81548173ffffffffffffffffffffffffffffffffffffffff021916908373ffffffffffffffffffffffffffffffffffffffff160217905550808273ffffffffffffffffffffffffffffffffffffffff16600073ffffffffffffffffffffffffffffffffffffffff167fddf252ad1be2c89b69c2b068fc378daa952ba7f163c4a11628f55a4df523b3ef60405160405180910390a45050565b600061363f8473ffffffffffffffffffffffffffffffffffffffff166137b5565b156137a8578373ffffffffffffffffffffffffffffffffffffffff1663150b7a02613668612174565b8786866040518563ffffffff1660e01b815260040161368a9493929190614176565b602060405180830381600087803b1580156136a457600080fd5b505af19250505080156136d557506040513d601f19601f820116820180604052508101906136d29190613cf3565b60015b613758573d8060008114613705576040519150601f19603f3d011682016040523d82523d6000602084013e61370a565b606091505b50600081511415613750576040517f08c379a0000000000000000000000000000000000000000000000000000000008152600401613747906142ba565b60405180910390fd5b805181602001fd5b63150b7a0260e01b7bffffffffffffffffffffffffffffffffffffffffffffffffffffffff1916817bffffffffffffffffffffffffffffffffffffffffffffffffffffffff1916149150506137ad565b600190505b949350505050565b600080823b905060008111915050919050565b8280546137d4906149bf565b90600052602060002090601f0160209004810192826137f6576000855561383d565b82601f1061380f57805160ff191683800117855561383d565b8280016001018555821561383d579182015b8281111561383c578251825591602001919060010190613821565b5b50905061384a919061384e565b5090565b5b8082111561386757600081600090555060010161384f565b5090565b600061387e613879846144c3565b61449e565b9050808285602086028201111561389457600080fd5b60005b858110156138c457816138aa8882613a43565b845260208401935060208301925050600181019050613897565b5050509392505050565b60006138e16138dc846144e9565b61449e565b9050828152602081018484840111156138f957600080fd5b61390484828561497d565b509392505050565b600061391f61391a8461451a565b61449e565b90508281526020810184848401111561393757600080fd5b61394284828561498c565b509392505050565b60008135905061395981614f98565b92915050565b60008151905061396e81614f98565b92915050565b600082601f83011261398557600080fd5b600c61399284828561386b565b91505092915050565b6000813590506139aa81614faf565b92915050565b6000813590506139bf81614fc6565b92915050565b6000815190506139d481614fc6565b92915050565b600082601f8301126139eb57600080fd5b81356139fb8482602086016138ce565b91505092915050565b600082601f830112613a1557600080fd5b8151613a2584826020860161390c565b91505092915050565b600081359050613a3d81614fdd565b92915050565b600081519050613a5281614fdd565b92915050565b600081519050613a6781614ff4565b92915050565b600060208284031215613a7f57600080fd5b6000613a8d8482850161394a565b91505092915050565b600060208284031215613aa857600080fd5b6000613ab68482850161395f565b91505092915050565b60008060408385031215613ad257600080fd5b6000613ae08582860161394a565b9250506020613af18582860161394a565b9150509250929050565b600080600060608486031215613b1057600080fd5b6000613b1e8682870161394a565b9350506020613b2f8682870161394a565b9250506040613b4086828701613a2e565b9150509250925092565b60008060008060808587031215613b6057600080fd5b6000613b6e8782880161394a565b9450506020613b7f8782880161394a565b9350506040613b9087828801613a2e565b925050606085013567ffffffffffffffff811115613bad57600080fd5b613bb9878288016139da565b91505092959194509250565b60008060408385031215613bd857600080fd5b6000613be68582860161394a565b9250506020613bf78582860161399b565b9150509250929050565b60008060408385031215613c1457600080fd5b6000613c228582860161394a565b9250506020613c3385828601613a2e565b9150509250929050565b60008060008060808587031215613c5357600080fd5b6000613c618782880161394a565b9450506020613c7287828801613a2e565b9350506040613c838782880161394a565b9250506060613c948782880161394a565b91505092959194509250565b60006101808284031215613cb357600080fd5b6000613cc184828501613974565b91505092915050565b600060208284031215613cdc57600080fd5b6000613cea848285016139b0565b91505092915050565b600060208284031215613d0557600080fd5b6000613d13848285016139c5565b91505092915050565b600060208284031215613d2e57600080fd5b600082015167ffffffffffffffff811115613d4857600080fd5b613d5484828501613a04565b91505092915050565b600060208284031215613d6f57600080fd5b6000613d7d84828501613a2e565b91505092915050565b600060208284031215613d9857600080fd5b6000613da684828501613a43565b91505092915050565b60008060408385031215613dc257600080fd5b6000613dd085828601613a2e565b9250506020613de18582860161394a565b9150509250929050565b600060208284031215613dfd57600080fd5b6000613e0b84828501613a58565b91505092915050565b613e1d816148f2565b82525050565b613e2c81614904565b82525050565b613e3b81614910565b82525050565b6000613e4c8261454b565b613e568185614561565b9350613e6681856020860161498c565b613e6f81614b58565b840191505092915050565b6000613e8582614556565b613e8f8185614572565b9350613e9f81856020860161498c565b613ea881614b58565b840191505092915050565b6000613ebe82614556565b613ec88185614583565b9350613ed881856020860161498c565b80840191505092915050565b6000613ef1602f83614572565b9150613efc82614b69565b604082019050919050565b6000613f14602b83614572565b9150613f1f82614bb8565b604082019050919050565b6000613f37603283614572565b9150613f4282614c07565b604082019050919050565b6000613f5a602683614572565b9150613f6582614c56565b604082019050919050565b6000613f7d601c83614572565b9150613f8882614ca5565b602082019050919050565b6000613fa0602a83614572565b9150613fab82614cce565b604082019050919050565b6000613fc3602983614572565b9150613fce82614d1d565b604082019050919050565b6000613fe6602e83614572565b9150613ff182614d6c565b604082019050919050565b6000614009602083614572565b915061401482614dbb565b602082019050919050565b600061402c602083614572565b915061403782614de4565b602082019050919050565b600061404f602f83614572565b915061405a82614e0d565b604082019050919050565b6000614072602f83614572565b915061407d82614e5c565b604082019050919050565b6000614095602c83614572565b91506140a082614eab565b604082019050919050565b60006140b8602583614572565b91506140c382614efa565b604082019050919050565b60006140db602383614572565b91506140e682614f49565b604082019050919050565b6140fa81614966565b82525050565b600061410c8285613eb3565b91506141188284613eb3565b91508190509392505050565b60006020820190506141396000830184613e14565b92915050565b60006060820190506141546000830186613e14565b6141616020830185613e14565b61416e60408301846140f1565b949350505050565b600060808201905061418b6000830187613e14565b6141986020830186613e14565b6141a560408301856140f1565b81810360608301526141b78184613e41565b905095945050505050565b60006040820190506141d76000830185613e14565b6141e460208301846140f1565b9392505050565b60006060820190506142006000830186613e14565b61420d60208301856140f1565b61421a60408301846140f1565b949350505050565b60006020820190506142376000830184613e23565b92915050565b60006020820190506142526000830184613e32565b92915050565b600060208201905081810360008301526142728184613e7a565b905092915050565b6000602082019050818103600083015261429381613ee4565b9050919050565b600060208201905081810360008301526142b381613f07565b9050919050565b600060208201905081810360008301526142d381613f2a565b9050919050565b600060208201905081810360008301526142f381613f4d565b9050919050565b6000602082019050818103600083015261431381613f70565b9050919050565b6000602082019050818103600083015261433381613f93565b9050919050565b6000602082019050818103600083015261435381613fb6565b9050919050565b6000602082019050818103600083015261437381613fd9565b9050919050565b6000602082019050818103600083015261439381613ffc565b9050919050565b600060208201905081810360008301526143b38161401f565b9050919050565b600060208201905081810360008301526143d381614042565b9050919050565b600060208201905081810360008301526143f381614065565b9050919050565b6000602082019050818103600083015261441381614088565b9050919050565b60006020820190508181036000830152614433816140ab565b9050919050565b60006020820190508181036000830152614453816140ce565b9050919050565b600060208201905061446f60008301846140f1565b92915050565b600060408201905061448a60008301856140f1565b6144976020830184613e14565b9392505050565b60006144a86144b9565b90506144b482826149f1565b919050565b6000604051905090565b600067ffffffffffffffff8211156144de576144dd614b29565b5b602082029050919050565b600067ffffffffffffffff82111561450457614503614b29565b5b61450d82614b58565b9050602081019050919050565b600067ffffffffffffffff82111561453557614534614b29565b5b61453e82614b58565b9050602081019050919050565b600081519050919050565b600081519050919050565b600082825260208201905092915050565b600082825260208201905092915050565b600081905092915050565b60006145998261493c565b91506145a48361493c565b9250817f7fffffffffffffffffffffffffffffffffffffffffffffffffffffffffffffff038313600083121516156145df576145de614a9c565b5b817f800000000000000000000000000000000000000000000000000000000000000003831260008312161561461757614616614a9c565b5b828201905092915050565b600061462d82614966565b915061463883614966565b9250827fffffffffffffffffffffffffffffffffffffffffffffffffffffffffffffffff0382111561466d5761466c614a9c565b5b828201905092915050565b60006146838261493c565b915061468e8361493c565b92508261469e5761469d614acb565b5b600160000383147f8000000000000000000000000000000000000000000000000000000000000000831416156146d7576146d6614a9c565b5b828205905092915050565b60006146ed82614966565b91506146f883614966565b92508261470857614707614acb565b5b828204905092915050565b600061471e8261493c565b91506147298361493c565b9250827f7fffffffffffffffffffffffffffffffffffffffffffffffffffffffffffffff048211600084136000841316161561476857614767614a9c565b5b817f800000000000000000000000000000000000000000000000000000000000000005831260008412600084131616156147a5576147a4614a9c565b5b827f800000000000000000000000000000000000000000000000000000000000000005821260008413600084121616156147e2576147e1614a9c565b5b827f7fffffffffffffffffffffffffffffffffffffffffffffffffffffffffffffff058212600084126000841216161561481f5761481e614a9c565b5b828202905092915050565b60006148358261493c565b91506148408361493c565b9250827f80000000000000000000000000000000000000000000000000000000000000000182126000841215161561487b5761487a614a9c565b5b827f7fffffffffffffffffffffffffffffffffffffffffffffffffffffffffffffff0182136000841216156148b3576148b2614a9c565b5b828203905092915050565b60006148c982614966565b91506148d483614966565b9250828210156148e7576148e6614a9c565b5b828203905092915050565b60006148fd82614946565b9050919050565b60008115159050919050565b60007fffffffff0000000000000000000000000000000000000000000000000000000082169050919050565b6000819050919050565b600073ffffffffffffffffffffffffffffffffffffffff82169050919050565b6000819050919050565b600060ff82169050919050565b82818337600083830152505050565b60005b838110156149aa57808201518184015260208101905061498f565b838111156149b9576000848401525b50505050565b600060028204905060018216806149d757607f821691505b602082108114156149eb576149ea614afa565b5b50919050565b6149fa82614b58565b810181811067ffffffffffffffff82111715614a1957614a18614b29565b5b80604052505050565b6000614a2d82614966565b91507fffffffffffffffffffffffffffffffffffffffffffffffffffffffffffffffff821415614a6057614a5f614a9c565b5b600182019050919050565b6000614a7682614966565b9150614a8183614966565b925082614a9157614a90614acb565b5b828206905092915050565b7f4e487b7100000000000000000000000000000000000000000000000000000000600052601160045260246000fd5b7f4e487b7100000000000000000000000000000000000000000000000000000000600052601260045260246000fd5b7f4e487b7100000000000000000000000000000000000000000000000000000000600052602260045260246000fd5b7f4e487b7100000000000000000000000000000000000000000000000000000000600052604160045260246000fd5b6000601f19601f8301169050919050565b7f4e4654696d65736861726520636f6e747261637420616464726573732068617360008201527f6e2774206265656e207365742075700000000000000000000000000000000000602082015250565b7f455243373231456e756d657261626c653a206f776e657220696e646578206f7560008201527f74206f6620626f756e6473000000000000000000000000000000000000000000602082015250565b7f4552433732313a207472616e7366657220746f206e6f6e20455243373231526560008201527f63656976657220696d706c656d656e7465720000000000000000000000000000602082015250565b7f4f776e61626c653a206e6577206f776e657220697320746865207a65726f206160008201527f6464726573730000000000000000000000000000000000000000000000000000602082015250565b7f4552433732313a20746f6b656e20616c7265616479206d696e74656400000000600082015250565b7f4552433732313a2062616c616e636520717565727920666f7220746865207a6560008201527f726f206164647265737300000000000000000000000000000000000000000000602082015250565b7f4552433732313a206f776e657220717565727920666f72206e6f6e657869737460008201527f656e7420746f6b656e0000000000000000000000000000000000000000000000602082015250565b7f496e697469616c697a61626c653a20636f6e747261637420697320616c72656160008201527f647920696e697469616c697a6564000000000000000000000000000000000000602082015250565b7f4552433732313a206d696e7420746f20746865207a65726f2061646472657373600082015250565b7f4f776e61626c653a2063616c6c6572206973206e6f7420746865206f776e6572600082015250565b7f4552433732314d657461646174613a2055524920717565727920666f72206e6f60008201527f6e6578697374656e7420746f6b656e0000000000000000000000000000000000602082015250565b7f4465706f7369743a2043616e74206d616b652074696d65736861726573206f7560008201527f74206f662074696d657368617265730000000000000000000000000000000000602082015250565b7f455243373231456e756d657261626c653a20676c6f62616c20696e646578206f60008201527f7574206f6620626f756e64730000000000000000000000000000000000000000602082015250565b7f52656465656d2054696d6573686172653a204e6f6e6578697374656e7420746f60008201527f6b656e4964000000000000000000000000000000000000000000000000000000602082015250565b7f446973616c6c6f776564206f7065726174696f6e206f6e204e4654696d65736860008201527f6172650000000000000000000000000000000000000000000000000000000000602082015250565b614fa1816148f2565b8114614fac57600080fd5b50565b614fb881614904565b8114614fc357600080fd5b50565b614fcf81614910565b8114614fda57600080fd5b50565b614fe681614966565b8114614ff157600080fd5b50565b614ffd81614970565b811461500857600080fd5b5056fe687474703a2f2f7777772e6e6674696d657368617265732e66756e2f74696d6573686172652fa26469706673582212208bd46d53e285960edc2d5a7fc58b2d58378dd9c4fa35f915860a634a1e89518664736f6c63430008040033",
  "linkReferences": {},
  "deployedLinkReferences": {}
}