{
  "_format": "hh-sol-artifact-1",
  "contractName": "TestNFT",
  "sourceName": "contracts/utils/TestNFT.sol",
  "abi": [
    {
      "anonymous": false,
      "inputs": [
        {
          "indexed": true,
          "internalType": "address",
          "name": "owner",
          "type": "address"
        },
        {
          "indexed": true,
          "internalType": "address",
          "name": "approved",
          "type": "address"
        },
        {
          "indexed": true,
          "internalType": "uint256",
          "name": "tokenId",
          "type": "uint256"
        }
      ],
      "name": "Approval",
      "type": "event"
    },
    {
      "anonymous": false,
      "inputs": [
        {
          "indexed": true,
          "internalType": "address",
          "name": "owner",
          "type": "address"
        },
        {
          "indexed": true,
          "internalType": "address",
          "name": "operator",
          "type": "address"
        },
        {
          "indexed": false,
          "internalType": "bool",
          "name": "approved",
          "type": "bool"
        }
      ],
      "name": "ApprovalForAll",
      "type": "event"
    },
    {
      "anonymous": false,
      "inputs": [
        {
          "indexed": true,
          "internalType": "address",
          "name": "from",
          "type": "address"
        },
        {
          "indexed": true,
          "internalType": "address",
          "name": "to",
          "type": "address"
        },
        {
          "indexed": true,
          "internalType": "uint256",
          "name": "tokenId",
          "type": "uint256"
        }
      ],
      "name": "Transfer",
      "type": "event"
    },
    {
      "inputs": [
        {
          "internalType": "address",
          "name": "to",
          "type": "address"
        },
        {
          "internalType": "uint256",
          "name": "tokenId",
          "type": "uint256"
        }
      ],
      "name": "approve",
      "outputs": [],
      "stateMutability": "nonpayable",
      "type": "function"
    },
    {
      "inputs": [],
      "name": "awardTestNFT",
      "outputs": [
        {
          "internalType": "uint256",
          "name": "",
          "type": "uint256"
        }
      ],
      "stateMutability": "nonpayable",
      "type": "function"
    },
    {
      "inputs": [
        {
          "internalType": "address",
          "name": "owner",
          "type": "address"
        }
      ],
      "name": "balanceOf",
      "outputs": [
        {
          "internalType": "uint256",
          "name": "",
          "type": "uint256"
        }
      ],
      "stateMutability": "view",
      "type": "function"
    },
    {
      "inputs": [
        {
          "internalType": "uint256",
          "name": "tokenId",
          "type": "uint256"
        }
      ],
      "name": "getApproved",
      "outputs": [
        {
          "internalType": "address",
          "name": "",
          "type": "address"
        }
      ],
      "stateMutability": "view",
      "type": "function"
    },
    {
      "inputs": [],
      "name": "initialize",
      "outputs": [],
      "stateMutability": "nonpayable",
      "type": "function"
    },
    {
      "inputs": [
        {
          "internalType": "address",
          "name": "owner",
          "type": "address"
        },
        {
          "internalType": "address",
          "name": "operator",
          "type": "address"
        }
      ],
      "name": "isApprovedForAll",
      "outputs": [
        {
          "internalType": "bool",
          "name": "",
          "type": "bool"
        }
      ],
      "stateMutability": "view",
      "type": "function"
    },
    {
      "inputs": [],
      "name": "name",
      "outputs": [
        {
          "internalType": "string",
          "name": "",
          "type": "string"
        }
      ],
      "stateMutability": "view",
      "type": "function"
    },
    {
      "inputs": [
        {
          "internalType": "uint256",
          "name": "tokenId",
          "type": "uint256"
        }
      ],
      "name": "ownerOf",
      "outputs": [
        {
          "internalType": "address",
          "name": "",
          "type": "address"
        }
      ],
      "stateMutability": "view",
      "type": "function"
    },
    {
      "inputs": [
        {
          "internalType": "address",
          "name": "from",
          "type": "address"
        },
        {
          "internalType": "address",
          "name": "to",
          "type": "address"
        },
        {
          "internalType": "uint256",
          "name": "tokenId",
          "type": "uint256"
        }
      ],
      "name": "safeTransferFrom",
      "outputs": [],
      "stateMutability": "nonpayable",
      "type": "function"
    },
    {
      "inputs": [
        {
          "internalType": "address",
          "name": "from",
          "type": "address"
        },
        {
          "internalType": "address",
          "name": "to",
          "type": "address"
        },
        {
          "internalType": "uint256",
          "name": "tokenId",
          "type": "uint256"
        },
        {
          "internalType": "bytes",
          "name": "_data",
          "type": "bytes"
        }
      ],
      "name": "safeTransferFrom",
      "outputs": [],
      "stateMutability": "nonpayable",
      "type": "function"
    },
    {
      "inputs": [
        {
          "internalType": "address",
          "name": "operator",
          "type": "address"
        },
        {
          "internalType": "bool",
          "name": "approved",
          "type": "bool"
        }
      ],
      "name": "setApprovalForAll",
      "outputs": [],
      "stateMutability": "nonpayable",
      "type": "function"
    },
    {
      "inputs": [
        {
          "internalType": "bytes4",
          "name": "interfaceId",
          "type": "bytes4"
        }
      ],
      "name": "supportsInterface",
      "outputs": [
        {
          "internalType": "bool",
          "name": "",
          "type": "bool"
        }
      ],
      "stateMutability": "view",
      "type": "function"
    },
    {
      "inputs": [],
      "name": "symbol",
      "outputs": [
        {
          "internalType": "string",
          "name": "",
          "type": "string"
        }
      ],
      "stateMutability": "view",
      "type": "function"
    },
    {
      "inputs": [
        {
          "internalType": "uint256",
          "name": "index",
          "type": "uint256"
        }
      ],
      "name": "tokenByIndex",
      "outputs": [
        {
          "internalType": "uint256",
          "name": "",
          "type": "uint256"
        }
      ],
      "stateMutability": "view",
      "type": "function"
    },
    {
      "inputs": [
        {
          "internalType": "address",
          "name": "owner",
          "type": "address"
        },
        {
          "internalType": "uint256",
          "name": "index",
          "type": "uint256"
        }
      ],
      "name": "tokenOfOwnerByIndex",
      "outputs": [
        {
          "internalType": "uint256",
          "name": "",
          "type": "uint256"
        }
      ],
      "stateMutability": "view",
      "type": "function"
    },
    {
      "inputs": [
        {
          "internalType": "uint256",
          "name": "tokenId",
          "type": "uint256"
        }
      ],
      "name": "tokenURI",
      "outputs": [
        {
          "internalType": "string",
          "name": "",
          "type": "string"
        }
      ],
      "stateMutability": "view",
      "type": "function"
    },
    {
      "inputs": [],
      "name": "totalSupply",
      "outputs": [
        {
          "internalType": "uint256",
          "name": "",
          "type": "uint256"
        }
      ],
      "stateMutability": "view",
      "type": "function"
    },
    {
      "inputs": [
        {
          "internalType": "address",
          "name": "from",
          "type": "address"
        },
        {
          "internalType": "address",
          "name": "to",
          "type": "address"
        },
        {
          "internalType": "uint256",
          "name": "tokenId",
          "type": "uint256"
        }
      ],
      "name": "transferFrom",
      "outputs": [],
      "stateMutability": "nonpayable",
      "type": "function"
    }
  ],
  "bytecode": "0x608060405234801561001057600080fd5b5061364f806100206000396000f3fe608060405234801561001057600080fd5b50600436106101165760003560e01c80634f6ccce7116100a257806395d89b411161007157806395d89b41146102f3578063a22cb46514610311578063b88d4fde1461032d578063c87b56dd14610349578063e985e9c51461037957610116565b80634f6ccce7146102595780636352211e1461028957806370a08231146102b95780638129fc1c146102e957610116565b80630a642988116100e95780630a642988146101b557806318160ddd146101d357806323b872dd146101f15780632f745c591461020d57806342842e0e1461023d57610116565b806301ffc9a71461011b57806306fdde031461014b578063081812fc14610169578063095ea7b314610199575b600080fd5b610135600480360381019061013091906126bd565b6103a9565b6040516101429190612ae4565b60405180910390f35b610153610423565b6040516101609190612aff565b60405180910390f35b610183600480360381019061017e919061270f565b6104b5565b6040516101909190612a7d565b60405180910390f35b6101b360048036038101906101ae9190612681565b61053a565b005b6101bd610652565b6040516101ca9190612d21565b60405180910390f35b6101db61067d565b6040516101e89190612d21565b60405180910390f35b61020b6004803603810190610206919061257b565b61068a565b005b61022760048036038101906102229190612681565b6106ea565b6040516102349190612d21565b60405180910390f35b6102576004803603810190610252919061257b565b61078f565b005b610273600480360381019061026e919061270f565b6107af565b6040516102809190612d21565b60405180910390f35b6102a3600480360381019061029e919061270f565b610846565b6040516102b09190612a7d565b60405180910390f35b6102d360048036038101906102ce9190612516565b6108f8565b6040516102e09190612d21565b60405180910390f35b6102f16109b0565b005b6102fb610b05565b6040516103089190612aff565b60405180910390f35b61032b60048036038101906103269190612645565b610b97565b005b610347600480360381019061034291906125ca565b610d18565b005b610363600480360381019061035e919061270f565b610d7a565b6040516103709190612aff565b60405180910390f35b610393600480360381019061038e919061253f565b610dab565b6040516103a09190612ae4565b60405180910390f35b60007f780e9d63000000000000000000000000000000000000000000000000000000007bffffffffffffffffffffffffffffffffffffffffffffffffffffffff1916827bffffffffffffffffffffffffffffffffffffffffffffffffffffffff1916148061041c575061041b82610e3f565b5b9050919050565b60606065805461043290612f46565b80601f016020809104026020016040519081016040528092919081815260200182805461045e90612f46565b80156104ab5780601f10610480576101008083540402835291602001916104ab565b820191906000526020600020905b81548152906001019060200180831161048e57829003601f168201915b5050505050905090565b60006104c082610f21565b6104ff576040517f08c379a00000000000000000000000000000000000000000000000000000000081526004016104f690612c81565b60405180910390fd5b6069600083815260200190815260200160002060009054906101000a900473ffffffffffffffffffffffffffffffffffffffff169050919050565b600061054582610846565b90508073ffffffffffffffffffffffffffffffffffffffff168373ffffffffffffffffffffffffffffffffffffffff1614156105b6576040517f08c379a00000000000000000000000000000000000000000000000000000000081526004016105ad90612cc1565b60405180910390fd5b8073ffffffffffffffffffffffffffffffffffffffff166105d5610f8d565b73ffffffffffffffffffffffffffffffffffffffff1614806106045750610603816105fe610f8d565b610dab565b5b610643576040517f08c379a000000000000000000000000000000000000000000000000000000000815260040161063a90612be1565b60405180910390fd5b61064d8383610f95565b505050565b600061065e60c961104e565b600061066a60c9611064565b90506106763382611072565b8091505090565b6000609980549050905090565b61069b610695610f8d565b82611240565b6106da576040517f08c379a00000000000000000000000000000000000000000000000000000000081526004016106d190612ce1565b60405180910390fd5b6106e583838361131e565b505050565b60006106f5836108f8565b8210610736576040517f08c379a000000000000000000000000000000000000000000000000000000000815260040161072d90612b21565b60405180910390fd5b609760008473ffffffffffffffffffffffffffffffffffffffff1673ffffffffffffffffffffffffffffffffffffffff168152602001908152602001600020600083815260200190815260200160002054905092915050565b6107aa83838360405180602001604052806000815250610d18565b505050565b60006107b961067d565b82106107fa576040517f08c379a00000000000000000000000000000000000000000000000000000000081526004016107f190612d01565b60405180910390fd5b60998281548110610834577f4e487b7100000000000000000000000000000000000000000000000000000000600052603260045260246000fd5b90600052602060002001549050919050565b6000806067600084815260200190815260200160002060009054906101000a900473ffffffffffffffffffffffffffffffffffffffff169050600073ffffffffffffffffffffffffffffffffffffffff168173ffffffffffffffffffffffffffffffffffffffff1614156108ef576040517f08c379a00000000000000000000000000000000000000000000000000000000081526004016108e690612c21565b60405180910390fd5b80915050919050565b60008073ffffffffffffffffffffffffffffffffffffffff168273ffffffffffffffffffffffffffffffffffffffff161415610969576040517f08c379a000000000000000000000000000000000000000000000000000000000815260040161096090612c01565b60405180910390fd5b606860008373ffffffffffffffffffffffffffffffffffffffff1673ffffffffffffffffffffffffffffffffffffffff168152602001908152602001600020549050919050565b600060019054906101000a900460ff16806109d6575060008054906101000a900460ff16155b610a15576040517f08c379a0000000000000000000000000000000000000000000000000000000008152600401610a0c90612c41565b60405180910390fd5b60008060019054906101000a900460ff161590508015610a65576001600060016101000a81548160ff02191690831515021790555060016000806101000a81548160ff0219169083151502179055505b610ad96040518060400160405280600781526020017f546573744e4654000000000000000000000000000000000000000000000000008152506040518060400160405280600481526020017f746e66740000000000000000000000000000000000000000000000000000000081525061157a565b610ae161166f565b8015610b025760008060016101000a81548160ff0219169083151502179055505b50565b606060668054610b1490612f46565b80601f0160208091040260200160405190810160405280929190818152602001828054610b4090612f46565b8015610b8d5780601f10610b6257610100808354040283529160200191610b8d565b820191906000526020600020905b815481529060010190602001808311610b7057829003601f168201915b5050505050905090565b610b9f610f8d565b73ffffffffffffffffffffffffffffffffffffffff168273ffffffffffffffffffffffffffffffffffffffff161415610c0d576040517f08c379a0000000000000000000000000000000000000000000000000000000008152600401610c0490612ba1565b60405180910390fd5b80606a6000610c1a610f8d565b73ffffffffffffffffffffffffffffffffffffffff1673ffffffffffffffffffffffffffffffffffffffff16815260200190815260200160002060008473ffffffffffffffffffffffffffffffffffffffff1673ffffffffffffffffffffffffffffffffffffffff16815260200190815260200160002060006101000a81548160ff0219169083151502179055508173ffffffffffffffffffffffffffffffffffffffff16610cc7610f8d565b73ffffffffffffffffffffffffffffffffffffffff167f17307eab39ab6107e8899845ad3d59bd9653f200f220920489ca2b5937696c3183604051610d0c9190612ae4565b60405180910390a35050565b610d29610d23610f8d565b83611240565b610d68576040517f08c379a0000000000000000000000000000000000000000000000000000000008152600401610d5f90612ce1565b60405180910390fd5b610d7484848484611760565b50505050565b6060610d85826117bc565b604051602001610d959190612a5b565b6040516020818303038152906040529050919050565b6000606a60008473ffffffffffffffffffffffffffffffffffffffff1673ffffffffffffffffffffffffffffffffffffffff16815260200190815260200160002060008373ffffffffffffffffffffffffffffffffffffffff1673ffffffffffffffffffffffffffffffffffffffff16815260200190815260200160002060009054906101000a900460ff16905092915050565b60007f80ac58cd000000000000000000000000000000000000000000000000000000007bffffffffffffffffffffffffffffffffffffffffffffffffffffffff1916827bffffffffffffffffffffffffffffffffffffffffffffffffffffffff19161480610f0a57507f5b5e139f000000000000000000000000000000000000000000000000000000007bffffffffffffffffffffffffffffffffffffffffffffffffffffffff1916827bffffffffffffffffffffffffffffffffffffffffffffffffffffffff1916145b80610f1a5750610f1982611969565b5b9050919050565b60008073ffffffffffffffffffffffffffffffffffffffff166067600084815260200190815260200160002060009054906101000a900473ffffffffffffffffffffffffffffffffffffffff1673ffffffffffffffffffffffffffffffffffffffff1614159050919050565b600033905090565b816069600083815260200190815260200160002060006101000a81548173ffffffffffffffffffffffffffffffffffffffff021916908373ffffffffffffffffffffffffffffffffffffffff160217905550808273ffffffffffffffffffffffffffffffffffffffff1661100883610846565b73ffffffffffffffffffffffffffffffffffffffff167f8c5be1e5ebec7d5bd14f71427d1e84f3dd0314c0f7b2291e5b200ac8c7c3b92560405160405180910390a45050565b6001816000016000828254019250508190555050565b600081600001549050919050565b600073ffffffffffffffffffffffffffffffffffffffff168273ffffffffffffffffffffffffffffffffffffffff1614156110e2576040517f08c379a00000000000000000000000000000000000000000000000000000000081526004016110d990612c61565b60405180910390fd5b6110eb81610f21565b1561112b576040517f08c379a000000000000000000000000000000000000000000000000000000000815260040161112290612b61565b60405180910390fd5b611137600083836119d3565b6001606860008473ffffffffffffffffffffffffffffffffffffffff1673ffffffffffffffffffffffffffffffffffffffff16815260200190815260200160002060008282546111879190612dd5565b92505081905550816067600083815260200190815260200160002060006101000a81548173ffffffffffffffffffffffffffffffffffffffff021916908373ffffffffffffffffffffffffffffffffffffffff160217905550808273ffffffffffffffffffffffffffffffffffffffff16600073ffffffffffffffffffffffffffffffffffffffff167fddf252ad1be2c89b69c2b068fc378daa952ba7f163c4a11628f55a4df523b3ef60405160405180910390a45050565b600061124b82610f21565b61128a576040517f08c379a000000000000000000000000000000000000000000000000000000000815260040161128190612bc1565b60405180910390fd5b600061129583610846565b90508073ffffffffffffffffffffffffffffffffffffffff168473ffffffffffffffffffffffffffffffffffffffff16148061130457508373ffffffffffffffffffffffffffffffffffffffff166112ec846104b5565b73ffffffffffffffffffffffffffffffffffffffff16145b8061131557506113148185610dab565b5b91505092915050565b8273ffffffffffffffffffffffffffffffffffffffff1661133e82610846565b73ffffffffffffffffffffffffffffffffffffffff1614611394576040517f08c379a000000000000000000000000000000000000000000000000000000000815260040161138b90612ca1565b60405180910390fd5b600073ffffffffffffffffffffffffffffffffffffffff168273ffffffffffffffffffffffffffffffffffffffff161415611404576040517f08c379a00000000000000000000000000000000000000000000000000000000081526004016113fb90612b81565b60405180910390fd5b61140f8383836119d3565b61141a600082610f95565b6001606860008573ffffffffffffffffffffffffffffffffffffffff1673ffffffffffffffffffffffffffffffffffffffff168152602001908152602001600020600082825461146a9190612e5c565b925050819055506001606860008473ffffffffffffffffffffffffffffffffffffffff1673ffffffffffffffffffffffffffffffffffffffff16815260200190815260200160002060008282546114c19190612dd5565b92505081905550816067600083815260200190815260200160002060006101000a81548173ffffffffffffffffffffffffffffffffffffffff021916908373ffffffffffffffffffffffffffffffffffffffff160217905550808273ffffffffffffffffffffffffffffffffffffffff168473ffffffffffffffffffffffffffffffffffffffff167fddf252ad1be2c89b69c2b068fc378daa952ba7f163c4a11628f55a4df523b3ef60405160405180910390a4505050565b600060019054906101000a900460ff16806115a0575060008054906101000a900460ff16155b6115df576040517f08c379a00000000000000000000000000000000000000000000000000000000081526004016115d690612c41565b60405180910390fd5b60008060019054906101000a900460ff16159050801561162f576001600060016101000a81548160ff02191690831515021790555060016000806101000a81548160ff0219169083151502179055505b611637611ae7565b61163f611bc0565b6116498383611c99565b801561166a5760008060016101000a81548160ff0219169083151502179055505b505050565b600060019054906101000a900460ff1680611695575060008054906101000a900460ff16155b6116d4576040517f08c379a00000000000000000000000000000000000000000000000000000000081526004016116cb90612c41565b60405180910390fd5b60008060019054906101000a900460ff161590508015611724576001600060016101000a81548160ff02191690831515021790555060016000806101000a81548160ff0219169083151502179055505b61172c611ae7565b611734611bc0565b61173c611da2565b801561175d5760008060016101000a81548160ff0219169083151502179055505b50565b61176b84848461131e565b61177784848484611e7b565b6117b6576040517f08c379a00000000000000000000000000000000000000000000000000000000081526004016117ad90612b41565b60405180910390fd5b50505050565b60606000821415611804576040518060400160405280600181526020017f30000000000000000000000000000000000000000000000000000000000000008152509050611964565b600082905060005b6000821461183657808061181f90612fa9565b915050600a8261182f9190612e2b565b915061180c565b60008167ffffffffffffffff811115611878577f4e487b7100000000000000000000000000000000000000000000000000000000600052604160045260246000fd5b6040519080825280601f01601f1916602001820160405280156118aa5781602001600182028036833780820191505090505b5090505b6000851461195d576001826118c39190612e5c565b9150600a856118d29190612ff2565b60306118de9190612dd5565b60f81b81838151811061191a577f4e487b7100000000000000000000000000000000000000000000000000000000600052603260045260246000fd5b60200101907effffffffffffffffffffffffffffffffffffffffffffffffffffffffffffff1916908160001a905350600a856119569190612e2b565b94506118ae565b8093505050505b919050565b60007f01ffc9a7000000000000000000000000000000000000000000000000000000007bffffffffffffffffffffffffffffffffffffffffffffffffffffffff1916827bffffffffffffffffffffffffffffffffffffffffffffffffffffffff1916149050919050565b6119de838383612012565b600073ffffffffffffffffffffffffffffffffffffffff168373ffffffffffffffffffffffffffffffffffffffff161415611a2157611a1c81612017565b611a60565b8173ffffffffffffffffffffffffffffffffffffffff168373ffffffffffffffffffffffffffffffffffffffff1614611a5f57611a5e8382612060565b5b5b600073ffffffffffffffffffffffffffffffffffffffff168273ffffffffffffffffffffffffffffffffffffffff161415611aa357611a9e816121cd565b611ae2565b8273ffffffffffffffffffffffffffffffffffffffff168273ffffffffffffffffffffffffffffffffffffffff1614611ae157611ae08282612310565b5b5b505050565b600060019054906101000a900460ff1680611b0d575060008054906101000a900460ff16155b611b4c576040517f08c379a0000000000000000000000000000000000000000000000000000000008152600401611b4390612c41565b60405180910390fd5b60008060019054906101000a900460ff161590508015611b9c576001600060016101000a81548160ff02191690831515021790555060016000806101000a81548160ff0219169083151502179055505b8015611bbd5760008060016101000a81548160ff0219169083151502179055505b50565b600060019054906101000a900460ff1680611be6575060008054906101000a900460ff16155b611c25576040517f08c379a0000000000000000000000000000000000000000000000000000000008152600401611c1c90612c41565b60405180910390fd5b60008060019054906101000a900460ff161590508015611c75576001600060016101000a81548160ff02191690831515021790555060016000806101000a81548160ff0219169083151502179055505b8015611c965760008060016101000a81548160ff0219169083151502179055505b50565b600060019054906101000a900460ff1680611cbf575060008054906101000a900460ff16155b611cfe576040517f08c379a0000000000000000000000000000000000000000000000000000000008152600401611cf590612c41565b60405180910390fd5b60008060019054906101000a900460ff161590508015611d4e576001600060016101000a81548160ff02191690831515021790555060016000806101000a81548160ff0219169083151502179055505b8260659080519060200190611d649291906123a2565b508160669080519060200190611d7b9291906123a2565b508015611d9d5760008060016101000a81548160ff0219169083151502179055505b505050565b600060019054906101000a900460ff1680611dc8575060008054906101000a900460ff16155b611e07576040517f08c379a0000000000000000000000000000000000000000000000000000000008152600401611dfe90612c41565b60405180910390fd5b60008060019054906101000a900460ff161590508015611e57576001600060016101000a81548160ff02191690831515021790555060016000806101000a81548160ff0219169083151502179055505b8015611e785760008060016101000a81548160ff0219169083151502179055505b50565b6000611e9c8473ffffffffffffffffffffffffffffffffffffffff1661238f565b15612005578373ffffffffffffffffffffffffffffffffffffffff1663150b7a02611ec5610f8d565b8786866040518563ffffffff1660e01b8152600401611ee79493929190612a98565b602060405180830381600087803b158015611f0157600080fd5b505af1925050508015611f3257506040513d601f19601f82011682018060405250810190611f2f91906126e6565b60015b611fb5573d8060008114611f62576040519150601f19603f3d011682016040523d82523d6000602084013e611f67565b606091505b50600081511415611fad576040517f08c379a0000000000000000000000000000000000000000000000000000000008152600401611fa490612b41565b60405180910390fd5b805181602001fd5b63150b7a0260e01b7bffffffffffffffffffffffffffffffffffffffffffffffffffffffff1916817bffffffffffffffffffffffffffffffffffffffffffffffffffffffff19161491505061200a565b600190505b949350505050565b505050565b609980549050609a600083815260200190815260200160002081905550609981908060018154018082558091505060019003906000526020600020016000909190919091505550565b6000600161206d846108f8565b6120779190612e5c565b905060006098600084815260200190815260200160002054905081811461215c576000609760008673ffffffffffffffffffffffffffffffffffffffff1673ffffffffffffffffffffffffffffffffffffffff168152602001908152602001600020600084815260200190815260200160002054905080609760008773ffffffffffffffffffffffffffffffffffffffff1673ffffffffffffffffffffffffffffffffffffffff168152602001908152602001600020600084815260200190815260200160002081905550816098600083815260200190815260200160002081905550505b6098600084815260200190815260200160002060009055609760008573ffffffffffffffffffffffffffffffffffffffff1673ffffffffffffffffffffffffffffffffffffffff16815260200190815260200160002060008381526020019081526020016000206000905550505050565b600060016099805490506121e19190612e5c565b90506000609a6000848152602001908152602001600020549050600060998381548110612237577f4e487b7100000000000000000000000000000000000000000000000000000000600052603260045260246000fd5b90600052602060002001549050806099838154811061227f577f4e487b7100000000000000000000000000000000000000000000000000000000600052603260045260246000fd5b906000526020600020018190555081609a600083815260200190815260200160002081905550609a60008581526020019081526020016000206000905560998054806122f4577f4e487b7100000000000000000000000000000000000000000000000000000000600052603160045260246000fd5b6001900381819060005260206000200160009055905550505050565b600061231b836108f8565b905081609760008573ffffffffffffffffffffffffffffffffffffffff1673ffffffffffffffffffffffffffffffffffffffff168152602001908152602001600020600083815260200190815260200160002081905550806098600084815260200190815260200160002081905550505050565b600080823b905060008111915050919050565b8280546123ae90612f46565b90600052602060002090601f0160209004810192826123d05760008555612417565b82601f106123e957805160ff1916838001178555612417565b82800160010185558215612417579182015b828111156124165782518255916020019190600101906123fb565b5b5090506124249190612428565b5090565b5b80821115612441576000816000905550600101612429565b5090565b600061245861245384612d61565b612d3c565b90508281526020810184848401111561247057600080fd5b61247b848285612f04565b509392505050565b600081359050612492816135bd565b92915050565b6000813590506124a7816135d4565b92915050565b6000813590506124bc816135eb565b92915050565b6000815190506124d1816135eb565b92915050565b600082601f8301126124e857600080fd5b81356124f8848260208601612445565b91505092915050565b60008135905061251081613602565b92915050565b60006020828403121561252857600080fd5b600061253684828501612483565b91505092915050565b6000806040838503121561255257600080fd5b600061256085828601612483565b925050602061257185828601612483565b9150509250929050565b60008060006060848603121561259057600080fd5b600061259e86828701612483565b93505060206125af86828701612483565b92505060406125c086828701612501565b9150509250925092565b600080600080608085870312156125e057600080fd5b60006125ee87828801612483565b94505060206125ff87828801612483565b935050604061261087828801612501565b925050606085013567ffffffffffffffff81111561262d57600080fd5b612639878288016124d7565b91505092959194509250565b6000806040838503121561265857600080fd5b600061266685828601612483565b925050602061267785828601612498565b9150509250929050565b6000806040838503121561269457600080fd5b60006126a285828601612483565b92505060206126b385828601612501565b9150509250929050565b6000602082840312156126cf57600080fd5b60006126dd848285016124ad565b91505092915050565b6000602082840312156126f857600080fd5b6000612706848285016124c2565b91505092915050565b60006020828403121561272157600080fd5b600061272f84828501612501565b91505092915050565b61274181612e90565b82525050565b61275081612ea2565b82525050565b600061276182612d92565b61276b8185612da8565b935061277b818560208601612f13565b612784816130df565b840191505092915050565b600061279a82612d9d565b6127a48185612db9565b93506127b4818560208601612f13565b6127bd816130df565b840191505092915050565b60006127d382612d9d565b6127dd8185612dca565b93506127ed818560208601612f13565b80840191505092915050565b6000612806602b83612db9565b9150612811826130f0565b604082019050919050565b6000612829603283612db9565b91506128348261313f565b604082019050919050565b600061284c603e83612dca565b91506128578261318e565b603e82019050919050565b600061286f601c83612db9565b915061287a826131dd565b602082019050919050565b6000612892602483612db9565b915061289d82613206565b604082019050919050565b60006128b5601983612db9565b91506128c082613255565b602082019050919050565b60006128d8602c83612db9565b91506128e38261327e565b604082019050919050565b60006128fb603883612db9565b9150612906826132cd565b604082019050919050565b600061291e602a83612db9565b91506129298261331c565b604082019050919050565b6000612941602983612db9565b915061294c8261336b565b604082019050919050565b6000612964602e83612db9565b915061296f826133ba565b604082019050919050565b6000612987602083612db9565b915061299282613409565b602082019050919050565b60006129aa602c83612db9565b91506129b582613432565b604082019050919050565b60006129cd602983612db9565b91506129d882613481565b604082019050919050565b60006129f0602183612db9565b91506129fb826134d0565b604082019050919050565b6000612a13603183612db9565b9150612a1e8261351f565b604082019050919050565b6000612a36602c83612db9565b9150612a418261356e565b604082019050919050565b612a5581612efa565b82525050565b6000612a668261283f565b9150612a7282846127c8565b915081905092915050565b6000602082019050612a926000830184612738565b92915050565b6000608082019050612aad6000830187612738565b612aba6020830186612738565b612ac76040830185612a4c565b8181036060830152612ad98184612756565b905095945050505050565b6000602082019050612af96000830184612747565b92915050565b60006020820190508181036000830152612b19818461278f565b905092915050565b60006020820190508181036000830152612b3a816127f9565b9050919050565b60006020820190508181036000830152612b5a8161281c565b9050919050565b60006020820190508181036000830152612b7a81612862565b9050919050565b60006020820190508181036000830152612b9a81612885565b9050919050565b60006020820190508181036000830152612bba816128a8565b9050919050565b60006020820190508181036000830152612bda816128cb565b9050919050565b60006020820190508181036000830152612bfa816128ee565b9050919050565b60006020820190508181036000830152612c1a81612911565b9050919050565b60006020820190508181036000830152612c3a81612934565b9050919050565b60006020820190508181036000830152612c5a81612957565b9050919050565b60006020820190508181036000830152612c7a8161297a565b9050919050565b60006020820190508181036000830152612c9a8161299d565b9050919050565b60006020820190508181036000830152612cba816129c0565b9050919050565b60006020820190508181036000830152612cda816129e3565b9050919050565b60006020820190508181036000830152612cfa81612a06565b9050919050565b60006020820190508181036000830152612d1a81612a29565b9050919050565b6000602082019050612d366000830184612a4c565b92915050565b6000612d46612d57565b9050612d528282612f78565b919050565b6000604051905090565b600067ffffffffffffffff821115612d7c57612d7b6130b0565b5b612d85826130df565b9050602081019050919050565b600081519050919050565b600081519050919050565b600082825260208201905092915050565b600082825260208201905092915050565b600081905092915050565b6000612de082612efa565b9150612deb83612efa565b9250827fffffffffffffffffffffffffffffffffffffffffffffffffffffffffffffffff03821115612e2057612e1f613023565b5b828201905092915050565b6000612e3682612efa565b9150612e4183612efa565b925082612e5157612e50613052565b5b828204905092915050565b6000612e6782612efa565b9150612e7283612efa565b925082821015612e8557612e84613023565b5b828203905092915050565b6000612e9b82612eda565b9050919050565b60008115159050919050565b60007fffffffff0000000000000000000000000000000000000000000000000000000082169050919050565b600073ffffffffffffffffffffffffffffffffffffffff82169050919050565b6000819050919050565b82818337600083830152505050565b60005b83811015612f31578082015181840152602081019050612f16565b83811115612f40576000848401525b50505050565b60006002820490506001821680612f5e57607f821691505b60208210811415612f7257612f71613081565b5b50919050565b612f81826130df565b810181811067ffffffffffffffff82111715612fa057612f9f6130b0565b5b80604052505050565b6000612fb482612efa565b91507fffffffffffffffffffffffffffffffffffffffffffffffffffffffffffffffff821415612fe757612fe6613023565b5b600182019050919050565b6000612ffd82612efa565b915061300883612efa565b92508261301857613017613052565b5b828206905092915050565b7f4e487b7100000000000000000000000000000000000000000000000000000000600052601160045260246000fd5b7f4e487b7100000000000000000000000000000000000000000000000000000000600052601260045260246000fd5b7f4e487b7100000000000000000000000000000000000000000000000000000000600052602260045260246000fd5b7f4e487b7100000000000000000000000000000000000000000000000000000000600052604160045260246000fd5b6000601f19601f8301169050919050565b7f455243373231456e756d657261626c653a206f776e657220696e646578206f7560008201527f74206f6620626f756e6473000000000000000000000000000000000000000000602082015250565b7f4552433732313a207472616e7366657220746f206e6f6e20455243373231526560008201527f63656976657220696d706c656d656e7465720000000000000000000000000000602082015250565b7f687474703a2f2f6d792d6a736f6e2d7365727665722e74797069636f64652e6360008201527f6f6d2f6162636f61746875702f73616d706c656e66742f746f6b656e732f0000602082015250565b7f4552433732313a20746f6b656e20616c7265616479206d696e74656400000000600082015250565b7f4552433732313a207472616e7366657220746f20746865207a65726f2061646460008201527f7265737300000000000000000000000000000000000000000000000000000000602082015250565b7f4552433732313a20617070726f766520746f2063616c6c657200000000000000600082015250565b7f4552433732313a206f70657261746f7220717565727920666f72206e6f6e657860008201527f697374656e7420746f6b656e0000000000000000000000000000000000000000602082015250565b7f4552433732313a20617070726f76652063616c6c6572206973206e6f74206f7760008201527f6e6572206e6f7220617070726f76656420666f7220616c6c0000000000000000602082015250565b7f4552433732313a2062616c616e636520717565727920666f7220746865207a6560008201527f726f206164647265737300000000000000000000000000000000000000000000602082015250565b7f4552433732313a206f776e657220717565727920666f72206e6f6e657869737460008201527f656e7420746f6b656e0000000000000000000000000000000000000000000000602082015250565b7f496e697469616c697a61626c653a20636f6e747261637420697320616c72656160008201527f647920696e697469616c697a6564000000000000000000000000000000000000602082015250565b7f4552433732313a206d696e7420746f20746865207a65726f2061646472657373600082015250565b7f4552433732313a20617070726f76656420717565727920666f72206e6f6e657860008201527f697374656e7420746f6b656e0000000000000000000000000000000000000000602082015250565b7f4552433732313a207472616e73666572206f6620746f6b656e2074686174206960008201527f73206e6f74206f776e0000000000000000000000000000000000000000000000602082015250565b7f4552433732313a20617070726f76616c20746f2063757272656e74206f776e6560008201527f7200000000000000000000000000000000000000000000000000000000000000602082015250565b7f4552433732313a207472616e736665722063616c6c6572206973206e6f74206f60008201527f776e6572206e6f7220617070726f766564000000000000000000000000000000602082015250565b7f455243373231456e756d657261626c653a20676c6f62616c20696e646578206f60008201527f7574206f6620626f756e64730000000000000000000000000000000000000000602082015250565b6135c681612e90565b81146135d157600080fd5b50565b6135dd81612ea2565b81146135e857600080fd5b50565b6135f481612eae565b81146135ff57600080fd5b50565b61360b81612efa565b811461361657600080fd5b5056fea2646970667358221220da45e1b43c3a2509aa56bc2f315ecb18468ca03a7ec3e25b4adef46646b1162d64736f6c63430008040033",
  "linkReferences": {},
  "deployedLinkReferences": {}
}