{
  "_format": "hh-sol-artifact-1",
  "contractName": "Token",
  "sourceName": "contracts/Token.sol",
  "abi": [
    {
      "inputs": [
        {
          "internalType": "address",
          "name": "account",
          "type": "address"
        }
      ],
      "name": "balanceOf",
      "outputs": [
        {
          "internalType": "uint256",
          "name": "",
          "type": "uint256"
        }
      ],
      "stateMutability": "view",
      "type": "function"
    },
    {
      "inputs": [],
      "name": "initialize",
      "outputs": [],
      "stateMutability": "nonpayable",
      "type": "function"
    },
    {
      "inputs": [],
      "name": "name",
      "outputs": [
        {
          "internalType": "string",
          "name": "",
          "type": "string"
        }
      ],
      "stateMutability": "view",
      "type": "function"
    },
    {
      "inputs": [],
      "name": "owner",
      "outputs": [
        {
          "internalType": "address",
          "name": "",
          "type": "address"
        }
      ],
      "stateMutability": "view",
      "type": "function"
    },
    {
      "inputs": [],
      "name": "symbol",
      "outputs": [
        {
          "internalType": "string",
          "name": "",
          "type": "string"
        }
      ],
      "stateMutability": "view",
      "type": "function"
    },
    {
      "inputs": [],
      "name": "totalSupply",
      "outputs": [
        {
          "internalType": "uint256",
          "name": "",
          "type": "uint256"
        }
      ],
      "stateMutability": "view",
      "type": "function"
    },
    {
      "inputs": [
        {
          "internalType": "address",
          "name": "to",
          "type": "address"
        },
        {
          "internalType": "uint256",
          "name": "amount",
          "type": "uint256"
        }
      ],
      "name": "transfer",
      "outputs": [],
      "stateMutability": "nonpayable",
      "type": "function"
    }
  ],
  "bytecode": "0x608060405234801561001057600080fd5b506108c0806100206000396000f3fe608060405234801561001057600080fd5b506004361061007d5760003560e01c80638129fc1c1161005b5780638129fc1c146100ee5780638da5cb5b146100f857806395d89b4114610116578063a9059cbb146101345761007d565b806306fdde031461008257806318160ddd146100a057806370a08231146100be575b600080fd5b61008a610150565b6040516100979190610612565b60405180910390f35b6100a8610189565b6040516100b59190610674565b60405180910390f35b6100d860048036038101906100d391906104f5565b610190565b6040516100e59190610674565b60405180910390f35b6100f66101d9565b005b61010061033a565b60405161010d91906105f7565b60405180910390f35b61011e610360565b60405161012b9190610612565b60405180910390f35b61014e6004803603810190610149919061051e565b610399565b005b6040518060400160405280601081526020017f4d79204861726468617420546f6b656e0000000000000000000000000000000081525081565b620f424081565b6000600160008373ffffffffffffffffffffffffffffffffffffffff1673ffffffffffffffffffffffffffffffffffffffff168152602001908152602001600020549050919050565b600060019054906101000a900460ff16806101ff575060008054906101000a900460ff16155b61023e576040517f08c379a000000000000000000000000000000000000000000000000000000000815260040161023590610634565b60405180910390fd5b60008060019054906101000a900460ff16159050801561028e576001600060016101000a81548160ff02191690831515021790555060016000806101000a81548160ff0219169083151502179055505b620f4240600160003373ffffffffffffffffffffffffffffffffffffffff1673ffffffffffffffffffffffffffffffffffffffff1681526020019081526020016000208190555033600060026101000a81548173ffffffffffffffffffffffffffffffffffffffff021916908373ffffffffffffffffffffffffffffffffffffffff16021790555080156103375760008060016101000a81548160ff0219169083151502179055505b50565b600060029054906101000a900473ffffffffffffffffffffffffffffffffffffffff1681565b6040518060400160405280600381526020017f4d4854000000000000000000000000000000000000000000000000000000000081525081565b80600160003373ffffffffffffffffffffffffffffffffffffffff1673ffffffffffffffffffffffffffffffffffffffff16815260200190815260200160002054101561041b576040517f08c379a000000000000000000000000000000000000000000000000000000000815260040161041290610654565b60405180910390fd5b80600160003373ffffffffffffffffffffffffffffffffffffffff1673ffffffffffffffffffffffffffffffffffffffff168152602001908152602001600020600082825461046a9190610701565b9250508190555080600160008473ffffffffffffffffffffffffffffffffffffffff1673ffffffffffffffffffffffffffffffffffffffff16815260200190815260200160002060008282546104c091906106ab565b925050819055505050565b6000813590506104da8161085c565b92915050565b6000813590506104ef81610873565b92915050565b60006020828403121561050757600080fd5b6000610515848285016104cb565b91505092915050565b6000806040838503121561053157600080fd5b600061053f858286016104cb565b9250506020610550858286016104e0565b9150509250929050565b61056381610735565b82525050565b60006105748261068f565b61057e818561069a565b935061058e818560208601610771565b610597816107d3565b840191505092915050565b60006105af602e8361069a565b91506105ba826107e4565b604082019050919050565b60006105d260118361069a565b91506105dd82610833565b602082019050919050565b6105f181610767565b82525050565b600060208201905061060c600083018461055a565b92915050565b6000602082019050818103600083015261062c8184610569565b905092915050565b6000602082019050818103600083015261064d816105a2565b9050919050565b6000602082019050818103600083015261066d816105c5565b9050919050565b600060208201905061068960008301846105e8565b92915050565b600081519050919050565b600082825260208201905092915050565b60006106b682610767565b91506106c183610767565b9250827fffffffffffffffffffffffffffffffffffffffffffffffffffffffffffffffff038211156106f6576106f56107a4565b5b828201905092915050565b600061070c82610767565b915061071783610767565b92508282101561072a576107296107a4565b5b828203905092915050565b600061074082610747565b9050919050565b600073ffffffffffffffffffffffffffffffffffffffff82169050919050565b6000819050919050565b60005b8381101561078f578082015181840152602081019050610774565b8381111561079e576000848401525b50505050565b7f4e487b7100000000000000000000000000000000000000000000000000000000600052601160045260246000fd5b6000601f19601f8301169050919050565b7f496e697469616c697a61626c653a20636f6e747261637420697320616c72656160008201527f647920696e697469616c697a6564000000000000000000000000000000000000602082015250565b7f4e6f7420656e6f75676820746f6b656e73000000000000000000000000000000600082015250565b61086581610735565b811461087057600080fd5b50565b61087c81610767565b811461088757600080fd5b5056fea264697066735822122051e6c12879792915668fd21fddfcbbb9f683109b4420eb12f4bdcee341b98c4564736f6c63430008040033",
  "linkReferences": {},
  "deployedLinkReferences": {}
}