{
  "_format": "hh-sol-artifact-1",
  "contractName": "NFTimeshareMonth",
  "sourceName": "contracts/NFTimeshareMonth.sol",
  "abi": [
    {
      "inputs": [],
      "stateMutability": "nonpayable",
      "type": "constructor"
    },
    {
      "anonymous": false,
      "inputs": [
        {
          "indexed": true,
          "internalType": "address",
          "name": "owner",
          "type": "address"
        },
        {
          "indexed": true,
          "internalType": "address",
          "name": "approved",
          "type": "address"
        },
        {
          "indexed": true,
          "internalType": "uint256",
          "name": "tokenId",
          "type": "uint256"
        }
      ],
      "name": "Approval",
      "type": "event"
    },
    {
      "anonymous": false,
      "inputs": [
        {
          "indexed": true,
          "internalType": "address",
          "name": "owner",
          "type": "address"
        },
        {
          "indexed": true,
          "internalType": "address",
          "name": "operator",
          "type": "address"
        },
        {
          "indexed": false,
          "internalType": "bool",
          "name": "approved",
          "type": "bool"
        }
      ],
      "name": "ApprovalForAll",
      "type": "event"
    },
    {
      "anonymous": false,
      "inputs": [
        {
          "indexed": true,
          "internalType": "address",
          "name": "previousOwner",
          "type": "address"
        },
        {
          "indexed": true,
          "internalType": "address",
          "name": "newOwner",
          "type": "address"
        }
      ],
      "name": "OwnershipTransferred",
      "type": "event"
    },
    {
      "anonymous": false,
      "inputs": [
        {
          "indexed": true,
          "internalType": "address",
          "name": "from",
          "type": "address"
        },
        {
          "indexed": true,
          "internalType": "address",
          "name": "to",
          "type": "address"
        },
        {
          "indexed": true,
          "internalType": "uint256",
          "name": "tokenId",
          "type": "uint256"
        }
      ],
      "name": "Transfer",
      "type": "event"
    },
    {
      "inputs": [
        {
          "internalType": "address",
          "name": "to",
          "type": "address"
        },
        {
          "internalType": "uint256",
          "name": "tokenId",
          "type": "uint256"
        }
      ],
      "name": "approve",
      "outputs": [],
      "stateMutability": "nonpayable",
      "type": "function"
    },
    {
      "inputs": [
        {
          "internalType": "address",
          "name": "owner",
          "type": "address"
        }
      ],
      "name": "balanceOf",
      "outputs": [
        {
          "internalType": "uint256",
          "name": "",
          "type": "uint256"
        }
      ],
      "stateMutability": "view",
      "type": "function"
    },
    {
      "inputs": [
        {
          "internalType": "address",
          "name": "spender",
          "type": "address"
        },
        {
          "internalType": "uint256",
          "name": "timeshareTokenId",
          "type": "uint256"
        }
      ],
      "name": "burnTimeshareMonthsFor",
      "outputs": [],
      "stateMutability": "nonpayable",
      "type": "function"
    },
    {
      "inputs": [
        {
          "internalType": "uint256",
          "name": "tokenId",
          "type": "uint256"
        }
      ],
      "name": "getApproved",
      "outputs": [
        {
          "internalType": "address",
          "name": "",
          "type": "address"
        }
      ],
      "stateMutability": "view",
      "type": "function"
    },
    {
      "inputs": [],
      "name": "getNFTimeshareAddress",
      "outputs": [
        {
          "internalType": "address",
          "name": "",
          "type": "address"
        }
      ],
      "stateMutability": "view",
      "type": "function"
    },
    {
      "inputs": [
        {
          "internalType": "uint256",
          "name": "timeshareMonthTokenId",
          "type": "uint256"
        }
      ],
      "name": "getParentTimeshare",
      "outputs": [
        {
          "internalType": "uint256",
          "name": "",
          "type": "uint256"
        }
      ],
      "stateMutability": "view",
      "type": "function"
    },
    {
      "inputs": [
        {
          "internalType": "uint256",
          "name": "timeshareTokenId",
          "type": "uint256"
        }
      ],
      "name": "getTimeshareMonths",
      "outputs": [
        {
          "internalType": "uint256[12]",
          "name": "",
          "type": "uint256[12]"
        }
      ],
      "stateMutability": "view",
      "type": "function"
    },
    {
      "inputs": [
        {
          "internalType": "address",
          "name": "owner",
          "type": "address"
        },
        {
          "internalType": "address",
          "name": "operator",
          "type": "address"
        }
      ],
      "name": "isApprovedForAll",
      "outputs": [
        {
          "internalType": "bool",
          "name": "",
          "type": "bool"
        }
      ],
      "stateMutability": "view",
      "type": "function"
    },
    {
      "inputs": [
        {
          "internalType": "address",
          "name": "spender",
          "type": "address"
        },
        {
          "internalType": "uint256",
          "name": "timeshareTokenId",
          "type": "uint256"
        }
      ],
      "name": "isApprovedForAllMonths",
      "outputs": [
        {
          "internalType": "bool",
          "name": "",
          "type": "bool"
        }
      ],
      "stateMutability": "view",
      "type": "function"
    },
    {
      "inputs": [
        {
          "internalType": "uint256",
          "name": "timeshareTokenId",
          "type": "uint256"
        },
        {
          "internalType": "address",
          "name": "to",
          "type": "address"
        }
      ],
      "name": "makeTimesharesFor",
      "outputs": [],
      "stateMutability": "nonpayable",
      "type": "function"
    },
    {
      "inputs": [
        {
          "internalType": "uint256",
          "name": "tokenId",
          "type": "uint256"
        }
      ],
      "name": "month",
      "outputs": [
        {
          "internalType": "uint8",
          "name": "",
          "type": "uint8"
        }
      ],
      "stateMutability": "view",
      "type": "function"
    },
    {
      "inputs": [],
      "name": "name",
      "outputs": [
        {
          "internalType": "string",
          "name": "",
          "type": "string"
        }
      ],
      "stateMutability": "view",
      "type": "function"
    },
    {
      "inputs": [],
      "name": "owner",
      "outputs": [
        {
          "internalType": "address",
          "name": "",
          "type": "address"
        }
      ],
      "stateMutability": "view",
      "type": "function"
    },
    {
      "inputs": [
        {
          "internalType": "uint256",
          "name": "tokenId",
          "type": "uint256"
        }
      ],
      "name": "ownerOf",
      "outputs": [
        {
          "internalType": "address",
          "name": "",
          "type": "address"
        }
      ],
      "stateMutability": "view",
      "type": "function"
    },
    {
      "inputs": [],
      "name": "renounceOwnership",
      "outputs": [],
      "stateMutability": "nonpayable",
      "type": "function"
    },
    {
      "inputs": [
        {
          "internalType": "address",
          "name": "from",
          "type": "address"
        },
        {
          "internalType": "address",
          "name": "to",
          "type": "address"
        },
        {
          "internalType": "uint256",
          "name": "tokenId",
          "type": "uint256"
        }
      ],
      "name": "safeTransferFrom",
      "outputs": [],
      "stateMutability": "nonpayable",
      "type": "function"
    },
    {
      "inputs": [
        {
          "internalType": "address",
          "name": "from",
          "type": "address"
        },
        {
          "internalType": "address",
          "name": "to",
          "type": "address"
        },
        {
          "internalType": "uint256",
          "name": "tokenId",
          "type": "uint256"
        },
        {
          "internalType": "bytes",
          "name": "_data",
          "type": "bytes"
        }
      ],
      "name": "safeTransferFrom",
      "outputs": [],
      "stateMutability": "nonpayable",
      "type": "function"
    },
    {
      "inputs": [
        {
          "internalType": "address",
          "name": "operator",
          "type": "address"
        },
        {
          "internalType": "bool",
          "name": "approved",
          "type": "bool"
        }
      ],
      "name": "setApprovalForAll",
      "outputs": [],
      "stateMutability": "nonpayable",
      "type": "function"
    },
    {
      "inputs": [
        {
          "internalType": "address",
          "name": "addr",
          "type": "address"
        }
      ],
      "name": "setNFTimeshareAddress",
      "outputs": [],
      "stateMutability": "nonpayable",
      "type": "function"
    },
    {
      "inputs": [
        {
          "internalType": "bytes4",
          "name": "interfaceId",
          "type": "bytes4"
        }
      ],
      "name": "supportsInterface",
      "outputs": [
        {
          "internalType": "bool",
          "name": "",
          "type": "bool"
        }
      ],
      "stateMutability": "view",
      "type": "function"
    },
    {
      "inputs": [],
      "name": "symbol",
      "outputs": [
        {
          "internalType": "string",
          "name": "",
          "type": "string"
        }
      ],
      "stateMutability": "view",
      "type": "function"
    },
    {
      "inputs": [
        {
          "internalType": "uint256",
          "name": "index",
          "type": "uint256"
        }
      ],
      "name": "tokenByIndex",
      "outputs": [
        {
          "internalType": "uint256",
          "name": "",
          "type": "uint256"
        }
      ],
      "stateMutability": "view",
      "type": "function"
    },
    {
      "inputs": [
        {
          "internalType": "address",
          "name": "owner",
          "type": "address"
        },
        {
          "internalType": "uint256",
          "name": "index",
          "type": "uint256"
        }
      ],
      "name": "tokenOfOwnerByIndex",
      "outputs": [
        {
          "internalType": "uint256",
          "name": "",
          "type": "uint256"
        }
      ],
      "stateMutability": "view",
      "type": "function"
    },
    {
      "inputs": [
        {
          "internalType": "uint256",
          "name": "tokenId",
          "type": "uint256"
        }
      ],
      "name": "tokenURI",
      "outputs": [
        {
          "internalType": "string",
          "name": "",
          "type": "string"
        }
      ],
      "stateMutability": "view",
      "type": "function"
    },
    {
      "inputs": [],
      "name": "totalSupply",
      "outputs": [
        {
          "internalType": "uint256",
          "name": "",
          "type": "uint256"
        }
      ],
      "stateMutability": "view",
      "type": "function"
    },
    {
      "inputs": [
        {
          "internalType": "address",
          "name": "from",
          "type": "address"
        },
        {
          "internalType": "address",
          "name": "to",
          "type": "address"
        },
        {
          "internalType": "uint256",
          "name": "tokenId",
          "type": "uint256"
        }
      ],
      "name": "transferFrom",
      "outputs": [],
      "stateMutability": "nonpayable",
      "type": "function"
    },
    {
      "inputs": [
        {
          "internalType": "address",
          "name": "newOwner",
          "type": "address"
        }
      ],
      "name": "transferOwnership",
      "outputs": [],
      "stateMutability": "nonpayable",
      "type": "function"
    },
    {
      "inputs": [
        {
          "internalType": "uint256",
          "name": "tokenId",
          "type": "uint256"
        }
      ],
      "name": "underlyingTokenURI",
      "outputs": [
        {
          "internalType": "string",
          "name": "",
          "type": "string"
        }
      ],
      "stateMutability": "view",
      "type": "function"
    }
  ],
  "bytecode": "0x60806040523480156200001157600080fd5b506040518060400160405280600e81526020017f54696d6573686172654d6f6e74680000000000000000000000000000000000008152506040518060400160405280600481526020017f54494d450000000000000000000000000000000000000000000000000000000081525081600090805190602001906200009692919062000171565b508060019080519060200190620000af92919062000171565b5050506000620000c46200016960201b60201c565b905080600a60006101000a81548173ffffffffffffffffffffffffffffffffffffffff021916908373ffffffffffffffffffffffffffffffffffffffff1602179055508073ffffffffffffffffffffffffffffffffffffffff16600073ffffffffffffffffffffffffffffffffffffffff167f8be0079c531659141344cd1fd0a4f28419497f9722a3daafe3b4186f6b6457e060405160405180910390a35062000286565b600033905090565b8280546200017f9062000221565b90600052602060002090601f016020900481019282620001a35760008555620001ef565b82601f10620001be57805160ff1916838001178555620001ef565b82800160010185558215620001ef579182015b82811115620001ee578251825591602001919060010190620001d1565b5b509050620001fe919062000202565b5090565b5b808211156200021d57600081600090555060010162000203565b5090565b600060028204905060018216806200023a57607f821691505b6020821081141562000251576200025062000257565b5b50919050565b7f4e487b7100000000000000000000000000000000000000000000000000000000600052602260045260246000fd5b61471f80620002966000396000f3fe608060405234801561001057600080fd5b50600436106101c45760003560e01c80636352211e116100f9578063984754fa11610097578063b88d4fde11610071578063b88d4fde1461053d578063c87b56dd14610559578063e985e9c514610589578063f2fde38b146105b9576101c4565b8063984754fa146104c1578063989620df146104f1578063a22cb46514610521576101c4565b8063802b9645116100d3578063802b96451461044b5780638d6e1b67146104695780638da5cb5b1461048557806395d89b41146104a3576101c4565b80636352211e146103e157806370a0823114610411578063715018a614610441576101c4565b8063286e5508116101665780634be9ea35116101405780634be9ea35146103355780634f6ccce71461036557806359574c38146103955780635f9357b8146103c5576101c4565b8063286e5508146102b95780632f745c59146102e957806342842e0e14610319576101c4565b8063081812fc116101a2578063081812fc14610233578063095ea7b31461026357806318160ddd1461027f57806323b872dd1461029d576101c4565b806301ffc9a7146101c957806306d64af7146101f957806306fdde0314610215575b600080fd5b6101e360048036038101906101de91906131f9565b6105d5565b6040516101f0919061382e565b60405180910390f35b610213600480360381019061020e91906132b5565b61064f565b005b61021d610972565b60405161022a9190613849565b60405180910390f35b61024d6004803603810190610248919061328c565b610a04565b60405161025a91906137ab565b60405180910390f35b61027d600480360381019061027891906131bd565b610a89565b005b610287610ba1565b6040516102949190613bab565b60405180910390f35b6102b760048036038101906102b291906130b7565b610bae565b005b6102d360048036038101906102ce919061328c565b610c0e565b6040516102e09190613849565b60405180910390f35b61030360048036038101906102fe91906131bd565b610df1565b6040516103109190613bab565b60405180910390f35b610333600480360381019061032e91906130b7565b610e96565b005b61034f600480360381019061034a91906131bd565b610eb6565b60405161035c919061382e565b60405180910390f35b61037f600480360381019061037a919061328c565b610f92565b60405161038c9190613bab565b60405180910390f35b6103af60048036038101906103aa919061328c565b611029565b6040516103bc9190613812565b60405180910390f35b6103df60048036038101906103da9190613052565b611087565b005b6103fb60048036038101906103f6919061328c565b611147565b60405161040891906137ab565b60405180910390f35b61042b60048036038101906104269190613052565b6111f9565b6040516104389190613bab565b60405180910390f35b6104496112b1565b005b6104536113ee565b60405161046091906137ab565b60405180910390f35b610483600480360381019061047e91906131bd565b611418565b005b61048d611762565b60405161049a91906137ab565b60405180910390f35b6104ab61178c565b6040516104b89190613849565b60405180910390f35b6104db60048036038101906104d6919061328c565b61181e565b6040516104e89190613bab565b60405180910390f35b61050b6004803603810190610506919061328c565b61183b565b6040516105189190613bc6565b60405180910390f35b61053b60048036038101906105369190613181565b611a5e565b005b61055760048036038101906105529190613106565b611bdf565b005b610573600480360381019061056e919061328c565b611c41565b6040516105809190613849565b60405180910390f35b6105a3600480360381019061059e919061307b565b611c80565b6040516105b0919061382e565b60405180910390f35b6105d360048036038101906105ce9190613052565b611d14565b005b60007f780e9d63000000000000000000000000000000000000000000000000000000007bffffffffffffffffffffffffffffffffffffffffffffffffffffffff1916827bffffffffffffffffffffffffffffffffffffffffffffffffffffffff19161480610648575061064782611ec0565b5b9050919050565b600073ffffffffffffffffffffffffffffffffffffffff16600c60009054906101000a900473ffffffffffffffffffffffffffffffffffffffff1673ffffffffffffffffffffffffffffffffffffffff1614156106e1576040517f08c379a00000000000000000000000000000000000000000000000000000000081526004016106d890613b6b565b60405180910390fd5b600c60009054906101000a900473ffffffffffffffffffffffffffffffffffffffff1673ffffffffffffffffffffffffffffffffffffffff163373ffffffffffffffffffffffffffffffffffffffff1614610771576040517f08c379a000000000000000000000000000000000000000000000000000000000815260040161076890613a6b565b60405180910390fd5b600c60009054906101000a900473ffffffffffffffffffffffffffffffffffffffff1673ffffffffffffffffffffffffffffffffffffffff163373ffffffffffffffffffffffffffffffffffffffff1614610801576040517f08c379a00000000000000000000000000000000000000000000000000000000081526004016107f89061388b565b60405180910390fd5b610809612e86565b60005b600c8160ff1610156108dc57610822600b611fa2565b61082c600b611fb8565b828260ff16600c8110610868577f4e487b7100000000000000000000000000000000000000000000000000000000600052603260045260246000fd5b60200201818152505083600d6000848460ff16600c81106108b2577f4e487b7100000000000000000000000000000000000000000000000000000000600052603260045260246000fd5b602002015181526020019081526020016000208190555080806108d490613e7d565b91505061080c565b5080600e600085815260200190815260200160002090600c6108ff929190612ea9565b5060005b600c8160ff16101561096c5761095983838360ff16600c811061094f577f4e487b7100000000000000000000000000000000000000000000000000000000600052603260045260246000fd5b6020020151611fc6565b808061096490613e7d565b915050610903565b50505050565b60606000805461098190613e1a565b80601f01602080910402602001604051908101604052809291908181526020018280546109ad90613e1a565b80156109fa5780601f106109cf576101008083540402835291602001916109fa565b820191906000526020600020905b8154815290600101906020018083116109dd57829003601f168201915b5050505050905090565b6000610a0f82611fe4565b610a4e576040517f08c379a0000000000000000000000000000000000000000000000000000000008152600401610a4590613a4b565b60405180910390fd5b6004600083815260200190815260200160002060009054906101000a900473ffffffffffffffffffffffffffffffffffffffff169050919050565b6000610a9482611147565b90508073ffffffffffffffffffffffffffffffffffffffff168373ffffffffffffffffffffffffffffffffffffffff161415610b05576040517f08c379a0000000000000000000000000000000000000000000000000000000008152600401610afc90613aeb565b60405180910390fd5b8073ffffffffffffffffffffffffffffffffffffffff16610b24612050565b73ffffffffffffffffffffffffffffffffffffffff161480610b535750610b5281610b4d612050565b611c80565b5b610b92576040517f08c379a0000000000000000000000000000000000000000000000000000000008152600401610b899061398b565b60405180910390fd5b610b9c8383612058565b505050565b6000600880549050905090565b610bbf610bb9612050565b82612111565b610bfe576040517f08c379a0000000000000000000000000000000000000000000000000000000008152600401610bf590613b2b565b60405180910390fd5b610c098383836121ef565b505050565b6060600073ffffffffffffffffffffffffffffffffffffffff16600c60009054906101000a900473ffffffffffffffffffffffffffffffffffffffff1673ffffffffffffffffffffffffffffffffffffffff161415610ca2576040517f08c379a0000000000000000000000000000000000000000000000000000000008152600401610c9990613b8b565b60405180910390fd5b610cab82611fe4565b610cea576040517f08c379a0000000000000000000000000000000000000000000000000000000008152600401610ce190613acb565b60405180910390fd5b6000600d600084815260200190815260200160002054905060008111610d39577f4e487b7100000000000000000000000000000000000000000000000000000000600052600160045260246000fd5b600c60009054906101000a900473ffffffffffffffffffffffffffffffffffffffff1673ffffffffffffffffffffffffffffffffffffffff1663286e5508826040518263ffffffff1660e01b8152600401610d949190613bab565b60006040518083038186803b158015610dac57600080fd5b505afa158015610dc0573d6000803e3d6000fd5b505050506040513d6000823e3d601f19601f82011682018060405250810190610de9919061324b565b915050919050565b6000610dfc836111f9565b8210610e3d576040517f08c379a0000000000000000000000000000000000000000000000000000000008152600401610e34906138ab565b60405180910390fd5b600660008473ffffffffffffffffffffffffffffffffffffffff1673ffffffffffffffffffffffffffffffffffffffff168152602001908152602001600020600083815260200190815260200160002054905092915050565b610eb183838360405180602001604052806000815250611bdf565b505050565b600080600e6000848152602001908152602001600020600c806020026040519081016040528092919082600c8015610f03576020028201915b815481526020019060010190808311610eef575b5050505050905060005b600c8160ff161015610f8557610f6385838360ff16600c8110610f59577f4e487b7100000000000000000000000000000000000000000000000000000000600052603260045260246000fd5b6020020151612111565b610f7257600092505050610f8c565b8080610f7d90613e7d565b915050610f0d565b5060019150505b92915050565b6000610f9c610ba1565b8210610fdd576040517f08c379a0000000000000000000000000000000000000000000000000000000008152600401610fd490613b4b565b60405180910390fd5b60088281548110611017577f4e487b7100000000000000000000000000000000000000000000000000000000600052603260045260246000fd5b90600052602060002001549050919050565b611031612e86565b600e6000838152602001908152602001600020600c806020026040519081016040528092919082600c801561107b576020028201915b815481526020019060010190808311611067575b50505050509050919050565b61108f612050565b73ffffffffffffffffffffffffffffffffffffffff166110ad611762565b73ffffffffffffffffffffffffffffffffffffffff1614611103576040517f08c379a00000000000000000000000000000000000000000000000000000000081526004016110fa90613a8b565b60405180910390fd5b80600c60006101000a81548173ffffffffffffffffffffffffffffffffffffffff021916908373ffffffffffffffffffffffffffffffffffffffff16021790555050565b6000806002600084815260200190815260200160002060009054906101000a900473ffffffffffffffffffffffffffffffffffffffff169050600073ffffffffffffffffffffffffffffffffffffffff168173ffffffffffffffffffffffffffffffffffffffff1614156111f0576040517f08c379a00000000000000000000000000000000000000000000000000000000081526004016111e7906139cb565b60405180910390fd5b80915050919050565b60008073ffffffffffffffffffffffffffffffffffffffff168273ffffffffffffffffffffffffffffffffffffffff16141561126a576040517f08c379a0000000000000000000000000000000000000000000000000000000008152600401611261906139ab565b60405180910390fd5b600360008373ffffffffffffffffffffffffffffffffffffffff1673ffffffffffffffffffffffffffffffffffffffff168152602001908152602001600020549050919050565b6112b9612050565b73ffffffffffffffffffffffffffffffffffffffff166112d7611762565b73ffffffffffffffffffffffffffffffffffffffff161461132d576040517f08c379a000000000000000000000000000000000000000000000000000000000815260040161132490613a8b565b60405180910390fd5b600073ffffffffffffffffffffffffffffffffffffffff16600a60009054906101000a900473ffffffffffffffffffffffffffffffffffffffff1673ffffffffffffffffffffffffffffffffffffffff167f8be0079c531659141344cd1fd0a4f28419497f9722a3daafe3b4186f6b6457e060405160405180910390a36000600a60006101000a81548173ffffffffffffffffffffffffffffffffffffffff021916908373ffffffffffffffffffffffffffffffffffffffff160217905550565b6000600c60009054906101000a900473ffffffffffffffffffffffffffffffffffffffff16905090565b600073ffffffffffffffffffffffffffffffffffffffff16600c60009054906101000a900473ffffffffffffffffffffffffffffffffffffffff1673ffffffffffffffffffffffffffffffffffffffff1614156114aa576040517f08c379a00000000000000000000000000000000000000000000000000000000081526004016114a190613b6b565b60405180910390fd5b600c60009054906101000a900473ffffffffffffffffffffffffffffffffffffffff1673ffffffffffffffffffffffffffffffffffffffff163373ffffffffffffffffffffffffffffffffffffffff161461153a576040517f08c379a000000000000000000000000000000000000000000000000000000000815260040161153190613a6b565b60405180910390fd5b6000600e6000838152602001908152602001600020600c806020026040519081016040528092919082600c8015611586576020028201915b815481526020019060010190808311611572575b505050505090506000816000600c81106115c9577f4e487b7100000000000000000000000000000000000000000000000000000000600052603260045260246000fd5b6020020151141561160f576040517f08c379a0000000000000000000000000000000000000000000000000000000008152600401611606906139eb565b60405180910390fd5b6116198383610eb6565b611658576040517f08c379a000000000000000000000000000000000000000000000000000000000815260040161164f90613b0b565b60405180910390fd5b600e600083815260200190815260200160002060006116779190612ee9565b60005b600c8160ff1610156116f057600d6000838360ff16600c81106116c6577f4e487b7100000000000000000000000000000000000000000000000000000000600052603260045260246000fd5b602002015181526020019081526020016000206000905580806116e890613e7d565b91505061167a565b5060005b600c8160ff16101561175c57611749828260ff16600c811061173f577f4e487b7100000000000000000000000000000000000000000000000000000000600052603260045260246000fd5b602002015161244b565b808061175490613e7d565b9150506116f4565b50505050565b6000600a60009054906101000a900473ffffffffffffffffffffffffffffffffffffffff16905090565b60606001805461179b90613e1a565b80601f01602080910402602001604051908101604052809291908181526020018280546117c790613e1a565b80156118145780601f106117e957610100808354040283529160200191611814565b820191906000526020600020905b8154815290600101906020018083116117f757829003601f168201915b5050505050905090565b6000600d6000838152602001908152602001600020549050919050565b600061184682611fe4565b611885576040517f08c379a000000000000000000000000000000000000000000000000000000000815260040161187c90613a2b565b60405180910390fd5b6000600d600084815260200190815260200160002054905060008114156118e1576040517f08c379a00000000000000000000000000000000000000000000000000000000081526004016118d89061386b565b60405180910390fd5b6000600e6000838152602001908152602001600020600c806020026040519081016040528092919082600c801561192d576020028201915b815481526020019060010190808311611919575b5050505050905060005b600c8160ff161015611a2057818160ff16600c811061197f577f4e487b7100000000000000000000000000000000000000000000000000000000600052603260045260246000fd5b602002015185141561199657809350505050611a59565b6000828260ff16600c81106119d4577f4e487b7100000000000000000000000000000000000000000000000000000000600052603260045260246000fd5b602002015111611a0d577f4e487b7100000000000000000000000000000000000000000000000000000000600052600160045260246000fd5b8080611a1890613e7d565b915050611937565b506000611a56577f4e487b7100000000000000000000000000000000000000000000000000000000600052600160045260246000fd5b50505b919050565b611a66612050565b73ffffffffffffffffffffffffffffffffffffffff168273ffffffffffffffffffffffffffffffffffffffff161415611ad4576040517f08c379a0000000000000000000000000000000000000000000000000000000008152600401611acb9061394b565b60405180910390fd5b8060056000611ae1612050565b73ffffffffffffffffffffffffffffffffffffffff1673ffffffffffffffffffffffffffffffffffffffff16815260200190815260200160002060008473ffffffffffffffffffffffffffffffffffffffff1673ffffffffffffffffffffffffffffffffffffffff16815260200190815260200160002060006101000a81548160ff0219169083151502179055508173ffffffffffffffffffffffffffffffffffffffff16611b8e612050565b73ffffffffffffffffffffffffffffffffffffffff167f17307eab39ab6107e8899845ad3d59bd9653f200f220920489ca2b5937696c3183604051611bd3919061382e565b60405180910390a35050565b611bf0611bea612050565b83612111565b611c2f576040517f08c379a0000000000000000000000000000000000000000000000000000000008152600401611c2690613b2b565b60405180910390fd5b611c3b8484848461255c565b50505050565b60606040518060400160405280600b81526020017f706c616365686f6c6465720000000000000000000000000000000000000000008152509050919050565b6000600560008473ffffffffffffffffffffffffffffffffffffffff1673ffffffffffffffffffffffffffffffffffffffff16815260200190815260200160002060008373ffffffffffffffffffffffffffffffffffffffff1673ffffffffffffffffffffffffffffffffffffffff16815260200190815260200160002060009054906101000a900460ff16905092915050565b611d1c612050565b73ffffffffffffffffffffffffffffffffffffffff16611d3a611762565b73ffffffffffffffffffffffffffffffffffffffff1614611d90576040517f08c379a0000000000000000000000000000000000000000000000000000000008152600401611d8790613a8b565b60405180910390fd5b600073ffffffffffffffffffffffffffffffffffffffff168173ffffffffffffffffffffffffffffffffffffffff161415611e00576040517f08c379a0000000000000000000000000000000000000000000000000000000008152600401611df7906138eb565b60405180910390fd5b8073ffffffffffffffffffffffffffffffffffffffff16600a60009054906101000a900473ffffffffffffffffffffffffffffffffffffffff1673ffffffffffffffffffffffffffffffffffffffff167f8be0079c531659141344cd1fd0a4f28419497f9722a3daafe3b4186f6b6457e060405160405180910390a380600a60006101000a81548173ffffffffffffffffffffffffffffffffffffffff021916908373ffffffffffffffffffffffffffffffffffffffff16021790555050565b60007f80ac58cd000000000000000000000000000000000000000000000000000000007bffffffffffffffffffffffffffffffffffffffffffffffffffffffff1916827bffffffffffffffffffffffffffffffffffffffffffffffffffffffff19161480611f8b57507f5b5e139f000000000000000000000000000000000000000000000000000000007bffffffffffffffffffffffffffffffffffffffffffffffffffffffff1916827bffffffffffffffffffffffffffffffffffffffffffffffffffffffff1916145b80611f9b5750611f9a826125b8565b5b9050919050565b6001816000016000828254019250508190555050565b600081600001549050919050565b611fe0828260405180602001604052806000815250612622565b5050565b60008073ffffffffffffffffffffffffffffffffffffffff166002600084815260200190815260200160002060009054906101000a900473ffffffffffffffffffffffffffffffffffffffff1673ffffffffffffffffffffffffffffffffffffffff1614159050919050565b600033905090565b816004600083815260200190815260200160002060006101000a81548173ffffffffffffffffffffffffffffffffffffffff021916908373ffffffffffffffffffffffffffffffffffffffff160217905550808273ffffffffffffffffffffffffffffffffffffffff166120cb83611147565b73ffffffffffffffffffffffffffffffffffffffff167f8c5be1e5ebec7d5bd14f71427d1e84f3dd0314c0f7b2291e5b200ac8c7c3b92560405160405180910390a45050565b600061211c82611fe4565b61215b576040517f08c379a00000000000000000000000000000000000000000000000000000000081526004016121529061396b565b60405180910390fd5b600061216683611147565b90508073ffffffffffffffffffffffffffffffffffffffff168473ffffffffffffffffffffffffffffffffffffffff1614806121d557508373ffffffffffffffffffffffffffffffffffffffff166121bd84610a04565b73ffffffffffffffffffffffffffffffffffffffff16145b806121e657506121e58185611c80565b5b91505092915050565b8273ffffffffffffffffffffffffffffffffffffffff1661220f82611147565b73ffffffffffffffffffffffffffffffffffffffff1614612265576040517f08c379a000000000000000000000000000000000000000000000000000000000815260040161225c90613aab565b60405180910390fd5b600073ffffffffffffffffffffffffffffffffffffffff168273ffffffffffffffffffffffffffffffffffffffff1614156122d5576040517f08c379a00000000000000000000000000000000000000000000000000000000081526004016122cc9061392b565b60405180910390fd5b6122e083838361267d565b6122eb600082612058565b6001600360008573ffffffffffffffffffffffffffffffffffffffff1673ffffffffffffffffffffffffffffffffffffffff168152602001908152602001600020600082825461233b9190613d23565b925050819055506001600360008473ffffffffffffffffffffffffffffffffffffffff1673ffffffffffffffffffffffffffffffffffffffff16815260200190815260200160002060008282546123929190613ccd565b92505081905550816002600083815260200190815260200160002060006101000a81548173ffffffffffffffffffffffffffffffffffffffff021916908373ffffffffffffffffffffffffffffffffffffffff160217905550808273ffffffffffffffffffffffffffffffffffffffff168473ffffffffffffffffffffffffffffffffffffffff167fddf252ad1be2c89b69c2b068fc378daa952ba7f163c4a11628f55a4df523b3ef60405160405180910390a4505050565b600061245682611147565b90506124648160008461267d565b61246f600083612058565b6001600360008373ffffffffffffffffffffffffffffffffffffffff1673ffffffffffffffffffffffffffffffffffffffff16815260200190815260200160002060008282546124bf9190613d23565b925050819055506002600083815260200190815260200160002060006101000a81549073ffffffffffffffffffffffffffffffffffffffff021916905581600073ffffffffffffffffffffffffffffffffffffffff168273ffffffffffffffffffffffffffffffffffffffff167fddf252ad1be2c89b69c2b068fc378daa952ba7f163c4a11628f55a4df523b3ef60405160405180910390a45050565b6125678484846121ef565b61257384848484612791565b6125b2576040517f08c379a00000000000000000000000000000000000000000000000000000000081526004016125a9906138cb565b60405180910390fd5b50505050565b60007f01ffc9a7000000000000000000000000000000000000000000000000000000007bffffffffffffffffffffffffffffffffffffffffffffffffffffffff1916827bffffffffffffffffffffffffffffffffffffffffffffffffffffffff1916149050919050565b61262c8383612928565b6126396000848484612791565b612678576040517f08c379a000000000000000000000000000000000000000000000000000000000815260040161266f906138cb565b60405180910390fd5b505050565b612688838383612af6565b600073ffffffffffffffffffffffffffffffffffffffff168373ffffffffffffffffffffffffffffffffffffffff1614156126cb576126c681612afb565b61270a565b8173ffffffffffffffffffffffffffffffffffffffff168373ffffffffffffffffffffffffffffffffffffffff1614612709576127088382612b44565b5b5b600073ffffffffffffffffffffffffffffffffffffffff168273ffffffffffffffffffffffffffffffffffffffff16141561274d5761274881612cb1565b61278c565b8273ffffffffffffffffffffffffffffffffffffffff168273ffffffffffffffffffffffffffffffffffffffff161461278b5761278a8282612df4565b5b5b505050565b60006127b28473ffffffffffffffffffffffffffffffffffffffff16612e73565b1561291b578373ffffffffffffffffffffffffffffffffffffffff1663150b7a026127db612050565b8786866040518563ffffffff1660e01b81526004016127fd94939291906137c6565b602060405180830381600087803b15801561281757600080fd5b505af192505050801561284857506040513d601f19601f820116820180604052508101906128459190613222565b60015b6128cb573d8060008114612878576040519150601f19603f3d011682016040523d82523d6000602084013e61287d565b606091505b506000815114156128c3576040517f08c379a00000000000000000000000000000000000000000000000000000000081526004016128ba906138cb565b60405180910390fd5b805181602001fd5b63150b7a0260e01b7bffffffffffffffffffffffffffffffffffffffffffffffffffffffff1916817bffffffffffffffffffffffffffffffffffffffffffffffffffffffff191614915050612920565b600190505b949350505050565b600073ffffffffffffffffffffffffffffffffffffffff168273ffffffffffffffffffffffffffffffffffffffff161415612998576040517f08c379a000000000000000000000000000000000000000000000000000000000815260040161298f90613a0b565b60405180910390fd5b6129a181611fe4565b156129e1576040517f08c379a00000000000000000000000000000000000000000000000000000000081526004016129d89061390b565b60405180910390fd5b6129ed6000838361267d565b6001600360008473ffffffffffffffffffffffffffffffffffffffff1673ffffffffffffffffffffffffffffffffffffffff1681526020019081526020016000206000828254612a3d9190613ccd565b92505081905550816002600083815260200190815260200160002060006101000a81548173ffffffffffffffffffffffffffffffffffffffff021916908373ffffffffffffffffffffffffffffffffffffffff160217905550808273ffffffffffffffffffffffffffffffffffffffff16600073ffffffffffffffffffffffffffffffffffffffff167fddf252ad1be2c89b69c2b068fc378daa952ba7f163c4a11628f55a4df523b3ef60405160405180910390a45050565b505050565b6008805490506009600083815260200190815260200160002081905550600881908060018154018082558091505060019003906000526020600020016000909190919091505550565b60006001612b51846111f9565b612b5b9190613d23565b9050600060076000848152602001908152602001600020549050818114612c40576000600660008673ffffffffffffffffffffffffffffffffffffffff1673ffffffffffffffffffffffffffffffffffffffff168152602001908152602001600020600084815260200190815260200160002054905080600660008773ffffffffffffffffffffffffffffffffffffffff1673ffffffffffffffffffffffffffffffffffffffff168152602001908152602001600020600084815260200190815260200160002081905550816007600083815260200190815260200160002081905550505b6007600084815260200190815260200160002060009055600660008573ffffffffffffffffffffffffffffffffffffffff1673ffffffffffffffffffffffffffffffffffffffff16815260200190815260200160002060008381526020019081526020016000206000905550505050565b60006001600880549050612cc59190613d23565b9050600060096000848152602001908152602001600020549050600060088381548110612d1b577f4e487b7100000000000000000000000000000000000000000000000000000000600052603260045260246000fd5b906000526020600020015490508060088381548110612d63577f4e487b7100000000000000000000000000000000000000000000000000000000600052603260045260246000fd5b906000526020600020018190555081600960008381526020019081526020016000208190555060096000858152602001908152602001600020600090556008805480612dd8577f4e487b7100000000000000000000000000000000000000000000000000000000600052603160045260246000fd5b6001900381819060005260206000200160009055905550505050565b6000612dff836111f9565b905081600660008573ffffffffffffffffffffffffffffffffffffffff1673ffffffffffffffffffffffffffffffffffffffff168152602001908152602001600020600083815260200190815260200160002081905550806007600084815260200190815260200160002081905550505050565b600080823b905060008111915050919050565b604051806101800160405280600c90602082028036833780820191505090505090565b82600c8101928215612ed8579160200282015b82811115612ed7578251825591602001919060010190612ebc565b5b509050612ee59190612efc565b5090565b5080600c0190612ef99190612efc565b50565b5b80821115612f15576000816000905550600101612efd565b5090565b6000612f2c612f2784613c06565b613be1565b905082815260208101848484011115612f4457600080fd5b612f4f848285613dd8565b509392505050565b6000612f6a612f6584613c37565b613be1565b905082815260208101848484011115612f8257600080fd5b612f8d848285613de7565b509392505050565b600081359050612fa48161468d565b92915050565b600081359050612fb9816146a4565b92915050565b600081359050612fce816146bb565b92915050565b600081519050612fe3816146bb565b92915050565b600082601f830112612ffa57600080fd5b813561300a848260208601612f19565b91505092915050565b600082601f83011261302457600080fd5b8151613034848260208601612f57565b91505092915050565b60008135905061304c816146d2565b92915050565b60006020828403121561306457600080fd5b600061307284828501612f95565b91505092915050565b6000806040838503121561308e57600080fd5b600061309c85828601612f95565b92505060206130ad85828601612f95565b9150509250929050565b6000806000606084860312156130cc57600080fd5b60006130da86828701612f95565b93505060206130eb86828701612f95565b92505060406130fc8682870161303d565b9150509250925092565b6000806000806080858703121561311c57600080fd5b600061312a87828801612f95565b945050602061313b87828801612f95565b935050604061314c8782880161303d565b925050606085013567ffffffffffffffff81111561316957600080fd5b61317587828801612fe9565b91505092959194509250565b6000806040838503121561319457600080fd5b60006131a285828601612f95565b92505060206131b385828601612faa565b9150509250929050565b600080604083850312156131d057600080fd5b60006131de85828601612f95565b92505060206131ef8582860161303d565b9150509250929050565b60006020828403121561320b57600080fd5b600061321984828501612fbf565b91505092915050565b60006020828403121561323457600080fd5b600061324284828501612fd4565b91505092915050565b60006020828403121561325d57600080fd5b600082015167ffffffffffffffff81111561327757600080fd5b61328384828501613013565b91505092915050565b60006020828403121561329e57600080fd5b60006132ac8482850161303d565b91505092915050565b600080604083850312156132c857600080fd5b60006132d68582860161303d565b92505060206132e785828601612f95565b9150509250929050565b60006132fd838361377e565b60208301905092915050565b61331281613d57565b82525050565b61332181613c72565b61332b8184613ca0565b925061333682613c68565b8060005b8381101561336757815161334e87826132f1565b965061335983613c93565b92505060018101905061333a565b505050505050565b61337881613d69565b82525050565b600061338982613c7d565b6133938185613cab565b93506133a3818560208601613de7565b6133ac81613f34565b840191505092915050565b60006133c282613c88565b6133cc8185613cbc565b93506133dc818560208601613de7565b6133e581613f34565b840191505092915050565b60006133fd601383613cbc565b915061340882613f45565b602082019050919050565b6000613420603d83613cbc565b915061342b82613f6e565b604082019050919050565b6000613443602b83613cbc565b915061344e82613fbd565b604082019050919050565b6000613466603283613cbc565b91506134718261400c565b604082019050919050565b6000613489602683613cbc565b91506134948261405b565b604082019050919050565b60006134ac601c83613cbc565b91506134b7826140aa565b602082019050919050565b60006134cf602483613cbc565b91506134da826140d3565b604082019050919050565b60006134f2601983613cbc565b91506134fd82614122565b602082019050919050565b6000613515602c83613cbc565b91506135208261414b565b604082019050919050565b6000613538603883613cbc565b91506135438261419a565b604082019050919050565b600061355b602a83613cbc565b9150613566826141e9565b604082019050919050565b600061357e602983613cbc565b915061358982614238565b604082019050919050565b60006135a1602683613cbc565b91506135ac82614287565b604082019050919050565b60006135c4602083613cbc565b91506135cf826142d6565b602082019050919050565b60006135e7602183613cbc565b91506135f2826142ff565b604082019050919050565b600061360a602c83613cbc565b91506136158261434e565b604082019050919050565b600061362d602f83613cbc565b91506136388261439d565b604082019050919050565b6000613650602083613cbc565b915061365b826143ec565b602082019050919050565b6000613673602983613cbc565b915061367e82614415565b604082019050919050565b6000613696602f83613cbc565b91506136a182614464565b604082019050919050565b60006136b9602183613cbc565b91506136c4826144b3565b604082019050919050565b60006136dc603083613cbc565b91506136e782614502565b604082019050919050565b60006136ff603183613cbc565b915061370a82614551565b604082019050919050565b6000613722602c83613cbc565b915061372d826145a0565b604082019050919050565b6000613745602d83613cbc565b9150613750826145ef565b604082019050919050565b6000613768603b83613cbc565b91506137738261463e565b604082019050919050565b61378781613dc1565b82525050565b61379681613dc1565b82525050565b6137a581613dcb565b82525050565b60006020820190506137c06000830184613309565b92915050565b60006080820190506137db6000830187613309565b6137e86020830186613309565b6137f5604083018561378d565b8181036060830152613807818461337e565b905095945050505050565b6000610180820190506138286000830184613318565b92915050565b6000602082019050613843600083018461336f565b92915050565b6000602082019050818103600083015261386381846133b7565b905092915050565b60006020820190508181036000830152613884816133f0565b9050919050565b600060208201905081810360008301526138a481613413565b9050919050565b600060208201905081810360008301526138c481613436565b9050919050565b600060208201905081810360008301526138e481613459565b9050919050565b600060208201905081810360008301526139048161347c565b9050919050565b600060208201905081810360008301526139248161349f565b9050919050565b60006020820190508181036000830152613944816134c2565b9050919050565b60006020820190508181036000830152613964816134e5565b9050919050565b6000602082019050818103600083015261398481613508565b9050919050565b600060208201905081810360008301526139a48161352b565b9050919050565b600060208201905081810360008301526139c48161354e565b9050919050565b600060208201905081810360008301526139e481613571565b9050919050565b60006020820190508181036000830152613a0481613594565b9050919050565b60006020820190508181036000830152613a24816135b7565b9050919050565b60006020820190508181036000830152613a44816135da565b9050919050565b60006020820190508181036000830152613a64816135fd565b9050919050565b60006020820190508181036000830152613a8481613620565b9050919050565b60006020820190508181036000830152613aa481613643565b9050919050565b60006020820190508181036000830152613ac481613666565b9050919050565b60006020820190508181036000830152613ae481613689565b9050919050565b60006020820190508181036000830152613b04816136ac565b9050919050565b60006020820190508181036000830152613b24816136cf565b9050919050565b60006020820190508181036000830152613b44816136f2565b9050919050565b60006020820190508181036000830152613b6481613715565b9050919050565b60006020820190508181036000830152613b8481613738565b9050919050565b60006020820190508181036000830152613ba48161375b565b9050919050565b6000602082019050613bc0600083018461378d565b92915050565b6000602082019050613bdb600083018461379c565b92915050565b6000613beb613bfc565b9050613bf78282613e4c565b919050565b6000604051905090565b600067ffffffffffffffff821115613c2157613c20613f05565b5b613c2a82613f34565b9050602081019050919050565b600067ffffffffffffffff821115613c5257613c51613f05565b5b613c5b82613f34565b9050602081019050919050565b6000819050919050565b6000600c9050919050565b600081519050919050565b600081519050919050565b6000602082019050919050565b600081905092915050565b600082825260208201905092915050565b600082825260208201905092915050565b6000613cd882613dc1565b9150613ce383613dc1565b9250827fffffffffffffffffffffffffffffffffffffffffffffffffffffffffffffffff03821115613d1857613d17613ea7565b5b828201905092915050565b6000613d2e82613dc1565b9150613d3983613dc1565b925082821015613d4c57613d4b613ea7565b5b828203905092915050565b6000613d6282613da1565b9050919050565b60008115159050919050565b60007fffffffff0000000000000000000000000000000000000000000000000000000082169050919050565b600073ffffffffffffffffffffffffffffffffffffffff82169050919050565b6000819050919050565b600060ff82169050919050565b82818337600083830152505050565b60005b83811015613e05578082015181840152602081019050613dea565b83811115613e14576000848401525b50505050565b60006002820490506001821680613e3257607f821691505b60208210811415613e4657613e45613ed6565b5b50919050565b613e5582613f34565b810181811067ffffffffffffffff82111715613e7457613e73613f05565b5b80604052505050565b6000613e8882613dcb565b915060ff821415613e9c57613e9b613ea7565b5b600182019050919050565b7f4e487b7100000000000000000000000000000000000000000000000000000000600052601160045260246000fd5b7f4e487b7100000000000000000000000000000000000000000000000000000000600052602260045260246000fd5b7f4e487b7100000000000000000000000000000000000000000000000000000000600052604160045260246000fd5b6000601f19601f8301169050919050565b7f546f6b656e20646f65736e277420657869737400000000000000000000000000600082015250565b7f4f6e6c792074686520706172656e74204e4654696d65736861726520636f6e7460008201527f726163742063616e206d696e742054696d6573686172654d6f6e746873000000602082015250565b7f455243373231456e756d657261626c653a206f776e657220696e646578206f7560008201527f74206f6620626f756e6473000000000000000000000000000000000000000000602082015250565b7f4552433732313a207472616e7366657220746f206e6f6e20455243373231526560008201527f63656976657220696d706c656d656e7465720000000000000000000000000000602082015250565b7f4f776e61626c653a206e6577206f776e657220697320746865207a65726f206160008201527f6464726573730000000000000000000000000000000000000000000000000000602082015250565b7f4552433732313a20746f6b656e20616c7265616479206d696e74656400000000600082015250565b7f4552433732313a207472616e7366657220746f20746865207a65726f2061646460008201527f7265737300000000000000000000000000000000000000000000000000000000602082015250565b7f4552433732313a20617070726f766520746f2063616c6c657200000000000000600082015250565b7f4552433732313a206f70657261746f7220717565727920666f72206e6f6e657860008201527f697374656e7420746f6b656e0000000000000000000000000000000000000000602082015250565b7f4552433732313a20617070726f76652063616c6c6572206973206e6f74206f7760008201527f6e6572206e6f7220617070726f76656420666f7220616c6c0000000000000000602082015250565b7f4552433732313a2062616c616e636520717565727920666f7220746865207a6560008201527f726f206164647265737300000000000000000000000000000000000000000000602082015250565b7f4552433732313a206f776e657220717565727920666f72206e6f6e657869737460008201527f656e7420746f6b656e0000000000000000000000000000000000000000000000602082015250565b7f4e6f2054696d6573686172654d6f6e74687320746f206275726e20666f72207460008201527f6f6b656e49640000000000000000000000000000000000000000000000000000602082015250565b7f4552433732313a206d696e7420746f20746865207a65726f2061646472657373600082015250565b7f6d6f6e746820717565727920666f72206e6f6e6578697374656e7420746f6b6560008201527f6e00000000000000000000000000000000000000000000000000000000000000602082015250565b7f4552433732313a20617070726f76656420717565727920666f72206e6f6e657860008201527f697374656e7420746f6b656e0000000000000000000000000000000000000000602082015250565b7f46756e6374696f6e2063616e206f6e6c792062652063616c6c6564206279207060008201527f6172656e742054696d6573686172650000000000000000000000000000000000602082015250565b7f4f776e61626c653a2063616c6c6572206973206e6f7420746865206f776e6572600082015250565b7f4552433732313a207472616e73666572206f6620746f6b656e2074686174206960008201527f73206e6f74206f776e0000000000000000000000000000000000000000000000602082015250565b7f4552433732314d657461646174613a2055524920717565727920666f72206e6f60008201527f6e6578697374656e7420746f6b656e0000000000000000000000000000000000602082015250565b7f4552433732313a20617070726f76616c20746f2063757272656e74206f776e6560008201527f7200000000000000000000000000000000000000000000000000000000000000602082015250565b7f52656465656d3a2053656e6465722063616e2774206f70657261746520616c6c60008201527f2054696d6573686172654d6f6e74687300000000000000000000000000000000602082015250565b7f4552433732313a207472616e736665722063616c6c6572206973206e6f74206f60008201527f776e6572206e6f7220617070726f766564000000000000000000000000000000602082015250565b7f455243373231456e756d657261626c653a20676c6f62616c20696e646578206f60008201527f7574206f6620626f756e64730000000000000000000000000000000000000000602082015250565b7f4e4654696d65736861726520636f6e747261637420616464726573732068617360008201527f206e6f74206265656e2073657400000000000000000000000000000000000000602082015250565b7f54696d6573686172654d6f6e746820746f6b656e5552493a2054696d6573686160008201527f726520636f6e7472616374206861736e2774206265656e207365740000000000602082015250565b61469681613d57565b81146146a157600080fd5b50565b6146ad81613d69565b81146146b857600080fd5b50565b6146c481613d75565b81146146cf57600080fd5b50565b6146db81613dc1565b81146146e657600080fd5b5056fea2646970667358221220f55ca54a87c22ac2603c900edb8a10145a05acbf6e14c05c05c720855668ecba64736f6c63430008040033",
  "linkReferences": {},
  "deployedLinkReferences": {}
}