{
  "_format": "hh-sol-artifact-1",
  "contractName": "NFTimeshare",
  "sourceName": "contracts/NFTimeshare.sol",
  "abi": [
    {
      "anonymous": false,
      "inputs": [
        {
          "indexed": true,
          "internalType": "address",
          "name": "owner",
          "type": "address"
        },
        {
          "indexed": true,
          "internalType": "address",
          "name": "approved",
          "type": "address"
        },
        {
          "indexed": true,
          "internalType": "uint256",
          "name": "tokenId",
          "type": "uint256"
        }
      ],
      "name": "Approval",
      "type": "event"
    },
    {
      "anonymous": false,
      "inputs": [
        {
          "indexed": true,
          "internalType": "address",
          "name": "owner",
          "type": "address"
        },
        {
          "indexed": true,
          "internalType": "address",
          "name": "operator",
          "type": "address"
        },
        {
          "indexed": false,
          "internalType": "bool",
          "name": "approved",
          "type": "bool"
        }
      ],
      "name": "ApprovalForAll",
      "type": "event"
    },
    {
      "anonymous": false,
      "inputs": [
        {
          "indexed": true,
          "internalType": "address",
          "name": "holder",
          "type": "address"
        },
        {
          "indexed": true,
          "internalType": "address",
          "name": "sender",
          "type": "address"
        },
        {
          "indexed": true,
          "internalType": "address",
          "name": "recipient",
          "type": "address"
        },
        {
          "indexed": false,
          "internalType": "address",
          "name": "wrapped_contract",
          "type": "address"
        },
        {
          "indexed": false,
          "internalType": "uint256",
          "name": "wrapped_tokenId",
          "type": "uint256"
        },
        {
          "indexed": false,
          "internalType": "uint256",
          "name": "timeshareTokenId",
          "type": "uint256"
        }
      ],
      "name": "Deposit",
      "type": "event"
    },
    {
      "anonymous": false,
      "inputs": [
        {
          "indexed": true,
          "internalType": "address",
          "name": "previousOwner",
          "type": "address"
        },
        {
          "indexed": true,
          "internalType": "address",
          "name": "newOwner",
          "type": "address"
        }
      ],
      "name": "OwnershipTransferred",
      "type": "event"
    },
    {
      "anonymous": false,
      "inputs": [
        {
          "indexed": true,
          "internalType": "address",
          "name": "sender",
          "type": "address"
        },
        {
          "indexed": true,
          "internalType": "address",
          "name": "recipient",
          "type": "address"
        },
        {
          "indexed": false,
          "internalType": "address",
          "name": "unwrapped_contract",
          "type": "address"
        },
        {
          "indexed": false,
          "internalType": "uint256",
          "name": "unwrapped_tokenId",
          "type": "uint256"
        },
        {
          "indexed": false,
          "internalType": "uint256",
          "name": "timeshareTokenId",
          "type": "uint256"
        }
      ],
      "name": "Redeem",
      "type": "event"
    },
    {
      "anonymous": false,
      "inputs": [
        {
          "indexed": true,
          "internalType": "address",
          "name": "from",
          "type": "address"
        },
        {
          "indexed": true,
          "internalType": "address",
          "name": "to",
          "type": "address"
        },
        {
          "indexed": true,
          "internalType": "uint256",
          "name": "tokenId",
          "type": "uint256"
        }
      ],
      "name": "Transfer",
      "type": "event"
    },
    {
      "inputs": [
        {
          "internalType": "address",
          "name": "to",
          "type": "address"
        },
        {
          "internalType": "uint256",
          "name": "tokenId",
          "type": "uint256"
        }
      ],
      "name": "approve",
      "outputs": [],
      "stateMutability": "nonpayable",
      "type": "function"
    },
    {
      "inputs": [
        {
          "internalType": "address",
          "name": "owner",
          "type": "address"
        }
      ],
      "name": "balanceOf",
      "outputs": [
        {
          "internalType": "uint256",
          "name": "",
          "type": "uint256"
        }
      ],
      "stateMutability": "view",
      "type": "function"
    },
    {
      "inputs": [
        {
          "internalType": "address",
          "name": "_underlying",
          "type": "address"
        },
        {
          "internalType": "uint256",
          "name": "_underlyingTokenId",
          "type": "uint256"
        },
        {
          "internalType": "address",
          "name": "_from",
          "type": "address"
        },
        {
          "internalType": "address",
          "name": "_to",
          "type": "address"
        }
      ],
      "name": "deposit",
      "outputs": [],
      "stateMutability": "nonpayable",
      "type": "function"
    },
    {
      "inputs": [
        {
          "internalType": "uint256",
          "name": "tokenId",
          "type": "uint256"
        }
      ],
      "name": "getApproved",
      "outputs": [
        {
          "internalType": "address",
          "name": "",
          "type": "address"
        }
      ],
      "stateMutability": "view",
      "type": "function"
    },
    {
      "inputs": [],
      "name": "getNFTimeshareMonthAddress",
      "outputs": [
        {
          "internalType": "address",
          "name": "",
          "type": "address"
        }
      ],
      "stateMutability": "view",
      "type": "function"
    },
    {
      "inputs": [
        {
          "internalType": "address",
          "name": "addr",
          "type": "address"
        },
        {
          "internalType": "uint256",
          "name": "externalTokenId",
          "type": "uint256"
        }
      ],
      "name": "getTokenIdForUnderlyingNFT",
      "outputs": [
        {
          "internalType": "uint256",
          "name": "",
          "type": "uint256"
        }
      ],
      "stateMutability": "view",
      "type": "function"
    },
    {
      "inputs": [
        {
          "internalType": "uint256",
          "name": "tokenId",
          "type": "uint256"
        }
      ],
      "name": "getWrappedNFT",
      "outputs": [
        {
          "internalType": "address",
          "name": "",
          "type": "address"
        },
        {
          "internalType": "uint256",
          "name": "",
          "type": "uint256"
        }
      ],
      "stateMutability": "view",
      "type": "function"
    },
    {
      "inputs": [],
      "name": "initialize",
      "outputs": [],
      "stateMutability": "nonpayable",
      "type": "function"
    },
    {
      "inputs": [
        {
          "internalType": "address",
          "name": "owner",
          "type": "address"
        },
        {
          "internalType": "address",
          "name": "operator",
          "type": "address"
        }
      ],
      "name": "isApprovedForAll",
      "outputs": [
        {
          "internalType": "bool",
          "name": "",
          "type": "bool"
        }
      ],
      "stateMutability": "view",
      "type": "function"
    },
    {
      "inputs": [],
      "name": "name",
      "outputs": [
        {
          "internalType": "string",
          "name": "",
          "type": "string"
        }
      ],
      "stateMutability": "view",
      "type": "function"
    },
    {
      "inputs": [
        {
          "internalType": "address",
          "name": "",
          "type": "address"
        },
        {
          "internalType": "address",
          "name": "",
          "type": "address"
        },
        {
          "internalType": "uint256",
          "name": "",
          "type": "uint256"
        },
        {
          "internalType": "bytes",
          "name": "",
          "type": "bytes"
        }
      ],
      "name": "onERC721Received",
      "outputs": [
        {
          "internalType": "bytes4",
          "name": "",
          "type": "bytes4"
        }
      ],
      "stateMutability": "nonpayable",
      "type": "function"
    },
    {
      "inputs": [],
      "name": "owner",
      "outputs": [
        {
          "internalType": "address",
          "name": "",
          "type": "address"
        }
      ],
      "stateMutability": "view",
      "type": "function"
    },
    {
      "inputs": [
        {
          "internalType": "uint256",
          "name": "tokenId",
          "type": "uint256"
        }
      ],
      "name": "ownerOf",
      "outputs": [
        {
          "internalType": "address",
          "name": "",
          "type": "address"
        }
      ],
      "stateMutability": "view",
      "type": "function"
    },
    {
      "inputs": [
        {
          "internalType": "uint256",
          "name": "tokenId",
          "type": "uint256"
        },
        {
          "internalType": "address",
          "name": "_to",
          "type": "address"
        }
      ],
      "name": "redeem",
      "outputs": [],
      "stateMutability": "nonpayable",
      "type": "function"
    },
    {
      "inputs": [],
      "name": "renounceOwnership",
      "outputs": [],
      "stateMutability": "nonpayable",
      "type": "function"
    },
    {
      "inputs": [
        {
          "internalType": "address",
          "name": "from",
          "type": "address"
        },
        {
          "internalType": "address",
          "name": "to",
          "type": "address"
        },
        {
          "internalType": "uint256",
          "name": "tokenId",
          "type": "uint256"
        }
      ],
      "name": "safeTransferFrom",
      "outputs": [],
      "stateMutability": "nonpayable",
      "type": "function"
    },
    {
      "inputs": [
        {
          "internalType": "address",
          "name": "from",
          "type": "address"
        },
        {
          "internalType": "address",
          "name": "to",
          "type": "address"
        },
        {
          "internalType": "uint256",
          "name": "tokenId",
          "type": "uint256"
        },
        {
          "internalType": "bytes",
          "name": "data",
          "type": "bytes"
        }
      ],
      "name": "safeTransferFrom",
      "outputs": [],
      "stateMutability": "nonpayable",
      "type": "function"
    },
    {
      "inputs": [
        {
          "internalType": "address",
          "name": "operator",
          "type": "address"
        },
        {
          "internalType": "bool",
          "name": "_approved",
          "type": "bool"
        }
      ],
      "name": "setApprovalForAll",
      "outputs": [],
      "stateMutability": "nonpayable",
      "type": "function"
    },
    {
      "inputs": [
        {
          "internalType": "address",
          "name": "_addr",
          "type": "address"
        }
      ],
      "name": "setNFTimeshareMonthAddress",
      "outputs": [],
      "stateMutability": "nonpayable",
      "type": "function"
    },
    {
      "inputs": [
        {
          "internalType": "bytes4",
          "name": "interfaceId",
          "type": "bytes4"
        }
      ],
      "name": "supportsInterface",
      "outputs": [
        {
          "internalType": "bool",
          "name": "",
          "type": "bool"
        }
      ],
      "stateMutability": "view",
      "type": "function"
    },
    {
      "inputs": [],
      "name": "symbol",
      "outputs": [
        {
          "internalType": "string",
          "name": "",
          "type": "string"
        }
      ],
      "stateMutability": "view",
      "type": "function"
    },
    {
      "inputs": [
        {
          "internalType": "uint256",
          "name": "index",
          "type": "uint256"
        }
      ],
      "name": "tokenByIndex",
      "outputs": [
        {
          "internalType": "uint256",
          "name": "",
          "type": "uint256"
        }
      ],
      "stateMutability": "view",
      "type": "function"
    },
    {
      "inputs": [
        {
          "internalType": "address",
          "name": "owner",
          "type": "address"
        },
        {
          "internalType": "uint256",
          "name": "index",
          "type": "uint256"
        }
      ],
      "name": "tokenOfOwnerByIndex",
      "outputs": [
        {
          "internalType": "uint256",
          "name": "",
          "type": "uint256"
        }
      ],
      "stateMutability": "view",
      "type": "function"
    },
    {
      "inputs": [
        {
          "internalType": "uint256",
          "name": "tokenId",
          "type": "uint256"
        }
      ],
      "name": "tokenURI",
      "outputs": [
        {
          "internalType": "string",
          "name": "",
          "type": "string"
        }
      ],
      "stateMutability": "view",
      "type": "function"
    },
    {
      "inputs": [],
      "name": "totalSupply",
      "outputs": [
        {
          "internalType": "uint256",
          "name": "",
          "type": "uint256"
        }
      ],
      "stateMutability": "view",
      "type": "function"
    },
    {
      "inputs": [
        {
          "internalType": "address",
          "name": "from",
          "type": "address"
        },
        {
          "internalType": "address",
          "name": "to",
          "type": "address"
        },
        {
          "internalType": "uint256",
          "name": "tokenId",
          "type": "uint256"
        }
      ],
      "name": "transferFrom",
      "outputs": [],
      "stateMutability": "nonpayable",
      "type": "function"
    },
    {
      "inputs": [
        {
          "internalType": "address",
          "name": "newOwner",
          "type": "address"
        }
      ],
      "name": "transferOwnership",
      "outputs": [],
      "stateMutability": "nonpayable",
      "type": "function"
    },
    {
      "inputs": [
        {
          "internalType": "uint256",
          "name": "tokenId",
          "type": "uint256"
        }
      ],
      "name": "underlyingTokenURI",
      "outputs": [
        {
          "internalType": "string",
          "name": "",
          "type": "string"
        }
      ],
      "stateMutability": "view",
      "type": "function"
    }
  ],
  "bytecode": "0x608060405234801561001057600080fd5b506143f9806100206000396000f3fe608060405234801561001057600080fd5b50600436106101c45760003560e01c80637bde82f2116100f9578063c3cf1e5611610097578063e0d3c2bd11610071578063e0d3c2bd14610515578063e75726cb14610533578063e985e9c514610564578063f2fde38b14610594576101c4565b8063c3cf1e5614610499578063c6f1649f146104c9578063c87b56dd146104e5576101c4565b80638da5cb5b116100d35780638da5cb5b1461042557806395d89b4114610443578063a22cb46514610461578063b88d4fde1461047d576101c4565b80637bde82f2146103e357806380fe989e146103ff5780638129fc1c1461041b576101c4565b8063286e5508116101665780634f6ccce7116101405780634f6ccce7146103495780636352211e1461037957806370a08231146103a9578063715018a6146103d9576101c4565b8063286e5508146102cd5780632f745c59146102fd57806342842e0e1461032d576101c4565b8063095ea7b3116101a2578063095ea7b314610247578063150b7a021461026357806318160ddd1461029357806323b872dd146102b1576101c4565b806301ffc9a7146101c957806306fdde03146101f9578063081812fc14610217575b600080fd5b6101e360048036038101906101de91906133da565b6105b0565b6040516101f091906137d5565b60405180910390f35b61020161062a565b60405161020e919061380b565b60405180910390f35b610231600480360381019061022c9190613444565b6106bc565b60405161023e9190613723565b60405180910390f35b610261600480360381019061025c9190613311565b610707565b005b61027d6004803603810190610278919061325a565b61074c565b60405161028a91906137f0565b60405180910390f35b61029b610760565b6040516102a8919061396d565b60405180910390f35b6102cb60048036038101906102c6919061320b565b61076d565b005b6102e760048036038101906102e29190613444565b6107b3565b6040516102f4919061380b565b60405180910390f35b61031760048036038101906103129190613311565b61096f565b604051610324919061396d565b60405180910390f35b6103476004803603810190610342919061320b565b610a14565b005b610363600480360381019061035e9190613444565b610a5a565b604051610370919061396d565b60405180910390f35b610393600480360381019061038e9190613444565b610af1565b6040516103a09190613723565b60405180910390f35b6103c360048036038101906103be919061317d565b610cae565b6040516103d0919061396d565b60405180910390f35b6103e1610fb4565b005b6103fd60048036038101906103f89190613496565b6110f1565b005b6104196004803603810190610414919061317d565b6114ac565b005b61042361156d565b005b61042d6116d2565b60405161043a9190613723565b60405180910390f35b61044b6116fc565b604051610458919061380b565b60405180910390f35b61047b600480360381019061047691906132d5565b61178e565b005b6104976004803603810190610492919061325a565b6117d3565b005b6104b360048036038101906104ae9190613311565b61181a565b6040516104c0919061396d565b60405180910390f35b6104e360048036038101906104de919061334d565b611876565b005b6104ff60048036038101906104fa9190613444565b611b92565b60405161050c919061380b565b60405180910390f35b61051d611c39565b60405161052a9190613723565b60405180910390f35b61054d60048036038101906105489190613444565b611c64565b60405161055b929190613775565b60405180910390f35b61057e600480360381019061057991906131cf565b611cfe565b60405161058b91906137d5565b60405180910390f35b6105ae60048036038101906105a9919061317d565b611d4a565b005b60007f780e9d63000000000000000000000000000000000000000000000000000000007bffffffffffffffffffffffffffffffffffffffffffffffffffffffff1916827bffffffffffffffffffffffffffffffffffffffffffffffffffffffff19161480610623575061062282611ef6565b5b9050919050565b60606065805461063990613eb6565b80601f016020809104026020016040519081016040528092919081815260200182805461066590613eb6565b80156106b25780601f10610687576101008083540402835291602001916106b2565b820191906000526020600020905b81548152906001019060200180831161069557829003601f168201915b5050505050905090565b6000806106fe576040517f08c379a00000000000000000000000000000000000000000000000000000000081526004016106f59061394d565b60405180910390fd5b60009050919050565b6000610748576040517f08c379a000000000000000000000000000000000000000000000000000000000815260040161073f9061394d565b60405180910390fd5b5050565b600063150b7a0260e01b9050949350505050565b6000609980549050905090565b60006107ae576040517f08c379a00000000000000000000000000000000000000000000000000000000081526004016107a59061394d565b60405180910390fd5b505050565b6060600073ffffffffffffffffffffffffffffffffffffffff1661012e60009054906101000a900473ffffffffffffffffffffffffffffffffffffffff1673ffffffffffffffffffffffffffffffffffffffff161415610848576040517f08c379a000000000000000000000000000000000000000000000000000000000815260040161083f9061382d565b60405180910390fd5b600061013060008481526020019081526020016000206040518060400160405290816000820160009054906101000a900473ffffffffffffffffffffffffffffffffffffffff1673ffffffffffffffffffffffffffffffffffffffff1673ffffffffffffffffffffffffffffffffffffffff16815260200160018201548152505090506000816000015173ffffffffffffffffffffffffffffffffffffffff1663c87b56dd83602001516040518263ffffffff1660e01b815260040161090e919061396d565b60006040518083038186803b15801561092657600080fd5b505afa15801561093a573d6000803e3d6000fd5b505050506040513d6000823e3d601f19601f820116820180604052508101906109639190613403565b90508092505050919050565b600061097a83611fd8565b82106109bb576040517f08c379a00000000000000000000000000000000000000000000000000000000081526004016109b29061384d565b60405180910390fd5b609760008473ffffffffffffffffffffffffffffffffffffffff1673ffffffffffffffffffffffffffffffffffffffff168152602001908152602001600020600083815260200190815260200160002054905092915050565b6000610a55576040517f08c379a0000000000000000000000000000000000000000000000000000000008152600401610a4c9061394d565b60405180910390fd5b505050565b6000610a64610760565b8210610aa5576040517f08c379a0000000000000000000000000000000000000000000000000000000008152600401610a9c9061390d565b60405180910390fd5b60998281548110610adf577f4e487b7100000000000000000000000000000000000000000000000000000000600052603260045260246000fd5b90600052602060002001549050919050565b6000806001610aff42612090565b610b099190613db5565b9050600061012e60009054906101000a900473ffffffffffffffffffffffffffffffffffffffff1673ffffffffffffffffffffffffffffffffffffffff166359574c38856040518263ffffffff1660e01b8152600401610b69919061396d565b6101806040518083038186803b158015610b8257600080fd5b505afa158015610b96573d6000803e3d6000fd5b505050506040513d601f19601f82011682018060405250810190610bba91906133b0565b905061012e60009054906101000a900473ffffffffffffffffffffffffffffffffffffffff1673ffffffffffffffffffffffffffffffffffffffff16636352211e8284600c8110610c34577f4e487b7100000000000000000000000000000000000000000000000000000000600052603260045260246000fd5b60200201516040518263ffffffff1660e01b8152600401610c55919061396d565b60206040518083038186803b158015610c6d57600080fd5b505afa158015610c81573d6000803e3d6000fd5b505050506040513d601f19601f82011682018060405250810190610ca591906131a6565b92505050919050565b60008073ffffffffffffffffffffffffffffffffffffffff1661012e60009054906101000a900473ffffffffffffffffffffffffffffffffffffffff1673ffffffffffffffffffffffffffffffffffffffff161415610d42576040517f08c379a0000000000000000000000000000000000000000000000000000000008152600401610d399061382d565b60405180910390fd5b600061012e60009054906101000a900473ffffffffffffffffffffffffffffffffffffffff1673ffffffffffffffffffffffffffffffffffffffff166370a08231846040518263ffffffff1660e01b8152600401610da09190613723565b60206040518083038186803b158015610db857600080fd5b505afa158015610dcc573d6000803e3d6000fd5b505050506040513d601f19601f82011682018060405250810190610df0919061346d565b905060006001610dff42612090565b610e099190613db5565b90506000805b83811015610fa857600061012e60009054906101000a900473ffffffffffffffffffffffffffffffffffffffff1673ffffffffffffffffffffffffffffffffffffffff16632f745c5988846040518363ffffffff1660e01b8152600401610e77929190613775565b60206040518083038186803b158015610e8f57600080fd5b505afa158015610ea3573d6000803e3d6000fd5b505050506040513d601f19601f82011682018060405250810190610ec7919061346d565b9050600061012e60009054906101000a900473ffffffffffffffffffffffffffffffffffffffff1673ffffffffffffffffffffffffffffffffffffffff1663989620df836040518263ffffffff1660e01b8152600401610f27919061396d565b60206040518083038186803b158015610f3f57600080fd5b505afa158015610f53573d6000803e3d6000fd5b505050506040513d601f19601f82011682018060405250810190610f7791906134d2565b60ff16905084811415610f93578380610f8f90613f19565b9450505b50508080610fa090613f19565b915050610e0f565b50809350505050919050565b610fbc6120bf565b73ffffffffffffffffffffffffffffffffffffffff16610fda6116d2565b73ffffffffffffffffffffffffffffffffffffffff1614611030576040517f08c379a0000000000000000000000000000000000000000000000000000000008152600401611027906138cd565b60405180910390fd5b600073ffffffffffffffffffffffffffffffffffffffff1660fb60009054906101000a900473ffffffffffffffffffffffffffffffffffffffff1673ffffffffffffffffffffffffffffffffffffffff167f8be0079c531659141344cd1fd0a4f28419497f9722a3daafe3b4186f6b6457e060405160405180910390a3600060fb60006101000a81548173ffffffffffffffffffffffffffffffffffffffff021916908373ffffffffffffffffffffffffffffffffffffffff160217905550565b600073ffffffffffffffffffffffffffffffffffffffff1661012e60009054906101000a900473ffffffffffffffffffffffffffffffffffffffff1673ffffffffffffffffffffffffffffffffffffffff161415611184576040517f08c379a000000000000000000000000000000000000000000000000000000000815260040161117b9061382d565b60405180910390fd5b600061013060008481526020019081526020016000206040518060400160405290816000820160009054906101000a900473ffffffffffffffffffffffffffffffffffffffff1673ffffffffffffffffffffffffffffffffffffffff1673ffffffffffffffffffffffffffffffffffffffff1681526020016001820154815250509050600073ffffffffffffffffffffffffffffffffffffffff16816000015173ffffffffffffffffffffffffffffffffffffffff161415801561124d57506000816020015114155b61128c576040517f08c379a00000000000000000000000000000000000000000000000000000000081526004016112839061392d565b60405180910390fd5b61012f6000826000015173ffffffffffffffffffffffffffffffffffffffff1673ffffffffffffffffffffffffffffffffffffffff168152602001908152602001600020600082602001518152602001908152602001600020600090556101306000848152602001908152602001600020600080820160006101000a81549073ffffffffffffffffffffffffffffffffffffffff02191690556001820160009055505061012e60009054906101000a900473ffffffffffffffffffffffffffffffffffffffff1673ffffffffffffffffffffffffffffffffffffffff16638d6e1b6733856040518363ffffffff1660e01b815260040161138d929190613775565b600060405180830381600087803b1580156113a757600080fd5b505af11580156113bb573d6000803e3d6000fd5b50505050806000015173ffffffffffffffffffffffffffffffffffffffff166342842e0e308484602001516040518463ffffffff1660e01b81526004016114049392919061373e565b600060405180830381600087803b15801561141e57600080fd5b505af1158015611432573d6000803e3d6000fd5b505050508173ffffffffffffffffffffffffffffffffffffffff163373ffffffffffffffffffffffffffffffffffffffff167faee47cdf925cf525fdae94f9777ee5a06cac37e1c41220d0a8a89ed154f62d1c836000015184602001518760405161149f9392919061379e565b60405180910390a3505050565b6114b46120bf565b73ffffffffffffffffffffffffffffffffffffffff166114d26116d2565b73ffffffffffffffffffffffffffffffffffffffff1614611528576040517f08c379a000000000000000000000000000000000000000000000000000000000815260040161151f906138cd565b60405180910390fd5b8061012e60006101000a81548173ffffffffffffffffffffffffffffffffffffffff021916908373ffffffffffffffffffffffffffffffffffffffff16021790555050565b600060019054906101000a900460ff1680611593575060008054906101000a900460ff16155b6115d2576040517f08c379a00000000000000000000000000000000000000000000000000000000081526004016115c9906138ad565b60405180910390fd5b60008060019054906101000a900460ff161590508015611622576001600060016101000a81548160ff02191690831515021790555060016000806101000a81548160ff0219169083151502179055505b6116966040518060400160405280600981526020017f54696d65736861726500000000000000000000000000000000000000000000008152506040518060400160405280600581526020017f53484152450000000000000000000000000000000000000000000000000000008152506120c7565b61169e6121bc565b6116a66122ad565b6116ae61238e565b80156116cf5760008060016101000a81548160ff0219169083151502179055505b50565b600060fb60009054906101000a900473ffffffffffffffffffffffffffffffffffffffff16905090565b60606066805461170b90613eb6565b80601f016020809104026020016040519081016040528092919081815260200182805461173790613eb6565b80156117845780601f1061175957610100808354040283529160200191611784565b820191906000526020600020905b81548152906001019060200180831161176757829003601f168201915b5050505050905090565b60006117cf576040517f08c379a00000000000000000000000000000000000000000000000000000000081526004016117c69061394d565b60405180910390fd5b5050565b6000611814576040517f08c379a000000000000000000000000000000000000000000000000000000000815260040161180b9061394d565b60405180910390fd5b50505050565b600061012f60008473ffffffffffffffffffffffffffffffffffffffff1673ffffffffffffffffffffffffffffffffffffffff168152602001908152602001600020600083815260200190815260200160002054905092915050565b600073ffffffffffffffffffffffffffffffffffffffff1661012e60009054906101000a900473ffffffffffffffffffffffffffffffffffffffff1673ffffffffffffffffffffffffffffffffffffffff161415611909576040517f08c379a00000000000000000000000000000000000000000000000000000000081526004016119009061382d565b60405180910390fd5b61191461012d612477565b600061192161012d61248d565b90508061012f60008773ffffffffffffffffffffffffffffffffffffffff1673ffffffffffffffffffffffffffffffffffffffff16815260200190815260200160002060008681526020019081526020016000208190555060405180604001604052808673ffffffffffffffffffffffffffffffffffffffff16815260200185815250610130600083815260200190815260200160002060008201518160000160006101000a81548173ffffffffffffffffffffffffffffffffffffffff021916908373ffffffffffffffffffffffffffffffffffffffff1602179055506020820151816001015590505061012e60009054906101000a900473ffffffffffffffffffffffffffffffffffffffff1673ffffffffffffffffffffffffffffffffffffffff166306d64af782846040518363ffffffff1660e01b8152600401611a6a929190613988565b600060405180830381600087803b158015611a8457600080fd5b505af1158015611a98573d6000803e3d6000fd5b505050508473ffffffffffffffffffffffffffffffffffffffff166342842e0e8430876040518463ffffffff1660e01b8152600401611ad99392919061373e565b600060405180830381600087803b158015611af357600080fd5b505af1158015611b07573d6000803e3d6000fd5b505050508173ffffffffffffffffffffffffffffffffffffffff163373ffffffffffffffffffffffffffffffffffffffff168473ffffffffffffffffffffffffffffffffffffffff167fe354026b0ea4d7022834b4903ab420cdc10b109a8506dc68061124854cd353c8888886604051611b839392919061379e565b60405180910390a45050505050565b6060611b9d8261249b565b611bdc576040517f08c379a0000000000000000000000000000000000000000000000000000000008152600401611bd3906138ed565b60405180910390fd5b6000611be661250b565b90506000815111611c065760405180602001604052806000815250611c31565b80611c1084612548565b604051602001611c219291906136ff565b6040516020818303038152906040525b915050919050565b600061012e60009054906101000a900473ffffffffffffffffffffffffffffffffffffffff16905090565b600080600061013060008581526020019081526020016000206040518060400160405290816000820160009054906101000a900473ffffffffffffffffffffffffffffffffffffffff1673ffffffffffffffffffffffffffffffffffffffff1673ffffffffffffffffffffffffffffffffffffffff1681526020016001820154815250509050806000015181602001519250925050915091565b600080611d40576040517f08c379a0000000000000000000000000000000000000000000000000000000008152600401611d379061394d565b60405180910390fd5b6000905092915050565b611d526120bf565b73ffffffffffffffffffffffffffffffffffffffff16611d706116d2565b73ffffffffffffffffffffffffffffffffffffffff1614611dc6576040517f08c379a0000000000000000000000000000000000000000000000000000000008152600401611dbd906138cd565b60405180910390fd5b600073ffffffffffffffffffffffffffffffffffffffff168173ffffffffffffffffffffffffffffffffffffffff161415611e36576040517f08c379a0000000000000000000000000000000000000000000000000000000008152600401611e2d9061386d565b60405180910390fd5b8073ffffffffffffffffffffffffffffffffffffffff1660fb60009054906101000a900473ffffffffffffffffffffffffffffffffffffffff1673ffffffffffffffffffffffffffffffffffffffff167f8be0079c531659141344cd1fd0a4f28419497f9722a3daafe3b4186f6b6457e060405160405180910390a38060fb60006101000a81548173ffffffffffffffffffffffffffffffffffffffff021916908373ffffffffffffffffffffffffffffffffffffffff16021790555050565b60007f80ac58cd000000000000000000000000000000000000000000000000000000007bffffffffffffffffffffffffffffffffffffffffffffffffffffffff1916827bffffffffffffffffffffffffffffffffffffffffffffffffffffffff19161480611fc157507f5b5e139f000000000000000000000000000000000000000000000000000000007bffffffffffffffffffffffffffffffffffffffffffffffffffffffff1916827bffffffffffffffffffffffffffffffffffffffffffffffffffffffff1916145b80611fd15750611fd0826126f5565b5b9050919050565b60008073ffffffffffffffffffffffffffffffffffffffff168273ffffffffffffffffffffffffffffffffffffffff161415612049576040517f08c379a00000000000000000000000000000000000000000000000000000000081526004016120409061388d565b60405180910390fd5b606860008373ffffffffffffffffffffffffffffffffffffffff1673ffffffffffffffffffffffffffffffffffffffff168152602001908152602001600020549050919050565b60008060006120ac62015180856120a79190613bd9565b61275f565b8093508195508294505050505050919050565b600033905090565b600060019054906101000a900460ff16806120ed575060008054906101000a900460ff16155b61212c576040517f08c379a0000000000000000000000000000000000000000000000000000000008152600401612123906138ad565b60405180910390fd5b60008060019054906101000a900460ff16159050801561217c576001600060016101000a81548160ff02191690831515021790555060016000806101000a81548160ff0219169083151502179055505b6121846128fe565b61218c6129d7565b6121968383612ab0565b80156121b75760008060016101000a81548160ff0219169083151502179055505b505050565b600060019054906101000a900460ff16806121e2575060008054906101000a900460ff16155b612221576040517f08c379a0000000000000000000000000000000000000000000000000000000008152600401612218906138ad565b60405180910390fd5b60008060019054906101000a900460ff161590508015612271576001600060016101000a81548160ff02191690831515021790555060016000806101000a81548160ff0219169083151502179055505b6122796128fe565b6122816129d7565b612289612bb9565b80156122aa5760008060016101000a81548160ff0219169083151502179055505b50565b600060019054906101000a900460ff16806122d3575060008054906101000a900460ff16155b612312576040517f08c379a0000000000000000000000000000000000000000000000000000000008152600401612309906138ad565b60405180910390fd5b60008060019054906101000a900460ff161590508015612362576001600060016101000a81548160ff02191690831515021790555060016000806101000a81548160ff0219169083151502179055505b61236a612c92565b801561238b5760008060016101000a81548160ff0219169083151502179055505b50565b600060019054906101000a900460ff16806123b4575060008054906101000a900460ff16155b6123f3576040517f08c379a00000000000000000000000000000000000000000000000000000000081526004016123ea906138ad565b60405180910390fd5b60008060019054906101000a900460ff161590508015612443576001600060016101000a81548160ff02191690831515021790555060016000806101000a81548160ff0219169083151502179055505b61244b6128fe565b612453612d6b565b80156124745760008060016101000a81548160ff0219169083151502179055505b50565b6001816000016000828254019250508190555050565b600081600001549050919050565b60008073ffffffffffffffffffffffffffffffffffffffff16610130600084815260200190815260200160002060000160009054906101000a900473ffffffffffffffffffffffffffffffffffffffff1673ffffffffffffffffffffffffffffffffffffffff1614159050919050565b60606040518060400160405280601f81526020017f7777772e6e6674696d657368617265732e66756e2f74696d6573686172652f00815250905090565b60606000821415612590576040518060400160405280600181526020017f300000000000000000000000000000000000000000000000000000000000000081525090506126f0565b600082905060005b600082146125c25780806125ab90613f19565b915050600a826125bb9190613bd9565b9150612598565b60008167ffffffffffffffff811115612604577f4e487b7100000000000000000000000000000000000000000000000000000000600052604160045260246000fd5b6040519080825280601f01601f1916602001820160405280156126365781602001600182028036833780820191505090505b5090505b600085146126e95760018261264f9190613db5565b9150600a8561265e9190613f62565b603061266a9190613b19565b60f81b8183815181106126a6577f4e487b7100000000000000000000000000000000000000000000000000000000600052603260045260246000fd5b60200101907effffffffffffffffffffffffffffffffffffffffffffffffffffffffffffff1916908160001a905350600a856126e29190613bd9565b945061263a565b8093505050505b919050565b60007f01ffc9a7000000000000000000000000000000000000000000000000000000007bffffffffffffffffffffffffffffffffffffffffffffffffffffffff1916827bffffffffffffffffffffffffffffffffffffffffffffffffffffffff1916149050919050565b600080600080849050600062253d8c62010bd98361277d9190613a85565b6127879190613a85565b9050600062023ab182600461279c9190613c0a565b6127a69190613b6f565b9050600460038262023ab16127bb9190613c0a565b6127c59190613a85565b6127cf9190613b6f565b826127da9190613d21565b9150600062164b096001846127ef9190613a85565b610fa06127fc9190613c0a565b6128069190613b6f565b9050601f6004826105b561281a9190613c0a565b6128249190613b6f565b8461282f9190613d21565b6128399190613a85565b9250600061098f84605061284d9190613c0a565b6128579190613b6f565b9050600060508261098f61286b9190613c0a565b6128759190613b6f565b856128809190613d21565b9050600b8261288f9190613b6f565b945084600c61289e9190613c0a565b6002836128ab9190613a85565b6128b59190613d21565b915084836031866128c69190613d21565b60646128d29190613c0a565b6128dc9190613a85565b6128e69190613a85565b92508298508197508096505050505050509193909250565b600060019054906101000a900460ff1680612924575060008054906101000a900460ff16155b612963576040517f08c379a000000000000000000000000000000000000000000000000000000000815260040161295a906138ad565b60405180910390fd5b60008060019054906101000a900460ff1615905080156129b3576001600060016101000a81548160ff02191690831515021790555060016000806101000a81548160ff0219169083151502179055505b80156129d45760008060016101000a81548160ff0219169083151502179055505b50565b600060019054906101000a900460ff16806129fd575060008054906101000a900460ff16155b612a3c576040517f08c379a0000000000000000000000000000000000000000000000000000000008152600401612a33906138ad565b60405180910390fd5b60008060019054906101000a900460ff161590508015612a8c576001600060016101000a81548160ff02191690831515021790555060016000806101000a81548160ff0219169083151502179055505b8015612aad5760008060016101000a81548160ff0219169083151502179055505b50565b600060019054906101000a900460ff1680612ad6575060008054906101000a900460ff16155b612b15576040517f08c379a0000000000000000000000000000000000000000000000000000000008152600401612b0c906138ad565b60405180910390fd5b60008060019054906101000a900460ff161590508015612b65576001600060016101000a81548160ff02191690831515021790555060016000806101000a81548160ff0219169083151502179055505b8260659080519060200190612b7b929190612eed565b508160669080519060200190612b92929190612eed565b508015612bb45760008060016101000a81548160ff0219169083151502179055505b505050565b600060019054906101000a900460ff1680612bdf575060008054906101000a900460ff16155b612c1e576040517f08c379a0000000000000000000000000000000000000000000000000000000008152600401612c15906138ad565b60405180910390fd5b60008060019054906101000a900460ff161590508015612c6e576001600060016101000a81548160ff02191690831515021790555060016000806101000a81548160ff0219169083151502179055505b8015612c8f5760008060016101000a81548160ff0219169083151502179055505b50565b600060019054906101000a900460ff1680612cb8575060008054906101000a900460ff16155b612cf7576040517f08c379a0000000000000000000000000000000000000000000000000000000008152600401612cee906138ad565b60405180910390fd5b60008060019054906101000a900460ff161590508015612d47576001600060016101000a81548160ff02191690831515021790555060016000806101000a81548160ff0219169083151502179055505b8015612d685760008060016101000a81548160ff0219169083151502179055505b50565b600060019054906101000a900460ff1680612d91575060008054906101000a900460ff16155b612dd0576040517f08c379a0000000000000000000000000000000000000000000000000000000008152600401612dc7906138ad565b60405180910390fd5b60008060019054906101000a900460ff161590508015612e20576001600060016101000a81548160ff02191690831515021790555060016000806101000a81548160ff0219169083151502179055505b6000612e2a6120bf565b90508060fb60006101000a81548173ffffffffffffffffffffffffffffffffffffffff021916908373ffffffffffffffffffffffffffffffffffffffff1602179055508073ffffffffffffffffffffffffffffffffffffffff16600073ffffffffffffffffffffffffffffffffffffffff167f8be0079c531659141344cd1fd0a4f28419497f9722a3daafe3b4186f6b6457e060405160405180910390a3508015612eea5760008060016101000a81548160ff0219169083151502179055505b50565b828054612ef990613eb6565b90600052602060002090601f016020900481019282612f1b5760008555612f62565b82601f10612f3457805160ff1916838001178555612f62565b82800160010185558215612f62579182015b82811115612f61578251825591602001919060010190612f46565b5b509050612f6f9190612f73565b5090565b5b80821115612f8c576000816000905550600101612f74565b5090565b6000612fa3612f9e846139d6565b6139b1565b90508082856020860282011115612fb957600080fd5b60005b85811015612fe95781612fcf8882613153565b845260208401935060208301925050600181019050612fbc565b5050509392505050565b6000613006613001846139fc565b6139b1565b90508281526020810184848401111561301e57600080fd5b613029848285613e74565b509392505050565b600061304461303f84613a2d565b6139b1565b90508281526020810184848401111561305c57600080fd5b613067848285613e83565b509392505050565b60008135905061307e81614350565b92915050565b60008151905061309381614350565b92915050565b600082601f8301126130aa57600080fd5b600c6130b7848285612f90565b91505092915050565b6000813590506130cf81614367565b92915050565b6000813590506130e48161437e565b92915050565b600082601f8301126130fb57600080fd5b813561310b848260208601612ff3565b91505092915050565b600082601f83011261312557600080fd5b8151613135848260208601613031565b91505092915050565b60008135905061314d81614395565b92915050565b60008151905061316281614395565b92915050565b600081519050613177816143ac565b92915050565b60006020828403121561318f57600080fd5b600061319d8482850161306f565b91505092915050565b6000602082840312156131b857600080fd5b60006131c684828501613084565b91505092915050565b600080604083850312156131e257600080fd5b60006131f08582860161306f565b92505060206132018582860161306f565b9150509250929050565b60008060006060848603121561322057600080fd5b600061322e8682870161306f565b935050602061323f8682870161306f565b92505060406132508682870161313e565b9150509250925092565b6000806000806080858703121561327057600080fd5b600061327e8782880161306f565b945050602061328f8782880161306f565b93505060406132a08782880161313e565b925050606085013567ffffffffffffffff8111156132bd57600080fd5b6132c9878288016130ea565b91505092959194509250565b600080604083850312156132e857600080fd5b60006132f68582860161306f565b9250506020613307858286016130c0565b9150509250929050565b6000806040838503121561332457600080fd5b60006133328582860161306f565b92505060206133438582860161313e565b9150509250929050565b6000806000806080858703121561336357600080fd5b60006133718782880161306f565b94505060206133828782880161313e565b93505060406133938782880161306f565b92505060606133a48782880161306f565b91505092959194509250565b600061018082840312156133c357600080fd5b60006133d184828501613099565b91505092915050565b6000602082840312156133ec57600080fd5b60006133fa848285016130d5565b91505092915050565b60006020828403121561341557600080fd5b600082015167ffffffffffffffff81111561342f57600080fd5b61343b84828501613114565b91505092915050565b60006020828403121561345657600080fd5b60006134648482850161313e565b91505092915050565b60006020828403121561347f57600080fd5b600061348d84828501613153565b91505092915050565b600080604083850312156134a957600080fd5b60006134b78582860161313e565b92505060206134c88582860161306f565b9150509250929050565b6000602082840312156134e457600080fd5b60006134f284828501613168565b91505092915050565b61350481613de9565b82525050565b61351381613dfb565b82525050565b61352281613e07565b82525050565b600061353382613a5e565b61353d8185613a69565b935061354d818560208601613e83565b6135568161404f565b840191505092915050565b600061356c82613a5e565b6135768185613a7a565b9350613586818560208601613e83565b80840191505092915050565b600061359f602f83613a69565b91506135aa82614060565b604082019050919050565b60006135c2602b83613a69565b91506135cd826140af565b604082019050919050565b60006135e5602683613a69565b91506135f0826140fe565b604082019050919050565b6000613608602a83613a69565b91506136138261414d565b604082019050919050565b600061362b602e83613a69565b91506136368261419c565b604082019050919050565b600061364e602083613a69565b9150613659826141eb565b602082019050919050565b6000613671602f83613a69565b915061367c82614214565b604082019050919050565b6000613694602c83613a69565b915061369f82614263565b604082019050919050565b60006136b7602583613a69565b91506136c2826142b2565b604082019050919050565b60006136da602383613a69565b91506136e582614301565b604082019050919050565b6136f981613e5d565b82525050565b600061370b8285613561565b91506137178284613561565b91508190509392505050565b600060208201905061373860008301846134fb565b92915050565b600060608201905061375360008301866134fb565b61376060208301856134fb565b61376d60408301846136f0565b949350505050565b600060408201905061378a60008301856134fb565b61379760208301846136f0565b9392505050565b60006060820190506137b360008301866134fb565b6137c060208301856136f0565b6137cd60408301846136f0565b949350505050565b60006020820190506137ea600083018461350a565b92915050565b60006020820190506138056000830184613519565b92915050565b600060208201905081810360008301526138258184613528565b905092915050565b6000602082019050818103600083015261384681613592565b9050919050565b60006020820190508181036000830152613866816135b5565b9050919050565b60006020820190508181036000830152613886816135d8565b9050919050565b600060208201905081810360008301526138a6816135fb565b9050919050565b600060208201905081810360008301526138c68161361e565b9050919050565b600060208201905081810360008301526138e681613641565b9050919050565b6000602082019050818103600083015261390681613664565b9050919050565b6000602082019050818103600083015261392681613687565b9050919050565b60006020820190508181036000830152613946816136aa565b9050919050565b60006020820190508181036000830152613966816136cd565b9050919050565b600060208201905061398260008301846136f0565b92915050565b600060408201905061399d60008301856136f0565b6139aa60208301846134fb565b9392505050565b60006139bb6139cc565b90506139c78282613ee8565b919050565b6000604051905090565b600067ffffffffffffffff8211156139f1576139f0614020565b5b602082029050919050565b600067ffffffffffffffff821115613a1757613a16614020565b5b613a208261404f565b9050602081019050919050565b600067ffffffffffffffff821115613a4857613a47614020565b5b613a518261404f565b9050602081019050919050565b600081519050919050565b600082825260208201905092915050565b600081905092915050565b6000613a9082613e33565b9150613a9b83613e33565b9250817f7fffffffffffffffffffffffffffffffffffffffffffffffffffffffffffffff03831360008312151615613ad657613ad5613f93565b5b817f8000000000000000000000000000000000000000000000000000000000000000038312600083121615613b0e57613b0d613f93565b5b828201905092915050565b6000613b2482613e5d565b9150613b2f83613e5d565b9250827fffffffffffffffffffffffffffffffffffffffffffffffffffffffffffffffff03821115613b6457613b63613f93565b5b828201905092915050565b6000613b7a82613e33565b9150613b8583613e33565b925082613b9557613b94613fc2565b5b600160000383147f800000000000000000000000000000000000000000000000000000000000000083141615613bce57613bcd613f93565b5b828205905092915050565b6000613be482613e5d565b9150613bef83613e5d565b925082613bff57613bfe613fc2565b5b828204905092915050565b6000613c1582613e33565b9150613c2083613e33565b9250827f7fffffffffffffffffffffffffffffffffffffffffffffffffffffffffffffff0482116000841360008413161615613c5f57613c5e613f93565b5b817f80000000000000000000000000000000000000000000000000000000000000000583126000841260008413161615613c9c57613c9b613f93565b5b827f80000000000000000000000000000000000000000000000000000000000000000582126000841360008412161615613cd957613cd8613f93565b5b827f7fffffffffffffffffffffffffffffffffffffffffffffffffffffffffffffff0582126000841260008412161615613d1657613d15613f93565b5b828202905092915050565b6000613d2c82613e33565b9150613d3783613e33565b9250827f800000000000000000000000000000000000000000000000000000000000000001821260008412151615613d7257613d71613f93565b5b827f7fffffffffffffffffffffffffffffffffffffffffffffffffffffffffffffff018213600084121615613daa57613da9613f93565b5b828203905092915050565b6000613dc082613e5d565b9150613dcb83613e5d565b925082821015613dde57613ddd613f93565b5b828203905092915050565b6000613df482613e3d565b9050919050565b60008115159050919050565b60007fffffffff0000000000000000000000000000000000000000000000000000000082169050919050565b6000819050919050565b600073ffffffffffffffffffffffffffffffffffffffff82169050919050565b6000819050919050565b600060ff82169050919050565b82818337600083830152505050565b60005b83811015613ea1578082015181840152602081019050613e86565b83811115613eb0576000848401525b50505050565b60006002820490506001821680613ece57607f821691505b60208210811415613ee257613ee1613ff1565b5b50919050565b613ef18261404f565b810181811067ffffffffffffffff82111715613f1057613f0f614020565b5b80604052505050565b6000613f2482613e5d565b91507fffffffffffffffffffffffffffffffffffffffffffffffffffffffffffffffff821415613f5757613f56613f93565b5b600182019050919050565b6000613f6d82613e5d565b9150613f7883613e5d565b925082613f8857613f87613fc2565b5b828206905092915050565b7f4e487b7100000000000000000000000000000000000000000000000000000000600052601160045260246000fd5b7f4e487b7100000000000000000000000000000000000000000000000000000000600052601260045260246000fd5b7f4e487b7100000000000000000000000000000000000000000000000000000000600052602260045260246000fd5b7f4e487b7100000000000000000000000000000000000000000000000000000000600052604160045260246000fd5b6000601f19601f8301169050919050565b7f4e4654696d65736861726520636f6e747261637420616464726573732068617360008201527f6e2774206265656e207365742075700000000000000000000000000000000000602082015250565b7f455243373231456e756d657261626c653a206f776e657220696e646578206f7560008201527f74206f6620626f756e6473000000000000000000000000000000000000000000602082015250565b7f4f776e61626c653a206e6577206f776e657220697320746865207a65726f206160008201527f6464726573730000000000000000000000000000000000000000000000000000602082015250565b7f4552433732313a2062616c616e636520717565727920666f7220746865207a6560008201527f726f206164647265737300000000000000000000000000000000000000000000602082015250565b7f496e697469616c697a61626c653a20636f6e747261637420697320616c72656160008201527f647920696e697469616c697a6564000000000000000000000000000000000000602082015250565b7f4f776e61626c653a2063616c6c6572206973206e6f7420746865206f776e6572600082015250565b7f4552433732314d657461646174613a2055524920717565727920666f72206e6f60008201527f6e6578697374656e7420746f6b656e0000000000000000000000000000000000602082015250565b7f455243373231456e756d657261626c653a20676c6f62616c20696e646578206f60008201527f7574206f6620626f756e64730000000000000000000000000000000000000000602082015250565b7f52656465656d2054696d6573686172653a204e6f6e6578697374656e7420746f60008201527f6b656e4964000000000000000000000000000000000000000000000000000000602082015250565b7f446973616c6c6f776564206f7065726174696f6e206f6e204e4654696d65736860008201527f6172650000000000000000000000000000000000000000000000000000000000602082015250565b61435981613de9565b811461436457600080fd5b50565b61437081613dfb565b811461437b57600080fd5b50565b61438781613e07565b811461439257600080fd5b50565b61439e81613e5d565b81146143a957600080fd5b50565b6143b581613e67565b81146143c057600080fd5b5056fea26469706673582212209921f16bdc1c23e4f9447bea04151604265a8a9793dbd7d0fdcccf9fe1b9d85d64736f6c63430008040033",
  "linkReferences": {},
  "deployedLinkReferences": {}
}