{
  "_format": "hh-sol-artifact-1",
  "contractName": "NFTimeshareMonth",
  "sourceName": "contracts/NFTimeshareMonth.sol",
  "abi": [
    {
      "anonymous": false,
      "inputs": [
        {
          "indexed": true,
          "internalType": "address",
          "name": "owner",
          "type": "address"
        },
        {
          "indexed": true,
          "internalType": "address",
          "name": "approved",
          "type": "address"
        },
        {
          "indexed": true,
          "internalType": "uint256",
          "name": "tokenId",
          "type": "uint256"
        }
      ],
      "name": "Approval",
      "type": "event"
    },
    {
      "anonymous": false,
      "inputs": [
        {
          "indexed": true,
          "internalType": "address",
          "name": "owner",
          "type": "address"
        },
        {
          "indexed": true,
          "internalType": "address",
          "name": "operator",
          "type": "address"
        },
        {
          "indexed": false,
          "internalType": "bool",
          "name": "approved",
          "type": "bool"
        }
      ],
      "name": "ApprovalForAll",
      "type": "event"
    },
    {
      "anonymous": false,
      "inputs": [
        {
          "indexed": true,
          "internalType": "address",
          "name": "previousOwner",
          "type": "address"
        },
        {
          "indexed": true,
          "internalType": "address",
          "name": "newOwner",
          "type": "address"
        }
      ],
      "name": "OwnershipTransferred",
      "type": "event"
    },
    {
      "anonymous": false,
      "inputs": [
        {
          "indexed": true,
          "internalType": "address",
          "name": "from",
          "type": "address"
        },
        {
          "indexed": true,
          "internalType": "address",
          "name": "to",
          "type": "address"
        },
        {
          "indexed": true,
          "internalType": "uint256",
          "name": "tokenId",
          "type": "uint256"
        }
      ],
      "name": "Transfer",
      "type": "event"
    },
    {
      "inputs": [
        {
          "internalType": "address",
          "name": "to",
          "type": "address"
        },
        {
          "internalType": "uint256",
          "name": "tokenId",
          "type": "uint256"
        }
      ],
      "name": "approve",
      "outputs": [],
      "stateMutability": "nonpayable",
      "type": "function"
    },
    {
      "inputs": [
        {
          "internalType": "address",
          "name": "owner",
          "type": "address"
        }
      ],
      "name": "balanceOf",
      "outputs": [
        {
          "internalType": "uint256",
          "name": "",
          "type": "uint256"
        }
      ],
      "stateMutability": "view",
      "type": "function"
    },
    {
      "inputs": [
        {
          "internalType": "address",
          "name": "spender",
          "type": "address"
        },
        {
          "internalType": "uint256",
          "name": "timeshareTokenId",
          "type": "uint256"
        }
      ],
      "name": "burnTimeshareMonthsFor",
      "outputs": [],
      "stateMutability": "nonpayable",
      "type": "function"
    },
    {
      "inputs": [
        {
          "internalType": "uint256",
          "name": "tokenId",
          "type": "uint256"
        }
      ],
      "name": "getApproved",
      "outputs": [
        {
          "internalType": "address",
          "name": "",
          "type": "address"
        }
      ],
      "stateMutability": "view",
      "type": "function"
    },
    {
      "inputs": [],
      "name": "getNFTimeshareAddress",
      "outputs": [
        {
          "internalType": "address",
          "name": "",
          "type": "address"
        }
      ],
      "stateMutability": "view",
      "type": "function"
    },
    {
      "inputs": [
        {
          "internalType": "uint256",
          "name": "timeshareMonthTokenId",
          "type": "uint256"
        }
      ],
      "name": "getParentTimeshare",
      "outputs": [
        {
          "internalType": "uint256",
          "name": "",
          "type": "uint256"
        }
      ],
      "stateMutability": "view",
      "type": "function"
    },
    {
      "inputs": [
        {
          "internalType": "uint256",
          "name": "timeshareTokenId",
          "type": "uint256"
        }
      ],
      "name": "getTimeshareMonths",
      "outputs": [
        {
          "internalType": "uint256[12]",
          "name": "",
          "type": "uint256[12]"
        }
      ],
      "stateMutability": "view",
      "type": "function"
    },
    {
      "inputs": [],
      "name": "initialize",
      "outputs": [],
      "stateMutability": "nonpayable",
      "type": "function"
    },
    {
      "inputs": [
        {
          "internalType": "address",
          "name": "owner",
          "type": "address"
        },
        {
          "internalType": "address",
          "name": "operator",
          "type": "address"
        }
      ],
      "name": "isApprovedForAll",
      "outputs": [
        {
          "internalType": "bool",
          "name": "",
          "type": "bool"
        }
      ],
      "stateMutability": "view",
      "type": "function"
    },
    {
      "inputs": [
        {
          "internalType": "address",
          "name": "spender",
          "type": "address"
        },
        {
          "internalType": "uint256",
          "name": "timeshareTokenId",
          "type": "uint256"
        }
      ],
      "name": "isApprovedForAllMonths",
      "outputs": [
        {
          "internalType": "bool",
          "name": "",
          "type": "bool"
        }
      ],
      "stateMutability": "view",
      "type": "function"
    },
    {
      "inputs": [
        {
          "internalType": "uint256",
          "name": "timeshareTokenId",
          "type": "uint256"
        },
        {
          "internalType": "address",
          "name": "to",
          "type": "address"
        }
      ],
      "name": "makeTimesharesFor",
      "outputs": [],
      "stateMutability": "nonpayable",
      "type": "function"
    },
    {
      "inputs": [
        {
          "internalType": "uint256",
          "name": "tokenId",
          "type": "uint256"
        }
      ],
      "name": "month",
      "outputs": [
        {
          "internalType": "uint8",
          "name": "",
          "type": "uint8"
        }
      ],
      "stateMutability": "view",
      "type": "function"
    },
    {
      "inputs": [],
      "name": "name",
      "outputs": [
        {
          "internalType": "string",
          "name": "",
          "type": "string"
        }
      ],
      "stateMutability": "view",
      "type": "function"
    },
    {
      "inputs": [],
      "name": "owner",
      "outputs": [
        {
          "internalType": "address",
          "name": "",
          "type": "address"
        }
      ],
      "stateMutability": "view",
      "type": "function"
    },
    {
      "inputs": [
        {
          "internalType": "uint256",
          "name": "tokenId",
          "type": "uint256"
        }
      ],
      "name": "ownerOf",
      "outputs": [
        {
          "internalType": "address",
          "name": "",
          "type": "address"
        }
      ],
      "stateMutability": "view",
      "type": "function"
    },
    {
      "inputs": [],
      "name": "renounceOwnership",
      "outputs": [],
      "stateMutability": "nonpayable",
      "type": "function"
    },
    {
      "inputs": [
        {
          "internalType": "address",
          "name": "from",
          "type": "address"
        },
        {
          "internalType": "address",
          "name": "to",
          "type": "address"
        },
        {
          "internalType": "uint256",
          "name": "tokenId",
          "type": "uint256"
        }
      ],
      "name": "safeTransferFrom",
      "outputs": [],
      "stateMutability": "nonpayable",
      "type": "function"
    },
    {
      "inputs": [
        {
          "internalType": "address",
          "name": "from",
          "type": "address"
        },
        {
          "internalType": "address",
          "name": "to",
          "type": "address"
        },
        {
          "internalType": "uint256",
          "name": "tokenId",
          "type": "uint256"
        },
        {
          "internalType": "bytes",
          "name": "_data",
          "type": "bytes"
        }
      ],
      "name": "safeTransferFrom",
      "outputs": [],
      "stateMutability": "nonpayable",
      "type": "function"
    },
    {
      "inputs": [
        {
          "internalType": "address",
          "name": "operator",
          "type": "address"
        },
        {
          "internalType": "bool",
          "name": "approved",
          "type": "bool"
        }
      ],
      "name": "setApprovalForAll",
      "outputs": [],
      "stateMutability": "nonpayable",
      "type": "function"
    },
    {
      "inputs": [
        {
          "internalType": "address",
          "name": "addr",
          "type": "address"
        }
      ],
      "name": "setNFTimeshareAddress",
      "outputs": [],
      "stateMutability": "nonpayable",
      "type": "function"
    },
    {
      "inputs": [
        {
          "internalType": "bytes4",
          "name": "interfaceId",
          "type": "bytes4"
        }
      ],
      "name": "supportsInterface",
      "outputs": [
        {
          "internalType": "bool",
          "name": "",
          "type": "bool"
        }
      ],
      "stateMutability": "view",
      "type": "function"
    },
    {
      "inputs": [],
      "name": "symbol",
      "outputs": [
        {
          "internalType": "string",
          "name": "",
          "type": "string"
        }
      ],
      "stateMutability": "view",
      "type": "function"
    },
    {
      "inputs": [
        {
          "internalType": "uint256",
          "name": "index",
          "type": "uint256"
        }
      ],
      "name": "tokenByIndex",
      "outputs": [
        {
          "internalType": "uint256",
          "name": "",
          "type": "uint256"
        }
      ],
      "stateMutability": "view",
      "type": "function"
    },
    {
      "inputs": [
        {
          "internalType": "address",
          "name": "owner",
          "type": "address"
        },
        {
          "internalType": "uint256",
          "name": "index",
          "type": "uint256"
        }
      ],
      "name": "tokenOfOwnerByIndex",
      "outputs": [
        {
          "internalType": "uint256",
          "name": "",
          "type": "uint256"
        }
      ],
      "stateMutability": "view",
      "type": "function"
    },
    {
      "inputs": [
        {
          "internalType": "uint256",
          "name": "tokenId",
          "type": "uint256"
        }
      ],
      "name": "tokenURI",
      "outputs": [
        {
          "internalType": "string",
          "name": "",
          "type": "string"
        }
      ],
      "stateMutability": "view",
      "type": "function"
    },
    {
      "inputs": [
        {
          "internalType": "address",
          "name": "owner",
          "type": "address"
        },
        {
          "internalType": "uint256",
          "name": "start",
          "type": "uint256"
        },
        {
          "internalType": "uint256",
          "name": "limit",
          "type": "uint256"
        }
      ],
      "name": "tokensOf",
      "outputs": [
        {
          "components": [
            {
              "internalType": "uint256",
              "name": "tokenId",
              "type": "uint256"
            },
            {
              "internalType": "uint8",
              "name": "month",
              "type": "uint8"
            },
            {
              "internalType": "string",
              "name": "tokenURI",
              "type": "string"
            }
          ],
          "internalType": "struct NFTimeshareMonth.TimeshareMonthInfo[]",
          "name": "",
          "type": "tuple[]"
        }
      ],
      "stateMutability": "view",
      "type": "function"
    },
    {
      "inputs": [],
      "name": "totalSupply",
      "outputs": [
        {
          "internalType": "uint256",
          "name": "",
          "type": "uint256"
        }
      ],
      "stateMutability": "view",
      "type": "function"
    },
    {
      "inputs": [
        {
          "internalType": "address",
          "name": "from",
          "type": "address"
        },
        {
          "internalType": "address",
          "name": "to",
          "type": "address"
        },
        {
          "internalType": "uint256",
          "name": "tokenId",
          "type": "uint256"
        }
      ],
      "name": "transferFrom",
      "outputs": [],
      "stateMutability": "nonpayable",
      "type": "function"
    },
    {
      "inputs": [
        {
          "internalType": "address",
          "name": "newOwner",
          "type": "address"
        }
      ],
      "name": "transferOwnership",
      "outputs": [],
      "stateMutability": "nonpayable",
      "type": "function"
    },
    {
      "inputs": [
        {
          "internalType": "uint256",
          "name": "tokenId",
          "type": "uint256"
        }
      ],
      "name": "underlyingTokenURI",
      "outputs": [
        {
          "internalType": "string",
          "name": "",
          "type": "string"
        }
      ],
      "stateMutability": "view",
      "type": "function"
    }
  ],
  "bytecode": "0x608060405234801561001057600080fd5b5061580480620000216000396000f3fe608060405234801561001057600080fd5b50600436106101da5760003560e01c80636352211e1161010457806395d89b41116100a2578063b88d4fde11610071578063b88d4fde1461058d578063c87b56dd146105a9578063e985e9c5146105d9578063f2fde38b14610609576101da565b806395d89b41146104f3578063984754fa14610511578063989620df14610541578063a22cb46514610571576101da565b8063802b9645116100de578063802b9645146104915780638129fc1c146104af5780638d6e1b67146104b95780638da5cb5b146104d5576101da565b80636352211e1461042757806370a0823114610457578063715018a614610487576101da565b806323b872dd1161017c5780634be9ea351161014b5780634be9ea351461037b5780634f6ccce7146103ab57806359574c38146103db5780635f9357b81461040b576101da565b806323b872dd146102e3578063286e5508146102ff5780632f745c591461032f57806342842e0e1461035f576101da565b8063081812fc116101b8578063081812fc14610249578063095ea7b31461027957806318160ddd1461029557806323185dc9146102b3576101da565b806301ffc9a7146101df57806306d64af71461020f57806306fdde031461022b575b600080fd5b6101f960048036038101906101f49190613f5a565b610625565b604051610206919061474a565b60405180910390f35b61022960048036038101906102249190614016565b61069f565b005b6102336109c2565b6040516102409190614765565b60405180910390f35b610263600480360381019061025e9190613fed565b610a54565b60405161027091906146a5565b60405180910390f35b610293600480360381019061028e9190613ecf565b610ad9565b005b61029d610bf1565b6040516102aa9190614ae7565b60405180910390f35b6102cd60048036038101906102c89190613f0b565b610bfe565b6040516102da919061470c565b60405180910390f35b6102fd60048036038101906102f89190613dc9565b610d94565b005b61031960048036038101906103149190613fed565b610df4565b6040516103269190614765565b60405180910390f35b61034960048036038101906103449190613ecf565b610fd7565b6040516103569190614ae7565b60405180910390f35b61037960048036038101906103749190613dc9565b61107c565b005b61039560048036038101906103909190613ecf565b61109c565b6040516103a2919061474a565b60405180910390f35b6103c560048036038101906103c09190613fed565b611178565b6040516103d29190614ae7565b60405180910390f35b6103f560048036038101906103f09190613fed565b61120f565b604051610402919061472e565b60405180910390f35b61042560048036038101906104209190613d64565b61126d565b005b610441600480360381019061043c9190613fed565b61132d565b60405161044e91906146a5565b60405180910390f35b610471600480360381019061046c9190613d64565b6113df565b60405161047e9190614ae7565b60405180910390f35b61048f611497565b005b6104996115d4565b6040516104a691906146a5565b60405180910390f35b6104b76115fe565b005b6104d360048036038101906104ce9190613ecf565b61175b565b005b6104dd611aa5565b6040516104ea91906146a5565b60405180910390f35b6104fb611acf565b6040516105089190614765565b60405180910390f35b61052b60048036038101906105269190613fed565b611b61565b6040516105389190614ae7565b60405180910390f35b61055b60048036038101906105569190613fed565b611b7e565b6040516105689190614b02565b60405180910390f35b61058b60048036038101906105869190613e93565b611da1565b005b6105a760048036038101906105a29190613e18565b611f22565b005b6105c360048036038101906105be9190613fed565b611f84565b6040516105d09190614765565b60405180910390f35b6105f360048036038101906105ee9190613d8d565b61202b565b604051610600919061474a565b60405180910390f35b610623600480360381019061061e9190613d64565b6120bf565b005b60007f780e9d63000000000000000000000000000000000000000000000000000000007bffffffffffffffffffffffffffffffffffffffffffffffffffffffff1916827bffffffffffffffffffffffffffffffffffffffffffffffffffffffff1916148061069857506106978261226b565b5b9050919050565b600073ffffffffffffffffffffffffffffffffffffffff1660fc60009054906101000a900473ffffffffffffffffffffffffffffffffffffffff1673ffffffffffffffffffffffffffffffffffffffff161415610731576040517f08c379a000000000000000000000000000000000000000000000000000000000815260040161072890614aa7565b60405180910390fd5b60fc60009054906101000a900473ffffffffffffffffffffffffffffffffffffffff1673ffffffffffffffffffffffffffffffffffffffff163373ffffffffffffffffffffffffffffffffffffffff16146107c1576040517f08c379a00000000000000000000000000000000000000000000000000000000081526004016107b8906149a7565b60405180910390fd5b60fc60009054906101000a900473ffffffffffffffffffffffffffffffffffffffff1673ffffffffffffffffffffffffffffffffffffffff163373ffffffffffffffffffffffffffffffffffffffff1614610851576040517f08c379a0000000000000000000000000000000000000000000000000000000008152600401610848906147a7565b60405180910390fd5b610859613aee565b60005b600c8160ff16101561092c5761087260fb61234d565b61087c60fb612363565b828260ff16600c81106108b8577f4e487b7100000000000000000000000000000000000000000000000000000000600052603260045260246000fd5b6020020181815250508360fd6000848460ff16600c8110610902577f4e487b7100000000000000000000000000000000000000000000000000000000600052603260045260246000fd5b6020020151815260200190815260200160002081905550808061092490614e88565b91505061085c565b508060fe600085815260200190815260200160002090600c61094f929190613b11565b5060005b600c8160ff1610156109bc576109a983838360ff16600c811061099f577f4e487b7100000000000000000000000000000000000000000000000000000000600052603260045260246000fd5b6020020151612371565b80806109b490614e88565b915050610953565b50505050565b6060606580546109d190614ddc565b80601f01602080910402602001604051908101604052809291908181526020018280546109fd90614ddc565b8015610a4a5780601f10610a1f57610100808354040283529160200191610a4a565b820191906000526020600020905b815481529060010190602001808311610a2d57829003601f168201915b5050505050905090565b6000610a5f8261238f565b610a9e576040517f08c379a0000000000000000000000000000000000000000000000000000000008152600401610a9590614987565b60405180910390fd5b6069600083815260200190815260200160002060009054906101000a900473ffffffffffffffffffffffffffffffffffffffff169050919050565b6000610ae48261132d565b90508073ffffffffffffffffffffffffffffffffffffffff168373ffffffffffffffffffffffffffffffffffffffff161415610b55576040517f08c379a0000000000000000000000000000000000000000000000000000000008152600401610b4c90614a27565b60405180910390fd5b8073ffffffffffffffffffffffffffffffffffffffff16610b746123fb565b73ffffffffffffffffffffffffffffffffffffffff161480610ba35750610ba281610b9d6123fb565b61202b565b5b610be2576040517f08c379a0000000000000000000000000000000000000000000000000000000008152600401610bd9906148a7565b60405180910390fd5b610bec8383612403565b505050565b6000609980549050905090565b60606000610c0b856113df565b9050600083905060008486610c209190614c5e565b9050828587610c2f9190614c5e565b1115610c47578290508583610c449190614ce5565b91505b60008267ffffffffffffffff811115610c89577f4e487b7100000000000000000000000000000000000000000000000000000000600052604160045260246000fd5b604051908082528060200260200182016040528015610cc257816020015b610caf613b51565b815260200190600190039081610ca75790505b50905060008790505b82811015610d8557610cdb613b51565b610ce58a83610fd7565b816000018181525050610cfb8160000151611b7e565b816020019060ff16908160ff1681525050610d198160000151611f84565b816040018190525080838a84610d2f9190614ce5565b81518110610d66577f4e487b7100000000000000000000000000000000000000000000000000000000600052603260045260246000fd5b6020026020010181905250508080610d7d90614e3f565b915050610ccb565b50809450505050509392505050565b610da5610d9f6123fb565b826124bc565b610de4576040517f08c379a0000000000000000000000000000000000000000000000000000000008152600401610ddb90614a67565b60405180910390fd5b610def83838361259a565b505050565b6060600073ffffffffffffffffffffffffffffffffffffffff1660fc60009054906101000a900473ffffffffffffffffffffffffffffffffffffffff1673ffffffffffffffffffffffffffffffffffffffff161415610e88576040517f08c379a0000000000000000000000000000000000000000000000000000000008152600401610e7f90614ac7565b60405180910390fd5b610e918261238f565b610ed0576040517f08c379a0000000000000000000000000000000000000000000000000000000008152600401610ec790614a07565b60405180910390fd5b600060fd600084815260200190815260200160002054905060008111610f1f577f4e487b7100000000000000000000000000000000000000000000000000000000600052600160045260246000fd5b60fc60009054906101000a900473ffffffffffffffffffffffffffffffffffffffff1673ffffffffffffffffffffffffffffffffffffffff1663286e5508826040518263ffffffff1660e01b8152600401610f7a9190614ae7565b60006040518083038186803b158015610f9257600080fd5b505afa158015610fa6573d6000803e3d6000fd5b505050506040513d6000823e3d601f19601f82011682018060405250810190610fcf9190613fac565b915050919050565b6000610fe2836113df565b8210611023576040517f08c379a000000000000000000000000000000000000000000000000000000000815260040161101a906147c7565b60405180910390fd5b609760008473ffffffffffffffffffffffffffffffffffffffff1673ffffffffffffffffffffffffffffffffffffffff168152602001908152602001600020600083815260200190815260200160002054905092915050565b61109783838360405180602001604052806000815250611f22565b505050565b60008060fe6000848152602001908152602001600020600c806020026040519081016040528092919082600c80156110e9576020028201915b8154815260200190600101908083116110d5575b5050505050905060005b600c8160ff16101561116b5761114985838360ff16600c811061113f577f4e487b7100000000000000000000000000000000000000000000000000000000600052603260045260246000fd5b60200201516124bc565b61115857600092505050611172565b808061116390614e88565b9150506110f3565b5060019150505b92915050565b6000611182610bf1565b82106111c3576040517f08c379a00000000000000000000000000000000000000000000000000000000081526004016111ba90614a87565b60405180910390fd5b609982815481106111fd577f4e487b7100000000000000000000000000000000000000000000000000000000600052603260045260246000fd5b90600052602060002001549050919050565b611217613aee565b60fe6000838152602001908152602001600020600c806020026040519081016040528092919082600c8015611261576020028201915b81548152602001906001019080831161124d575b50505050509050919050565b6112756123fb565b73ffffffffffffffffffffffffffffffffffffffff16611293611aa5565b73ffffffffffffffffffffffffffffffffffffffff16146112e9576040517f08c379a00000000000000000000000000000000000000000000000000000000081526004016112e0906149c7565b60405180910390fd5b8060fc60006101000a81548173ffffffffffffffffffffffffffffffffffffffff021916908373ffffffffffffffffffffffffffffffffffffffff16021790555050565b6000806067600084815260200190815260200160002060009054906101000a900473ffffffffffffffffffffffffffffffffffffffff169050600073ffffffffffffffffffffffffffffffffffffffff168173ffffffffffffffffffffffffffffffffffffffff1614156113d6576040517f08c379a00000000000000000000000000000000000000000000000000000000081526004016113cd906148e7565b60405180910390fd5b80915050919050565b60008073ffffffffffffffffffffffffffffffffffffffff168273ffffffffffffffffffffffffffffffffffffffff161415611450576040517f08c379a0000000000000000000000000000000000000000000000000000000008152600401611447906148c7565b60405180910390fd5b606860008373ffffffffffffffffffffffffffffffffffffffff1673ffffffffffffffffffffffffffffffffffffffff168152602001908152602001600020549050919050565b61149f6123fb565b73ffffffffffffffffffffffffffffffffffffffff166114bd611aa5565b73ffffffffffffffffffffffffffffffffffffffff1614611513576040517f08c379a000000000000000000000000000000000000000000000000000000000815260040161150a906149c7565b60405180910390fd5b600073ffffffffffffffffffffffffffffffffffffffff1660c960009054906101000a900473ffffffffffffffffffffffffffffffffffffffff1673ffffffffffffffffffffffffffffffffffffffff167f8be0079c531659141344cd1fd0a4f28419497f9722a3daafe3b4186f6b6457e060405160405180910390a3600060c960006101000a81548173ffffffffffffffffffffffffffffffffffffffff021916908373ffffffffffffffffffffffffffffffffffffffff160217905550565b600060fc60009054906101000a900473ffffffffffffffffffffffffffffffffffffffff16905090565b600060019054906101000a900460ff1680611624575060008054906101000a900460ff16155b611663576040517f08c379a000000000000000000000000000000000000000000000000000000000815260040161165a90614907565b60405180910390fd5b60008060019054906101000a900460ff1615905080156116b3576001600060016101000a81548160ff02191690831515021790555060016000806101000a81548160ff0219169083151502179055505b6116bb6127f6565b6116c36128e7565b6117376040518060400160405280600e81526020017f54696d6573686172654d6f6e74680000000000000000000000000000000000008152506040518060400160405280600481526020017f54494d45000000000000000000000000000000000000000000000000000000008152506129d0565b80156117585760008060016101000a81548160ff0219169083151502179055505b50565b600073ffffffffffffffffffffffffffffffffffffffff1660fc60009054906101000a900473ffffffffffffffffffffffffffffffffffffffff1673ffffffffffffffffffffffffffffffffffffffff1614156117ed576040517f08c379a00000000000000000000000000000000000000000000000000000000081526004016117e490614aa7565b60405180910390fd5b60fc60009054906101000a900473ffffffffffffffffffffffffffffffffffffffff1673ffffffffffffffffffffffffffffffffffffffff163373ffffffffffffffffffffffffffffffffffffffff161461187d576040517f08c379a0000000000000000000000000000000000000000000000000000000008152600401611874906149a7565b60405180910390fd5b600060fe6000838152602001908152602001600020600c806020026040519081016040528092919082600c80156118c9576020028201915b8154815260200190600101908083116118b5575b505050505090506000816000600c811061190c577f4e487b7100000000000000000000000000000000000000000000000000000000600052603260045260246000fd5b60200201511415611952576040517f08c379a000000000000000000000000000000000000000000000000000000000815260040161194990614927565b60405180910390fd5b61195c838361109c565b61199b576040517f08c379a000000000000000000000000000000000000000000000000000000000815260040161199290614a47565b60405180910390fd5b60fe600083815260200190815260200160002060006119ba9190613b75565b60005b600c8160ff161015611a335760fd6000838360ff16600c8110611a09577f4e487b7100000000000000000000000000000000000000000000000000000000600052603260045260246000fd5b60200201518152602001908152602001600020600090558080611a2b90614e88565b9150506119bd565b5060005b600c8160ff161015611a9f57611a8c828260ff16600c8110611a82577f4e487b7100000000000000000000000000000000000000000000000000000000600052603260045260246000fd5b6020020151612ad9565b8080611a9790614e88565b915050611a37565b50505050565b600060c960009054906101000a900473ffffffffffffffffffffffffffffffffffffffff16905090565b606060668054611ade90614ddc565b80601f0160208091040260200160405190810160405280929190818152602001828054611b0a90614ddc565b8015611b575780601f10611b2c57610100808354040283529160200191611b57565b820191906000526020600020905b815481529060010190602001808311611b3a57829003601f168201915b5050505050905090565b600060fd6000838152602001908152602001600020549050919050565b6000611b898261238f565b611bc8576040517f08c379a0000000000000000000000000000000000000000000000000000000008152600401611bbf90614967565b60405180910390fd5b600060fd60008481526020019081526020016000205490506000811415611c24576040517f08c379a0000000000000000000000000000000000000000000000000000000008152600401611c1b90614787565b60405180910390fd5b600060fe6000838152602001908152602001600020600c806020026040519081016040528092919082600c8015611c70576020028201915b815481526020019060010190808311611c5c575b5050505050905060005b600c8160ff161015611d6357818160ff16600c8110611cc2577f4e487b7100000000000000000000000000000000000000000000000000000000600052603260045260246000fd5b6020020151851415611cd957809350505050611d9c565b6000828260ff16600c8110611d17577f4e487b7100000000000000000000000000000000000000000000000000000000600052603260045260246000fd5b602002015111611d50577f4e487b7100000000000000000000000000000000000000000000000000000000600052600160045260246000fd5b8080611d5b90614e88565b915050611c7a565b506000611d99577f4e487b7100000000000000000000000000000000000000000000000000000000600052600160045260246000fd5b50505b919050565b611da96123fb565b73ffffffffffffffffffffffffffffffffffffffff168273ffffffffffffffffffffffffffffffffffffffff161415611e17576040517f08c379a0000000000000000000000000000000000000000000000000000000008152600401611e0e90614867565b60405180910390fd5b80606a6000611e246123fb565b73ffffffffffffffffffffffffffffffffffffffff1673ffffffffffffffffffffffffffffffffffffffff16815260200190815260200160002060008473ffffffffffffffffffffffffffffffffffffffff1673ffffffffffffffffffffffffffffffffffffffff16815260200190815260200160002060006101000a81548160ff0219169083151502179055508173ffffffffffffffffffffffffffffffffffffffff16611ed16123fb565b73ffffffffffffffffffffffffffffffffffffffff167f17307eab39ab6107e8899845ad3d59bd9653f200f220920489ca2b5937696c3183604051611f16919061474a565b60405180910390a35050565b611f33611f2d6123fb565b836124bc565b611f72576040517f08c379a0000000000000000000000000000000000000000000000000000000008152600401611f6990614a67565b60405180910390fd5b611f7e84848484612bea565b50505050565b6060611f8f8261238f565b611fce576040517f08c379a0000000000000000000000000000000000000000000000000000000008152600401611fc590614a07565b60405180910390fd5b6000611fd8612c46565b90506000815111611ff85760405180602001604052806000815250612023565b8061200284612c66565b604051602001612013929190614681565b6040516020818303038152906040525b915050919050565b6000606a60008473ffffffffffffffffffffffffffffffffffffffff1673ffffffffffffffffffffffffffffffffffffffff16815260200190815260200160002060008373ffffffffffffffffffffffffffffffffffffffff1673ffffffffffffffffffffffffffffffffffffffff16815260200190815260200160002060009054906101000a900460ff16905092915050565b6120c76123fb565b73ffffffffffffffffffffffffffffffffffffffff166120e5611aa5565b73ffffffffffffffffffffffffffffffffffffffff161461213b576040517f08c379a0000000000000000000000000000000000000000000000000000000008152600401612132906149c7565b60405180910390fd5b600073ffffffffffffffffffffffffffffffffffffffff168173ffffffffffffffffffffffffffffffffffffffff1614156121ab576040517f08c379a00000000000000000000000000000000000000000000000000000000081526004016121a290614807565b60405180910390fd5b8073ffffffffffffffffffffffffffffffffffffffff1660c960009054906101000a900473ffffffffffffffffffffffffffffffffffffffff1673ffffffffffffffffffffffffffffffffffffffff167f8be0079c531659141344cd1fd0a4f28419497f9722a3daafe3b4186f6b6457e060405160405180910390a38060c960006101000a81548173ffffffffffffffffffffffffffffffffffffffff021916908373ffffffffffffffffffffffffffffffffffffffff16021790555050565b60007f80ac58cd000000000000000000000000000000000000000000000000000000007bffffffffffffffffffffffffffffffffffffffffffffffffffffffff1916827bffffffffffffffffffffffffffffffffffffffffffffffffffffffff1916148061233657507f5b5e139f000000000000000000000000000000000000000000000000000000007bffffffffffffffffffffffffffffffffffffffffffffffffffffffff1916827bffffffffffffffffffffffffffffffffffffffffffffffffffffffff1916145b80612346575061234582612e13565b5b9050919050565b6001816000016000828254019250508190555050565b600081600001549050919050565b61238b828260405180602001604052806000815250612e7d565b5050565b60008073ffffffffffffffffffffffffffffffffffffffff166067600084815260200190815260200160002060009054906101000a900473ffffffffffffffffffffffffffffffffffffffff1673ffffffffffffffffffffffffffffffffffffffff1614159050919050565b600033905090565b816069600083815260200190815260200160002060006101000a81548173ffffffffffffffffffffffffffffffffffffffff021916908373ffffffffffffffffffffffffffffffffffffffff160217905550808273ffffffffffffffffffffffffffffffffffffffff166124768361132d565b73ffffffffffffffffffffffffffffffffffffffff167f8c5be1e5ebec7d5bd14f71427d1e84f3dd0314c0f7b2291e5b200ac8c7c3b92560405160405180910390a45050565b60006124c78261238f565b612506576040517f08c379a00000000000000000000000000000000000000000000000000000000081526004016124fd90614887565b60405180910390fd5b60006125118361132d565b90508073ffffffffffffffffffffffffffffffffffffffff168473ffffffffffffffffffffffffffffffffffffffff16148061258057508373ffffffffffffffffffffffffffffffffffffffff1661256884610a54565b73ffffffffffffffffffffffffffffffffffffffff16145b806125915750612590818561202b565b5b91505092915050565b8273ffffffffffffffffffffffffffffffffffffffff166125ba8261132d565b73ffffffffffffffffffffffffffffffffffffffff1614612610576040517f08c379a0000000000000000000000000000000000000000000000000000000008152600401612607906149e7565b60405180910390fd5b600073ffffffffffffffffffffffffffffffffffffffff168273ffffffffffffffffffffffffffffffffffffffff161415612680576040517f08c379a000000000000000000000000000000000000000000000000000000000815260040161267790614847565b60405180910390fd5b61268b838383612ed8565b612696600082612403565b6001606860008573ffffffffffffffffffffffffffffffffffffffff1673ffffffffffffffffffffffffffffffffffffffff16815260200190815260200160002060008282546126e69190614ce5565b925050819055506001606860008473ffffffffffffffffffffffffffffffffffffffff1673ffffffffffffffffffffffffffffffffffffffff168152602001908152602001600020600082825461273d9190614c5e565b92505081905550816067600083815260200190815260200160002060006101000a81548173ffffffffffffffffffffffffffffffffffffffff021916908373ffffffffffffffffffffffffffffffffffffffff160217905550808273ffffffffffffffffffffffffffffffffffffffff168473ffffffffffffffffffffffffffffffffffffffff167fddf252ad1be2c89b69c2b068fc378daa952ba7f163c4a11628f55a4df523b3ef60405160405180910390a4505050565b600060019054906101000a900460ff168061281c575060008054906101000a900460ff16155b61285b576040517f08c379a000000000000000000000000000000000000000000000000000000000815260040161285290614907565b60405180910390fd5b60008060019054906101000a900460ff1615905080156128ab576001600060016101000a81548160ff02191690831515021790555060016000806101000a81548160ff0219169083151502179055505b6128b3612fec565b6128bb6130c5565b6128c361319e565b80156128e45760008060016101000a81548160ff0219169083151502179055505b50565b600060019054906101000a900460ff168061290d575060008054906101000a900460ff16155b61294c576040517f08c379a000000000000000000000000000000000000000000000000000000000815260040161294390614907565b60405180910390fd5b60008060019054906101000a900460ff16159050801561299c576001600060016101000a81548160ff02191690831515021790555060016000806101000a81548160ff0219169083151502179055505b6129a4612fec565b6129ac613277565b80156129cd5760008060016101000a81548160ff0219169083151502179055505b50565b600060019054906101000a900460ff16806129f6575060008054906101000a900460ff16155b612a35576040517f08c379a0000000000000000000000000000000000000000000000000000000008152600401612a2c90614907565b60405180910390fd5b60008060019054906101000a900460ff161590508015612a85576001600060016101000a81548160ff02191690831515021790555060016000806101000a81548160ff0219169083151502179055505b8260659080519060200190612a9b929190613b88565b508160669080519060200190612ab2929190613b88565b508015612ad45760008060016101000a81548160ff0219169083151502179055505b505050565b6000612ae48261132d565b9050612af281600084612ed8565b612afd600083612403565b6001606860008373ffffffffffffffffffffffffffffffffffffffff1673ffffffffffffffffffffffffffffffffffffffff1681526020019081526020016000206000828254612b4d9190614ce5565b925050819055506067600083815260200190815260200160002060006101000a81549073ffffffffffffffffffffffffffffffffffffffff021916905581600073ffffffffffffffffffffffffffffffffffffffff168273ffffffffffffffffffffffffffffffffffffffff167fddf252ad1be2c89b69c2b068fc378daa952ba7f163c4a11628f55a4df523b3ef60405160405180910390a45050565b612bf584848461259a565b612c01848484846133f9565b612c40576040517f08c379a0000000000000000000000000000000000000000000000000000000008152600401612c37906147e7565b60405180910390fd5b50505050565b60606040518060600160405280602b81526020016157a4602b9139905090565b60606000821415612cae576040518060400160405280600181526020017f30000000000000000000000000000000000000000000000000000000000000008152509050612e0e565b600082905060005b60008214612ce0578080612cc990614e3f565b915050600a82612cd99190614cb4565b9150612cb6565b60008167ffffffffffffffff811115612d22577f4e487b7100000000000000000000000000000000000000000000000000000000600052604160045260246000fd5b6040519080825280601f01601f191660200182016040528015612d545781602001600182028036833780820191505090505b5090505b60008514612e0757600182612d6d9190614ce5565b9150600a85612d7c9190614eb2565b6030612d889190614c5e565b60f81b818381518110612dc4577f4e487b7100000000000000000000000000000000000000000000000000000000600052603260045260246000fd5b60200101907effffffffffffffffffffffffffffffffffffffffffffffffffffffffffffff1916908160001a905350600a85612e009190614cb4565b9450612d58565b8093505050505b919050565b60007f01ffc9a7000000000000000000000000000000000000000000000000000000007bffffffffffffffffffffffffffffffffffffffffffffffffffffffff1916827bffffffffffffffffffffffffffffffffffffffffffffffffffffffff1916149050919050565b612e878383613590565b612e9460008484846133f9565b612ed3576040517f08c379a0000000000000000000000000000000000000000000000000000000008152600401612eca906147e7565b60405180910390fd5b505050565b612ee383838361375e565b600073ffffffffffffffffffffffffffffffffffffffff168373ffffffffffffffffffffffffffffffffffffffff161415612f2657612f2181613763565b612f65565b8173ffffffffffffffffffffffffffffffffffffffff168373ffffffffffffffffffffffffffffffffffffffff1614612f6457612f6383826137ac565b5b5b600073ffffffffffffffffffffffffffffffffffffffff168273ffffffffffffffffffffffffffffffffffffffff161415612fa857612fa381613919565b612fe7565b8273ffffffffffffffffffffffffffffffffffffffff168273ffffffffffffffffffffffffffffffffffffffff1614612fe657612fe58282613a5c565b5b5b505050565b600060019054906101000a900460ff1680613012575060008054906101000a900460ff16155b613051576040517f08c379a000000000000000000000000000000000000000000000000000000000815260040161304890614907565b60405180910390fd5b60008060019054906101000a900460ff1615905080156130a1576001600060016101000a81548160ff02191690831515021790555060016000806101000a81548160ff0219169083151502179055505b80156130c25760008060016101000a81548160ff0219169083151502179055505b50565b600060019054906101000a900460ff16806130eb575060008054906101000a900460ff16155b61312a576040517f08c379a000000000000000000000000000000000000000000000000000000000815260040161312190614907565b60405180910390fd5b60008060019054906101000a900460ff16159050801561317a576001600060016101000a81548160ff02191690831515021790555060016000806101000a81548160ff0219169083151502179055505b801561319b5760008060016101000a81548160ff0219169083151502179055505b50565b600060019054906101000a900460ff16806131c4575060008054906101000a900460ff16155b613203576040517f08c379a00000000000000000000000000000000000000000000000000000000081526004016131fa90614907565b60405180910390fd5b60008060019054906101000a900460ff161590508015613253576001600060016101000a81548160ff02191690831515021790555060016000806101000a81548160ff0219169083151502179055505b80156132745760008060016101000a81548160ff0219169083151502179055505b50565b600060019054906101000a900460ff168061329d575060008054906101000a900460ff16155b6132dc576040517f08c379a00000000000000000000000000000000000000000000000000000000081526004016132d390614907565b60405180910390fd5b60008060019054906101000a900460ff16159050801561332c576001600060016101000a81548160ff02191690831515021790555060016000806101000a81548160ff0219169083151502179055505b60006133366123fb565b90508060c960006101000a81548173ffffffffffffffffffffffffffffffffffffffff021916908373ffffffffffffffffffffffffffffffffffffffff1602179055508073ffffffffffffffffffffffffffffffffffffffff16600073ffffffffffffffffffffffffffffffffffffffff167f8be0079c531659141344cd1fd0a4f28419497f9722a3daafe3b4186f6b6457e060405160405180910390a35080156133f65760008060016101000a81548160ff0219169083151502179055505b50565b600061341a8473ffffffffffffffffffffffffffffffffffffffff16613adb565b15613583578373ffffffffffffffffffffffffffffffffffffffff1663150b7a026134436123fb565b8786866040518563ffffffff1660e01b815260040161346594939291906146c0565b602060405180830381600087803b15801561347f57600080fd5b505af19250505080156134b057506040513d601f19601f820116820180604052508101906134ad9190613f83565b60015b613533573d80600081146134e0576040519150601f19603f3d011682016040523d82523d6000602084013e6134e5565b606091505b5060008151141561352b576040517f08c379a0000000000000000000000000000000000000000000000000000000008152600401613522906147e7565b60405180910390fd5b805181602001fd5b63150b7a0260e01b7bffffffffffffffffffffffffffffffffffffffffffffffffffffffff1916817bffffffffffffffffffffffffffffffffffffffffffffffffffffffff191614915050613588565b600190505b949350505050565b600073ffffffffffffffffffffffffffffffffffffffff168273ffffffffffffffffffffffffffffffffffffffff161415613600576040517f08c379a00000000000000000000000000000000000000000000000000000000081526004016135f790614947565b60405180910390fd5b6136098161238f565b15613649576040517f08c379a000000000000000000000000000000000000000000000000000000000815260040161364090614827565b60405180910390fd5b61365560008383612ed8565b6001606860008473ffffffffffffffffffffffffffffffffffffffff1673ffffffffffffffffffffffffffffffffffffffff16815260200190815260200160002060008282546136a59190614c5e565b92505081905550816067600083815260200190815260200160002060006101000a81548173ffffffffffffffffffffffffffffffffffffffff021916908373ffffffffffffffffffffffffffffffffffffffff160217905550808273ffffffffffffffffffffffffffffffffffffffff16600073ffffffffffffffffffffffffffffffffffffffff167fddf252ad1be2c89b69c2b068fc378daa952ba7f163c4a11628f55a4df523b3ef60405160405180910390a45050565b505050565b609980549050609a600083815260200190815260200160002081905550609981908060018154018082558091505060019003906000526020600020016000909190919091505550565b600060016137b9846113df565b6137c39190614ce5565b90506000609860008481526020019081526020016000205490508181146138a8576000609760008673ffffffffffffffffffffffffffffffffffffffff1673ffffffffffffffffffffffffffffffffffffffff168152602001908152602001600020600084815260200190815260200160002054905080609760008773ffffffffffffffffffffffffffffffffffffffff1673ffffffffffffffffffffffffffffffffffffffff168152602001908152602001600020600084815260200190815260200160002081905550816098600083815260200190815260200160002081905550505b6098600084815260200190815260200160002060009055609760008573ffffffffffffffffffffffffffffffffffffffff1673ffffffffffffffffffffffffffffffffffffffff16815260200190815260200160002060008381526020019081526020016000206000905550505050565b6000600160998054905061392d9190614ce5565b90506000609a6000848152602001908152602001600020549050600060998381548110613983577f4e487b7100000000000000000000000000000000000000000000000000000000600052603260045260246000fd5b9060005260206000200154905080609983815481106139cb577f4e487b7100000000000000000000000000000000000000000000000000000000600052603260045260246000fd5b906000526020600020018190555081609a600083815260200190815260200160002081905550609a6000858152602001908152602001600020600090556099805480613a40577f4e487b7100000000000000000000000000000000000000000000000000000000600052603160045260246000fd5b6001900381819060005260206000200160009055905550505050565b6000613a67836113df565b905081609760008573ffffffffffffffffffffffffffffffffffffffff1673ffffffffffffffffffffffffffffffffffffffff168152602001908152602001600020600083815260200190815260200160002081905550806098600084815260200190815260200160002081905550505050565b600080823b905060008111915050919050565b604051806101800160405280600c90602082028036833780820191505090505090565b82600c8101928215613b40579160200282015b82811115613b3f578251825591602001919060010190613b24565b5b509050613b4d9190613c0e565b5090565b604051806060016040528060008152602001600060ff168152602001606081525090565b5080600c0190613b859190613c0e565b50565b828054613b9490614ddc565b90600052602060002090601f016020900481019282613bb65760008555613bfd565b82601f10613bcf57805160ff1916838001178555613bfd565b82800160010185558215613bfd579182015b82811115613bfc578251825591602001919060010190613be1565b5b509050613c0a9190613c0e565b5090565b5b80821115613c27576000816000905550600101613c0f565b5090565b6000613c3e613c3984614b42565b614b1d565b905082815260208101848484011115613c5657600080fd5b613c61848285614d9a565b509392505050565b6000613c7c613c7784614b73565b614b1d565b905082815260208101848484011115613c9457600080fd5b613c9f848285614da9565b509392505050565b600081359050613cb681615747565b92915050565b600081359050613ccb8161575e565b92915050565b600081359050613ce081615775565b92915050565b600081519050613cf581615775565b92915050565b600082601f830112613d0c57600080fd5b8135613d1c848260208601613c2b565b91505092915050565b600082601f830112613d3657600080fd5b8151613d46848260208601613c69565b91505092915050565b600081359050613d5e8161578c565b92915050565b600060208284031215613d7657600080fd5b6000613d8484828501613ca7565b91505092915050565b60008060408385031215613da057600080fd5b6000613dae85828601613ca7565b9250506020613dbf85828601613ca7565b9150509250929050565b600080600060608486031215613dde57600080fd5b6000613dec86828701613ca7565b9350506020613dfd86828701613ca7565b9250506040613e0e86828701613d4f565b9150509250925092565b60008060008060808587031215613e2e57600080fd5b6000613e3c87828801613ca7565b9450506020613e4d87828801613ca7565b9350506040613e5e87828801613d4f565b925050606085013567ffffffffffffffff811115613e7b57600080fd5b613e8787828801613cfb565b91505092959194509250565b60008060408385031215613ea657600080fd5b6000613eb485828601613ca7565b9250506020613ec585828601613cbc565b9150509250929050565b60008060408385031215613ee257600080fd5b6000613ef085828601613ca7565b9250506020613f0185828601613d4f565b9150509250929050565b600080600060608486031215613f2057600080fd5b6000613f2e86828701613ca7565b9350506020613f3f86828701613d4f565b9250506040613f5086828701613d4f565b9150509250925092565b600060208284031215613f6c57600080fd5b6000613f7a84828501613cd1565b91505092915050565b600060208284031215613f9557600080fd5b6000613fa384828501613ce6565b91505092915050565b600060208284031215613fbe57600080fd5b600082015167ffffffffffffffff811115613fd857600080fd5b613fe484828501613d25565b91505092915050565b600060208284031215613fff57600080fd5b600061400d84828501613d4f565b91505092915050565b6000806040838503121561402957600080fd5b600061403785828601613d4f565b925050602061404885828601613ca7565b9150509250929050565b600061405e83836145f5565b905092915050565b60006140728383614645565b60208301905092915050565b61408781614d19565b82525050565b600061409882614bbe565b6140a28185614c04565b9350836020820285016140b485614ba4565b8060005b858110156140f057848403895281516140d18582614052565b94506140dc83614bea565b925060208a019950506001810190506140b8565b50829750879550505050505092915050565b61410b81614bc9565b6141158184614c15565b925061412082614bb4565b8060005b838110156141515781516141388782614066565b965061414383614bf7565b925050600181019050614124565b505050505050565b61416281614d2b565b82525050565b600061417382614bd4565b61417d8185614c20565b935061418d818560208601614da9565b61419681614f9f565b840191505092915050565b60006141ac82614bdf565b6141b68185614c31565b93506141c6818560208601614da9565b6141cf81614f9f565b840191505092915050565b60006141e582614bdf565b6141ef8185614c42565b93506141ff818560208601614da9565b61420881614f9f565b840191505092915050565b600061421e82614bdf565b6142288185614c53565b9350614238818560208601614da9565b80840191505092915050565b6000614251601383614c42565b915061425c82614fb0565b602082019050919050565b6000614274603d83614c42565b915061427f82614fd9565b604082019050919050565b6000614297602b83614c42565b91506142a282615028565b604082019050919050565b60006142ba603283614c42565b91506142c582615077565b604082019050919050565b60006142dd602683614c42565b91506142e8826150c6565b604082019050919050565b6000614300601c83614c42565b915061430b82615115565b602082019050919050565b6000614323602483614c42565b915061432e8261513e565b604082019050919050565b6000614346601983614c42565b91506143518261518d565b602082019050919050565b6000614369602c83614c42565b9150614374826151b6565b604082019050919050565b600061438c603883614c42565b915061439782615205565b604082019050919050565b60006143af602a83614c42565b91506143ba82615254565b604082019050919050565b60006143d2602983614c42565b91506143dd826152a3565b604082019050919050565b60006143f5602e83614c42565b9150614400826152f2565b604082019050919050565b6000614418602683614c42565b915061442382615341565b604082019050919050565b600061443b602083614c42565b915061444682615390565b602082019050919050565b600061445e602183614c42565b9150614469826153b9565b604082019050919050565b6000614481602c83614c42565b915061448c82615408565b604082019050919050565b60006144a4602f83614c42565b91506144af82615457565b604082019050919050565b60006144c7602083614c42565b91506144d2826154a6565b602082019050919050565b60006144ea602983614c42565b91506144f5826154cf565b604082019050919050565b600061450d602f83614c42565b91506145188261551e565b604082019050919050565b6000614530602183614c42565b915061453b8261556d565b604082019050919050565b6000614553603083614c42565b915061455e826155bc565b604082019050919050565b6000614576603183614c42565b91506145818261560b565b604082019050919050565b6000614599602c83614c42565b91506145a48261565a565b604082019050919050565b60006145bc602d83614c42565b91506145c7826156a9565b604082019050919050565b60006145df603b83614c42565b91506145ea826156f8565b604082019050919050565b600060608301600083015161460d6000860182614645565b5060208301516146206020860182614663565b506040830151848203604086015261463882826141a1565b9150508091505092915050565b61464e81614d83565b82525050565b61465d81614d83565b82525050565b61466c81614d8d565b82525050565b61467b81614d8d565b82525050565b600061468d8285614213565b91506146998284614213565b91508190509392505050565b60006020820190506146ba600083018461407e565b92915050565b60006080820190506146d5600083018761407e565b6146e2602083018661407e565b6146ef6040830185614654565b81810360608301526147018184614168565b905095945050505050565b60006020820190508181036000830152614726818461408d565b905092915050565b6000610180820190506147446000830184614102565b92915050565b600060208201905061475f6000830184614159565b92915050565b6000602082019050818103600083015261477f81846141da565b905092915050565b600060208201905081810360008301526147a081614244565b9050919050565b600060208201905081810360008301526147c081614267565b9050919050565b600060208201905081810360008301526147e08161428a565b9050919050565b60006020820190508181036000830152614800816142ad565b9050919050565b60006020820190508181036000830152614820816142d0565b9050919050565b60006020820190508181036000830152614840816142f3565b9050919050565b6000602082019050818103600083015261486081614316565b9050919050565b6000602082019050818103600083015261488081614339565b9050919050565b600060208201905081810360008301526148a08161435c565b9050919050565b600060208201905081810360008301526148c08161437f565b9050919050565b600060208201905081810360008301526148e0816143a2565b9050919050565b60006020820190508181036000830152614900816143c5565b9050919050565b60006020820190508181036000830152614920816143e8565b9050919050565b600060208201905081810360008301526149408161440b565b9050919050565b600060208201905081810360008301526149608161442e565b9050919050565b6000602082019050818103600083015261498081614451565b9050919050565b600060208201905081810360008301526149a081614474565b9050919050565b600060208201905081810360008301526149c081614497565b9050919050565b600060208201905081810360008301526149e0816144ba565b9050919050565b60006020820190508181036000830152614a00816144dd565b9050919050565b60006020820190508181036000830152614a2081614500565b9050919050565b60006020820190508181036000830152614a4081614523565b9050919050565b60006020820190508181036000830152614a6081614546565b9050919050565b60006020820190508181036000830152614a8081614569565b9050919050565b60006020820190508181036000830152614aa08161458c565b9050919050565b60006020820190508181036000830152614ac0816145af565b9050919050565b60006020820190508181036000830152614ae0816145d2565b9050919050565b6000602082019050614afc6000830184614654565b92915050565b6000602082019050614b176000830184614672565b92915050565b6000614b27614b38565b9050614b338282614e0e565b919050565b6000604051905090565b600067ffffffffffffffff821115614b5d57614b5c614f70565b5b614b6682614f9f565b9050602081019050919050565b600067ffffffffffffffff821115614b8e57614b8d614f70565b5b614b9782614f9f565b9050602081019050919050565b6000819050602082019050919050565b6000819050919050565b600081519050919050565b6000600c9050919050565b600081519050919050565b600081519050919050565b6000602082019050919050565b6000602082019050919050565b600082825260208201905092915050565b600081905092915050565b600082825260208201905092915050565b600082825260208201905092915050565b600082825260208201905092915050565b600081905092915050565b6000614c6982614d83565b9150614c7483614d83565b9250827fffffffffffffffffffffffffffffffffffffffffffffffffffffffffffffffff03821115614ca957614ca8614ee3565b5b828201905092915050565b6000614cbf82614d83565b9150614cca83614d83565b925082614cda57614cd9614f12565b5b828204905092915050565b6000614cf082614d83565b9150614cfb83614d83565b925082821015614d0e57614d0d614ee3565b5b828203905092915050565b6000614d2482614d63565b9050919050565b60008115159050919050565b60007fffffffff0000000000000000000000000000000000000000000000000000000082169050919050565b600073ffffffffffffffffffffffffffffffffffffffff82169050919050565b6000819050919050565b600060ff82169050919050565b82818337600083830152505050565b60005b83811015614dc7578082015181840152602081019050614dac565b83811115614dd6576000848401525b50505050565b60006002820490506001821680614df457607f821691505b60208210811415614e0857614e07614f41565b5b50919050565b614e1782614f9f565b810181811067ffffffffffffffff82111715614e3657614e35614f70565b5b80604052505050565b6000614e4a82614d83565b91507fffffffffffffffffffffffffffffffffffffffffffffffffffffffffffffffff821415614e7d57614e7c614ee3565b5b600182019050919050565b6000614e9382614d8d565b915060ff821415614ea757614ea6614ee3565b5b600182019050919050565b6000614ebd82614d83565b9150614ec883614d83565b925082614ed857614ed7614f12565b5b828206905092915050565b7f4e487b7100000000000000000000000000000000000000000000000000000000600052601160045260246000fd5b7f4e487b7100000000000000000000000000000000000000000000000000000000600052601260045260246000fd5b7f4e487b7100000000000000000000000000000000000000000000000000000000600052602260045260246000fd5b7f4e487b7100000000000000000000000000000000000000000000000000000000600052604160045260246000fd5b6000601f19601f8301169050919050565b7f546f6b656e20646f65736e277420657869737400000000000000000000000000600082015250565b7f4f6e6c792074686520706172656e74204e4654696d65736861726520636f6e7460008201527f726163742063616e206d696e742054696d6573686172654d6f6e746873000000602082015250565b7f455243373231456e756d657261626c653a206f776e657220696e646578206f7560008201527f74206f6620626f756e6473000000000000000000000000000000000000000000602082015250565b7f4552433732313a207472616e7366657220746f206e6f6e20455243373231526560008201527f63656976657220696d706c656d656e7465720000000000000000000000000000602082015250565b7f4f776e61626c653a206e6577206f776e657220697320746865207a65726f206160008201527f6464726573730000000000000000000000000000000000000000000000000000602082015250565b7f4552433732313a20746f6b656e20616c7265616479206d696e74656400000000600082015250565b7f4552433732313a207472616e7366657220746f20746865207a65726f2061646460008201527f7265737300000000000000000000000000000000000000000000000000000000602082015250565b7f4552433732313a20617070726f766520746f2063616c6c657200000000000000600082015250565b7f4552433732313a206f70657261746f7220717565727920666f72206e6f6e657860008201527f697374656e7420746f6b656e0000000000000000000000000000000000000000602082015250565b7f4552433732313a20617070726f76652063616c6c6572206973206e6f74206f7760008201527f6e6572206e6f7220617070726f76656420666f7220616c6c0000000000000000602082015250565b7f4552433732313a2062616c616e636520717565727920666f7220746865207a6560008201527f726f206164647265737300000000000000000000000000000000000000000000602082015250565b7f4552433732313a206f776e657220717565727920666f72206e6f6e657869737460008201527f656e7420746f6b656e0000000000000000000000000000000000000000000000602082015250565b7f496e697469616c697a61626c653a20636f6e747261637420697320616c72656160008201527f647920696e697469616c697a6564000000000000000000000000000000000000602082015250565b7f4e6f2054696d6573686172654d6f6e74687320746f206275726e20666f72207460008201527f6f6b656e49640000000000000000000000000000000000000000000000000000602082015250565b7f4552433732313a206d696e7420746f20746865207a65726f2061646472657373600082015250565b7f6d6f6e746820717565727920666f72206e6f6e6578697374656e7420746f6b6560008201527f6e00000000000000000000000000000000000000000000000000000000000000602082015250565b7f4552433732313a20617070726f76656420717565727920666f72206e6f6e657860008201527f697374656e7420746f6b656e0000000000000000000000000000000000000000602082015250565b7f46756e6374696f6e2063616e206f6e6c792062652063616c6c6564206279207060008201527f6172656e742054696d6573686172650000000000000000000000000000000000602082015250565b7f4f776e61626c653a2063616c6c6572206973206e6f7420746865206f776e6572600082015250565b7f4552433732313a207472616e73666572206f6620746f6b656e2074686174206960008201527f73206e6f74206f776e0000000000000000000000000000000000000000000000602082015250565b7f4552433732314d657461646174613a2055524920717565727920666f72206e6f60008201527f6e6578697374656e7420746f6b656e0000000000000000000000000000000000602082015250565b7f4552433732313a20617070726f76616c20746f2063757272656e74206f776e6560008201527f7200000000000000000000000000000000000000000000000000000000000000602082015250565b7f52656465656d3a2053656e6465722063616e2774206f70657261746520616c6c60008201527f2054696d6573686172654d6f6e74687300000000000000000000000000000000602082015250565b7f4552433732313a207472616e736665722063616c6c6572206973206e6f74206f60008201527f776e6572206e6f7220617070726f766564000000000000000000000000000000602082015250565b7f455243373231456e756d657261626c653a20676c6f62616c20696e646578206f60008201527f7574206f6620626f756e64730000000000000000000000000000000000000000602082015250565b7f4e4654696d65736861726520636f6e747261637420616464726573732068617360008201527f206e6f74206265656e2073657400000000000000000000000000000000000000602082015250565b7f54696d6573686172654d6f6e746820746f6b656e5552493a2054696d6573686160008201527f726520636f6e7472616374206861736e2774206265656e207365740000000000602082015250565b61575081614d19565b811461575b57600080fd5b50565b61576781614d2b565b811461577257600080fd5b50565b61577e81614d37565b811461578957600080fd5b50565b61579581614d83565b81146157a057600080fd5b5056fe687474703a2f2f7777772e6e6674696d657368617265732e66756e2f74696d6573686172656d6f6e74682fa2646970667358221220413175a2a3b58f25e168211e3aa4b35da3716f0a5016ff89cffe39cddfa1fcef64736f6c63430008040033",
  "linkReferences": {},
  "deployedLinkReferences": {}
}