{
  "_format": "hh-sol-artifact-1",
  "contractName": "NFTimeshare",
  "sourceName": "contracts/NFTimeshare.sol",
  "abi": [
    {
      "anonymous": false,
      "inputs": [
        {
          "indexed": true,
          "internalType": "address",
          "name": "owner",
          "type": "address"
        },
        {
          "indexed": true,
          "internalType": "address",
          "name": "approved",
          "type": "address"
        },
        {
          "indexed": true,
          "internalType": "uint256",
          "name": "tokenId",
          "type": "uint256"
        }
      ],
      "name": "Approval",
      "type": "event"
    },
    {
      "anonymous": false,
      "inputs": [
        {
          "indexed": true,
          "internalType": "address",
          "name": "owner",
          "type": "address"
        },
        {
          "indexed": true,
          "internalType": "address",
          "name": "operator",
          "type": "address"
        },
        {
          "indexed": false,
          "internalType": "bool",
          "name": "approved",
          "type": "bool"
        }
      ],
      "name": "ApprovalForAll",
      "type": "event"
    },
    {
      "anonymous": false,
      "inputs": [
        {
          "indexed": true,
          "internalType": "address",
          "name": "holder",
          "type": "address"
        },
        {
          "indexed": true,
          "internalType": "address",
          "name": "sender",
          "type": "address"
        },
        {
          "indexed": true,
          "internalType": "address",
          "name": "recipient",
          "type": "address"
        },
        {
          "indexed": false,
          "internalType": "address",
          "name": "wrapped_contract",
          "type": "address"
        },
        {
          "indexed": false,
          "internalType": "uint256",
          "name": "wrapped_tokenId",
          "type": "uint256"
        },
        {
          "indexed": false,
          "internalType": "uint256",
          "name": "timeshareTokenId",
          "type": "uint256"
        }
      ],
      "name": "Deposit",
      "type": "event"
    },
    {
      "anonymous": false,
      "inputs": [
        {
          "indexed": true,
          "internalType": "address",
          "name": "previousOwner",
          "type": "address"
        },
        {
          "indexed": true,
          "internalType": "address",
          "name": "newOwner",
          "type": "address"
        }
      ],
      "name": "OwnershipTransferred",
      "type": "event"
    },
    {
      "anonymous": false,
      "inputs": [
        {
          "indexed": true,
          "internalType": "address",
          "name": "sender",
          "type": "address"
        },
        {
          "indexed": true,
          "internalType": "address",
          "name": "recipient",
          "type": "address"
        },
        {
          "indexed": false,
          "internalType": "address",
          "name": "unwrapped_contract",
          "type": "address"
        },
        {
          "indexed": false,
          "internalType": "uint256",
          "name": "unwrapped_tokenId",
          "type": "uint256"
        },
        {
          "indexed": false,
          "internalType": "uint256",
          "name": "timeshareTokenId",
          "type": "uint256"
        }
      ],
      "name": "Redeem",
      "type": "event"
    },
    {
      "anonymous": false,
      "inputs": [
        {
          "indexed": true,
          "internalType": "address",
          "name": "from",
          "type": "address"
        },
        {
          "indexed": true,
          "internalType": "address",
          "name": "to",
          "type": "address"
        },
        {
          "indexed": true,
          "internalType": "uint256",
          "name": "tokenId",
          "type": "uint256"
        }
      ],
      "name": "Transfer",
      "type": "event"
    },
    {
      "inputs": [
        {
          "internalType": "address",
          "name": "to",
          "type": "address"
        },
        {
          "internalType": "uint256",
          "name": "tokenId",
          "type": "uint256"
        }
      ],
      "name": "approve",
      "outputs": [],
      "stateMutability": "nonpayable",
      "type": "function"
    },
    {
      "inputs": [
        {
          "internalType": "address",
          "name": "owner",
          "type": "address"
        }
      ],
      "name": "balanceOf",
      "outputs": [
        {
          "internalType": "uint256",
          "name": "",
          "type": "uint256"
        }
      ],
      "stateMutability": "view",
      "type": "function"
    },
    {
      "inputs": [],
      "name": "contractURI",
      "outputs": [
        {
          "internalType": "string",
          "name": "",
          "type": "string"
        }
      ],
      "stateMutability": "view",
      "type": "function"
    },
    {
      "inputs": [
        {
          "internalType": "address",
          "name": "_underlying",
          "type": "address"
        },
        {
          "internalType": "uint256",
          "name": "_underlyingTokenId",
          "type": "uint256"
        },
        {
          "internalType": "address",
          "name": "_from",
          "type": "address"
        },
        {
          "internalType": "address",
          "name": "_to",
          "type": "address"
        }
      ],
      "name": "deposit",
      "outputs": [],
      "stateMutability": "nonpayable",
      "type": "function"
    },
    {
      "inputs": [
        {
          "internalType": "uint256",
          "name": "tokenId",
          "type": "uint256"
        }
      ],
      "name": "getApproved",
      "outputs": [
        {
          "internalType": "address",
          "name": "",
          "type": "address"
        }
      ],
      "stateMutability": "view",
      "type": "function"
    },
    {
      "inputs": [],
      "name": "getNFTimeshareMonthAddress",
      "outputs": [
        {
          "internalType": "address",
          "name": "",
          "type": "address"
        }
      ],
      "stateMutability": "view",
      "type": "function"
    },
    {
      "inputs": [
        {
          "internalType": "address",
          "name": "addr",
          "type": "address"
        },
        {
          "internalType": "uint256",
          "name": "externalTokenId",
          "type": "uint256"
        }
      ],
      "name": "getTokenIdForUnderlyingNFT",
      "outputs": [
        {
          "internalType": "uint256",
          "name": "",
          "type": "uint256"
        }
      ],
      "stateMutability": "view",
      "type": "function"
    },
    {
      "inputs": [
        {
          "internalType": "uint256",
          "name": "tokenId",
          "type": "uint256"
        }
      ],
      "name": "getWrappedNFT",
      "outputs": [
        {
          "internalType": "address",
          "name": "",
          "type": "address"
        },
        {
          "internalType": "uint256",
          "name": "",
          "type": "uint256"
        }
      ],
      "stateMutability": "view",
      "type": "function"
    },
    {
      "inputs": [],
      "name": "initialize",
      "outputs": [],
      "stateMutability": "nonpayable",
      "type": "function"
    },
    {
      "inputs": [
        {
          "internalType": "address",
          "name": "owner",
          "type": "address"
        },
        {
          "internalType": "address",
          "name": "operator",
          "type": "address"
        }
      ],
      "name": "isApprovedForAll",
      "outputs": [
        {
          "internalType": "bool",
          "name": "",
          "type": "bool"
        }
      ],
      "stateMutability": "view",
      "type": "function"
    },
    {
      "inputs": [],
      "name": "name",
      "outputs": [
        {
          "internalType": "string",
          "name": "",
          "type": "string"
        }
      ],
      "stateMutability": "view",
      "type": "function"
    },
    {
      "inputs": [
        {
          "internalType": "address",
          "name": "",
          "type": "address"
        },
        {
          "internalType": "address",
          "name": "",
          "type": "address"
        },
        {
          "internalType": "uint256",
          "name": "",
          "type": "uint256"
        },
        {
          "internalType": "bytes",
          "name": "",
          "type": "bytes"
        }
      ],
      "name": "onERC721Received",
      "outputs": [
        {
          "internalType": "bytes4",
          "name": "",
          "type": "bytes4"
        }
      ],
      "stateMutability": "nonpayable",
      "type": "function"
    },
    {
      "inputs": [],
      "name": "owner",
      "outputs": [
        {
          "internalType": "address",
          "name": "",
          "type": "address"
        }
      ],
      "stateMutability": "view",
      "type": "function"
    },
    {
      "inputs": [
        {
          "internalType": "uint256",
          "name": "tokenId",
          "type": "uint256"
        }
      ],
      "name": "ownerOf",
      "outputs": [
        {
          "internalType": "address",
          "name": "",
          "type": "address"
        }
      ],
      "stateMutability": "view",
      "type": "function"
    },
    {
      "inputs": [
        {
          "internalType": "uint256",
          "name": "tokenId",
          "type": "uint256"
        },
        {
          "internalType": "address",
          "name": "_to",
          "type": "address"
        }
      ],
      "name": "redeem",
      "outputs": [],
      "stateMutability": "nonpayable",
      "type": "function"
    },
    {
      "inputs": [],
      "name": "renounceOwnership",
      "outputs": [],
      "stateMutability": "nonpayable",
      "type": "function"
    },
    {
      "inputs": [
        {
          "internalType": "address",
          "name": "from",
          "type": "address"
        },
        {
          "internalType": "address",
          "name": "to",
          "type": "address"
        },
        {
          "internalType": "uint256",
          "name": "tokenId",
          "type": "uint256"
        }
      ],
      "name": "safeTransferFrom",
      "outputs": [],
      "stateMutability": "nonpayable",
      "type": "function"
    },
    {
      "inputs": [
        {
          "internalType": "address",
          "name": "from",
          "type": "address"
        },
        {
          "internalType": "address",
          "name": "to",
          "type": "address"
        },
        {
          "internalType": "uint256",
          "name": "tokenId",
          "type": "uint256"
        },
        {
          "internalType": "bytes",
          "name": "data",
          "type": "bytes"
        }
      ],
      "name": "safeTransferFrom",
      "outputs": [],
      "stateMutability": "nonpayable",
      "type": "function"
    },
    {
      "inputs": [
        {
          "internalType": "address",
          "name": "operator",
          "type": "address"
        },
        {
          "internalType": "bool",
          "name": "_approved",
          "type": "bool"
        }
      ],
      "name": "setApprovalForAll",
      "outputs": [],
      "stateMutability": "nonpayable",
      "type": "function"
    },
    {
      "inputs": [
        {
          "internalType": "address",
          "name": "_addr",
          "type": "address"
        }
      ],
      "name": "setNFTimeshareMonthAddress",
      "outputs": [],
      "stateMutability": "nonpayable",
      "type": "function"
    },
    {
      "inputs": [
        {
          "internalType": "bytes4",
          "name": "interfaceId",
          "type": "bytes4"
        }
      ],
      "name": "supportsInterface",
      "outputs": [
        {
          "internalType": "bool",
          "name": "",
          "type": "bool"
        }
      ],
      "stateMutability": "view",
      "type": "function"
    },
    {
      "inputs": [],
      "name": "symbol",
      "outputs": [
        {
          "internalType": "string",
          "name": "",
          "type": "string"
        }
      ],
      "stateMutability": "view",
      "type": "function"
    },
    {
      "inputs": [
        {
          "internalType": "uint256",
          "name": "index",
          "type": "uint256"
        }
      ],
      "name": "tokenByIndex",
      "outputs": [
        {
          "internalType": "uint256",
          "name": "",
          "type": "uint256"
        }
      ],
      "stateMutability": "view",
      "type": "function"
    },
    {
      "inputs": [
        {
          "internalType": "address",
          "name": "owner",
          "type": "address"
        },
        {
          "internalType": "uint256",
          "name": "index",
          "type": "uint256"
        }
      ],
      "name": "tokenOfOwnerByIndex",
      "outputs": [
        {
          "internalType": "uint256",
          "name": "",
          "type": "uint256"
        }
      ],
      "stateMutability": "view",
      "type": "function"
    },
    {
      "inputs": [
        {
          "internalType": "uint256",
          "name": "tokenId",
          "type": "uint256"
        }
      ],
      "name": "tokenURI",
      "outputs": [
        {
          "internalType": "string",
          "name": "",
          "type": "string"
        }
      ],
      "stateMutability": "view",
      "type": "function"
    },
    {
      "inputs": [],
      "name": "totalSupply",
      "outputs": [
        {
          "internalType": "uint256",
          "name": "",
          "type": "uint256"
        }
      ],
      "stateMutability": "view",
      "type": "function"
    },
    {
      "inputs": [
        {
          "internalType": "address",
          "name": "from",
          "type": "address"
        },
        {
          "internalType": "address",
          "name": "to",
          "type": "address"
        },
        {
          "internalType": "uint256",
          "name": "tokenId",
          "type": "uint256"
        }
      ],
      "name": "transferFrom",
      "outputs": [],
      "stateMutability": "nonpayable",
      "type": "function"
    },
    {
      "inputs": [
        {
          "internalType": "address",
          "name": "newOwner",
          "type": "address"
        }
      ],
      "name": "transferOwnership",
      "outputs": [],
      "stateMutability": "nonpayable",
      "type": "function"
    },
    {
      "inputs": [
        {
          "internalType": "uint256",
          "name": "tokenId",
          "type": "uint256"
        }
      ],
      "name": "underlyingTokenURI",
      "outputs": [
        {
          "internalType": "string",
          "name": "",
          "type": "string"
        }
      ],
      "stateMutability": "view",
      "type": "function"
    }
  ],
  "bytecode": "0x608060405234801561001057600080fd5b506150e4806100206000396000f3fe608060405234801561001057600080fd5b50600436106101cf5760003560e01c80637bde82f211610104578063c3cf1e56116100a2578063e75726cb11610071578063e75726cb1461053e578063e8a3d4851461056f578063e985e9c51461058d578063f2fde38b146105bd576101cf565b8063c3cf1e56146104a4578063c6f1649f146104d4578063c87b56dd146104f0578063e0d3c2bd14610520576101cf565b80638da5cb5b116100de5780638da5cb5b1461043057806395d89b411461044e578063a22cb4651461046c578063b88d4fde14610488576101cf565b80637bde82f2146103ee57806380fe989e1461040a5780638129fc1c14610426576101cf565b8063286e5508116101715780634f6ccce71161014b5780634f6ccce7146103545780636352211e1461038457806370a08231146103b4578063715018a6146103e4576101cf565b8063286e5508146102d85780632f745c591461030857806342842e0e14610338576101cf565b8063095ea7b3116101ad578063095ea7b314610252578063150b7a021461026e57806318160ddd1461029e57806323b872dd146102bc576101cf565b806301ffc9a7146101d457806306fdde0314610204578063081812fc14610222575b600080fd5b6101ee60048036038101906101e99190613d13565b6105d9565b6040516101fb919061426b565b60405180910390f35b61020c610653565b60405161021991906142a1565b60405180910390f35b61023c60048036038101906102379190613da6565b6106e5565b604051610249919061416d565b60405180910390f35b61026c60048036038101906102679190613c4a565b610730565b005b61028860048036038101906102839190613b93565b610775565b6040516102959190614286565b60405180910390f35b6102a6610789565b6040516102b391906144a3565b60405180910390f35b6102d660048036038101906102d19190613b44565b610796565b005b6102f260048036038101906102ed9190613da6565b6107dc565b6040516102ff91906142a1565b60405180910390f35b610322600480360381019061031d9190613c4a565b610998565b60405161032f91906144a3565b60405180910390f35b610352600480360381019061034d9190613b44565b610a3d565b005b61036e60048036038101906103699190613da6565b610a83565b60405161037b91906144a3565b60405180910390f35b61039e60048036038101906103999190613da6565b610b1a565b6040516103ab919061416d565b60405180910390f35b6103ce60048036038101906103c99190613ab6565b610cd7565b6040516103db91906144a3565b60405180910390f35b6103ec610fdd565b005b61040860048036038101906104039190613df8565b61111a565b005b610424600480360381019061041f9190613ab6565b6114de565b005b61042e61159f565b005b610438611714565b604051610445919061416d565b60405180910390f35b61045661173e565b60405161046391906142a1565b60405180910390f35b61048660048036038101906104819190613c0e565b6117d0565b005b6104a2600480360381019061049d9190613b93565b611815565b005b6104be60048036038101906104b99190613c4a565b61185c565b6040516104cb91906144a3565b60405180910390f35b6104ee60048036038101906104e99190613c86565b6118b8565b005b61050a60048036038101906105059190613da6565b611c70565b60405161051791906142a1565b60405180910390f35b610528611d17565b604051610535919061416d565b60405180910390f35b61055860048036038101906105539190613da6565b611d42565b60405161056692919061420b565b60405180910390f35b610577611ddc565b60405161058491906142a1565b60405180910390f35b6105a760048036038101906105a29190613b08565b611dfc565b6040516105b4919061426b565b60405180910390f35b6105d760048036038101906105d29190613ab6565b611e48565b005b60007f780e9d63000000000000000000000000000000000000000000000000000000007bffffffffffffffffffffffffffffffffffffffffffffffffffffffff1916827bffffffffffffffffffffffffffffffffffffffffffffffffffffffff1916148061064c575061064b82611ff4565b5b9050919050565b60606065805461066290614a08565b80601f016020809104026020016040519081016040528092919081815260200182805461068e90614a08565b80156106db5780601f106106b0576101008083540402835291602001916106db565b820191906000526020600020905b8154815290600101906020018083116106be57829003601f168201915b5050505050905090565b600080610727576040517f08c379a000000000000000000000000000000000000000000000000000000000815260040161071e90614483565b60405180910390fd5b60009050919050565b6000610771576040517f08c379a000000000000000000000000000000000000000000000000000000000815260040161076890614483565b60405180910390fd5b5050565b600063150b7a0260e01b9050949350505050565b6000609980549050905090565b60006107d7576040517f08c379a00000000000000000000000000000000000000000000000000000000081526004016107ce90614483565b60405180910390fd5b505050565b6060600073ffffffffffffffffffffffffffffffffffffffff1661012e60009054906101000a900473ffffffffffffffffffffffffffffffffffffffff1673ffffffffffffffffffffffffffffffffffffffff161415610871576040517f08c379a0000000000000000000000000000000000000000000000000000000008152600401610868906142c3565b60405180910390fd5b600061013060008481526020019081526020016000206040518060400160405290816000820160009054906101000a900473ffffffffffffffffffffffffffffffffffffffff1673ffffffffffffffffffffffffffffffffffffffff1673ffffffffffffffffffffffffffffffffffffffff16815260200160018201548152505090506000816000015173ffffffffffffffffffffffffffffffffffffffff1663c87b56dd83602001516040518263ffffffff1660e01b815260040161093791906144a3565b60006040518083038186803b15801561094f57600080fd5b505afa158015610963573d6000803e3d6000fd5b505050506040513d6000823e3d601f19601f8201168201806040525081019061098c9190613d65565b90508092505050919050565b60006109a3836120d6565b82106109e4576040517f08c379a00000000000000000000000000000000000000000000000000000000081526004016109db906142e3565b60405180910390fd5b609760008473ffffffffffffffffffffffffffffffffffffffff1673ffffffffffffffffffffffffffffffffffffffff168152602001908152602001600020600083815260200190815260200160002054905092915050565b6000610a7e576040517f08c379a0000000000000000000000000000000000000000000000000000000008152600401610a7590614483565b60405180910390fd5b505050565b6000610a8d610789565b8210610ace576040517f08c379a0000000000000000000000000000000000000000000000000000000008152600401610ac590614443565b60405180910390fd5b60998281548110610b08577f4e487b7100000000000000000000000000000000000000000000000000000000600052603260045260246000fd5b90600052602060002001549050919050565b6000806001610b284261218e565b610b329190614907565b9050600061012e60009054906101000a900473ffffffffffffffffffffffffffffffffffffffff1673ffffffffffffffffffffffffffffffffffffffff166359574c38856040518263ffffffff1660e01b8152600401610b9291906144a3565b6101806040518083038186803b158015610bab57600080fd5b505afa158015610bbf573d6000803e3d6000fd5b505050506040513d601f19601f82011682018060405250810190610be39190613ce9565b905061012e60009054906101000a900473ffffffffffffffffffffffffffffffffffffffff1673ffffffffffffffffffffffffffffffffffffffff16636352211e8284600c8110610c5d577f4e487b7100000000000000000000000000000000000000000000000000000000600052603260045260246000fd5b60200201516040518263ffffffff1660e01b8152600401610c7e91906144a3565b60206040518083038186803b158015610c9657600080fd5b505afa158015610caa573d6000803e3d6000fd5b505050506040513d601f19601f82011682018060405250810190610cce9190613adf565b92505050919050565b60008073ffffffffffffffffffffffffffffffffffffffff1661012e60009054906101000a900473ffffffffffffffffffffffffffffffffffffffff1673ffffffffffffffffffffffffffffffffffffffff161415610d6b576040517f08c379a0000000000000000000000000000000000000000000000000000000008152600401610d62906142c3565b60405180910390fd5b600061012e60009054906101000a900473ffffffffffffffffffffffffffffffffffffffff1673ffffffffffffffffffffffffffffffffffffffff166370a08231846040518263ffffffff1660e01b8152600401610dc9919061416d565b60206040518083038186803b158015610de157600080fd5b505afa158015610df5573d6000803e3d6000fd5b505050506040513d601f19601f82011682018060405250810190610e199190613dcf565b905060006001610e284261218e565b610e329190614907565b90506000805b83811015610fd157600061012e60009054906101000a900473ffffffffffffffffffffffffffffffffffffffff1673ffffffffffffffffffffffffffffffffffffffff16632f745c5988846040518363ffffffff1660e01b8152600401610ea092919061420b565b60206040518083038186803b158015610eb857600080fd5b505afa158015610ecc573d6000803e3d6000fd5b505050506040513d601f19601f82011682018060405250810190610ef09190613dcf565b9050600061012e60009054906101000a900473ffffffffffffffffffffffffffffffffffffffff1673ffffffffffffffffffffffffffffffffffffffff1663989620df836040518263ffffffff1660e01b8152600401610f5091906144a3565b60206040518083038186803b158015610f6857600080fd5b505afa158015610f7c573d6000803e3d6000fd5b505050506040513d601f19601f82011682018060405250810190610fa09190613e34565b60ff16905084811415610fbc578380610fb890614a6b565b9450505b50508080610fc990614a6b565b915050610e38565b50809350505050919050565b610fe56121bd565b73ffffffffffffffffffffffffffffffffffffffff16611003611714565b73ffffffffffffffffffffffffffffffffffffffff1614611059576040517f08c379a0000000000000000000000000000000000000000000000000000000008152600401611050906143e3565b60405180910390fd5b600073ffffffffffffffffffffffffffffffffffffffff1660fb60009054906101000a900473ffffffffffffffffffffffffffffffffffffffff1673ffffffffffffffffffffffffffffffffffffffff167f8be0079c531659141344cd1fd0a4f28419497f9722a3daafe3b4186f6b6457e060405160405180910390a3600060fb60006101000a81548173ffffffffffffffffffffffffffffffffffffffff021916908373ffffffffffffffffffffffffffffffffffffffff160217905550565b600073ffffffffffffffffffffffffffffffffffffffff1661012e60009054906101000a900473ffffffffffffffffffffffffffffffffffffffff1673ffffffffffffffffffffffffffffffffffffffff1614156111ad576040517f08c379a00000000000000000000000000000000000000000000000000000000081526004016111a4906142c3565b60405180910390fd5b600061013060008481526020019081526020016000206040518060400160405290816000820160009054906101000a900473ffffffffffffffffffffffffffffffffffffffff1673ffffffffffffffffffffffffffffffffffffffff1673ffffffffffffffffffffffffffffffffffffffff1681526020016001820154815250509050600073ffffffffffffffffffffffffffffffffffffffff16816000015173ffffffffffffffffffffffffffffffffffffffff161415801561127657506000816020015114155b6112b5576040517f08c379a00000000000000000000000000000000000000000000000000000000081526004016112ac90614463565b60405180910390fd5b61012f6000826000015173ffffffffffffffffffffffffffffffffffffffff1673ffffffffffffffffffffffffffffffffffffffff168152602001908152602001600020600082602001518152602001908152602001600020600090556101306000848152602001908152602001600020600080820160006101000a81549073ffffffffffffffffffffffffffffffffffffffff02191690556001820160009055505061012e60009054906101000a900473ffffffffffffffffffffffffffffffffffffffff1673ffffffffffffffffffffffffffffffffffffffff16638d6e1b6733856040518363ffffffff1660e01b81526004016113b692919061420b565b600060405180830381600087803b1580156113d057600080fd5b505af11580156113e4573d6000803e3d6000fd5b50505050806000015173ffffffffffffffffffffffffffffffffffffffff166342842e0e308484602001516040518463ffffffff1660e01b815260040161142d93929190614188565b600060405180830381600087803b15801561144757600080fd5b505af115801561145b573d6000803e3d6000fd5b50505050611468836121c5565b8173ffffffffffffffffffffffffffffffffffffffff163373ffffffffffffffffffffffffffffffffffffffff167faee47cdf925cf525fdae94f9777ee5a06cac37e1c41220d0a8a89ed154f62d1c83600001518460200151876040516114d193929190614234565b60405180910390a3505050565b6114e66121bd565b73ffffffffffffffffffffffffffffffffffffffff16611504611714565b73ffffffffffffffffffffffffffffffffffffffff161461155a576040517f08c379a0000000000000000000000000000000000000000000000000000000008152600401611551906143e3565b60405180910390fd5b8061012e60006101000a81548173ffffffffffffffffffffffffffffffffffffffff021916908373ffffffffffffffffffffffffffffffffffffffff16021790555050565b600060019054906101000a900460ff16806115c5575060008054906101000a900460ff16155b611604576040517f08c379a00000000000000000000000000000000000000000000000000000000081526004016115fb906143a3565b60405180910390fd5b60008060019054906101000a900460ff161590508015611654576001600060016101000a81548160ff02191690831515021790555060016000806101000a81548160ff0219169083151502179055505b61165c6122d6565b6116646123af565b61166c612488565b6116e06040518060400160405280600981526020017f54696d65736861726500000000000000000000000000000000000000000000008152506040518060400160405280600581526020017f534841524500000000000000000000000000000000000000000000000000000081525061260a565b6116e86126ff565b6116f06127d8565b80156117115760008060016101000a81548160ff0219169083151502179055505b50565b600060fb60009054906101000a900473ffffffffffffffffffffffffffffffffffffffff16905090565b60606066805461174d90614a08565b80601f016020809104026020016040519081016040528092919081815260200182805461177990614a08565b80156117c65780601f1061179b576101008083540402835291602001916117c6565b820191906000526020600020905b8154815290600101906020018083116117a957829003601f168201915b5050505050905090565b6000611811576040517f08c379a000000000000000000000000000000000000000000000000000000000815260040161180890614483565b60405180910390fd5b5050565b6000611856576040517f08c379a000000000000000000000000000000000000000000000000000000000815260040161184d90614483565b60405180910390fd5b50505050565b600061012f60008473ffffffffffffffffffffffffffffffffffffffff1673ffffffffffffffffffffffffffffffffffffffff168152602001908152602001600020600083815260200190815260200160002054905092915050565b600073ffffffffffffffffffffffffffffffffffffffff1661012e60009054906101000a900473ffffffffffffffffffffffffffffffffffffffff1673ffffffffffffffffffffffffffffffffffffffff16141561194b576040517f08c379a0000000000000000000000000000000000000000000000000000000008152600401611942906142c3565b60405180910390fd5b61012e60009054906101000a900473ffffffffffffffffffffffffffffffffffffffff1673ffffffffffffffffffffffffffffffffffffffff168473ffffffffffffffffffffffffffffffffffffffff1614156119dd576040517f08c379a00000000000000000000000000000000000000000000000000000000081526004016119d490614423565b60405180910390fd5b6119e861012d6128b1565b60006119f561012d6128c7565b9050611a0130826128d5565b8061012f60008773ffffffffffffffffffffffffffffffffffffffff1673ffffffffffffffffffffffffffffffffffffffff16815260200190815260200160002060008681526020019081526020016000208190555060405180604001604052808673ffffffffffffffffffffffffffffffffffffffff16815260200185815250610130600083815260200190815260200160002060008201518160000160006101000a81548173ffffffffffffffffffffffffffffffffffffffff021916908373ffffffffffffffffffffffffffffffffffffffff1602179055506020820151816001015590505061012e60009054906101000a900473ffffffffffffffffffffffffffffffffffffffff1673ffffffffffffffffffffffffffffffffffffffff166306d64af782846040518363ffffffff1660e01b8152600401611b489291906144be565b600060405180830381600087803b158015611b6257600080fd5b505af1158015611b76573d6000803e3d6000fd5b505050508473ffffffffffffffffffffffffffffffffffffffff166342842e0e8430876040518463ffffffff1660e01b8152600401611bb793929190614188565b600060405180830381600087803b158015611bd157600080fd5b505af1158015611be5573d6000803e3d6000fd5b505050508173ffffffffffffffffffffffffffffffffffffffff163373ffffffffffffffffffffffffffffffffffffffff168473ffffffffffffffffffffffffffffffffffffffff167fe354026b0ea4d7022834b4903ab420cdc10b109a8506dc68061124854cd353c8888886604051611c6193929190614234565b60405180910390a45050505050565b6060611c7b826128f3565b611cba576040517f08c379a0000000000000000000000000000000000000000000000000000000008152600401611cb190614403565b60405180910390fd5b6000611cc4612963565b90506000815111611ce45760405180602001604052806000815250611d0f565b80611cee84612983565b604051602001611cff929190614149565b6040516020818303038152906040525b915050919050565b600061012e60009054906101000a900473ffffffffffffffffffffffffffffffffffffffff16905090565b600080600061013060008581526020019081526020016000206040518060400160405290816000820160009054906101000a900473ffffffffffffffffffffffffffffffffffffffff1673ffffffffffffffffffffffffffffffffffffffff1673ffffffffffffffffffffffffffffffffffffffff1681526020016001820154815250509050806000015181602001519250925050915091565b606060405180606001604052806034815260200161505560349139905090565b600080611e3e576040517f08c379a0000000000000000000000000000000000000000000000000000000008152600401611e3590614483565b60405180910390fd5b6000905092915050565b611e506121bd565b73ffffffffffffffffffffffffffffffffffffffff16611e6e611714565b73ffffffffffffffffffffffffffffffffffffffff1614611ec4576040517f08c379a0000000000000000000000000000000000000000000000000000000008152600401611ebb906143e3565b60405180910390fd5b600073ffffffffffffffffffffffffffffffffffffffff168173ffffffffffffffffffffffffffffffffffffffff161415611f34576040517f08c379a0000000000000000000000000000000000000000000000000000000008152600401611f2b90614323565b60405180910390fd5b8073ffffffffffffffffffffffffffffffffffffffff1660fb60009054906101000a900473ffffffffffffffffffffffffffffffffffffffff1673ffffffffffffffffffffffffffffffffffffffff167f8be0079c531659141344cd1fd0a4f28419497f9722a3daafe3b4186f6b6457e060405160405180910390a38060fb60006101000a81548173ffffffffffffffffffffffffffffffffffffffff021916908373ffffffffffffffffffffffffffffffffffffffff16021790555050565b60007f80ac58cd000000000000000000000000000000000000000000000000000000007bffffffffffffffffffffffffffffffffffffffffffffffffffffffff1916827bffffffffffffffffffffffffffffffffffffffffffffffffffffffff191614806120bf57507f5b5e139f000000000000000000000000000000000000000000000000000000007bffffffffffffffffffffffffffffffffffffffffffffffffffffffff1916827bffffffffffffffffffffffffffffffffffffffffffffffffffffffff1916145b806120cf57506120ce82612b30565b5b9050919050565b60008073ffffffffffffffffffffffffffffffffffffffff168273ffffffffffffffffffffffffffffffffffffffff161415612147576040517f08c379a000000000000000000000000000000000000000000000000000000000815260040161213e90614363565b60405180910390fd5b606860008373ffffffffffffffffffffffffffffffffffffffff1673ffffffffffffffffffffffffffffffffffffffff168152602001908152602001600020549050919050565b60008060006121aa62015180856121a5919061472b565b612b9a565b8093508195508294505050505050919050565b600033905090565b60006121d082612d39565b90506121de81600084612deb565b6121e9600083612eff565b6001606860008373ffffffffffffffffffffffffffffffffffffffff1673ffffffffffffffffffffffffffffffffffffffff16815260200190815260200160002060008282546122399190614907565b925050819055506067600083815260200190815260200160002060006101000a81549073ffffffffffffffffffffffffffffffffffffffff021916905581600073ffffffffffffffffffffffffffffffffffffffff168273ffffffffffffffffffffffffffffffffffffffff167fddf252ad1be2c89b69c2b068fc378daa952ba7f163c4a11628f55a4df523b3ef60405160405180910390a45050565b600060019054906101000a900460ff16806122fc575060008054906101000a900460ff16155b61233b576040517f08c379a0000000000000000000000000000000000000000000000000000000008152600401612332906143a3565b60405180910390fd5b60008060019054906101000a900460ff16159050801561238b576001600060016101000a81548160ff02191690831515021790555060016000806101000a81548160ff0219169083151502179055505b80156123ac5760008060016101000a81548160ff0219169083151502179055505b50565b600060019054906101000a900460ff16806123d5575060008054906101000a900460ff16155b612414576040517f08c379a000000000000000000000000000000000000000000000000000000000815260040161240b906143a3565b60405180910390fd5b60008060019054906101000a900460ff161590508015612464576001600060016101000a81548160ff02191690831515021790555060016000806101000a81548160ff0219169083151502179055505b80156124855760008060016101000a81548160ff0219169083151502179055505b50565b600060019054906101000a900460ff16806124ae575060008054906101000a900460ff16155b6124ed576040517f08c379a00000000000000000000000000000000000000000000000000000000081526004016124e4906143a3565b60405180910390fd5b60008060019054906101000a900460ff16159050801561253d576001600060016101000a81548160ff02191690831515021790555060016000806101000a81548160ff0219169083151502179055505b60006125476121bd565b90508060fb60006101000a81548173ffffffffffffffffffffffffffffffffffffffff021916908373ffffffffffffffffffffffffffffffffffffffff1602179055508073ffffffffffffffffffffffffffffffffffffffff16600073ffffffffffffffffffffffffffffffffffffffff167f8be0079c531659141344cd1fd0a4f28419497f9722a3daafe3b4186f6b6457e060405160405180910390a35080156126075760008060016101000a81548160ff0219169083151502179055505b50565b600060019054906101000a900460ff1680612630575060008054906101000a900460ff16155b61266f576040517f08c379a0000000000000000000000000000000000000000000000000000000008152600401612666906143a3565b60405180910390fd5b60008060019054906101000a900460ff1615905080156126bf576001600060016101000a81548160ff02191690831515021790555060016000806101000a81548160ff0219169083151502179055505b6126c76122d6565b6126cf6123af565b6126d98383612fb8565b80156126fa5760008060016101000a81548160ff0219169083151502179055505b505050565b600060019054906101000a900460ff1680612725575060008054906101000a900460ff16155b612764576040517f08c379a000000000000000000000000000000000000000000000000000000000815260040161275b906143a3565b60405180910390fd5b60008060019054906101000a900460ff1615905080156127b4576001600060016101000a81548160ff02191690831515021790555060016000806101000a81548160ff0219169083151502179055505b80156127d55760008060016101000a81548160ff0219169083151502179055505b50565b600060019054906101000a900460ff16806127fe575060008054906101000a900460ff16155b61283d576040517f08c379a0000000000000000000000000000000000000000000000000000000008152600401612834906143a3565b60405180910390fd5b60008060019054906101000a900460ff16159050801561288d576001600060016101000a81548160ff02191690831515021790555060016000806101000a81548160ff0219169083151502179055505b80156128ae5760008060016101000a81548160ff0219169083151502179055505b50565b6001816000016000828254019250508190555050565b600081600001549050919050565b6128ef8282604051806020016040528060008152506130c1565b5050565b60008073ffffffffffffffffffffffffffffffffffffffff16610130600084815260200190815260200160002060000160009054906101000a900473ffffffffffffffffffffffffffffffffffffffff1673ffffffffffffffffffffffffffffffffffffffff1614159050919050565b606060405180606001604052806026815260200161508960269139905090565b606060008214156129cb576040518060400160405280600181526020017f30000000000000000000000000000000000000000000000000000000000000008152509050612b2b565b600082905060005b600082146129fd5780806129e690614a6b565b915050600a826129f6919061472b565b91506129d3565b60008167ffffffffffffffff811115612a3f577f4e487b7100000000000000000000000000000000000000000000000000000000600052604160045260246000fd5b6040519080825280601f01601f191660200182016040528015612a715781602001600182028036833780820191505090505b5090505b60008514612b2457600182612a8a9190614907565b9150600a85612a999190614ab4565b6030612aa5919061466b565b60f81b818381518110612ae1577f4e487b7100000000000000000000000000000000000000000000000000000000600052603260045260246000fd5b60200101907effffffffffffffffffffffffffffffffffffffffffffffffffffffffffffff1916908160001a905350600a85612b1d919061472b565b9450612a75565b8093505050505b919050565b60007f01ffc9a7000000000000000000000000000000000000000000000000000000007bffffffffffffffffffffffffffffffffffffffffffffffffffffffff1916827bffffffffffffffffffffffffffffffffffffffffffffffffffffffff1916149050919050565b600080600080849050600062253d8c62010bd983612bb891906145d7565b612bc291906145d7565b9050600062023ab1826004612bd7919061475c565b612be191906146c1565b9050600460038262023ab1612bf6919061475c565b612c0091906145d7565b612c0a91906146c1565b82612c159190614873565b9150600062164b09600184612c2a91906145d7565b610fa0612c37919061475c565b612c4191906146c1565b9050601f6004826105b5612c55919061475c565b612c5f91906146c1565b84612c6a9190614873565b612c7491906145d7565b9250600061098f846050612c88919061475c565b612c9291906146c1565b9050600060508261098f612ca6919061475c565b612cb091906146c1565b85612cbb9190614873565b9050600b82612cca91906146c1565b945084600c612cd9919061475c565b600283612ce691906145d7565b612cf09190614873565b91508483603186612d019190614873565b6064612d0d919061475c565b612d1791906145d7565b612d2191906145d7565b92508298508197508096505050505050509193909250565b6000806067600084815260200190815260200160002060009054906101000a900473ffffffffffffffffffffffffffffffffffffffff169050600073ffffffffffffffffffffffffffffffffffffffff168173ffffffffffffffffffffffffffffffffffffffff161415612de2576040517f08c379a0000000000000000000000000000000000000000000000000000000008152600401612dd990614383565b60405180910390fd5b80915050919050565b612df683838361311c565b600073ffffffffffffffffffffffffffffffffffffffff168373ffffffffffffffffffffffffffffffffffffffff161415612e3957612e3481613121565b612e78565b8173ffffffffffffffffffffffffffffffffffffffff168373ffffffffffffffffffffffffffffffffffffffff1614612e7757612e76838261316a565b5b5b600073ffffffffffffffffffffffffffffffffffffffff168273ffffffffffffffffffffffffffffffffffffffff161415612ebb57612eb6816132d7565b612efa565b8273ffffffffffffffffffffffffffffffffffffffff168273ffffffffffffffffffffffffffffffffffffffff1614612ef957612ef8828261341a565b5b5b505050565b816069600083815260200190815260200160002060006101000a81548173ffffffffffffffffffffffffffffffffffffffff021916908373ffffffffffffffffffffffffffffffffffffffff160217905550808273ffffffffffffffffffffffffffffffffffffffff16612f7283612d39565b73ffffffffffffffffffffffffffffffffffffffff167f8c5be1e5ebec7d5bd14f71427d1e84f3dd0314c0f7b2291e5b200ac8c7c3b92560405160405180910390a45050565b600060019054906101000a900460ff1680612fde575060008054906101000a900460ff16155b61301d576040517f08c379a0000000000000000000000000000000000000000000000000000000008152600401613014906143a3565b60405180910390fd5b60008060019054906101000a900460ff16159050801561306d576001600060016101000a81548160ff02191690831515021790555060016000806101000a81548160ff0219169083151502179055505b8260659080519060200190613083929190613811565b50816066908051906020019061309a929190613811565b5080156130bc5760008060016101000a81548160ff0219169083151502179055505b505050565b6130cb8383613499565b6130d86000848484613667565b613117576040517f08c379a000000000000000000000000000000000000000000000000000000000815260040161310e90614303565b60405180910390fd5b505050565b505050565b609980549050609a600083815260200190815260200160002081905550609981908060018154018082558091505060019003906000526020600020016000909190919091505550565b60006001613177846120d6565b6131819190614907565b9050600060986000848152602001908152602001600020549050818114613266576000609760008673ffffffffffffffffffffffffffffffffffffffff1673ffffffffffffffffffffffffffffffffffffffff168152602001908152602001600020600084815260200190815260200160002054905080609760008773ffffffffffffffffffffffffffffffffffffffff1673ffffffffffffffffffffffffffffffffffffffff168152602001908152602001600020600084815260200190815260200160002081905550816098600083815260200190815260200160002081905550505b6098600084815260200190815260200160002060009055609760008573ffffffffffffffffffffffffffffffffffffffff1673ffffffffffffffffffffffffffffffffffffffff16815260200190815260200160002060008381526020019081526020016000206000905550505050565b600060016099805490506132eb9190614907565b90506000609a6000848152602001908152602001600020549050600060998381548110613341577f4e487b7100000000000000000000000000000000000000000000000000000000600052603260045260246000fd5b906000526020600020015490508060998381548110613389577f4e487b7100000000000000000000000000000000000000000000000000000000600052603260045260246000fd5b906000526020600020018190555081609a600083815260200190815260200160002081905550609a60008581526020019081526020016000206000905560998054806133fe577f4e487b7100000000000000000000000000000000000000000000000000000000600052603160045260246000fd5b6001900381819060005260206000200160009055905550505050565b6000613425836120d6565b905081609760008573ffffffffffffffffffffffffffffffffffffffff1673ffffffffffffffffffffffffffffffffffffffff168152602001908152602001600020600083815260200190815260200160002081905550806098600084815260200190815260200160002081905550505050565b600073ffffffffffffffffffffffffffffffffffffffff168273ffffffffffffffffffffffffffffffffffffffff161415613509576040517f08c379a0000000000000000000000000000000000000000000000000000000008152600401613500906143c3565b60405180910390fd5b613512816128f3565b15613552576040517f08c379a000000000000000000000000000000000000000000000000000000000815260040161354990614343565b60405180910390fd5b61355e60008383612deb565b6001606860008473ffffffffffffffffffffffffffffffffffffffff1673ffffffffffffffffffffffffffffffffffffffff16815260200190815260200160002060008282546135ae919061466b565b92505081905550816067600083815260200190815260200160002060006101000a81548173ffffffffffffffffffffffffffffffffffffffff021916908373ffffffffffffffffffffffffffffffffffffffff160217905550808273ffffffffffffffffffffffffffffffffffffffff16600073ffffffffffffffffffffffffffffffffffffffff167fddf252ad1be2c89b69c2b068fc378daa952ba7f163c4a11628f55a4df523b3ef60405160405180910390a45050565b60006136888473ffffffffffffffffffffffffffffffffffffffff166137fe565b156137f1578373ffffffffffffffffffffffffffffffffffffffff1663150b7a026136b16121bd565b8786866040518563ffffffff1660e01b81526004016136d394939291906141bf565b602060405180830381600087803b1580156136ed57600080fd5b505af192505050801561371e57506040513d601f19601f8201168201806040525081019061371b9190613d3c565b60015b6137a1573d806000811461374e576040519150601f19603f3d011682016040523d82523d6000602084013e613753565b606091505b50600081511415613799576040517f08c379a000000000000000000000000000000000000000000000000000000000815260040161379090614303565b60405180910390fd5b805181602001fd5b63150b7a0260e01b7bffffffffffffffffffffffffffffffffffffffffffffffffffffffff1916817bffffffffffffffffffffffffffffffffffffffffffffffffffffffff1916149150506137f6565b600190505b949350505050565b600080823b905060008111915050919050565b82805461381d90614a08565b90600052602060002090601f01602090048101928261383f5760008555613886565b82601f1061385857805160ff1916838001178555613886565b82800160010185558215613886579182015b8281111561388557825182559160200191906001019061386a565b5b5090506138939190613897565b5090565b5b808211156138b0576000816000905550600101613898565b5090565b60006138c76138c28461450c565b6144e7565b905080828560208602820111156138dd57600080fd5b60005b8581101561390d57816138f38882613a8c565b8452602084019350602083019250506001810190506138e0565b5050509392505050565b600061392a61392584614532565b6144e7565b90508281526020810184848401111561394257600080fd5b61394d8482856149c6565b509392505050565b600061396861396384614563565b6144e7565b90508281526020810184848401111561398057600080fd5b61398b8482856149d5565b509392505050565b6000813590506139a281614fe1565b92915050565b6000815190506139b781614fe1565b92915050565b600082601f8301126139ce57600080fd5b600c6139db8482856138b4565b91505092915050565b6000813590506139f381614ff8565b92915050565b600081359050613a088161500f565b92915050565b600081519050613a1d8161500f565b92915050565b600082601f830112613a3457600080fd5b8135613a44848260208601613917565b91505092915050565b600082601f830112613a5e57600080fd5b8151613a6e848260208601613955565b91505092915050565b600081359050613a8681615026565b92915050565b600081519050613a9b81615026565b92915050565b600081519050613ab08161503d565b92915050565b600060208284031215613ac857600080fd5b6000613ad684828501613993565b91505092915050565b600060208284031215613af157600080fd5b6000613aff848285016139a8565b91505092915050565b60008060408385031215613b1b57600080fd5b6000613b2985828601613993565b9250506020613b3a85828601613993565b9150509250929050565b600080600060608486031215613b5957600080fd5b6000613b6786828701613993565b9350506020613b7886828701613993565b9250506040613b8986828701613a77565b9150509250925092565b60008060008060808587031215613ba957600080fd5b6000613bb787828801613993565b9450506020613bc887828801613993565b9350506040613bd987828801613a77565b925050606085013567ffffffffffffffff811115613bf657600080fd5b613c0287828801613a23565b91505092959194509250565b60008060408385031215613c2157600080fd5b6000613c2f85828601613993565b9250506020613c40858286016139e4565b9150509250929050565b60008060408385031215613c5d57600080fd5b6000613c6b85828601613993565b9250506020613c7c85828601613a77565b9150509250929050565b60008060008060808587031215613c9c57600080fd5b6000613caa87828801613993565b9450506020613cbb87828801613a77565b9350506040613ccc87828801613993565b9250506060613cdd87828801613993565b91505092959194509250565b60006101808284031215613cfc57600080fd5b6000613d0a848285016139bd565b91505092915050565b600060208284031215613d2557600080fd5b6000613d33848285016139f9565b91505092915050565b600060208284031215613d4e57600080fd5b6000613d5c84828501613a0e565b91505092915050565b600060208284031215613d7757600080fd5b600082015167ffffffffffffffff811115613d9157600080fd5b613d9d84828501613a4d565b91505092915050565b600060208284031215613db857600080fd5b6000613dc684828501613a77565b91505092915050565b600060208284031215613de157600080fd5b6000613def84828501613a8c565b91505092915050565b60008060408385031215613e0b57600080fd5b6000613e1985828601613a77565b9250506020613e2a85828601613993565b9150509250929050565b600060208284031215613e4657600080fd5b6000613e5484828501613aa1565b91505092915050565b613e668161493b565b82525050565b613e758161494d565b82525050565b613e8481614959565b82525050565b6000613e9582614594565b613e9f81856145aa565b9350613eaf8185602086016149d5565b613eb881614ba1565b840191505092915050565b6000613ece8261459f565b613ed881856145bb565b9350613ee88185602086016149d5565b613ef181614ba1565b840191505092915050565b6000613f078261459f565b613f1181856145cc565b9350613f218185602086016149d5565b80840191505092915050565b6000613f3a602f836145bb565b9150613f4582614bb2565b604082019050919050565b6000613f5d602b836145bb565b9150613f6882614c01565b604082019050919050565b6000613f806032836145bb565b9150613f8b82614c50565b604082019050919050565b6000613fa36026836145bb565b9150613fae82614c9f565b604082019050919050565b6000613fc6601c836145bb565b9150613fd182614cee565b602082019050919050565b6000613fe9602a836145bb565b9150613ff482614d17565b604082019050919050565b600061400c6029836145bb565b915061401782614d66565b604082019050919050565b600061402f602e836145bb565b915061403a82614db5565b604082019050919050565b60006140526020836145bb565b915061405d82614e04565b602082019050919050565b60006140756020836145bb565b915061408082614e2d565b602082019050919050565b6000614098602f836145bb565b91506140a382614e56565b604082019050919050565b60006140bb602f836145bb565b91506140c682614ea5565b604082019050919050565b60006140de602c836145bb565b91506140e982614ef4565b604082019050919050565b60006141016025836145bb565b915061410c82614f43565b604082019050919050565b60006141246023836145bb565b915061412f82614f92565b604082019050919050565b614143816149af565b82525050565b60006141558285613efc565b91506141618284613efc565b91508190509392505050565b60006020820190506141826000830184613e5d565b92915050565b600060608201905061419d6000830186613e5d565b6141aa6020830185613e5d565b6141b7604083018461413a565b949350505050565b60006080820190506141d46000830187613e5d565b6141e16020830186613e5d565b6141ee604083018561413a565b81810360608301526142008184613e8a565b905095945050505050565b60006040820190506142206000830185613e5d565b61422d602083018461413a565b9392505050565b60006060820190506142496000830186613e5d565b614256602083018561413a565b614263604083018461413a565b949350505050565b60006020820190506142806000830184613e6c565b92915050565b600060208201905061429b6000830184613e7b565b92915050565b600060208201905081810360008301526142bb8184613ec3565b905092915050565b600060208201905081810360008301526142dc81613f2d565b9050919050565b600060208201905081810360008301526142fc81613f50565b9050919050565b6000602082019050818103600083015261431c81613f73565b9050919050565b6000602082019050818103600083015261433c81613f96565b9050919050565b6000602082019050818103600083015261435c81613fb9565b9050919050565b6000602082019050818103600083015261437c81613fdc565b9050919050565b6000602082019050818103600083015261439c81613fff565b9050919050565b600060208201905081810360008301526143bc81614022565b9050919050565b600060208201905081810360008301526143dc81614045565b9050919050565b600060208201905081810360008301526143fc81614068565b9050919050565b6000602082019050818103600083015261441c8161408b565b9050919050565b6000602082019050818103600083015261443c816140ae565b9050919050565b6000602082019050818103600083015261445c816140d1565b9050919050565b6000602082019050818103600083015261447c816140f4565b9050919050565b6000602082019050818103600083015261449c81614117565b9050919050565b60006020820190506144b8600083018461413a565b92915050565b60006040820190506144d3600083018561413a565b6144e06020830184613e5d565b9392505050565b60006144f1614502565b90506144fd8282614a3a565b919050565b6000604051905090565b600067ffffffffffffffff82111561452757614526614b72565b5b602082029050919050565b600067ffffffffffffffff82111561454d5761454c614b72565b5b61455682614ba1565b9050602081019050919050565b600067ffffffffffffffff82111561457e5761457d614b72565b5b61458782614ba1565b9050602081019050919050565b600081519050919050565b600081519050919050565b600082825260208201905092915050565b600082825260208201905092915050565b600081905092915050565b60006145e282614985565b91506145ed83614985565b9250817f7fffffffffffffffffffffffffffffffffffffffffffffffffffffffffffffff0383136000831215161561462857614627614ae5565b5b817f80000000000000000000000000000000000000000000000000000000000000000383126000831216156146605761465f614ae5565b5b828201905092915050565b6000614676826149af565b9150614681836149af565b9250827fffffffffffffffffffffffffffffffffffffffffffffffffffffffffffffffff038211156146b6576146b5614ae5565b5b828201905092915050565b60006146cc82614985565b91506146d783614985565b9250826146e7576146e6614b14565b5b600160000383147f8000000000000000000000000000000000000000000000000000000000000000831416156147205761471f614ae5565b5b828205905092915050565b6000614736826149af565b9150614741836149af565b92508261475157614750614b14565b5b828204905092915050565b600061476782614985565b915061477283614985565b9250827f7fffffffffffffffffffffffffffffffffffffffffffffffffffffffffffffff04821160008413600084131616156147b1576147b0614ae5565b5b817f800000000000000000000000000000000000000000000000000000000000000005831260008412600084131616156147ee576147ed614ae5565b5b827f8000000000000000000000000000000000000000000000000000000000000000058212600084136000841216161561482b5761482a614ae5565b5b827f7fffffffffffffffffffffffffffffffffffffffffffffffffffffffffffffff058212600084126000841216161561486857614867614ae5565b5b828202905092915050565b600061487e82614985565b915061488983614985565b9250827f8000000000000000000000000000000000000000000000000000000000000000018212600084121516156148c4576148c3614ae5565b5b827f7fffffffffffffffffffffffffffffffffffffffffffffffffffffffffffffff0182136000841216156148fc576148fb614ae5565b5b828203905092915050565b6000614912826149af565b915061491d836149af565b9250828210156149305761492f614ae5565b5b828203905092915050565b60006149468261498f565b9050919050565b60008115159050919050565b60007fffffffff0000000000000000000000000000000000000000000000000000000082169050919050565b6000819050919050565b600073ffffffffffffffffffffffffffffffffffffffff82169050919050565b6000819050919050565b600060ff82169050919050565b82818337600083830152505050565b60005b838110156149f35780820151818401526020810190506149d8565b83811115614a02576000848401525b50505050565b60006002820490506001821680614a2057607f821691505b60208210811415614a3457614a33614b43565b5b50919050565b614a4382614ba1565b810181811067ffffffffffffffff82111715614a6257614a61614b72565b5b80604052505050565b6000614a76826149af565b91507fffffffffffffffffffffffffffffffffffffffffffffffffffffffffffffffff821415614aa957614aa8614ae5565b5b600182019050919050565b6000614abf826149af565b9150614aca836149af565b925082614ada57614ad9614b14565b5b828206905092915050565b7f4e487b7100000000000000000000000000000000000000000000000000000000600052601160045260246000fd5b7f4e487b7100000000000000000000000000000000000000000000000000000000600052601260045260246000fd5b7f4e487b7100000000000000000000000000000000000000000000000000000000600052602260045260246000fd5b7f4e487b7100000000000000000000000000000000000000000000000000000000600052604160045260246000fd5b6000601f19601f8301169050919050565b7f4e4654696d65736861726520636f6e747261637420616464726573732068617360008201527f6e2774206265656e207365742075700000000000000000000000000000000000602082015250565b7f455243373231456e756d657261626c653a206f776e657220696e646578206f7560008201527f74206f6620626f756e6473000000000000000000000000000000000000000000602082015250565b7f4552433732313a207472616e7366657220746f206e6f6e20455243373231526560008201527f63656976657220696d706c656d656e7465720000000000000000000000000000602082015250565b7f4f776e61626c653a206e6577206f776e657220697320746865207a65726f206160008201527f6464726573730000000000000000000000000000000000000000000000000000602082015250565b7f4552433732313a20746f6b656e20616c7265616479206d696e74656400000000600082015250565b7f4552433732313a2062616c616e636520717565727920666f7220746865207a6560008201527f726f206164647265737300000000000000000000000000000000000000000000602082015250565b7f4552433732313a206f776e657220717565727920666f72206e6f6e657869737460008201527f656e7420746f6b656e0000000000000000000000000000000000000000000000602082015250565b7f496e697469616c697a61626c653a20636f6e747261637420697320616c72656160008201527f647920696e697469616c697a6564000000000000000000000000000000000000602082015250565b7f4552433732313a206d696e7420746f20746865207a65726f2061646472657373600082015250565b7f4f776e61626c653a2063616c6c6572206973206e6f7420746865206f776e6572600082015250565b7f4552433732314d657461646174613a2055524920717565727920666f72206e6f60008201527f6e6578697374656e7420746f6b656e0000000000000000000000000000000000602082015250565b7f4465706f7369743a2043616e74206d616b652074696d65736861726573206f7560008201527f74206f662074696d657368617265730000000000000000000000000000000000602082015250565b7f455243373231456e756d657261626c653a20676c6f62616c20696e646578206f60008201527f7574206f6620626f756e64730000000000000000000000000000000000000000602082015250565b7f52656465656d2054696d6573686172653a204e6f6e6578697374656e7420746f60008201527f6b656e4964000000000000000000000000000000000000000000000000000000602082015250565b7f446973616c6c6f776564206f7065726174696f6e206f6e204e4654696d65736860008201527f6172650000000000000000000000000000000000000000000000000000000000602082015250565b614fea8161493b565b8114614ff557600080fd5b50565b6150018161494d565b811461500c57600080fd5b50565b61501881614959565b811461502357600080fd5b50565b61502f816149af565b811461503a57600080fd5b50565b615046816149b9565b811461505157600080fd5b5056fe687474703a2f2f7777772e6e6674696d657368617265732e66756e2f74696d65736861726570726f6a6563746d65746164617461687474703a2f2f7777772e6e6674696d657368617265732e66756e2f74696d6573686172652fa2646970667358221220a540854ce0d096fc475db97de6b49839e2248a28e0e6ab9049830d2a1c6ced2364736f6c63430008040033",
  "linkReferences": {},
  "deployedLinkReferences": {}
}