{
  "_format": "hh-sol-artifact-1",
  "contractName": "NFTimeshareMonth",
  "sourceName": "contracts/NFTimeshareMonth.sol",
  "abi": [
    {
      "anonymous": false,
      "inputs": [
        {
          "indexed": true,
          "internalType": "address",
          "name": "owner",
          "type": "address"
        },
        {
          "indexed": true,
          "internalType": "address",
          "name": "approved",
          "type": "address"
        },
        {
          "indexed": true,
          "internalType": "uint256",
          "name": "tokenId",
          "type": "uint256"
        }
      ],
      "name": "Approval",
      "type": "event"
    },
    {
      "anonymous": false,
      "inputs": [
        {
          "indexed": true,
          "internalType": "address",
          "name": "owner",
          "type": "address"
        },
        {
          "indexed": true,
          "internalType": "address",
          "name": "operator",
          "type": "address"
        },
        {
          "indexed": false,
          "internalType": "bool",
          "name": "approved",
          "type": "bool"
        }
      ],
      "name": "ApprovalForAll",
      "type": "event"
    },
    {
      "anonymous": false,
      "inputs": [
        {
          "indexed": true,
          "internalType": "address",
          "name": "previousOwner",
          "type": "address"
        },
        {
          "indexed": true,
          "internalType": "address",
          "name": "newOwner",
          "type": "address"
        }
      ],
      "name": "OwnershipTransferred",
      "type": "event"
    },
    {
      "anonymous": false,
      "inputs": [
        {
          "indexed": true,
          "internalType": "address",
          "name": "from",
          "type": "address"
        },
        {
          "indexed": true,
          "internalType": "address",
          "name": "to",
          "type": "address"
        },
        {
          "indexed": true,
          "internalType": "uint256",
          "name": "tokenId",
          "type": "uint256"
        }
      ],
      "name": "Transfer",
      "type": "event"
    },
    {
      "inputs": [
        {
          "internalType": "address",
          "name": "to",
          "type": "address"
        },
        {
          "internalType": "uint256",
          "name": "tokenId",
          "type": "uint256"
        }
      ],
      "name": "approve",
      "outputs": [],
      "stateMutability": "nonpayable",
      "type": "function"
    },
    {
      "inputs": [
        {
          "internalType": "address",
          "name": "owner",
          "type": "address"
        }
      ],
      "name": "balanceOf",
      "outputs": [
        {
          "internalType": "uint256",
          "name": "",
          "type": "uint256"
        }
      ],
      "stateMutability": "view",
      "type": "function"
    },
    {
      "inputs": [
        {
          "internalType": "address",
          "name": "spender",
          "type": "address"
        },
        {
          "internalType": "uint256",
          "name": "timeshareTokenId",
          "type": "uint256"
        }
      ],
      "name": "burnTimeshareMonthsFor",
      "outputs": [],
      "stateMutability": "nonpayable",
      "type": "function"
    },
    {
      "inputs": [],
      "name": "contractURI",
      "outputs": [
        {
          "internalType": "string",
          "name": "",
          "type": "string"
        }
      ],
      "stateMutability": "view",
      "type": "function"
    },
    {
      "inputs": [
        {
          "internalType": "uint256",
          "name": "tokenId",
          "type": "uint256"
        }
      ],
      "name": "getApproved",
      "outputs": [
        {
          "internalType": "address",
          "name": "",
          "type": "address"
        }
      ],
      "stateMutability": "view",
      "type": "function"
    },
    {
      "inputs": [],
      "name": "getNFTimeshareAddress",
      "outputs": [
        {
          "internalType": "address",
          "name": "",
          "type": "address"
        }
      ],
      "stateMutability": "view",
      "type": "function"
    },
    {
      "inputs": [
        {
          "internalType": "uint256",
          "name": "timeshareMonthTokenId",
          "type": "uint256"
        }
      ],
      "name": "getParentTimeshare",
      "outputs": [
        {
          "internalType": "uint256",
          "name": "",
          "type": "uint256"
        }
      ],
      "stateMutability": "view",
      "type": "function"
    },
    {
      "inputs": [
        {
          "internalType": "uint256",
          "name": "timeshareTokenId",
          "type": "uint256"
        }
      ],
      "name": "getTimeshareMonths",
      "outputs": [
        {
          "internalType": "uint256[12]",
          "name": "",
          "type": "uint256[12]"
        }
      ],
      "stateMutability": "view",
      "type": "function"
    },
    {
      "inputs": [],
      "name": "initialize",
      "outputs": [],
      "stateMutability": "nonpayable",
      "type": "function"
    },
    {
      "inputs": [
        {
          "internalType": "address",
          "name": "owner",
          "type": "address"
        },
        {
          "internalType": "address",
          "name": "operator",
          "type": "address"
        }
      ],
      "name": "isApprovedForAll",
      "outputs": [
        {
          "internalType": "bool",
          "name": "",
          "type": "bool"
        }
      ],
      "stateMutability": "view",
      "type": "function"
    },
    {
      "inputs": [
        {
          "internalType": "address",
          "name": "spender",
          "type": "address"
        },
        {
          "internalType": "uint256",
          "name": "timeshareTokenId",
          "type": "uint256"
        }
      ],
      "name": "isApprovedForAllMonths",
      "outputs": [
        {
          "internalType": "bool",
          "name": "",
          "type": "bool"
        }
      ],
      "stateMutability": "view",
      "type": "function"
    },
    {
      "inputs": [
        {
          "internalType": "uint256",
          "name": "timeshareTokenId",
          "type": "uint256"
        },
        {
          "internalType": "address",
          "name": "to",
          "type": "address"
        }
      ],
      "name": "makeTimesharesFor",
      "outputs": [],
      "stateMutability": "nonpayable",
      "type": "function"
    },
    {
      "inputs": [
        {
          "internalType": "uint256",
          "name": "tokenId",
          "type": "uint256"
        }
      ],
      "name": "month",
      "outputs": [
        {
          "internalType": "uint8",
          "name": "",
          "type": "uint8"
        }
      ],
      "stateMutability": "view",
      "type": "function"
    },
    {
      "inputs": [],
      "name": "name",
      "outputs": [
        {
          "internalType": "string",
          "name": "",
          "type": "string"
        }
      ],
      "stateMutability": "view",
      "type": "function"
    },
    {
      "inputs": [],
      "name": "owner",
      "outputs": [
        {
          "internalType": "address",
          "name": "",
          "type": "address"
        }
      ],
      "stateMutability": "view",
      "type": "function"
    },
    {
      "inputs": [
        {
          "internalType": "uint256",
          "name": "tokenId",
          "type": "uint256"
        }
      ],
      "name": "ownerOf",
      "outputs": [
        {
          "internalType": "address",
          "name": "",
          "type": "address"
        }
      ],
      "stateMutability": "view",
      "type": "function"
    },
    {
      "inputs": [],
      "name": "renounceOwnership",
      "outputs": [],
      "stateMutability": "nonpayable",
      "type": "function"
    },
    {
      "inputs": [
        {
          "internalType": "address",
          "name": "from",
          "type": "address"
        },
        {
          "internalType": "address",
          "name": "to",
          "type": "address"
        },
        {
          "internalType": "uint256",
          "name": "tokenId",
          "type": "uint256"
        }
      ],
      "name": "safeTransferFrom",
      "outputs": [],
      "stateMutability": "nonpayable",
      "type": "function"
    },
    {
      "inputs": [
        {
          "internalType": "address",
          "name": "from",
          "type": "address"
        },
        {
          "internalType": "address",
          "name": "to",
          "type": "address"
        },
        {
          "internalType": "uint256",
          "name": "tokenId",
          "type": "uint256"
        },
        {
          "internalType": "bytes",
          "name": "_data",
          "type": "bytes"
        }
      ],
      "name": "safeTransferFrom",
      "outputs": [],
      "stateMutability": "nonpayable",
      "type": "function"
    },
    {
      "inputs": [
        {
          "internalType": "address",
          "name": "operator",
          "type": "address"
        },
        {
          "internalType": "bool",
          "name": "approved",
          "type": "bool"
        }
      ],
      "name": "setApprovalForAll",
      "outputs": [],
      "stateMutability": "nonpayable",
      "type": "function"
    },
    {
      "inputs": [
        {
          "internalType": "address",
          "name": "addr",
          "type": "address"
        }
      ],
      "name": "setNFTimeshareAddress",
      "outputs": [],
      "stateMutability": "nonpayable",
      "type": "function"
    },
    {
      "inputs": [
        {
          "internalType": "bytes4",
          "name": "interfaceId",
          "type": "bytes4"
        }
      ],
      "name": "supportsInterface",
      "outputs": [
        {
          "internalType": "bool",
          "name": "",
          "type": "bool"
        }
      ],
      "stateMutability": "view",
      "type": "function"
    },
    {
      "inputs": [],
      "name": "symbol",
      "outputs": [
        {
          "internalType": "string",
          "name": "",
          "type": "string"
        }
      ],
      "stateMutability": "view",
      "type": "function"
    },
    {
      "inputs": [
        {
          "internalType": "uint256",
          "name": "index",
          "type": "uint256"
        }
      ],
      "name": "tokenByIndex",
      "outputs": [
        {
          "internalType": "uint256",
          "name": "",
          "type": "uint256"
        }
      ],
      "stateMutability": "view",
      "type": "function"
    },
    {
      "inputs": [
        {
          "internalType": "address",
          "name": "owner",
          "type": "address"
        },
        {
          "internalType": "uint256",
          "name": "index",
          "type": "uint256"
        }
      ],
      "name": "tokenOfOwnerByIndex",
      "outputs": [
        {
          "internalType": "uint256",
          "name": "",
          "type": "uint256"
        }
      ],
      "stateMutability": "view",
      "type": "function"
    },
    {
      "inputs": [
        {
          "internalType": "uint256",
          "name": "tokenId",
          "type": "uint256"
        }
      ],
      "name": "tokenURI",
      "outputs": [
        {
          "internalType": "string",
          "name": "",
          "type": "string"
        }
      ],
      "stateMutability": "view",
      "type": "function"
    },
    {
      "inputs": [
        {
          "internalType": "address",
          "name": "owner",
          "type": "address"
        },
        {
          "internalType": "uint256",
          "name": "start",
          "type": "uint256"
        },
        {
          "internalType": "uint256",
          "name": "limit",
          "type": "uint256"
        }
      ],
      "name": "tokensOf",
      "outputs": [
        {
          "components": [
            {
              "internalType": "uint256",
              "name": "tokenId",
              "type": "uint256"
            },
            {
              "internalType": "uint8",
              "name": "month",
              "type": "uint8"
            },
            {
              "internalType": "string",
              "name": "tokenURI",
              "type": "string"
            }
          ],
          "internalType": "struct NFTimeshareMonth.TimeshareMonthInfo[]",
          "name": "",
          "type": "tuple[]"
        }
      ],
      "stateMutability": "view",
      "type": "function"
    },
    {
      "inputs": [],
      "name": "totalSupply",
      "outputs": [
        {
          "internalType": "uint256",
          "name": "",
          "type": "uint256"
        }
      ],
      "stateMutability": "view",
      "type": "function"
    },
    {
      "inputs": [
        {
          "internalType": "address",
          "name": "from",
          "type": "address"
        },
        {
          "internalType": "address",
          "name": "to",
          "type": "address"
        },
        {
          "internalType": "uint256",
          "name": "tokenId",
          "type": "uint256"
        }
      ],
      "name": "transferFrom",
      "outputs": [],
      "stateMutability": "nonpayable",
      "type": "function"
    },
    {
      "inputs": [
        {
          "internalType": "address",
          "name": "newOwner",
          "type": "address"
        }
      ],
      "name": "transferOwnership",
      "outputs": [],
      "stateMutability": "nonpayable",
      "type": "function"
    },
    {
      "inputs": [
        {
          "internalType": "uint256",
          "name": "tokenId",
          "type": "uint256"
        }
      ],
      "name": "underlyingTokenURI",
      "outputs": [
        {
          "internalType": "string",
          "name": "",
          "type": "string"
        }
      ],
      "stateMutability": "view",
      "type": "function"
    }
  ],
  "bytecode": "0x608060405234801561001057600080fd5b5061588680620000216000396000f3fe608060405234801561001057600080fd5b50600436106101e55760003560e01c80636352211e1161010f578063984754fa116100a2578063c87b56dd11610071578063c87b56dd146105b4578063e8a3d485146105e4578063e985e9c514610602578063f2fde38b14610632576101e5565b8063984754fa1461051c578063989620df1461054c578063a22cb4651461057c578063b88d4fde14610598576101e5565b80638129fc1c116100de5780638129fc1c146104ba5780638d6e1b67146104c45780638da5cb5b146104e057806395d89b41146104fe576101e5565b80636352211e1461043257806370a0823114610462578063715018a614610492578063802b96451461049c576101e5565b806323b872dd116101875780634be9ea35116101565780634be9ea35146103865780634f6ccce7146103b657806359574c38146103e65780635f9357b814610416576101e5565b806323b872dd146102ee578063286e55081461030a5780632f745c591461033a57806342842e0e1461036a576101e5565b8063081812fc116101c3578063081812fc14610254578063095ea7b31461028457806318160ddd146102a057806323185dc9146102be576101e5565b806301ffc9a7146101ea57806306d64af71461021a57806306fdde0314610236575b600080fd5b61020460048036038101906101ff9190613fa3565b61064e565b6040516102119190614793565b60405180910390f35b610234600480360381019061022f919061405f565b6106c8565b005b61023e6109eb565b60405161024b91906147ae565b60405180910390f35b61026e60048036038101906102699190614036565b610a7d565b60405161027b91906146ee565b60405180910390f35b61029e60048036038101906102999190613f18565b610b02565b005b6102a8610c1a565b6040516102b59190614b30565b60405180910390f35b6102d860048036038101906102d39190613f54565b610c27565b6040516102e59190614755565b60405180910390f35b61030860048036038101906103039190613e12565b610dbd565b005b610324600480360381019061031f9190614036565b610e1d565b60405161033191906147ae565b60405180910390f35b610354600480360381019061034f9190613f18565b611000565b6040516103619190614b30565b60405180910390f35b610384600480360381019061037f9190613e12565b6110a5565b005b6103a0600480360381019061039b9190613f18565b6110c5565b6040516103ad9190614793565b60405180910390f35b6103d060048036038101906103cb9190614036565b6111a1565b6040516103dd9190614b30565b60405180910390f35b61040060048036038101906103fb9190614036565b611238565b60405161040d9190614777565b60405180910390f35b610430600480360381019061042b9190613dad565b611296565b005b61044c60048036038101906104479190614036565b611356565b60405161045991906146ee565b60405180910390f35b61047c60048036038101906104779190613dad565b611408565b6040516104899190614b30565b60405180910390f35b61049a6114c0565b005b6104a46115fd565b6040516104b191906146ee565b60405180910390f35b6104c2611627565b005b6104de60048036038101906104d99190613f18565b611784565b005b6104e8611ace565b6040516104f591906146ee565b60405180910390f35b610506611af8565b60405161051391906147ae565b60405180910390f35b61053660048036038101906105319190614036565b611b8a565b6040516105439190614b30565b60405180910390f35b61056660048036038101906105619190614036565b611ba7565b6040516105739190614b4b565b60405180910390f35b61059660048036038101906105919190613edc565b611dca565b005b6105b260048036038101906105ad9190613e61565b611f4b565b005b6105ce60048036038101906105c99190614036565b611fad565b6040516105db91906147ae565b60405180910390f35b6105ec612054565b6040516105f991906147ae565b60405180910390f35b61061c60048036038101906106179190613dd6565b612074565b6040516106299190614793565b60405180910390f35b61064c60048036038101906106479190613dad565b612108565b005b60007f780e9d63000000000000000000000000000000000000000000000000000000007bffffffffffffffffffffffffffffffffffffffffffffffffffffffff1916827bffffffffffffffffffffffffffffffffffffffffffffffffffffffff191614806106c157506106c0826122b4565b5b9050919050565b600073ffffffffffffffffffffffffffffffffffffffff1660fc60009054906101000a900473ffffffffffffffffffffffffffffffffffffffff1673ffffffffffffffffffffffffffffffffffffffff16141561075a576040517f08c379a000000000000000000000000000000000000000000000000000000000815260040161075190614af0565b60405180910390fd5b60fc60009054906101000a900473ffffffffffffffffffffffffffffffffffffffff1673ffffffffffffffffffffffffffffffffffffffff163373ffffffffffffffffffffffffffffffffffffffff16146107ea576040517f08c379a00000000000000000000000000000000000000000000000000000000081526004016107e1906149f0565b60405180910390fd5b60fc60009054906101000a900473ffffffffffffffffffffffffffffffffffffffff1673ffffffffffffffffffffffffffffffffffffffff163373ffffffffffffffffffffffffffffffffffffffff161461087a576040517f08c379a0000000000000000000000000000000000000000000000000000000008152600401610871906147f0565b60405180910390fd5b610882613b37565b60005b600c8160ff1610156109555761089b60fb612396565b6108a560fb6123ac565b828260ff16600c81106108e1577f4e487b7100000000000000000000000000000000000000000000000000000000600052603260045260246000fd5b6020020181815250508360fd6000848460ff16600c811061092b577f4e487b7100000000000000000000000000000000000000000000000000000000600052603260045260246000fd5b6020020151815260200190815260200160002081905550808061094d90614ed1565b915050610885565b508060fe600085815260200190815260200160002090600c610978929190613b5a565b5060005b600c8160ff1610156109e5576109d283838360ff16600c81106109c8577f4e487b7100000000000000000000000000000000000000000000000000000000600052603260045260246000fd5b60200201516123ba565b80806109dd90614ed1565b91505061097c565b50505050565b6060606580546109fa90614e25565b80601f0160208091040260200160405190810160405280929190818152602001828054610a2690614e25565b8015610a735780601f10610a4857610100808354040283529160200191610a73565b820191906000526020600020905b815481529060010190602001808311610a5657829003601f168201915b5050505050905090565b6000610a88826123d8565b610ac7576040517f08c379a0000000000000000000000000000000000000000000000000000000008152600401610abe906149d0565b60405180910390fd5b6069600083815260200190815260200160002060009054906101000a900473ffffffffffffffffffffffffffffffffffffffff169050919050565b6000610b0d82611356565b90508073ffffffffffffffffffffffffffffffffffffffff168373ffffffffffffffffffffffffffffffffffffffff161415610b7e576040517f08c379a0000000000000000000000000000000000000000000000000000000008152600401610b7590614a70565b60405180910390fd5b8073ffffffffffffffffffffffffffffffffffffffff16610b9d612444565b73ffffffffffffffffffffffffffffffffffffffff161480610bcc5750610bcb81610bc6612444565b612074565b5b610c0b576040517f08c379a0000000000000000000000000000000000000000000000000000000008152600401610c02906148f0565b60405180910390fd5b610c15838361244c565b505050565b6000609980549050905090565b60606000610c3485611408565b9050600083905060008486610c499190614ca7565b9050828587610c589190614ca7565b1115610c70578290508583610c6d9190614d2e565b91505b60008267ffffffffffffffff811115610cb2577f4e487b7100000000000000000000000000000000000000000000000000000000600052604160045260246000fd5b604051908082528060200260200182016040528015610ceb57816020015b610cd8613b9a565b815260200190600190039081610cd05790505b50905060008790505b82811015610dae57610d04613b9a565b610d0e8a83611000565b816000018181525050610d248160000151611ba7565b816020019060ff16908160ff1681525050610d428160000151611fad565b816040018190525080838a84610d589190614d2e565b81518110610d8f577f4e487b7100000000000000000000000000000000000000000000000000000000600052603260045260246000fd5b6020026020010181905250508080610da690614e88565b915050610cf4565b50809450505050509392505050565b610dce610dc8612444565b82612505565b610e0d576040517f08c379a0000000000000000000000000000000000000000000000000000000008152600401610e0490614ab0565b60405180910390fd5b610e188383836125e3565b505050565b6060600073ffffffffffffffffffffffffffffffffffffffff1660fc60009054906101000a900473ffffffffffffffffffffffffffffffffffffffff1673ffffffffffffffffffffffffffffffffffffffff161415610eb1576040517f08c379a0000000000000000000000000000000000000000000000000000000008152600401610ea890614b10565b60405180910390fd5b610eba826123d8565b610ef9576040517f08c379a0000000000000000000000000000000000000000000000000000000008152600401610ef090614a50565b60405180910390fd5b600060fd600084815260200190815260200160002054905060008111610f48577f4e487b7100000000000000000000000000000000000000000000000000000000600052600160045260246000fd5b60fc60009054906101000a900473ffffffffffffffffffffffffffffffffffffffff1673ffffffffffffffffffffffffffffffffffffffff1663286e5508826040518263ffffffff1660e01b8152600401610fa39190614b30565b60006040518083038186803b158015610fbb57600080fd5b505afa158015610fcf573d6000803e3d6000fd5b505050506040513d6000823e3d601f19601f82011682018060405250810190610ff89190613ff5565b915050919050565b600061100b83611408565b821061104c576040517f08c379a000000000000000000000000000000000000000000000000000000000815260040161104390614810565b60405180910390fd5b609760008473ffffffffffffffffffffffffffffffffffffffff1673ffffffffffffffffffffffffffffffffffffffff168152602001908152602001600020600083815260200190815260200160002054905092915050565b6110c083838360405180602001604052806000815250611f4b565b505050565b60008060fe6000848152602001908152602001600020600c806020026040519081016040528092919082600c8015611112576020028201915b8154815260200190600101908083116110fe575b5050505050905060005b600c8160ff1610156111945761117285838360ff16600c8110611168577f4e487b7100000000000000000000000000000000000000000000000000000000600052603260045260246000fd5b6020020151612505565b6111815760009250505061119b565b808061118c90614ed1565b91505061111c565b5060019150505b92915050565b60006111ab610c1a565b82106111ec576040517f08c379a00000000000000000000000000000000000000000000000000000000081526004016111e390614ad0565b60405180910390fd5b60998281548110611226577f4e487b7100000000000000000000000000000000000000000000000000000000600052603260045260246000fd5b90600052602060002001549050919050565b611240613b37565b60fe6000838152602001908152602001600020600c806020026040519081016040528092919082600c801561128a576020028201915b815481526020019060010190808311611276575b50505050509050919050565b61129e612444565b73ffffffffffffffffffffffffffffffffffffffff166112bc611ace565b73ffffffffffffffffffffffffffffffffffffffff1614611312576040517f08c379a000000000000000000000000000000000000000000000000000000000815260040161130990614a10565b60405180910390fd5b8060fc60006101000a81548173ffffffffffffffffffffffffffffffffffffffff021916908373ffffffffffffffffffffffffffffffffffffffff16021790555050565b6000806067600084815260200190815260200160002060009054906101000a900473ffffffffffffffffffffffffffffffffffffffff169050600073ffffffffffffffffffffffffffffffffffffffff168173ffffffffffffffffffffffffffffffffffffffff1614156113ff576040517f08c379a00000000000000000000000000000000000000000000000000000000081526004016113f690614930565b60405180910390fd5b80915050919050565b60008073ffffffffffffffffffffffffffffffffffffffff168273ffffffffffffffffffffffffffffffffffffffff161415611479576040517f08c379a000000000000000000000000000000000000000000000000000000000815260040161147090614910565b60405180910390fd5b606860008373ffffffffffffffffffffffffffffffffffffffff1673ffffffffffffffffffffffffffffffffffffffff168152602001908152602001600020549050919050565b6114c8612444565b73ffffffffffffffffffffffffffffffffffffffff166114e6611ace565b73ffffffffffffffffffffffffffffffffffffffff161461153c576040517f08c379a000000000000000000000000000000000000000000000000000000000815260040161153390614a10565b60405180910390fd5b600073ffffffffffffffffffffffffffffffffffffffff1660c960009054906101000a900473ffffffffffffffffffffffffffffffffffffffff1673ffffffffffffffffffffffffffffffffffffffff167f8be0079c531659141344cd1fd0a4f28419497f9722a3daafe3b4186f6b6457e060405160405180910390a3600060c960006101000a81548173ffffffffffffffffffffffffffffffffffffffff021916908373ffffffffffffffffffffffffffffffffffffffff160217905550565b600060fc60009054906101000a900473ffffffffffffffffffffffffffffffffffffffff16905090565b600060019054906101000a900460ff168061164d575060008054906101000a900460ff16155b61168c576040517f08c379a000000000000000000000000000000000000000000000000000000000815260040161168390614950565b60405180910390fd5b60008060019054906101000a900460ff1615905080156116dc576001600060016101000a81548160ff02191690831515021790555060016000806101000a81548160ff0219169083151502179055505b6116e461283f565b6116ec612930565b6117606040518060400160405280600e81526020017f54696d6573686172654d6f6e74680000000000000000000000000000000000008152506040518060400160405280600481526020017f54494d4500000000000000000000000000000000000000000000000000000000815250612a19565b80156117815760008060016101000a81548160ff0219169083151502179055505b50565b600073ffffffffffffffffffffffffffffffffffffffff1660fc60009054906101000a900473ffffffffffffffffffffffffffffffffffffffff1673ffffffffffffffffffffffffffffffffffffffff161415611816576040517f08c379a000000000000000000000000000000000000000000000000000000000815260040161180d90614af0565b60405180910390fd5b60fc60009054906101000a900473ffffffffffffffffffffffffffffffffffffffff1673ffffffffffffffffffffffffffffffffffffffff163373ffffffffffffffffffffffffffffffffffffffff16146118a6576040517f08c379a000000000000000000000000000000000000000000000000000000000815260040161189d906149f0565b60405180910390fd5b600060fe6000838152602001908152602001600020600c806020026040519081016040528092919082600c80156118f2576020028201915b8154815260200190600101908083116118de575b505050505090506000816000600c8110611935577f4e487b7100000000000000000000000000000000000000000000000000000000600052603260045260246000fd5b6020020151141561197b576040517f08c379a000000000000000000000000000000000000000000000000000000000815260040161197290614970565b60405180910390fd5b61198583836110c5565b6119c4576040517f08c379a00000000000000000000000000000000000000000000000000000000081526004016119bb90614a90565b60405180910390fd5b60fe600083815260200190815260200160002060006119e39190613bbe565b60005b600c8160ff161015611a5c5760fd6000838360ff16600c8110611a32577f4e487b7100000000000000000000000000000000000000000000000000000000600052603260045260246000fd5b60200201518152602001908152602001600020600090558080611a5490614ed1565b9150506119e6565b5060005b600c8160ff161015611ac857611ab5828260ff16600c8110611aab577f4e487b7100000000000000000000000000000000000000000000000000000000600052603260045260246000fd5b6020020151612b22565b8080611ac090614ed1565b915050611a60565b50505050565b600060c960009054906101000a900473ffffffffffffffffffffffffffffffffffffffff16905090565b606060668054611b0790614e25565b80601f0160208091040260200160405190810160405280929190818152602001828054611b3390614e25565b8015611b805780601f10611b5557610100808354040283529160200191611b80565b820191906000526020600020905b815481529060010190602001808311611b6357829003601f168201915b5050505050905090565b600060fd6000838152602001908152602001600020549050919050565b6000611bb2826123d8565b611bf1576040517f08c379a0000000000000000000000000000000000000000000000000000000008152600401611be8906149b0565b60405180910390fd5b600060fd60008481526020019081526020016000205490506000811415611c4d576040517f08c379a0000000000000000000000000000000000000000000000000000000008152600401611c44906147d0565b60405180910390fd5b600060fe6000838152602001908152602001600020600c806020026040519081016040528092919082600c8015611c99576020028201915b815481526020019060010190808311611c85575b5050505050905060005b600c8160ff161015611d8c57818160ff16600c8110611ceb577f4e487b7100000000000000000000000000000000000000000000000000000000600052603260045260246000fd5b6020020151851415611d0257809350505050611dc5565b6000828260ff16600c8110611d40577f4e487b7100000000000000000000000000000000000000000000000000000000600052603260045260246000fd5b602002015111611d79577f4e487b7100000000000000000000000000000000000000000000000000000000600052600160045260246000fd5b8080611d8490614ed1565b915050611ca3565b506000611dc2577f4e487b7100000000000000000000000000000000000000000000000000000000600052600160045260246000fd5b50505b919050565b611dd2612444565b73ffffffffffffffffffffffffffffffffffffffff168273ffffffffffffffffffffffffffffffffffffffff161415611e40576040517f08c379a0000000000000000000000000000000000000000000000000000000008152600401611e37906148b0565b60405180910390fd5b80606a6000611e4d612444565b73ffffffffffffffffffffffffffffffffffffffff1673ffffffffffffffffffffffffffffffffffffffff16815260200190815260200160002060008473ffffffffffffffffffffffffffffffffffffffff1673ffffffffffffffffffffffffffffffffffffffff16815260200190815260200160002060006101000a81548160ff0219169083151502179055508173ffffffffffffffffffffffffffffffffffffffff16611efa612444565b73ffffffffffffffffffffffffffffffffffffffff167f17307eab39ab6107e8899845ad3d59bd9653f200f220920489ca2b5937696c3183604051611f3f9190614793565b60405180910390a35050565b611f5c611f56612444565b83612505565b611f9b576040517f08c379a0000000000000000000000000000000000000000000000000000000008152600401611f9290614ab0565b60405180910390fd5b611fa784848484612c33565b50505050565b6060611fb8826123d8565b611ff7576040517f08c379a0000000000000000000000000000000000000000000000000000000008152600401611fee90614a50565b60405180910390fd5b6000612001612c8f565b90506000815111612021576040518060200160405280600081525061204c565b8061202b84612caf565b60405160200161203c9291906146ca565b6040516020818303038152906040525b915050919050565b60606040518060600160405280603981526020016157ed60399139905090565b6000606a60008473ffffffffffffffffffffffffffffffffffffffff1673ffffffffffffffffffffffffffffffffffffffff16815260200190815260200160002060008373ffffffffffffffffffffffffffffffffffffffff1673ffffffffffffffffffffffffffffffffffffffff16815260200190815260200160002060009054906101000a900460ff16905092915050565b612110612444565b73ffffffffffffffffffffffffffffffffffffffff1661212e611ace565b73ffffffffffffffffffffffffffffffffffffffff1614612184576040517f08c379a000000000000000000000000000000000000000000000000000000000815260040161217b90614a10565b60405180910390fd5b600073ffffffffffffffffffffffffffffffffffffffff168173ffffffffffffffffffffffffffffffffffffffff1614156121f4576040517f08c379a00000000000000000000000000000000000000000000000000000000081526004016121eb90614850565b60405180910390fd5b8073ffffffffffffffffffffffffffffffffffffffff1660c960009054906101000a900473ffffffffffffffffffffffffffffffffffffffff1673ffffffffffffffffffffffffffffffffffffffff167f8be0079c531659141344cd1fd0a4f28419497f9722a3daafe3b4186f6b6457e060405160405180910390a38060c960006101000a81548173ffffffffffffffffffffffffffffffffffffffff021916908373ffffffffffffffffffffffffffffffffffffffff16021790555050565b60007f80ac58cd000000000000000000000000000000000000000000000000000000007bffffffffffffffffffffffffffffffffffffffffffffffffffffffff1916827bffffffffffffffffffffffffffffffffffffffffffffffffffffffff1916148061237f57507f5b5e139f000000000000000000000000000000000000000000000000000000007bffffffffffffffffffffffffffffffffffffffffffffffffffffffff1916827bffffffffffffffffffffffffffffffffffffffffffffffffffffffff1916145b8061238f575061238e82612e5c565b5b9050919050565b6001816000016000828254019250508190555050565b600081600001549050919050565b6123d4828260405180602001604052806000815250612ec6565b5050565b60008073ffffffffffffffffffffffffffffffffffffffff166067600084815260200190815260200160002060009054906101000a900473ffffffffffffffffffffffffffffffffffffffff1673ffffffffffffffffffffffffffffffffffffffff1614159050919050565b600033905090565b816069600083815260200190815260200160002060006101000a81548173ffffffffffffffffffffffffffffffffffffffff021916908373ffffffffffffffffffffffffffffffffffffffff160217905550808273ffffffffffffffffffffffffffffffffffffffff166124bf83611356565b73ffffffffffffffffffffffffffffffffffffffff167f8c5be1e5ebec7d5bd14f71427d1e84f3dd0314c0f7b2291e5b200ac8c7c3b92560405160405180910390a45050565b6000612510826123d8565b61254f576040517f08c379a0000000000000000000000000000000000000000000000000000000008152600401612546906148d0565b60405180910390fd5b600061255a83611356565b90508073ffffffffffffffffffffffffffffffffffffffff168473ffffffffffffffffffffffffffffffffffffffff1614806125c957508373ffffffffffffffffffffffffffffffffffffffff166125b184610a7d565b73ffffffffffffffffffffffffffffffffffffffff16145b806125da57506125d98185612074565b5b91505092915050565b8273ffffffffffffffffffffffffffffffffffffffff1661260382611356565b73ffffffffffffffffffffffffffffffffffffffff1614612659576040517f08c379a000000000000000000000000000000000000000000000000000000000815260040161265090614a30565b60405180910390fd5b600073ffffffffffffffffffffffffffffffffffffffff168273ffffffffffffffffffffffffffffffffffffffff1614156126c9576040517f08c379a00000000000000000000000000000000000000000000000000000000081526004016126c090614890565b60405180910390fd5b6126d4838383612f21565b6126df60008261244c565b6001606860008573ffffffffffffffffffffffffffffffffffffffff1673ffffffffffffffffffffffffffffffffffffffff168152602001908152602001600020600082825461272f9190614d2e565b925050819055506001606860008473ffffffffffffffffffffffffffffffffffffffff1673ffffffffffffffffffffffffffffffffffffffff16815260200190815260200160002060008282546127869190614ca7565b92505081905550816067600083815260200190815260200160002060006101000a81548173ffffffffffffffffffffffffffffffffffffffff021916908373ffffffffffffffffffffffffffffffffffffffff160217905550808273ffffffffffffffffffffffffffffffffffffffff168473ffffffffffffffffffffffffffffffffffffffff167fddf252ad1be2c89b69c2b068fc378daa952ba7f163c4a11628f55a4df523b3ef60405160405180910390a4505050565b600060019054906101000a900460ff1680612865575060008054906101000a900460ff16155b6128a4576040517f08c379a000000000000000000000000000000000000000000000000000000000815260040161289b90614950565b60405180910390fd5b60008060019054906101000a900460ff1615905080156128f4576001600060016101000a81548160ff02191690831515021790555060016000806101000a81548160ff0219169083151502179055505b6128fc613035565b61290461310e565b61290c6131e7565b801561292d5760008060016101000a81548160ff0219169083151502179055505b50565b600060019054906101000a900460ff1680612956575060008054906101000a900460ff16155b612995576040517f08c379a000000000000000000000000000000000000000000000000000000000815260040161298c90614950565b60405180910390fd5b60008060019054906101000a900460ff1615905080156129e5576001600060016101000a81548160ff02191690831515021790555060016000806101000a81548160ff0219169083151502179055505b6129ed613035565b6129f56132c0565b8015612a165760008060016101000a81548160ff0219169083151502179055505b50565b600060019054906101000a900460ff1680612a3f575060008054906101000a900460ff16155b612a7e576040517f08c379a0000000000000000000000000000000000000000000000000000000008152600401612a7590614950565b60405180910390fd5b60008060019054906101000a900460ff161590508015612ace576001600060016101000a81548160ff02191690831515021790555060016000806101000a81548160ff0219169083151502179055505b8260659080519060200190612ae4929190613bd1565b508160669080519060200190612afb929190613bd1565b508015612b1d5760008060016101000a81548160ff0219169083151502179055505b505050565b6000612b2d82611356565b9050612b3b81600084612f21565b612b4660008361244c565b6001606860008373ffffffffffffffffffffffffffffffffffffffff1673ffffffffffffffffffffffffffffffffffffffff1681526020019081526020016000206000828254612b969190614d2e565b925050819055506067600083815260200190815260200160002060006101000a81549073ffffffffffffffffffffffffffffffffffffffff021916905581600073ffffffffffffffffffffffffffffffffffffffff168273ffffffffffffffffffffffffffffffffffffffff167fddf252ad1be2c89b69c2b068fc378daa952ba7f163c4a11628f55a4df523b3ef60405160405180910390a45050565b612c3e8484846125e3565b612c4a84848484613442565b612c89576040517f08c379a0000000000000000000000000000000000000000000000000000000008152600401612c8090614830565b60405180910390fd5b50505050565b60606040518060600160405280602b8152602001615826602b9139905090565b60606000821415612cf7576040518060400160405280600181526020017f30000000000000000000000000000000000000000000000000000000000000008152509050612e57565b600082905060005b60008214612d29578080612d1290614e88565b915050600a82612d229190614cfd565b9150612cff565b60008167ffffffffffffffff811115612d6b577f4e487b7100000000000000000000000000000000000000000000000000000000600052604160045260246000fd5b6040519080825280601f01601f191660200182016040528015612d9d5781602001600182028036833780820191505090505b5090505b60008514612e5057600182612db69190614d2e565b9150600a85612dc59190614efb565b6030612dd19190614ca7565b60f81b818381518110612e0d577f4e487b7100000000000000000000000000000000000000000000000000000000600052603260045260246000fd5b60200101907effffffffffffffffffffffffffffffffffffffffffffffffffffffffffffff1916908160001a905350600a85612e499190614cfd565b9450612da1565b8093505050505b919050565b60007f01ffc9a7000000000000000000000000000000000000000000000000000000007bffffffffffffffffffffffffffffffffffffffffffffffffffffffff1916827bffffffffffffffffffffffffffffffffffffffffffffffffffffffff1916149050919050565b612ed083836135d9565b612edd6000848484613442565b612f1c576040517f08c379a0000000000000000000000000000000000000000000000000000000008152600401612f1390614830565b60405180910390fd5b505050565b612f2c8383836137a7565b600073ffffffffffffffffffffffffffffffffffffffff168373ffffffffffffffffffffffffffffffffffffffff161415612f6f57612f6a816137ac565b612fae565b8173ffffffffffffffffffffffffffffffffffffffff168373ffffffffffffffffffffffffffffffffffffffff1614612fad57612fac83826137f5565b5b5b600073ffffffffffffffffffffffffffffffffffffffff168273ffffffffffffffffffffffffffffffffffffffff161415612ff157612fec81613962565b613030565b8273ffffffffffffffffffffffffffffffffffffffff168273ffffffffffffffffffffffffffffffffffffffff161461302f5761302e8282613aa5565b5b5b505050565b600060019054906101000a900460ff168061305b575060008054906101000a900460ff16155b61309a576040517f08c379a000000000000000000000000000000000000000000000000000000000815260040161309190614950565b60405180910390fd5b60008060019054906101000a900460ff1615905080156130ea576001600060016101000a81548160ff02191690831515021790555060016000806101000a81548160ff0219169083151502179055505b801561310b5760008060016101000a81548160ff0219169083151502179055505b50565b600060019054906101000a900460ff1680613134575060008054906101000a900460ff16155b613173576040517f08c379a000000000000000000000000000000000000000000000000000000000815260040161316a90614950565b60405180910390fd5b60008060019054906101000a900460ff1615905080156131c3576001600060016101000a81548160ff02191690831515021790555060016000806101000a81548160ff0219169083151502179055505b80156131e45760008060016101000a81548160ff0219169083151502179055505b50565b600060019054906101000a900460ff168061320d575060008054906101000a900460ff16155b61324c576040517f08c379a000000000000000000000000000000000000000000000000000000000815260040161324390614950565b60405180910390fd5b60008060019054906101000a900460ff16159050801561329c576001600060016101000a81548160ff02191690831515021790555060016000806101000a81548160ff0219169083151502179055505b80156132bd5760008060016101000a81548160ff0219169083151502179055505b50565b600060019054906101000a900460ff16806132e6575060008054906101000a900460ff16155b613325576040517f08c379a000000000000000000000000000000000000000000000000000000000815260040161331c90614950565b60405180910390fd5b60008060019054906101000a900460ff161590508015613375576001600060016101000a81548160ff02191690831515021790555060016000806101000a81548160ff0219169083151502179055505b600061337f612444565b90508060c960006101000a81548173ffffffffffffffffffffffffffffffffffffffff021916908373ffffffffffffffffffffffffffffffffffffffff1602179055508073ffffffffffffffffffffffffffffffffffffffff16600073ffffffffffffffffffffffffffffffffffffffff167f8be0079c531659141344cd1fd0a4f28419497f9722a3daafe3b4186f6b6457e060405160405180910390a350801561343f5760008060016101000a81548160ff0219169083151502179055505b50565b60006134638473ffffffffffffffffffffffffffffffffffffffff16613b24565b156135cc578373ffffffffffffffffffffffffffffffffffffffff1663150b7a0261348c612444565b8786866040518563ffffffff1660e01b81526004016134ae9493929190614709565b602060405180830381600087803b1580156134c857600080fd5b505af19250505080156134f957506040513d601f19601f820116820180604052508101906134f69190613fcc565b60015b61357c573d8060008114613529576040519150601f19603f3d011682016040523d82523d6000602084013e61352e565b606091505b50600081511415613574576040517f08c379a000000000000000000000000000000000000000000000000000000000815260040161356b90614830565b60405180910390fd5b805181602001fd5b63150b7a0260e01b7bffffffffffffffffffffffffffffffffffffffffffffffffffffffff1916817bffffffffffffffffffffffffffffffffffffffffffffffffffffffff1916149150506135d1565b600190505b949350505050565b600073ffffffffffffffffffffffffffffffffffffffff168273ffffffffffffffffffffffffffffffffffffffff161415613649576040517f08c379a000000000000000000000000000000000000000000000000000000000815260040161364090614990565b60405180910390fd5b613652816123d8565b15613692576040517f08c379a000000000000000000000000000000000000000000000000000000000815260040161368990614870565b60405180910390fd5b61369e60008383612f21565b6001606860008473ffffffffffffffffffffffffffffffffffffffff1673ffffffffffffffffffffffffffffffffffffffff16815260200190815260200160002060008282546136ee9190614ca7565b92505081905550816067600083815260200190815260200160002060006101000a81548173ffffffffffffffffffffffffffffffffffffffff021916908373ffffffffffffffffffffffffffffffffffffffff160217905550808273ffffffffffffffffffffffffffffffffffffffff16600073ffffffffffffffffffffffffffffffffffffffff167fddf252ad1be2c89b69c2b068fc378daa952ba7f163c4a11628f55a4df523b3ef60405160405180910390a45050565b505050565b609980549050609a600083815260200190815260200160002081905550609981908060018154018082558091505060019003906000526020600020016000909190919091505550565b6000600161380284611408565b61380c9190614d2e565b90506000609860008481526020019081526020016000205490508181146138f1576000609760008673ffffffffffffffffffffffffffffffffffffffff1673ffffffffffffffffffffffffffffffffffffffff168152602001908152602001600020600084815260200190815260200160002054905080609760008773ffffffffffffffffffffffffffffffffffffffff1673ffffffffffffffffffffffffffffffffffffffff168152602001908152602001600020600084815260200190815260200160002081905550816098600083815260200190815260200160002081905550505b6098600084815260200190815260200160002060009055609760008573ffffffffffffffffffffffffffffffffffffffff1673ffffffffffffffffffffffffffffffffffffffff16815260200190815260200160002060008381526020019081526020016000206000905550505050565b600060016099805490506139769190614d2e565b90506000609a60008481526020019081526020016000205490506000609983815481106139cc577f4e487b7100000000000000000000000000000000000000000000000000000000600052603260045260246000fd5b906000526020600020015490508060998381548110613a14577f4e487b7100000000000000000000000000000000000000000000000000000000600052603260045260246000fd5b906000526020600020018190555081609a600083815260200190815260200160002081905550609a6000858152602001908152602001600020600090556099805480613a89577f4e487b7100000000000000000000000000000000000000000000000000000000600052603160045260246000fd5b6001900381819060005260206000200160009055905550505050565b6000613ab083611408565b905081609760008573ffffffffffffffffffffffffffffffffffffffff1673ffffffffffffffffffffffffffffffffffffffff168152602001908152602001600020600083815260200190815260200160002081905550806098600084815260200190815260200160002081905550505050565b600080823b905060008111915050919050565b604051806101800160405280600c90602082028036833780820191505090505090565b82600c8101928215613b89579160200282015b82811115613b88578251825591602001919060010190613b6d565b5b509050613b969190613c57565b5090565b604051806060016040528060008152602001600060ff168152602001606081525090565b5080600c0190613bce9190613c57565b50565b828054613bdd90614e25565b90600052602060002090601f016020900481019282613bff5760008555613c46565b82601f10613c1857805160ff1916838001178555613c46565b82800160010185558215613c46579182015b82811115613c45578251825591602001919060010190613c2a565b5b509050613c539190613c57565b5090565b5b80821115613c70576000816000905550600101613c58565b5090565b6000613c87613c8284614b8b565b614b66565b905082815260208101848484011115613c9f57600080fd5b613caa848285614de3565b509392505050565b6000613cc5613cc084614bbc565b614b66565b905082815260208101848484011115613cdd57600080fd5b613ce8848285614df2565b509392505050565b600081359050613cff81615790565b92915050565b600081359050613d14816157a7565b92915050565b600081359050613d29816157be565b92915050565b600081519050613d3e816157be565b92915050565b600082601f830112613d5557600080fd5b8135613d65848260208601613c74565b91505092915050565b600082601f830112613d7f57600080fd5b8151613d8f848260208601613cb2565b91505092915050565b600081359050613da7816157d5565b92915050565b600060208284031215613dbf57600080fd5b6000613dcd84828501613cf0565b91505092915050565b60008060408385031215613de957600080fd5b6000613df785828601613cf0565b9250506020613e0885828601613cf0565b9150509250929050565b600080600060608486031215613e2757600080fd5b6000613e3586828701613cf0565b9350506020613e4686828701613cf0565b9250506040613e5786828701613d98565b9150509250925092565b60008060008060808587031215613e7757600080fd5b6000613e8587828801613cf0565b9450506020613e9687828801613cf0565b9350506040613ea787828801613d98565b925050606085013567ffffffffffffffff811115613ec457600080fd5b613ed087828801613d44565b91505092959194509250565b60008060408385031215613eef57600080fd5b6000613efd85828601613cf0565b9250506020613f0e85828601613d05565b9150509250929050565b60008060408385031215613f2b57600080fd5b6000613f3985828601613cf0565b9250506020613f4a85828601613d98565b9150509250929050565b600080600060608486031215613f6957600080fd5b6000613f7786828701613cf0565b9350506020613f8886828701613d98565b9250506040613f9986828701613d98565b9150509250925092565b600060208284031215613fb557600080fd5b6000613fc384828501613d1a565b91505092915050565b600060208284031215613fde57600080fd5b6000613fec84828501613d2f565b91505092915050565b60006020828403121561400757600080fd5b600082015167ffffffffffffffff81111561402157600080fd5b61402d84828501613d6e565b91505092915050565b60006020828403121561404857600080fd5b600061405684828501613d98565b91505092915050565b6000806040838503121561407257600080fd5b600061408085828601613d98565b925050602061409185828601613cf0565b9150509250929050565b60006140a7838361463e565b905092915050565b60006140bb838361468e565b60208301905092915050565b6140d081614d62565b82525050565b60006140e182614c07565b6140eb8185614c4d565b9350836020820285016140fd85614bed565b8060005b85811015614139578484038952815161411a858261409b565b945061412583614c33565b925060208a01995050600181019050614101565b50829750879550505050505092915050565b61415481614c12565b61415e8184614c5e565b925061416982614bfd565b8060005b8381101561419a57815161418187826140af565b965061418c83614c40565b92505060018101905061416d565b505050505050565b6141ab81614d74565b82525050565b60006141bc82614c1d565b6141c68185614c69565b93506141d6818560208601614df2565b6141df81614fe8565b840191505092915050565b60006141f582614c28565b6141ff8185614c7a565b935061420f818560208601614df2565b61421881614fe8565b840191505092915050565b600061422e82614c28565b6142388185614c8b565b9350614248818560208601614df2565b61425181614fe8565b840191505092915050565b600061426782614c28565b6142718185614c9c565b9350614281818560208601614df2565b80840191505092915050565b600061429a601383614c8b565b91506142a582614ff9565b602082019050919050565b60006142bd603d83614c8b565b91506142c882615022565b604082019050919050565b60006142e0602b83614c8b565b91506142eb82615071565b604082019050919050565b6000614303603283614c8b565b915061430e826150c0565b604082019050919050565b6000614326602683614c8b565b91506143318261510f565b604082019050919050565b6000614349601c83614c8b565b91506143548261515e565b602082019050919050565b600061436c602483614c8b565b915061437782615187565b604082019050919050565b600061438f601983614c8b565b915061439a826151d6565b602082019050919050565b60006143b2602c83614c8b565b91506143bd826151ff565b604082019050919050565b60006143d5603883614c8b565b91506143e08261524e565b604082019050919050565b60006143f8602a83614c8b565b91506144038261529d565b604082019050919050565b600061441b602983614c8b565b9150614426826152ec565b604082019050919050565b600061443e602e83614c8b565b91506144498261533b565b604082019050919050565b6000614461602683614c8b565b915061446c8261538a565b604082019050919050565b6000614484602083614c8b565b915061448f826153d9565b602082019050919050565b60006144a7602183614c8b565b91506144b282615402565b604082019050919050565b60006144ca602c83614c8b565b91506144d582615451565b604082019050919050565b60006144ed602f83614c8b565b91506144f8826154a0565b604082019050919050565b6000614510602083614c8b565b915061451b826154ef565b602082019050919050565b6000614533602983614c8b565b915061453e82615518565b604082019050919050565b6000614556602f83614c8b565b915061456182615567565b604082019050919050565b6000614579602183614c8b565b9150614584826155b6565b604082019050919050565b600061459c603083614c8b565b91506145a782615605565b604082019050919050565b60006145bf603183614c8b565b91506145ca82615654565b604082019050919050565b60006145e2602c83614c8b565b91506145ed826156a3565b604082019050919050565b6000614605602d83614c8b565b9150614610826156f2565b604082019050919050565b6000614628603b83614c8b565b915061463382615741565b604082019050919050565b6000606083016000830151614656600086018261468e565b50602083015161466960208601826146ac565b506040830151848203604086015261468182826141ea565b9150508091505092915050565b61469781614dcc565b82525050565b6146a681614dcc565b82525050565b6146b581614dd6565b82525050565b6146c481614dd6565b82525050565b60006146d6828561425c565b91506146e2828461425c565b91508190509392505050565b600060208201905061470360008301846140c7565b92915050565b600060808201905061471e60008301876140c7565b61472b60208301866140c7565b614738604083018561469d565b818103606083015261474a81846141b1565b905095945050505050565b6000602082019050818103600083015261476f81846140d6565b905092915050565b60006101808201905061478d600083018461414b565b92915050565b60006020820190506147a860008301846141a2565b92915050565b600060208201905081810360008301526147c88184614223565b905092915050565b600060208201905081810360008301526147e98161428d565b9050919050565b60006020820190508181036000830152614809816142b0565b9050919050565b60006020820190508181036000830152614829816142d3565b9050919050565b60006020820190508181036000830152614849816142f6565b9050919050565b6000602082019050818103600083015261486981614319565b9050919050565b600060208201905081810360008301526148898161433c565b9050919050565b600060208201905081810360008301526148a98161435f565b9050919050565b600060208201905081810360008301526148c981614382565b9050919050565b600060208201905081810360008301526148e9816143a5565b9050919050565b60006020820190508181036000830152614909816143c8565b9050919050565b60006020820190508181036000830152614929816143eb565b9050919050565b600060208201905081810360008301526149498161440e565b9050919050565b6000602082019050818103600083015261496981614431565b9050919050565b6000602082019050818103600083015261498981614454565b9050919050565b600060208201905081810360008301526149a981614477565b9050919050565b600060208201905081810360008301526149c98161449a565b9050919050565b600060208201905081810360008301526149e9816144bd565b9050919050565b60006020820190508181036000830152614a09816144e0565b9050919050565b60006020820190508181036000830152614a2981614503565b9050919050565b60006020820190508181036000830152614a4981614526565b9050919050565b60006020820190508181036000830152614a6981614549565b9050919050565b60006020820190508181036000830152614a898161456c565b9050919050565b60006020820190508181036000830152614aa98161458f565b9050919050565b60006020820190508181036000830152614ac9816145b2565b9050919050565b60006020820190508181036000830152614ae9816145d5565b9050919050565b60006020820190508181036000830152614b09816145f8565b9050919050565b60006020820190508181036000830152614b298161461b565b9050919050565b6000602082019050614b45600083018461469d565b92915050565b6000602082019050614b6060008301846146bb565b92915050565b6000614b70614b81565b9050614b7c8282614e57565b919050565b6000604051905090565b600067ffffffffffffffff821115614ba657614ba5614fb9565b5b614baf82614fe8565b9050602081019050919050565b600067ffffffffffffffff821115614bd757614bd6614fb9565b5b614be082614fe8565b9050602081019050919050565b6000819050602082019050919050565b6000819050919050565b600081519050919050565b6000600c9050919050565b600081519050919050565b600081519050919050565b6000602082019050919050565b6000602082019050919050565b600082825260208201905092915050565b600081905092915050565b600082825260208201905092915050565b600082825260208201905092915050565b600082825260208201905092915050565b600081905092915050565b6000614cb282614dcc565b9150614cbd83614dcc565b9250827fffffffffffffffffffffffffffffffffffffffffffffffffffffffffffffffff03821115614cf257614cf1614f2c565b5b828201905092915050565b6000614d0882614dcc565b9150614d1383614dcc565b925082614d2357614d22614f5b565b5b828204905092915050565b6000614d3982614dcc565b9150614d4483614dcc565b925082821015614d5757614d56614f2c565b5b828203905092915050565b6000614d6d82614dac565b9050919050565b60008115159050919050565b60007fffffffff0000000000000000000000000000000000000000000000000000000082169050919050565b600073ffffffffffffffffffffffffffffffffffffffff82169050919050565b6000819050919050565b600060ff82169050919050565b82818337600083830152505050565b60005b83811015614e10578082015181840152602081019050614df5565b83811115614e1f576000848401525b50505050565b60006002820490506001821680614e3d57607f821691505b60208210811415614e5157614e50614f8a565b5b50919050565b614e6082614fe8565b810181811067ffffffffffffffff82111715614e7f57614e7e614fb9565b5b80604052505050565b6000614e9382614dcc565b91507fffffffffffffffffffffffffffffffffffffffffffffffffffffffffffffffff821415614ec657614ec5614f2c565b5b600182019050919050565b6000614edc82614dd6565b915060ff821415614ef057614eef614f2c565b5b600182019050919050565b6000614f0682614dcc565b9150614f1183614dcc565b925082614f2157614f20614f5b565b5b828206905092915050565b7f4e487b7100000000000000000000000000000000000000000000000000000000600052601160045260246000fd5b7f4e487b7100000000000000000000000000000000000000000000000000000000600052601260045260246000fd5b7f4e487b7100000000000000000000000000000000000000000000000000000000600052602260045260246000fd5b7f4e487b7100000000000000000000000000000000000000000000000000000000600052604160045260246000fd5b6000601f19601f8301169050919050565b7f546f6b656e20646f65736e277420657869737400000000000000000000000000600082015250565b7f4f6e6c792074686520706172656e74204e4654696d65736861726520636f6e7460008201527f726163742063616e206d696e742054696d6573686172654d6f6e746873000000602082015250565b7f455243373231456e756d657261626c653a206f776e657220696e646578206f7560008201527f74206f6620626f756e6473000000000000000000000000000000000000000000602082015250565b7f4552433732313a207472616e7366657220746f206e6f6e20455243373231526560008201527f63656976657220696d706c656d656e7465720000000000000000000000000000602082015250565b7f4f776e61626c653a206e6577206f776e657220697320746865207a65726f206160008201527f6464726573730000000000000000000000000000000000000000000000000000602082015250565b7f4552433732313a20746f6b656e20616c7265616479206d696e74656400000000600082015250565b7f4552433732313a207472616e7366657220746f20746865207a65726f2061646460008201527f7265737300000000000000000000000000000000000000000000000000000000602082015250565b7f4552433732313a20617070726f766520746f2063616c6c657200000000000000600082015250565b7f4552433732313a206f70657261746f7220717565727920666f72206e6f6e657860008201527f697374656e7420746f6b656e0000000000000000000000000000000000000000602082015250565b7f4552433732313a20617070726f76652063616c6c6572206973206e6f74206f7760008201527f6e6572206e6f7220617070726f76656420666f7220616c6c0000000000000000602082015250565b7f4552433732313a2062616c616e636520717565727920666f7220746865207a6560008201527f726f206164647265737300000000000000000000000000000000000000000000602082015250565b7f4552433732313a206f776e657220717565727920666f72206e6f6e657869737460008201527f656e7420746f6b656e0000000000000000000000000000000000000000000000602082015250565b7f496e697469616c697a61626c653a20636f6e747261637420697320616c72656160008201527f647920696e697469616c697a6564000000000000000000000000000000000000602082015250565b7f4e6f2054696d6573686172654d6f6e74687320746f206275726e20666f72207460008201527f6f6b656e49640000000000000000000000000000000000000000000000000000602082015250565b7f4552433732313a206d696e7420746f20746865207a65726f2061646472657373600082015250565b7f6d6f6e746820717565727920666f72206e6f6e6578697374656e7420746f6b6560008201527f6e00000000000000000000000000000000000000000000000000000000000000602082015250565b7f4552433732313a20617070726f76656420717565727920666f72206e6f6e657860008201527f697374656e7420746f6b656e0000000000000000000000000000000000000000602082015250565b7f46756e6374696f6e2063616e206f6e6c792062652063616c6c6564206279207060008201527f6172656e742054696d6573686172650000000000000000000000000000000000602082015250565b7f4f776e61626c653a2063616c6c6572206973206e6f7420746865206f776e6572600082015250565b7f4552433732313a207472616e73666572206f6620746f6b656e2074686174206960008201527f73206e6f74206f776e0000000000000000000000000000000000000000000000602082015250565b7f4552433732314d657461646174613a2055524920717565727920666f72206e6f60008201527f6e6578697374656e7420746f6b656e0000000000000000000000000000000000602082015250565b7f4552433732313a20617070726f76616c20746f2063757272656e74206f776e6560008201527f7200000000000000000000000000000000000000000000000000000000000000602082015250565b7f52656465656d3a2053656e6465722063616e2774206f70657261746520616c6c60008201527f2054696d6573686172654d6f6e74687300000000000000000000000000000000602082015250565b7f4552433732313a207472616e736665722063616c6c6572206973206e6f74206f60008201527f776e6572206e6f7220617070726f766564000000000000000000000000000000602082015250565b7f455243373231456e756d657261626c653a20676c6f62616c20696e646578206f60008201527f7574206f6620626f756e64730000000000000000000000000000000000000000602082015250565b7f4e4654696d65736861726520636f6e747261637420616464726573732068617360008201527f206e6f74206265656e2073657400000000000000000000000000000000000000602082015250565b7f54696d6573686172654d6f6e746820746f6b656e5552493a2054696d6573686160008201527f726520636f6e7472616374206861736e2774206265656e207365740000000000602082015250565b61579981614d62565b81146157a457600080fd5b50565b6157b081614d74565b81146157bb57600080fd5b50565b6157c781614d80565b81146157d257600080fd5b50565b6157de81614dcc565b81146157e957600080fd5b5056fe687474703a2f2f7777772e6e6674696d657368617265732e66756e2f74696d6573686172656d6f6e746870726f6a6563746d65746164617461687474703a2f2f7777772e6e6674696d657368617265732e66756e2f74696d6573686172656d6f6e74682fa26469706673582212209548a2561c2bbac3213a148f5bf4b470856260ce25078b37034f8f1f03409d1e64736f6c63430008040033",
  "linkReferences": {},
  "deployedLinkReferences": {}
}