{
  "_format": "hh-sol-artifact-1",
  "contractName": "NFTimeshare",
  "sourceName": "contracts/NFTimeshare.sol",
  "abi": [
    {
      "inputs": [],
      "stateMutability": "nonpayable",
      "type": "constructor"
    },
    {
      "anonymous": false,
      "inputs": [
        {
          "indexed": true,
          "internalType": "address",
          "name": "owner",
          "type": "address"
        },
        {
          "indexed": true,
          "internalType": "address",
          "name": "approved",
          "type": "address"
        },
        {
          "indexed": true,
          "internalType": "uint256",
          "name": "tokenId",
          "type": "uint256"
        }
      ],
      "name": "Approval",
      "type": "event"
    },
    {
      "anonymous": false,
      "inputs": [
        {
          "indexed": true,
          "internalType": "address",
          "name": "owner",
          "type": "address"
        },
        {
          "indexed": true,
          "internalType": "address",
          "name": "operator",
          "type": "address"
        },
        {
          "indexed": false,
          "internalType": "bool",
          "name": "approved",
          "type": "bool"
        }
      ],
      "name": "ApprovalForAll",
      "type": "event"
    },
    {
      "anonymous": false,
      "inputs": [
        {
          "indexed": true,
          "internalType": "address",
          "name": "holder",
          "type": "address"
        },
        {
          "indexed": true,
          "internalType": "address",
          "name": "sender",
          "type": "address"
        },
        {
          "indexed": true,
          "internalType": "address",
          "name": "recipient",
          "type": "address"
        },
        {
          "indexed": false,
          "internalType": "address",
          "name": "wrapped_contract",
          "type": "address"
        },
        {
          "indexed": false,
          "internalType": "uint256",
          "name": "wrapped_tokenId",
          "type": "uint256"
        },
        {
          "indexed": false,
          "internalType": "uint256",
          "name": "timeshareTokenId",
          "type": "uint256"
        }
      ],
      "name": "Deposit",
      "type": "event"
    },
    {
      "anonymous": false,
      "inputs": [
        {
          "indexed": true,
          "internalType": "address",
          "name": "previousOwner",
          "type": "address"
        },
        {
          "indexed": true,
          "internalType": "address",
          "name": "newOwner",
          "type": "address"
        }
      ],
      "name": "OwnershipTransferred",
      "type": "event"
    },
    {
      "anonymous": false,
      "inputs": [
        {
          "indexed": true,
          "internalType": "address",
          "name": "sender",
          "type": "address"
        },
        {
          "indexed": true,
          "internalType": "address",
          "name": "recipient",
          "type": "address"
        },
        {
          "indexed": false,
          "internalType": "address",
          "name": "unwrapped_contract",
          "type": "address"
        },
        {
          "indexed": false,
          "internalType": "uint256",
          "name": "unwrapped_tokenId",
          "type": "uint256"
        },
        {
          "indexed": false,
          "internalType": "uint256",
          "name": "timeshareTokenId",
          "type": "uint256"
        }
      ],
      "name": "Redeem",
      "type": "event"
    },
    {
      "anonymous": false,
      "inputs": [
        {
          "indexed": true,
          "internalType": "address",
          "name": "from",
          "type": "address"
        },
        {
          "indexed": true,
          "internalType": "address",
          "name": "to",
          "type": "address"
        },
        {
          "indexed": true,
          "internalType": "uint256",
          "name": "tokenId",
          "type": "uint256"
        }
      ],
      "name": "Transfer",
      "type": "event"
    },
    {
      "inputs": [
        {
          "internalType": "address",
          "name": "to",
          "type": "address"
        },
        {
          "internalType": "uint256",
          "name": "tokenId",
          "type": "uint256"
        }
      ],
      "name": "approve",
      "outputs": [],
      "stateMutability": "nonpayable",
      "type": "function"
    },
    {
      "inputs": [
        {
          "internalType": "address",
          "name": "owner",
          "type": "address"
        }
      ],
      "name": "balanceOf",
      "outputs": [
        {
          "internalType": "uint256",
          "name": "",
          "type": "uint256"
        }
      ],
      "stateMutability": "view",
      "type": "function"
    },
    {
      "inputs": [
        {
          "internalType": "address",
          "name": "_underlying",
          "type": "address"
        },
        {
          "internalType": "uint256",
          "name": "_underlyingTokenId",
          "type": "uint256"
        },
        {
          "internalType": "address",
          "name": "_from",
          "type": "address"
        },
        {
          "internalType": "address",
          "name": "_to",
          "type": "address"
        }
      ],
      "name": "deposit",
      "outputs": [],
      "stateMutability": "nonpayable",
      "type": "function"
    },
    {
      "inputs": [
        {
          "internalType": "uint256",
          "name": "tokenId",
          "type": "uint256"
        }
      ],
      "name": "getApproved",
      "outputs": [
        {
          "internalType": "address",
          "name": "",
          "type": "address"
        }
      ],
      "stateMutability": "view",
      "type": "function"
    },
    {
      "inputs": [],
      "name": "getNFTimeshareMonthAddress",
      "outputs": [
        {
          "internalType": "address",
          "name": "",
          "type": "address"
        }
      ],
      "stateMutability": "view",
      "type": "function"
    },
    {
      "inputs": [
        {
          "internalType": "address",
          "name": "addr",
          "type": "address"
        },
        {
          "internalType": "uint256",
          "name": "externalTokenId",
          "type": "uint256"
        }
      ],
      "name": "getTokenIdForUnderlyingNFT",
      "outputs": [
        {
          "internalType": "uint256",
          "name": "",
          "type": "uint256"
        }
      ],
      "stateMutability": "view",
      "type": "function"
    },
    {
      "inputs": [
        {
          "internalType": "uint256",
          "name": "tokenId",
          "type": "uint256"
        }
      ],
      "name": "getWrappedNFT",
      "outputs": [
        {
          "internalType": "address",
          "name": "",
          "type": "address"
        },
        {
          "internalType": "uint256",
          "name": "",
          "type": "uint256"
        }
      ],
      "stateMutability": "view",
      "type": "function"
    },
    {
      "inputs": [
        {
          "internalType": "address",
          "name": "owner",
          "type": "address"
        },
        {
          "internalType": "address",
          "name": "operator",
          "type": "address"
        }
      ],
      "name": "isApprovedForAll",
      "outputs": [
        {
          "internalType": "bool",
          "name": "",
          "type": "bool"
        }
      ],
      "stateMutability": "view",
      "type": "function"
    },
    {
      "inputs": [],
      "name": "name",
      "outputs": [
        {
          "internalType": "string",
          "name": "",
          "type": "string"
        }
      ],
      "stateMutability": "view",
      "type": "function"
    },
    {
      "inputs": [
        {
          "internalType": "address",
          "name": "",
          "type": "address"
        },
        {
          "internalType": "address",
          "name": "",
          "type": "address"
        },
        {
          "internalType": "uint256",
          "name": "",
          "type": "uint256"
        },
        {
          "internalType": "bytes",
          "name": "",
          "type": "bytes"
        }
      ],
      "name": "onERC721Received",
      "outputs": [
        {
          "internalType": "bytes4",
          "name": "",
          "type": "bytes4"
        }
      ],
      "stateMutability": "nonpayable",
      "type": "function"
    },
    {
      "inputs": [],
      "name": "owner",
      "outputs": [
        {
          "internalType": "address",
          "name": "",
          "type": "address"
        }
      ],
      "stateMutability": "view",
      "type": "function"
    },
    {
      "inputs": [
        {
          "internalType": "uint256",
          "name": "tokenId",
          "type": "uint256"
        }
      ],
      "name": "ownerOf",
      "outputs": [
        {
          "internalType": "address",
          "name": "",
          "type": "address"
        }
      ],
      "stateMutability": "view",
      "type": "function"
    },
    {
      "inputs": [
        {
          "internalType": "uint256",
          "name": "tokenId",
          "type": "uint256"
        },
        {
          "internalType": "address",
          "name": "_to",
          "type": "address"
        }
      ],
      "name": "redeem",
      "outputs": [],
      "stateMutability": "nonpayable",
      "type": "function"
    },
    {
      "inputs": [],
      "name": "renounceOwnership",
      "outputs": [],
      "stateMutability": "nonpayable",
      "type": "function"
    },
    {
      "inputs": [
        {
          "internalType": "address",
          "name": "from",
          "type": "address"
        },
        {
          "internalType": "address",
          "name": "to",
          "type": "address"
        },
        {
          "internalType": "uint256",
          "name": "tokenId",
          "type": "uint256"
        }
      ],
      "name": "safeTransferFrom",
      "outputs": [],
      "stateMutability": "nonpayable",
      "type": "function"
    },
    {
      "inputs": [
        {
          "internalType": "address",
          "name": "from",
          "type": "address"
        },
        {
          "internalType": "address",
          "name": "to",
          "type": "address"
        },
        {
          "internalType": "uint256",
          "name": "tokenId",
          "type": "uint256"
        },
        {
          "internalType": "bytes",
          "name": "data",
          "type": "bytes"
        }
      ],
      "name": "safeTransferFrom",
      "outputs": [],
      "stateMutability": "nonpayable",
      "type": "function"
    },
    {
      "inputs": [
        {
          "internalType": "address",
          "name": "operator",
          "type": "address"
        },
        {
          "internalType": "bool",
          "name": "_approved",
          "type": "bool"
        }
      ],
      "name": "setApprovalForAll",
      "outputs": [],
      "stateMutability": "nonpayable",
      "type": "function"
    },
    {
      "inputs": [
        {
          "internalType": "address",
          "name": "_addr",
          "type": "address"
        }
      ],
      "name": "setNFTimeshareMonthAddress",
      "outputs": [],
      "stateMutability": "nonpayable",
      "type": "function"
    },
    {
      "inputs": [
        {
          "internalType": "bytes4",
          "name": "interfaceId",
          "type": "bytes4"
        }
      ],
      "name": "supportsInterface",
      "outputs": [
        {
          "internalType": "bool",
          "name": "",
          "type": "bool"
        }
      ],
      "stateMutability": "view",
      "type": "function"
    },
    {
      "inputs": [],
      "name": "symbol",
      "outputs": [
        {
          "internalType": "string",
          "name": "",
          "type": "string"
        }
      ],
      "stateMutability": "view",
      "type": "function"
    },
    {
      "inputs": [
        {
          "internalType": "uint256",
          "name": "index",
          "type": "uint256"
        }
      ],
      "name": "tokenByIndex",
      "outputs": [
        {
          "internalType": "uint256",
          "name": "",
          "type": "uint256"
        }
      ],
      "stateMutability": "view",
      "type": "function"
    },
    {
      "inputs": [
        {
          "internalType": "address",
          "name": "owner",
          "type": "address"
        },
        {
          "internalType": "uint256",
          "name": "index",
          "type": "uint256"
        }
      ],
      "name": "tokenOfOwnerByIndex",
      "outputs": [
        {
          "internalType": "uint256",
          "name": "",
          "type": "uint256"
        }
      ],
      "stateMutability": "view",
      "type": "function"
    },
    {
      "inputs": [
        {
          "internalType": "uint256",
          "name": "tokenId",
          "type": "uint256"
        }
      ],
      "name": "tokenURI",
      "outputs": [
        {
          "internalType": "string",
          "name": "",
          "type": "string"
        }
      ],
      "stateMutability": "view",
      "type": "function"
    },
    {
      "inputs": [],
      "name": "totalSupply",
      "outputs": [
        {
          "internalType": "uint256",
          "name": "",
          "type": "uint256"
        }
      ],
      "stateMutability": "view",
      "type": "function"
    },
    {
      "inputs": [
        {
          "internalType": "address",
          "name": "from",
          "type": "address"
        },
        {
          "internalType": "address",
          "name": "to",
          "type": "address"
        },
        {
          "internalType": "uint256",
          "name": "tokenId",
          "type": "uint256"
        }
      ],
      "name": "transferFrom",
      "outputs": [],
      "stateMutability": "nonpayable",
      "type": "function"
    },
    {
      "inputs": [
        {
          "internalType": "address",
          "name": "newOwner",
          "type": "address"
        }
      ],
      "name": "transferOwnership",
      "outputs": [],
      "stateMutability": "nonpayable",
      "type": "function"
    },
    {
      "inputs": [
        {
          "internalType": "uint256",
          "name": "tokenId",
          "type": "uint256"
        }
      ],
      "name": "underlyingTokenURI",
      "outputs": [
        {
          "internalType": "string",
          "name": "",
          "type": "string"
        }
      ],
      "stateMutability": "view",
      "type": "function"
    }
  ],
  "bytecode": "0x60806040523480156200001157600080fd5b506040518060400160405280600981526020017f54696d65736861726500000000000000000000000000000000000000000000008152506040518060400160405280600481526020017f5453424f0000000000000000000000000000000000000000000000000000000081525081600090805190602001906200009692919062000171565b508060019080519060200190620000af92919062000171565b5050506000620000c46200016960201b60201c565b905080600a60006101000a81548173ffffffffffffffffffffffffffffffffffffffff021916908373ffffffffffffffffffffffffffffffffffffffff1602179055508073ffffffffffffffffffffffffffffffffffffffff16600073ffffffffffffffffffffffffffffffffffffffff167f8be0079c531659141344cd1fd0a4f28419497f9722a3daafe3b4186f6b6457e060405160405180910390a35062000286565b600033905090565b8280546200017f9062000221565b90600052602060002090601f016020900481019282620001a35760008555620001ef565b82601f10620001be57805160ff1916838001178555620001ef565b82800160010185558215620001ef579182015b82811115620001ee578251825591602001919060010190620001d1565b5b509050620001fe919062000202565b5090565b5b808211156200021d57600081600090555060010162000203565b5090565b600060028204905060018216806200023a57607f821691505b6020821081141562000251576200025062000257565b5b50919050565b7f4e487b7100000000000000000000000000000000000000000000000000000000600052602260045260246000fd5b6133db80620002966000396000f3fe608060405234801561001057600080fd5b50600436106101a95760003560e01c8063715018a6116100f9578063c3cf1e5611610097578063e0d3c2bd11610071578063e0d3c2bd146104f0578063e75726cb1461050e578063e985e9c51461053f578063f2fde38b1461056f576101a9565b8063c3cf1e5614610474578063c6f1649f146104a4578063c87b56dd146104c0576101a9565b80638da5cb5b116100d35780638da5cb5b1461040057806395d89b411461041e578063a22cb4651461043c578063b88d4fde14610458576101a9565b8063715018a6146103be5780637bde82f2146103c857806380fe989e146103e4576101a9565b806323b872dd1161016657806342842e0e1161014057806342842e0e146103125780634f6ccce71461032e5780636352211e1461035e57806370a082311461038e576101a9565b806323b872dd14610296578063286e5508146102b25780632f745c59146102e2576101a9565b806301ffc9a7146101ae57806306fdde03146101de578063081812fc146101fc578063095ea7b31461022c578063150b7a021461024857806318160ddd14610278575b600080fd5b6101c860048036038101906101c391906125c7565b61058b565b6040516101d59190612927565b60405180910390f35b6101e6610605565b6040516101f3919061295d565b60405180910390f35b61021660048036038101906102119190612631565b610697565b6040516102239190612875565b60405180910390f35b610246600480360381019061024191906124fe565b6106e2565b005b610262600480360381019061025d9190612447565b610727565b60405161026f9190612942565b60405180910390f35b61028061073b565b60405161028d9190612a7f565b60405180910390f35b6102b060048036038101906102ab91906123f8565b610748565b005b6102cc60048036038101906102c79190612631565b61078e565b6040516102d9919061295d565b60405180910390f35b6102fc60048036038101906102f791906124fe565b610948565b6040516103099190612a7f565b60405180910390f35b61032c600480360381019061032791906123f8565b6109ed565b005b61034860048036038101906103439190612631565b610a33565b6040516103559190612a7f565b60405180910390f35b61037860048036038101906103739190612631565b610aca565b6040516103859190612875565b60405180910390f35b6103a860048036038101906103a3919061236a565b610c85565b6040516103b59190612a7f565b60405180910390f35b6103c6610f87565b005b6103e260048036038101906103dd9190612683565b6110c4565b005b6103fe60048036038101906103f9919061236a565b61147a565b005b61040861153a565b6040516104159190612875565b60405180910390f35b610426611564565b604051610433919061295d565b60405180910390f35b610456600480360381019061045191906124c2565b6115f6565b005b610472600480360381019061046d9190612447565b61163b565b005b61048e600480360381019061048991906124fe565b611682565b60405161049b9190612a7f565b60405180910390f35b6104be60048036038101906104b9919061253a565b6116dd565b005b6104da60048036038101906104d59190612631565b6119f3565b6040516104e7919061295d565b60405180910390f35b6104f8611ac4565b6040516105059190612875565b60405180910390f35b61052860048036038101906105239190612631565b611aee565b6040516105369291906128c7565b60405180910390f35b610559600480360381019061055491906123bc565b611b87565b6040516105669190612927565b60405180910390f35b6105896004803603810190610584919061236a565b611bd3565b005b60007f780e9d63000000000000000000000000000000000000000000000000000000007bffffffffffffffffffffffffffffffffffffffffffffffffffffffff1916827bffffffffffffffffffffffffffffffffffffffffffffffffffffffff191614806105fe57506105fd82611d7f565b5b9050919050565b60606000805461061490612f67565b80601f016020809104026020016040519081016040528092919081815260200182805461064090612f67565b801561068d5780601f106106625761010080835404028352916020019161068d565b820191906000526020600020905b81548152906001019060200180831161067057829003601f168201915b5050505050905090565b6000806106d9576040517f08c379a00000000000000000000000000000000000000000000000000000000081526004016106d090612a5f565b60405180910390fd5b60009050919050565b6000610723576040517f08c379a000000000000000000000000000000000000000000000000000000000815260040161071a90612a5f565b60405180910390fd5b5050565b600063150b7a0260e01b9050949350505050565b6000600880549050905090565b6000610789576040517f08c379a000000000000000000000000000000000000000000000000000000000815260040161078090612a5f565b60405180910390fd5b505050565b6060600073ffffffffffffffffffffffffffffffffffffffff16600c60009054906101000a900473ffffffffffffffffffffffffffffffffffffffff1673ffffffffffffffffffffffffffffffffffffffff161415610822576040517f08c379a00000000000000000000000000000000000000000000000000000000081526004016108199061297f565b60405180910390fd5b6000600e60008481526020019081526020016000206040518060400160405290816000820160009054906101000a900473ffffffffffffffffffffffffffffffffffffffff1673ffffffffffffffffffffffffffffffffffffffff1673ffffffffffffffffffffffffffffffffffffffff16815260200160018201548152505090506000816000015173ffffffffffffffffffffffffffffffffffffffff1663c87b56dd83602001516040518263ffffffff1660e01b81526004016108e79190612a7f565b60006040518083038186803b1580156108ff57600080fd5b505afa158015610913573d6000803e3d6000fd5b505050506040513d6000823e3d601f19601f8201168201806040525081019061093c91906125f0565b90508092505050919050565b600061095383611e61565b8210610994576040517f08c379a000000000000000000000000000000000000000000000000000000000815260040161098b9061299f565b60405180910390fd5b600660008473ffffffffffffffffffffffffffffffffffffffff1673ffffffffffffffffffffffffffffffffffffffff168152602001908152602001600020600083815260200190815260200160002054905092915050565b6000610a2e576040517f08c379a0000000000000000000000000000000000000000000000000000000008152600401610a2590612a5f565b60405180910390fd5b505050565b6000610a3d61073b565b8210610a7e576040517f08c379a0000000000000000000000000000000000000000000000000000000008152600401610a7590612a1f565b60405180910390fd5b60088281548110610ab8577f4e487b7100000000000000000000000000000000000000000000000000000000600052603260045260246000fd5b90600052602060002001549050919050565b6000806001610ad842611f19565b610ae29190612e66565b90506000600c60009054906101000a900473ffffffffffffffffffffffffffffffffffffffff1673ffffffffffffffffffffffffffffffffffffffff166359574c38856040518263ffffffff1660e01b8152600401610b419190612a7f565b6101806040518083038186803b158015610b5a57600080fd5b505afa158015610b6e573d6000803e3d6000fd5b505050506040513d601f19601f82011682018060405250810190610b92919061259d565b9050600c60009054906101000a900473ffffffffffffffffffffffffffffffffffffffff1673ffffffffffffffffffffffffffffffffffffffff16636352211e8284600c8110610c0b577f4e487b7100000000000000000000000000000000000000000000000000000000600052603260045260246000fd5b60200201516040518263ffffffff1660e01b8152600401610c2c9190612a7f565b60206040518083038186803b158015610c4457600080fd5b505afa158015610c58573d6000803e3d6000fd5b505050506040513d601f19601f82011682018060405250810190610c7c9190612393565b92505050919050565b60008073ffffffffffffffffffffffffffffffffffffffff16600c60009054906101000a900473ffffffffffffffffffffffffffffffffffffffff1673ffffffffffffffffffffffffffffffffffffffff161415610d18576040517f08c379a0000000000000000000000000000000000000000000000000000000008152600401610d0f9061297f565b60405180910390fd5b6000600c60009054906101000a900473ffffffffffffffffffffffffffffffffffffffff1673ffffffffffffffffffffffffffffffffffffffff166370a08231846040518263ffffffff1660e01b8152600401610d759190612875565b60206040518083038186803b158015610d8d57600080fd5b505afa158015610da1573d6000803e3d6000fd5b505050506040513d601f19601f82011682018060405250810190610dc5919061265a565b905060006001610dd442611f19565b610dde9190612e66565b90506000805b83811015610f7b576000600c60009054906101000a900473ffffffffffffffffffffffffffffffffffffffff1673ffffffffffffffffffffffffffffffffffffffff16632f745c5988846040518363ffffffff1660e01b8152600401610e4b9291906128c7565b60206040518083038186803b158015610e6357600080fd5b505afa158015610e77573d6000803e3d6000fd5b505050506040513d601f19601f82011682018060405250810190610e9b919061265a565b90506000600c60009054906101000a900473ffffffffffffffffffffffffffffffffffffffff1673ffffffffffffffffffffffffffffffffffffffff1663989620df836040518263ffffffff1660e01b8152600401610efa9190612a7f565b60206040518083038186803b158015610f1257600080fd5b505afa158015610f26573d6000803e3d6000fd5b505050506040513d601f19601f82011682018060405250810190610f4a91906126bf565b60ff16905084811415610f66578380610f6290612fca565b9450505b50508080610f7390612fca565b915050610de4565b50809350505050919050565b610f8f611f48565b73ffffffffffffffffffffffffffffffffffffffff16610fad61153a565b73ffffffffffffffffffffffffffffffffffffffff1614611003576040517f08c379a0000000000000000000000000000000000000000000000000000000008152600401610ffa906129ff565b60405180910390fd5b600073ffffffffffffffffffffffffffffffffffffffff16600a60009054906101000a900473ffffffffffffffffffffffffffffffffffffffff1673ffffffffffffffffffffffffffffffffffffffff167f8be0079c531659141344cd1fd0a4f28419497f9722a3daafe3b4186f6b6457e060405160405180910390a36000600a60006101000a81548173ffffffffffffffffffffffffffffffffffffffff021916908373ffffffffffffffffffffffffffffffffffffffff160217905550565b600073ffffffffffffffffffffffffffffffffffffffff16600c60009054906101000a900473ffffffffffffffffffffffffffffffffffffffff1673ffffffffffffffffffffffffffffffffffffffff161415611156576040517f08c379a000000000000000000000000000000000000000000000000000000000815260040161114d9061297f565b60405180910390fd5b6000600e60008481526020019081526020016000206040518060400160405290816000820160009054906101000a900473ffffffffffffffffffffffffffffffffffffffff1673ffffffffffffffffffffffffffffffffffffffff1673ffffffffffffffffffffffffffffffffffffffff1681526020016001820154815250509050600073ffffffffffffffffffffffffffffffffffffffff16816000015173ffffffffffffffffffffffffffffffffffffffff161415801561121e57506000816020015114155b61125d576040517f08c379a000000000000000000000000000000000000000000000000000000000815260040161125490612a3f565b60405180910390fd5b600d6000826000015173ffffffffffffffffffffffffffffffffffffffff1673ffffffffffffffffffffffffffffffffffffffff16815260200190815260200160002060008260200151815260200190815260200160002060009055600e6000848152602001908152602001600020600080820160006101000a81549073ffffffffffffffffffffffffffffffffffffffff021916905560018201600090555050600c60009054906101000a900473ffffffffffffffffffffffffffffffffffffffff1673ffffffffffffffffffffffffffffffffffffffff16638d6e1b6733856040518363ffffffff1660e01b815260040161135b9291906128c7565b600060405180830381600087803b15801561137557600080fd5b505af1158015611389573d6000803e3d6000fd5b50505050806000015173ffffffffffffffffffffffffffffffffffffffff166342842e0e308484602001516040518463ffffffff1660e01b81526004016113d293929190612890565b600060405180830381600087803b1580156113ec57600080fd5b505af1158015611400573d6000803e3d6000fd5b505050508173ffffffffffffffffffffffffffffffffffffffff163373ffffffffffffffffffffffffffffffffffffffff167faee47cdf925cf525fdae94f9777ee5a06cac37e1c41220d0a8a89ed154f62d1c836000015184602001518760405161146d939291906128f0565b60405180910390a3505050565b611482611f48565b73ffffffffffffffffffffffffffffffffffffffff166114a061153a565b73ffffffffffffffffffffffffffffffffffffffff16146114f6576040517f08c379a00000000000000000000000000000000000000000000000000000000081526004016114ed906129ff565b60405180910390fd5b80600c60006101000a81548173ffffffffffffffffffffffffffffffffffffffff021916908373ffffffffffffffffffffffffffffffffffffffff16021790555050565b6000600a60009054906101000a900473ffffffffffffffffffffffffffffffffffffffff16905090565b60606001805461157390612f67565b80601f016020809104026020016040519081016040528092919081815260200182805461159f90612f67565b80156115ec5780601f106115c1576101008083540402835291602001916115ec565b820191906000526020600020905b8154815290600101906020018083116115cf57829003601f168201915b5050505050905090565b6000611637576040517f08c379a000000000000000000000000000000000000000000000000000000000815260040161162e90612a5f565b60405180910390fd5b5050565b600061167c576040517f08c379a000000000000000000000000000000000000000000000000000000000815260040161167390612a5f565b60405180910390fd5b50505050565b6000600d60008473ffffffffffffffffffffffffffffffffffffffff1673ffffffffffffffffffffffffffffffffffffffff168152602001908152602001600020600083815260200190815260200160002054905092915050565b600073ffffffffffffffffffffffffffffffffffffffff16600c60009054906101000a900473ffffffffffffffffffffffffffffffffffffffff1673ffffffffffffffffffffffffffffffffffffffff16141561176f576040517f08c379a00000000000000000000000000000000000000000000000000000000081526004016117669061297f565b60405180910390fd5b611779600b611f50565b6000611785600b611f66565b905080600d60008773ffffffffffffffffffffffffffffffffffffffff1673ffffffffffffffffffffffffffffffffffffffff16815260200190815260200160002060008681526020019081526020016000208190555060405180604001604052808673ffffffffffffffffffffffffffffffffffffffff16815260200185815250600e600083815260200190815260200160002060008201518160000160006101000a81548173ffffffffffffffffffffffffffffffffffffffff021916908373ffffffffffffffffffffffffffffffffffffffff16021790555060208201518160010155905050600c60009054906101000a900473ffffffffffffffffffffffffffffffffffffffff1673ffffffffffffffffffffffffffffffffffffffff166306d64af782846040518363ffffffff1660e01b81526004016118cb929190612a9a565b600060405180830381600087803b1580156118e557600080fd5b505af11580156118f9573d6000803e3d6000fd5b505050508473ffffffffffffffffffffffffffffffffffffffff166342842e0e8430876040518463ffffffff1660e01b815260040161193a93929190612890565b600060405180830381600087803b15801561195457600080fd5b505af1158015611968573d6000803e3d6000fd5b505050508173ffffffffffffffffffffffffffffffffffffffff163373ffffffffffffffffffffffffffffffffffffffff168473ffffffffffffffffffffffffffffffffffffffff167fe354026b0ea4d7022834b4903ab420cdc10b109a8506dc68061124854cd353c88888866040516119e4939291906128f0565b60405180910390a45050505050565b6060600073ffffffffffffffffffffffffffffffffffffffff16600c60009054906101000a900473ffffffffffffffffffffffffffffffffffffffff1673ffffffffffffffffffffffffffffffffffffffff161415611a87576040517f08c379a0000000000000000000000000000000000000000000000000000000008152600401611a7e9061297f565b60405180910390fd5b6040518060400160405280600b81526020017f706c616365686f6c6465720000000000000000000000000000000000000000008152509050919050565b6000600c60009054906101000a900473ffffffffffffffffffffffffffffffffffffffff16905090565b6000806000600e60008581526020019081526020016000206040518060400160405290816000820160009054906101000a900473ffffffffffffffffffffffffffffffffffffffff1673ffffffffffffffffffffffffffffffffffffffff1673ffffffffffffffffffffffffffffffffffffffff1681526020016001820154815250509050806000015181602001519250925050915091565b600080611bc9576040517f08c379a0000000000000000000000000000000000000000000000000000000008152600401611bc090612a5f565b60405180910390fd5b6000905092915050565b611bdb611f48565b73ffffffffffffffffffffffffffffffffffffffff16611bf961153a565b73ffffffffffffffffffffffffffffffffffffffff1614611c4f576040517f08c379a0000000000000000000000000000000000000000000000000000000008152600401611c46906129ff565b60405180910390fd5b600073ffffffffffffffffffffffffffffffffffffffff168173ffffffffffffffffffffffffffffffffffffffff161415611cbf576040517f08c379a0000000000000000000000000000000000000000000000000000000008152600401611cb6906129bf565b60405180910390fd5b8073ffffffffffffffffffffffffffffffffffffffff16600a60009054906101000a900473ffffffffffffffffffffffffffffffffffffffff1673ffffffffffffffffffffffffffffffffffffffff167f8be0079c531659141344cd1fd0a4f28419497f9722a3daafe3b4186f6b6457e060405160405180910390a380600a60006101000a81548173ffffffffffffffffffffffffffffffffffffffff021916908373ffffffffffffffffffffffffffffffffffffffff16021790555050565b60007f80ac58cd000000000000000000000000000000000000000000000000000000007bffffffffffffffffffffffffffffffffffffffffffffffffffffffff1916827bffffffffffffffffffffffffffffffffffffffffffffffffffffffff19161480611e4a57507f5b5e139f000000000000000000000000000000000000000000000000000000007bffffffffffffffffffffffffffffffffffffffffffffffffffffffff1916827bffffffffffffffffffffffffffffffffffffffffffffffffffffffff1916145b80611e5a5750611e5982611f74565b5b9050919050565b60008073ffffffffffffffffffffffffffffffffffffffff168273ffffffffffffffffffffffffffffffffffffffff161415611ed2576040517f08c379a0000000000000000000000000000000000000000000000000000000008152600401611ec9906129df565b60405180910390fd5b600360008373ffffffffffffffffffffffffffffffffffffffff1673ffffffffffffffffffffffffffffffffffffffff168152602001908152602001600020549050919050565b6000806000611f356201518085611f309190612c8a565b611fde565b8093508195508294505050505050919050565b600033905090565b6001816000016000828254019250508190555050565b600081600001549050919050565b60007f01ffc9a7000000000000000000000000000000000000000000000000000000007bffffffffffffffffffffffffffffffffffffffffffffffffffffffff1916827bffffffffffffffffffffffffffffffffffffffffffffffffffffffff1916149050919050565b600080600080849050600062253d8c62010bd983611ffc9190612b8c565b6120069190612b8c565b9050600062023ab182600461201b9190612cbb565b6120259190612c20565b9050600460038262023ab161203a9190612cbb565b6120449190612b8c565b61204e9190612c20565b826120599190612dd2565b9150600062164b0960018461206e9190612b8c565b610fa061207b9190612cbb565b6120859190612c20565b9050601f6004826105b56120999190612cbb565b6120a39190612c20565b846120ae9190612dd2565b6120b89190612b8c565b9250600061098f8460506120cc9190612cbb565b6120d69190612c20565b9050600060508261098f6120ea9190612cbb565b6120f49190612c20565b856120ff9190612dd2565b9050600b8261210e9190612c20565b945084600c61211d9190612cbb565b60028361212a9190612b8c565b6121349190612dd2565b915084836031866121459190612dd2565b60646121519190612cbb565b61215b9190612b8c565b6121659190612b8c565b92508298508197508096505050505050509193909250565b600061219061218b84612ae8565b612ac3565b905080828560208602820111156121a657600080fd5b60005b858110156121d657816121bc8882612340565b8452602084019350602083019250506001810190506121a9565b5050509392505050565b60006121f36121ee84612b0e565b612ac3565b90508281526020810184848401111561220b57600080fd5b612216848285612f25565b509392505050565b600061223161222c84612b3f565b612ac3565b90508281526020810184848401111561224957600080fd5b612254848285612f34565b509392505050565b60008135905061226b81613332565b92915050565b60008151905061228081613332565b92915050565b600082601f83011261229757600080fd5b600c6122a484828561217d565b91505092915050565b6000813590506122bc81613349565b92915050565b6000813590506122d181613360565b92915050565b600082601f8301126122e857600080fd5b81356122f88482602086016121e0565b91505092915050565b600082601f83011261231257600080fd5b815161232284826020860161221e565b91505092915050565b60008135905061233a81613377565b92915050565b60008151905061234f81613377565b92915050565b6000815190506123648161338e565b92915050565b60006020828403121561237c57600080fd5b600061238a8482850161225c565b91505092915050565b6000602082840312156123a557600080fd5b60006123b384828501612271565b91505092915050565b600080604083850312156123cf57600080fd5b60006123dd8582860161225c565b92505060206123ee8582860161225c565b9150509250929050565b60008060006060848603121561240d57600080fd5b600061241b8682870161225c565b935050602061242c8682870161225c565b925050604061243d8682870161232b565b9150509250925092565b6000806000806080858703121561245d57600080fd5b600061246b8782880161225c565b945050602061247c8782880161225c565b935050604061248d8782880161232b565b925050606085013567ffffffffffffffff8111156124aa57600080fd5b6124b6878288016122d7565b91505092959194509250565b600080604083850312156124d557600080fd5b60006124e38582860161225c565b92505060206124f4858286016122ad565b9150509250929050565b6000806040838503121561251157600080fd5b600061251f8582860161225c565b92505060206125308582860161232b565b9150509250929050565b6000806000806080858703121561255057600080fd5b600061255e8782880161225c565b945050602061256f8782880161232b565b93505060406125808782880161225c565b92505060606125918782880161225c565b91505092959194509250565b600061018082840312156125b057600080fd5b60006125be84828501612286565b91505092915050565b6000602082840312156125d957600080fd5b60006125e7848285016122c2565b91505092915050565b60006020828403121561260257600080fd5b600082015167ffffffffffffffff81111561261c57600080fd5b61262884828501612301565b91505092915050565b60006020828403121561264357600080fd5b60006126518482850161232b565b91505092915050565b60006020828403121561266c57600080fd5b600061267a84828501612340565b91505092915050565b6000806040838503121561269657600080fd5b60006126a48582860161232b565b92505060206126b58582860161225c565b9150509250929050565b6000602082840312156126d157600080fd5b60006126df84828501612355565b91505092915050565b6126f181612e9a565b82525050565b61270081612eac565b82525050565b61270f81612eb8565b82525050565b600061272082612b70565b61272a8185612b7b565b935061273a818560208601612f34565b612743816130cf565b840191505092915050565b600061275b602f83612b7b565b9150612766826130e0565b604082019050919050565b600061277e602b83612b7b565b91506127898261312f565b604082019050919050565b60006127a1602683612b7b565b91506127ac8261317e565b604082019050919050565b60006127c4602a83612b7b565b91506127cf826131cd565b604082019050919050565b60006127e7602083612b7b565b91506127f28261321c565b602082019050919050565b600061280a602c83612b7b565b915061281582613245565b604082019050919050565b600061282d602583612b7b565b915061283882613294565b604082019050919050565b6000612850602383612b7b565b915061285b826132e3565b604082019050919050565b61286f81612f0e565b82525050565b600060208201905061288a60008301846126e8565b92915050565b60006060820190506128a560008301866126e8565b6128b260208301856126e8565b6128bf6040830184612866565b949350505050565b60006040820190506128dc60008301856126e8565b6128e96020830184612866565b9392505050565b600060608201905061290560008301866126e8565b6129126020830185612866565b61291f6040830184612866565b949350505050565b600060208201905061293c60008301846126f7565b92915050565b60006020820190506129576000830184612706565b92915050565b600060208201905081810360008301526129778184612715565b905092915050565b600060208201905081810360008301526129988161274e565b9050919050565b600060208201905081810360008301526129b881612771565b9050919050565b600060208201905081810360008301526129d881612794565b9050919050565b600060208201905081810360008301526129f8816127b7565b9050919050565b60006020820190508181036000830152612a18816127da565b9050919050565b60006020820190508181036000830152612a38816127fd565b9050919050565b60006020820190508181036000830152612a5881612820565b9050919050565b60006020820190508181036000830152612a7881612843565b9050919050565b6000602082019050612a946000830184612866565b92915050565b6000604082019050612aaf6000830185612866565b612abc60208301846126e8565b9392505050565b6000612acd612ade565b9050612ad98282612f99565b919050565b6000604051905090565b600067ffffffffffffffff821115612b0357612b026130a0565b5b602082029050919050565b600067ffffffffffffffff821115612b2957612b286130a0565b5b612b32826130cf565b9050602081019050919050565b600067ffffffffffffffff821115612b5a57612b596130a0565b5b612b63826130cf565b9050602081019050919050565b600081519050919050565b600082825260208201905092915050565b6000612b9782612ee4565b9150612ba283612ee4565b9250817f7fffffffffffffffffffffffffffffffffffffffffffffffffffffffffffffff03831360008312151615612bdd57612bdc613013565b5b817f8000000000000000000000000000000000000000000000000000000000000000038312600083121615612c1557612c14613013565b5b828201905092915050565b6000612c2b82612ee4565b9150612c3683612ee4565b925082612c4657612c45613042565b5b600160000383147f800000000000000000000000000000000000000000000000000000000000000083141615612c7f57612c7e613013565b5b828205905092915050565b6000612c9582612f0e565b9150612ca083612f0e565b925082612cb057612caf613042565b5b828204905092915050565b6000612cc682612ee4565b9150612cd183612ee4565b9250827f7fffffffffffffffffffffffffffffffffffffffffffffffffffffffffffffff0482116000841360008413161615612d1057612d0f613013565b5b817f80000000000000000000000000000000000000000000000000000000000000000583126000841260008413161615612d4d57612d4c613013565b5b827f80000000000000000000000000000000000000000000000000000000000000000582126000841360008412161615612d8a57612d89613013565b5b827f7fffffffffffffffffffffffffffffffffffffffffffffffffffffffffffffff0582126000841260008412161615612dc757612dc6613013565b5b828202905092915050565b6000612ddd82612ee4565b9150612de883612ee4565b9250827f800000000000000000000000000000000000000000000000000000000000000001821260008412151615612e2357612e22613013565b5b827f7fffffffffffffffffffffffffffffffffffffffffffffffffffffffffffffff018213600084121615612e5b57612e5a613013565b5b828203905092915050565b6000612e7182612f0e565b9150612e7c83612f0e565b925082821015612e8f57612e8e613013565b5b828203905092915050565b6000612ea582612eee565b9050919050565b60008115159050919050565b60007fffffffff0000000000000000000000000000000000000000000000000000000082169050919050565b6000819050919050565b600073ffffffffffffffffffffffffffffffffffffffff82169050919050565b6000819050919050565b600060ff82169050919050565b82818337600083830152505050565b60005b83811015612f52578082015181840152602081019050612f37565b83811115612f61576000848401525b50505050565b60006002820490506001821680612f7f57607f821691505b60208210811415612f9357612f92613071565b5b50919050565b612fa2826130cf565b810181811067ffffffffffffffff82111715612fc157612fc06130a0565b5b80604052505050565b6000612fd582612f0e565b91507fffffffffffffffffffffffffffffffffffffffffffffffffffffffffffffffff82141561300857613007613013565b5b600182019050919050565b7f4e487b7100000000000000000000000000000000000000000000000000000000600052601160045260246000fd5b7f4e487b7100000000000000000000000000000000000000000000000000000000600052601260045260246000fd5b7f4e487b7100000000000000000000000000000000000000000000000000000000600052602260045260246000fd5b7f4e487b7100000000000000000000000000000000000000000000000000000000600052604160045260246000fd5b6000601f19601f8301169050919050565b7f4e4654696d65736861726520636f6e747261637420616464726573732068617360008201527f6e2774206265656e207365742075700000000000000000000000000000000000602082015250565b7f455243373231456e756d657261626c653a206f776e657220696e646578206f7560008201527f74206f6620626f756e6473000000000000000000000000000000000000000000602082015250565b7f4f776e61626c653a206e6577206f776e657220697320746865207a65726f206160008201527f6464726573730000000000000000000000000000000000000000000000000000602082015250565b7f4552433732313a2062616c616e636520717565727920666f7220746865207a6560008201527f726f206164647265737300000000000000000000000000000000000000000000602082015250565b7f4f776e61626c653a2063616c6c6572206973206e6f7420746865206f776e6572600082015250565b7f455243373231456e756d657261626c653a20676c6f62616c20696e646578206f60008201527f7574206f6620626f756e64730000000000000000000000000000000000000000602082015250565b7f52656465656d2054696d6573686172653a204e6f6e6578697374656e7420746f60008201527f6b656e4964000000000000000000000000000000000000000000000000000000602082015250565b7f446973616c6c6f776564206f7065726174696f6e206f6e204e4654696d65736860008201527f6172650000000000000000000000000000000000000000000000000000000000602082015250565b61333b81612e9a565b811461334657600080fd5b50565b61335281612eac565b811461335d57600080fd5b50565b61336981612eb8565b811461337457600080fd5b50565b61338081612f0e565b811461338b57600080fd5b50565b61339781612f18565b81146133a257600080fd5b5056fea2646970667358221220e168e7e4b2801359e65be15beff660136e496f445277c3acb2cf30229ecfa8fe64736f6c63430008040033",
  "linkReferences": {},
  "deployedLinkReferences": {}
}