{
  "_format": "hh-sol-artifact-1",
  "contractName": "TestNFT",
  "sourceName": "contracts/utils/TestNFT.sol",
  "abi": [
    {
      "inputs": [],
      "stateMutability": "nonpayable",
      "type": "constructor"
    },
    {
      "anonymous": false,
      "inputs": [
        {
          "indexed": true,
          "internalType": "address",
          "name": "owner",
          "type": "address"
        },
        {
          "indexed": true,
          "internalType": "address",
          "name": "approved",
          "type": "address"
        },
        {
          "indexed": true,
          "internalType": "uint256",
          "name": "tokenId",
          "type": "uint256"
        }
      ],
      "name": "Approval",
      "type": "event"
    },
    {
      "anonymous": false,
      "inputs": [
        {
          "indexed": true,
          "internalType": "address",
          "name": "owner",
          "type": "address"
        },
        {
          "indexed": true,
          "internalType": "address",
          "name": "operator",
          "type": "address"
        },
        {
          "indexed": false,
          "internalType": "bool",
          "name": "approved",
          "type": "bool"
        }
      ],
      "name": "ApprovalForAll",
      "type": "event"
    },
    {
      "anonymous": false,
      "inputs": [
        {
          "indexed": true,
          "internalType": "address",
          "name": "from",
          "type": "address"
        },
        {
          "indexed": true,
          "internalType": "address",
          "name": "to",
          "type": "address"
        },
        {
          "indexed": true,
          "internalType": "uint256",
          "name": "tokenId",
          "type": "uint256"
        }
      ],
      "name": "Transfer",
      "type": "event"
    },
    {
      "inputs": [
        {
          "internalType": "address",
          "name": "to",
          "type": "address"
        },
        {
          "internalType": "uint256",
          "name": "tokenId",
          "type": "uint256"
        }
      ],
      "name": "approve",
      "outputs": [],
      "stateMutability": "nonpayable",
      "type": "function"
    },
    {
      "inputs": [],
      "name": "awardTestNFT",
      "outputs": [
        {
          "internalType": "uint256",
          "name": "",
          "type": "uint256"
        }
      ],
      "stateMutability": "nonpayable",
      "type": "function"
    },
    {
      "inputs": [
        {
          "internalType": "address",
          "name": "owner",
          "type": "address"
        }
      ],
      "name": "balanceOf",
      "outputs": [
        {
          "internalType": "uint256",
          "name": "",
          "type": "uint256"
        }
      ],
      "stateMutability": "view",
      "type": "function"
    },
    {
      "inputs": [
        {
          "internalType": "uint256",
          "name": "tokenId",
          "type": "uint256"
        }
      ],
      "name": "getApproved",
      "outputs": [
        {
          "internalType": "address",
          "name": "",
          "type": "address"
        }
      ],
      "stateMutability": "view",
      "type": "function"
    },
    {
      "inputs": [
        {
          "internalType": "address",
          "name": "owner",
          "type": "address"
        },
        {
          "internalType": "address",
          "name": "operator",
          "type": "address"
        }
      ],
      "name": "isApprovedForAll",
      "outputs": [
        {
          "internalType": "bool",
          "name": "",
          "type": "bool"
        }
      ],
      "stateMutability": "view",
      "type": "function"
    },
    {
      "inputs": [],
      "name": "name",
      "outputs": [
        {
          "internalType": "string",
          "name": "",
          "type": "string"
        }
      ],
      "stateMutability": "view",
      "type": "function"
    },
    {
      "inputs": [
        {
          "internalType": "uint256",
          "name": "tokenId",
          "type": "uint256"
        }
      ],
      "name": "ownerOf",
      "outputs": [
        {
          "internalType": "address",
          "name": "",
          "type": "address"
        }
      ],
      "stateMutability": "view",
      "type": "function"
    },
    {
      "inputs": [
        {
          "internalType": "address",
          "name": "from",
          "type": "address"
        },
        {
          "internalType": "address",
          "name": "to",
          "type": "address"
        },
        {
          "internalType": "uint256",
          "name": "tokenId",
          "type": "uint256"
        }
      ],
      "name": "safeTransferFrom",
      "outputs": [],
      "stateMutability": "nonpayable",
      "type": "function"
    },
    {
      "inputs": [
        {
          "internalType": "address",
          "name": "from",
          "type": "address"
        },
        {
          "internalType": "address",
          "name": "to",
          "type": "address"
        },
        {
          "internalType": "uint256",
          "name": "tokenId",
          "type": "uint256"
        },
        {
          "internalType": "bytes",
          "name": "_data",
          "type": "bytes"
        }
      ],
      "name": "safeTransferFrom",
      "outputs": [],
      "stateMutability": "nonpayable",
      "type": "function"
    },
    {
      "inputs": [
        {
          "internalType": "address",
          "name": "operator",
          "type": "address"
        },
        {
          "internalType": "bool",
          "name": "approved",
          "type": "bool"
        }
      ],
      "name": "setApprovalForAll",
      "outputs": [],
      "stateMutability": "nonpayable",
      "type": "function"
    },
    {
      "inputs": [
        {
          "internalType": "bytes4",
          "name": "interfaceId",
          "type": "bytes4"
        }
      ],
      "name": "supportsInterface",
      "outputs": [
        {
          "internalType": "bool",
          "name": "",
          "type": "bool"
        }
      ],
      "stateMutability": "view",
      "type": "function"
    },
    {
      "inputs": [],
      "name": "symbol",
      "outputs": [
        {
          "internalType": "string",
          "name": "",
          "type": "string"
        }
      ],
      "stateMutability": "view",
      "type": "function"
    },
    {
      "inputs": [
        {
          "internalType": "uint256",
          "name": "index",
          "type": "uint256"
        }
      ],
      "name": "tokenByIndex",
      "outputs": [
        {
          "internalType": "uint256",
          "name": "",
          "type": "uint256"
        }
      ],
      "stateMutability": "view",
      "type": "function"
    },
    {
      "inputs": [
        {
          "internalType": "address",
          "name": "owner",
          "type": "address"
        },
        {
          "internalType": "uint256",
          "name": "index",
          "type": "uint256"
        }
      ],
      "name": "tokenOfOwnerByIndex",
      "outputs": [
        {
          "internalType": "uint256",
          "name": "",
          "type": "uint256"
        }
      ],
      "stateMutability": "view",
      "type": "function"
    },
    {
      "inputs": [
        {
          "internalType": "uint256",
          "name": "tokenId",
          "type": "uint256"
        }
      ],
      "name": "tokenURI",
      "outputs": [
        {
          "internalType": "string",
          "name": "",
          "type": "string"
        }
      ],
      "stateMutability": "view",
      "type": "function"
    },
    {
      "inputs": [],
      "name": "totalSupply",
      "outputs": [
        {
          "internalType": "uint256",
          "name": "",
          "type": "uint256"
        }
      ],
      "stateMutability": "view",
      "type": "function"
    },
    {
      "inputs": [
        {
          "internalType": "address",
          "name": "from",
          "type": "address"
        },
        {
          "internalType": "address",
          "name": "to",
          "type": "address"
        },
        {
          "internalType": "uint256",
          "name": "tokenId",
          "type": "uint256"
        }
      ],
      "name": "transferFrom",
      "outputs": [],
      "stateMutability": "nonpayable",
      "type": "function"
    }
  ],
  "bytecode": "0x60806040523480156200001157600080fd5b506040518060400160405280600781526020017f546573744e4654000000000000000000000000000000000000000000000000008152506040518060400160405280600481526020017f746e667400000000000000000000000000000000000000000000000000000000815250816000908051906020019062000096929190620000b8565b508060019080519060200190620000af929190620000b8565b505050620001cd565b828054620000c69062000168565b90600052602060002090601f016020900481019282620000ea576000855562000136565b82601f106200010557805160ff191683800117855562000136565b8280016001018555821562000136579182015b828111156200013557825182559160200191906001019062000118565b5b50905062000145919062000149565b5090565b5b80821115620001645760008160009055506001016200014a565b5090565b600060028204905060018216806200018157607f821691505b602082108114156200019857620001976200019e565b5b50919050565b7f4e487b7100000000000000000000000000000000000000000000000000000000600052602260045260246000fd5b612e3680620001dd6000396000f3fe608060405234801561001057600080fd5b506004361061010b5760003560e01c806342842e0e116100a257806395d89b411161007157806395d89b41146102de578063a22cb465146102fc578063b88d4fde14610318578063c87b56dd14610334578063e985e9c5146103645761010b565b806342842e0e146102325780634f6ccce71461024e5780636352211e1461027e57806370a08231146102ae5761010b565b80630a642988116100de5780630a642988146101aa57806318160ddd146101c857806323b872dd146101e65780632f745c59146102025761010b565b806301ffc9a71461011057806306fdde0314610140578063081812fc1461015e578063095ea7b31461018e575b600080fd5b61012a60048036038101906101259190611f36565b610394565b604051610137919061233a565b60405180910390f35b61014861040e565b6040516101559190612355565b60405180910390f35b61017860048036038101906101739190611f88565b6104a0565b60405161018591906122d3565b60405180910390f35b6101a860048036038101906101a39190611efa565b610525565b005b6101b261063d565b6040516101bf9190612557565b60405180910390f35b6101d0610668565b6040516101dd9190612557565b60405180910390f35b61020060048036038101906101fb9190611df4565b610675565b005b61021c60048036038101906102179190611efa565b6106d5565b6040516102299190612557565b60405180910390f35b61024c60048036038101906102479190611df4565b61077a565b005b61026860048036038101906102639190611f88565b61079a565b6040516102759190612557565b60405180910390f35b61029860048036038101906102939190611f88565b610831565b6040516102a591906122d3565b60405180910390f35b6102c860048036038101906102c39190611d8f565b6108e3565b6040516102d59190612557565b60405180910390f35b6102e661099b565b6040516102f39190612355565b60405180910390f35b61031660048036038101906103119190611ebe565b610a2d565b005b610332600480360381019061032d9190611e43565b610bae565b005b61034e60048036038101906103499190611f88565b610c10565b60405161035b9190612355565b60405180910390f35b61037e60048036038101906103799190611db8565b610c41565b60405161038b919061233a565b60405180910390f35b60007f780e9d63000000000000000000000000000000000000000000000000000000007bffffffffffffffffffffffffffffffffffffffffffffffffffffffff1916827bffffffffffffffffffffffffffffffffffffffffffffffffffffffff19161480610407575061040682610cd5565b5b9050919050565b60606000805461041d9061277c565b80601f01602080910402602001604051908101604052809291908181526020018280546104499061277c565b80156104965780601f1061046b57610100808354040283529160200191610496565b820191906000526020600020905b81548152906001019060200180831161047957829003601f168201915b5050505050905090565b60006104ab82610db7565b6104ea576040517f08c379a00000000000000000000000000000000000000000000000000000000081526004016104e1906124b7565b60405180910390fd5b6004600083815260200190815260200160002060009054906101000a900473ffffffffffffffffffffffffffffffffffffffff169050919050565b600061053082610831565b90508073ffffffffffffffffffffffffffffffffffffffff168373ffffffffffffffffffffffffffffffffffffffff1614156105a1576040517f08c379a0000000000000000000000000000000000000000000000000000000008152600401610598906124f7565b60405180910390fd5b8073ffffffffffffffffffffffffffffffffffffffff166105c0610e23565b73ffffffffffffffffffffffffffffffffffffffff1614806105ef57506105ee816105e9610e23565b610c41565b5b61062e576040517f08c379a000000000000000000000000000000000000000000000000000000000815260040161062590612437565b60405180910390fd5b6106388383610e2b565b505050565b6000610649600a610ee4565b6000610655600a610efa565b90506106613382610f08565b8091505090565b6000600880549050905090565b610686610680610e23565b826110d6565b6106c5576040517f08c379a00000000000000000000000000000000000000000000000000000000081526004016106bc90612517565b60405180910390fd5b6106d08383836111b4565b505050565b60006106e0836108e3565b8210610721576040517f08c379a000000000000000000000000000000000000000000000000000000000815260040161071890612377565b60405180910390fd5b600660008473ffffffffffffffffffffffffffffffffffffffff1673ffffffffffffffffffffffffffffffffffffffff168152602001908152602001600020600083815260200190815260200160002054905092915050565b61079583838360405180602001604052806000815250610bae565b505050565b60006107a4610668565b82106107e5576040517f08c379a00000000000000000000000000000000000000000000000000000000081526004016107dc90612537565b60405180910390fd5b6008828154811061081f577f4e487b7100000000000000000000000000000000000000000000000000000000600052603260045260246000fd5b90600052602060002001549050919050565b6000806002600084815260200190815260200160002060009054906101000a900473ffffffffffffffffffffffffffffffffffffffff169050600073ffffffffffffffffffffffffffffffffffffffff168173ffffffffffffffffffffffffffffffffffffffff1614156108da576040517f08c379a00000000000000000000000000000000000000000000000000000000081526004016108d190612477565b60405180910390fd5b80915050919050565b60008073ffffffffffffffffffffffffffffffffffffffff168273ffffffffffffffffffffffffffffffffffffffff161415610954576040517f08c379a000000000000000000000000000000000000000000000000000000000815260040161094b90612457565b60405180910390fd5b600360008373ffffffffffffffffffffffffffffffffffffffff1673ffffffffffffffffffffffffffffffffffffffff168152602001908152602001600020549050919050565b6060600180546109aa9061277c565b80601f01602080910402602001604051908101604052809291908181526020018280546109d69061277c565b8015610a235780601f106109f857610100808354040283529160200191610a23565b820191906000526020600020905b815481529060010190602001808311610a0657829003601f168201915b5050505050905090565b610a35610e23565b73ffffffffffffffffffffffffffffffffffffffff168273ffffffffffffffffffffffffffffffffffffffff161415610aa3576040517f08c379a0000000000000000000000000000000000000000000000000000000008152600401610a9a906123f7565b60405180910390fd5b8060056000610ab0610e23565b73ffffffffffffffffffffffffffffffffffffffff1673ffffffffffffffffffffffffffffffffffffffff16815260200190815260200160002060008473ffffffffffffffffffffffffffffffffffffffff1673ffffffffffffffffffffffffffffffffffffffff16815260200190815260200160002060006101000a81548160ff0219169083151502179055508173ffffffffffffffffffffffffffffffffffffffff16610b5d610e23565b73ffffffffffffffffffffffffffffffffffffffff167f17307eab39ab6107e8899845ad3d59bd9653f200f220920489ca2b5937696c3183604051610ba2919061233a565b60405180910390a35050565b610bbf610bb9610e23565b836110d6565b610bfe576040517f08c379a0000000000000000000000000000000000000000000000000000000008152600401610bf590612517565b60405180910390fd5b610c0a84848484611410565b50505050565b6060610c1b8261146c565b604051602001610c2b91906122b1565b6040516020818303038152906040529050919050565b6000600560008473ffffffffffffffffffffffffffffffffffffffff1673ffffffffffffffffffffffffffffffffffffffff16815260200190815260200160002060008373ffffffffffffffffffffffffffffffffffffffff1673ffffffffffffffffffffffffffffffffffffffff16815260200190815260200160002060009054906101000a900460ff16905092915050565b60007f80ac58cd000000000000000000000000000000000000000000000000000000007bffffffffffffffffffffffffffffffffffffffffffffffffffffffff1916827bffffffffffffffffffffffffffffffffffffffffffffffffffffffff19161480610da057507f5b5e139f000000000000000000000000000000000000000000000000000000007bffffffffffffffffffffffffffffffffffffffffffffffffffffffff1916827bffffffffffffffffffffffffffffffffffffffffffffffffffffffff1916145b80610db05750610daf82611619565b5b9050919050565b60008073ffffffffffffffffffffffffffffffffffffffff166002600084815260200190815260200160002060009054906101000a900473ffffffffffffffffffffffffffffffffffffffff1673ffffffffffffffffffffffffffffffffffffffff1614159050919050565b600033905090565b816004600083815260200190815260200160002060006101000a81548173ffffffffffffffffffffffffffffffffffffffff021916908373ffffffffffffffffffffffffffffffffffffffff160217905550808273ffffffffffffffffffffffffffffffffffffffff16610e9e83610831565b73ffffffffffffffffffffffffffffffffffffffff167f8c5be1e5ebec7d5bd14f71427d1e84f3dd0314c0f7b2291e5b200ac8c7c3b92560405160405180910390a45050565b6001816000016000828254019250508190555050565b600081600001549050919050565b600073ffffffffffffffffffffffffffffffffffffffff168273ffffffffffffffffffffffffffffffffffffffff161415610f78576040517f08c379a0000000000000000000000000000000000000000000000000000000008152600401610f6f90612497565b60405180910390fd5b610f8181610db7565b15610fc1576040517f08c379a0000000000000000000000000000000000000000000000000000000008152600401610fb8906123b7565b60405180910390fd5b610fcd60008383611683565b6001600360008473ffffffffffffffffffffffffffffffffffffffff1673ffffffffffffffffffffffffffffffffffffffff168152602001908152602001600020600082825461101d919061260b565b92505081905550816002600083815260200190815260200160002060006101000a81548173ffffffffffffffffffffffffffffffffffffffff021916908373ffffffffffffffffffffffffffffffffffffffff160217905550808273ffffffffffffffffffffffffffffffffffffffff16600073ffffffffffffffffffffffffffffffffffffffff167fddf252ad1be2c89b69c2b068fc378daa952ba7f163c4a11628f55a4df523b3ef60405160405180910390a45050565b60006110e182610db7565b611120576040517f08c379a000000000000000000000000000000000000000000000000000000000815260040161111790612417565b60405180910390fd5b600061112b83610831565b90508073ffffffffffffffffffffffffffffffffffffffff168473ffffffffffffffffffffffffffffffffffffffff16148061119a57508373ffffffffffffffffffffffffffffffffffffffff16611182846104a0565b73ffffffffffffffffffffffffffffffffffffffff16145b806111ab57506111aa8185610c41565b5b91505092915050565b8273ffffffffffffffffffffffffffffffffffffffff166111d482610831565b73ffffffffffffffffffffffffffffffffffffffff161461122a576040517f08c379a0000000000000000000000000000000000000000000000000000000008152600401611221906124d7565b60405180910390fd5b600073ffffffffffffffffffffffffffffffffffffffff168273ffffffffffffffffffffffffffffffffffffffff16141561129a576040517f08c379a0000000000000000000000000000000000000000000000000000000008152600401611291906123d7565b60405180910390fd5b6112a5838383611683565b6112b0600082610e2b565b6001600360008573ffffffffffffffffffffffffffffffffffffffff1673ffffffffffffffffffffffffffffffffffffffff16815260200190815260200160002060008282546113009190612692565b925050819055506001600360008473ffffffffffffffffffffffffffffffffffffffff1673ffffffffffffffffffffffffffffffffffffffff1681526020019081526020016000206000828254611357919061260b565b92505081905550816002600083815260200190815260200160002060006101000a81548173ffffffffffffffffffffffffffffffffffffffff021916908373ffffffffffffffffffffffffffffffffffffffff160217905550808273ffffffffffffffffffffffffffffffffffffffff168473ffffffffffffffffffffffffffffffffffffffff167fddf252ad1be2c89b69c2b068fc378daa952ba7f163c4a11628f55a4df523b3ef60405160405180910390a4505050565b61141b8484846111b4565b61142784848484611797565b611466576040517f08c379a000000000000000000000000000000000000000000000000000000000815260040161145d90612397565b60405180910390fd5b50505050565b606060008214156114b4576040518060400160405280600181526020017f30000000000000000000000000000000000000000000000000000000000000008152509050611614565b600082905060005b600082146114e65780806114cf906127df565b915050600a826114df9190612661565b91506114bc565b60008167ffffffffffffffff811115611528577f4e487b7100000000000000000000000000000000000000000000000000000000600052604160045260246000fd5b6040519080825280601f01601f19166020018201604052801561155a5781602001600182028036833780820191505090505b5090505b6000851461160d576001826115739190612692565b9150600a856115829190612828565b603061158e919061260b565b60f81b8183815181106115ca577f4e487b7100000000000000000000000000000000000000000000000000000000600052603260045260246000fd5b60200101907effffffffffffffffffffffffffffffffffffffffffffffffffffffffffffff1916908160001a905350600a856116069190612661565b945061155e565b8093505050505b919050565b60007f01ffc9a7000000000000000000000000000000000000000000000000000000007bffffffffffffffffffffffffffffffffffffffffffffffffffffffff1916827bffffffffffffffffffffffffffffffffffffffffffffffffffffffff1916149050919050565b61168e83838361192e565b600073ffffffffffffffffffffffffffffffffffffffff168373ffffffffffffffffffffffffffffffffffffffff1614156116d1576116cc81611933565b611710565b8173ffffffffffffffffffffffffffffffffffffffff168373ffffffffffffffffffffffffffffffffffffffff161461170f5761170e838261197c565b5b5b600073ffffffffffffffffffffffffffffffffffffffff168273ffffffffffffffffffffffffffffffffffffffff1614156117535761174e81611ae9565b611792565b8273ffffffffffffffffffffffffffffffffffffffff168273ffffffffffffffffffffffffffffffffffffffff1614611791576117908282611c2c565b5b5b505050565b60006117b88473ffffffffffffffffffffffffffffffffffffffff16611cab565b15611921578373ffffffffffffffffffffffffffffffffffffffff1663150b7a026117e1610e23565b8786866040518563ffffffff1660e01b815260040161180394939291906122ee565b602060405180830381600087803b15801561181d57600080fd5b505af192505050801561184e57506040513d601f19601f8201168201806040525081019061184b9190611f5f565b60015b6118d1573d806000811461187e576040519150601f19603f3d011682016040523d82523d6000602084013e611883565b606091505b506000815114156118c9576040517f08c379a00000000000000000000000000000000000000000000000000000000081526004016118c090612397565b60405180910390fd5b805181602001fd5b63150b7a0260e01b7bffffffffffffffffffffffffffffffffffffffffffffffffffffffff1916817bffffffffffffffffffffffffffffffffffffffffffffffffffffffff191614915050611926565b600190505b949350505050565b505050565b6008805490506009600083815260200190815260200160002081905550600881908060018154018082558091505060019003906000526020600020016000909190919091505550565b60006001611989846108e3565b6119939190612692565b9050600060076000848152602001908152602001600020549050818114611a78576000600660008673ffffffffffffffffffffffffffffffffffffffff1673ffffffffffffffffffffffffffffffffffffffff168152602001908152602001600020600084815260200190815260200160002054905080600660008773ffffffffffffffffffffffffffffffffffffffff1673ffffffffffffffffffffffffffffffffffffffff168152602001908152602001600020600084815260200190815260200160002081905550816007600083815260200190815260200160002081905550505b6007600084815260200190815260200160002060009055600660008573ffffffffffffffffffffffffffffffffffffffff1673ffffffffffffffffffffffffffffffffffffffff16815260200190815260200160002060008381526020019081526020016000206000905550505050565b60006001600880549050611afd9190612692565b9050600060096000848152602001908152602001600020549050600060088381548110611b53577f4e487b7100000000000000000000000000000000000000000000000000000000600052603260045260246000fd5b906000526020600020015490508060088381548110611b9b577f4e487b7100000000000000000000000000000000000000000000000000000000600052603260045260246000fd5b906000526020600020018190555081600960008381526020019081526020016000208190555060096000858152602001908152602001600020600090556008805480611c10577f4e487b7100000000000000000000000000000000000000000000000000000000600052603160045260246000fd5b6001900381819060005260206000200160009055905550505050565b6000611c37836108e3565b905081600660008573ffffffffffffffffffffffffffffffffffffffff1673ffffffffffffffffffffffffffffffffffffffff168152602001908152602001600020600083815260200190815260200160002081905550806007600084815260200190815260200160002081905550505050565b600080823b905060008111915050919050565b6000611cd1611ccc84612597565b612572565b905082815260208101848484011115611ce957600080fd5b611cf484828561273a565b509392505050565b600081359050611d0b81612da4565b92915050565b600081359050611d2081612dbb565b92915050565b600081359050611d3581612dd2565b92915050565b600081519050611d4a81612dd2565b92915050565b600082601f830112611d6157600080fd5b8135611d71848260208601611cbe565b91505092915050565b600081359050611d8981612de9565b92915050565b600060208284031215611da157600080fd5b6000611daf84828501611cfc565b91505092915050565b60008060408385031215611dcb57600080fd5b6000611dd985828601611cfc565b9250506020611dea85828601611cfc565b9150509250929050565b600080600060608486031215611e0957600080fd5b6000611e1786828701611cfc565b9350506020611e2886828701611cfc565b9250506040611e3986828701611d7a565b9150509250925092565b60008060008060808587031215611e5957600080fd5b6000611e6787828801611cfc565b9450506020611e7887828801611cfc565b9350506040611e8987828801611d7a565b925050606085013567ffffffffffffffff811115611ea657600080fd5b611eb287828801611d50565b91505092959194509250565b60008060408385031215611ed157600080fd5b6000611edf85828601611cfc565b9250506020611ef085828601611d11565b9150509250929050565b60008060408385031215611f0d57600080fd5b6000611f1b85828601611cfc565b9250506020611f2c85828601611d7a565b9150509250929050565b600060208284031215611f4857600080fd5b6000611f5684828501611d26565b91505092915050565b600060208284031215611f7157600080fd5b6000611f7f84828501611d3b565b91505092915050565b600060208284031215611f9a57600080fd5b6000611fa884828501611d7a565b91505092915050565b611fba816126c6565b82525050565b611fc9816126d8565b82525050565b6000611fda826125c8565b611fe481856125de565b9350611ff4818560208601612749565b611ffd81612915565b840191505092915050565b6000612013826125d3565b61201d81856125ef565b935061202d818560208601612749565b61203681612915565b840191505092915050565b600061204c826125d3565b6120568185612600565b9350612066818560208601612749565b80840191505092915050565b600061207f602b836125ef565b915061208a82612926565b604082019050919050565b60006120a26032836125ef565b91506120ad82612975565b604082019050919050565b60006120c5603e83612600565b91506120d0826129c4565b603e82019050919050565b60006120e8601c836125ef565b91506120f382612a13565b602082019050919050565b600061210b6024836125ef565b915061211682612a3c565b604082019050919050565b600061212e6019836125ef565b915061213982612a8b565b602082019050919050565b6000612151602c836125ef565b915061215c82612ab4565b604082019050919050565b60006121746038836125ef565b915061217f82612b03565b604082019050919050565b6000612197602a836125ef565b91506121a282612b52565b604082019050919050565b60006121ba6029836125ef565b91506121c582612ba1565b604082019050919050565b60006121dd6020836125ef565b91506121e882612bf0565b602082019050919050565b6000612200602c836125ef565b915061220b82612c19565b604082019050919050565b60006122236029836125ef565b915061222e82612c68565b604082019050919050565b60006122466021836125ef565b915061225182612cb7565b604082019050919050565b60006122696031836125ef565b915061227482612d06565b604082019050919050565b600061228c602c836125ef565b915061229782612d55565b604082019050919050565b6122ab81612730565b82525050565b60006122bc826120b8565b91506122c88284612041565b915081905092915050565b60006020820190506122e86000830184611fb1565b92915050565b60006080820190506123036000830187611fb1565b6123106020830186611fb1565b61231d60408301856122a2565b818103606083015261232f8184611fcf565b905095945050505050565b600060208201905061234f6000830184611fc0565b92915050565b6000602082019050818103600083015261236f8184612008565b905092915050565b6000602082019050818103600083015261239081612072565b9050919050565b600060208201905081810360008301526123b081612095565b9050919050565b600060208201905081810360008301526123d0816120db565b9050919050565b600060208201905081810360008301526123f0816120fe565b9050919050565b6000602082019050818103600083015261241081612121565b9050919050565b6000602082019050818103600083015261243081612144565b9050919050565b6000602082019050818103600083015261245081612167565b9050919050565b600060208201905081810360008301526124708161218a565b9050919050565b60006020820190508181036000830152612490816121ad565b9050919050565b600060208201905081810360008301526124b0816121d0565b9050919050565b600060208201905081810360008301526124d0816121f3565b9050919050565b600060208201905081810360008301526124f081612216565b9050919050565b6000602082019050818103600083015261251081612239565b9050919050565b600060208201905081810360008301526125308161225c565b9050919050565b600060208201905081810360008301526125508161227f565b9050919050565b600060208201905061256c60008301846122a2565b92915050565b600061257c61258d565b905061258882826127ae565b919050565b6000604051905090565b600067ffffffffffffffff8211156125b2576125b16128e6565b5b6125bb82612915565b9050602081019050919050565b600081519050919050565b600081519050919050565b600082825260208201905092915050565b600082825260208201905092915050565b600081905092915050565b600061261682612730565b915061262183612730565b9250827fffffffffffffffffffffffffffffffffffffffffffffffffffffffffffffffff0382111561265657612655612859565b5b828201905092915050565b600061266c82612730565b915061267783612730565b92508261268757612686612888565b5b828204905092915050565b600061269d82612730565b91506126a883612730565b9250828210156126bb576126ba612859565b5b828203905092915050565b60006126d182612710565b9050919050565b60008115159050919050565b60007fffffffff0000000000000000000000000000000000000000000000000000000082169050919050565b600073ffffffffffffffffffffffffffffffffffffffff82169050919050565b6000819050919050565b82818337600083830152505050565b60005b8381101561276757808201518184015260208101905061274c565b83811115612776576000848401525b50505050565b6000600282049050600182168061279457607f821691505b602082108114156127a8576127a76128b7565b5b50919050565b6127b782612915565b810181811067ffffffffffffffff821117156127d6576127d56128e6565b5b80604052505050565b60006127ea82612730565b91507fffffffffffffffffffffffffffffffffffffffffffffffffffffffffffffffff82141561281d5761281c612859565b5b600182019050919050565b600061283382612730565b915061283e83612730565b92508261284e5761284d612888565b5b828206905092915050565b7f4e487b7100000000000000000000000000000000000000000000000000000000600052601160045260246000fd5b7f4e487b7100000000000000000000000000000000000000000000000000000000600052601260045260246000fd5b7f4e487b7100000000000000000000000000000000000000000000000000000000600052602260045260246000fd5b7f4e487b7100000000000000000000000000000000000000000000000000000000600052604160045260246000fd5b6000601f19601f8301169050919050565b7f455243373231456e756d657261626c653a206f776e657220696e646578206f7560008201527f74206f6620626f756e6473000000000000000000000000000000000000000000602082015250565b7f4552433732313a207472616e7366657220746f206e6f6e20455243373231526560008201527f63656976657220696d706c656d656e7465720000000000000000000000000000602082015250565b7f687474703a2f2f6d792d6a736f6e2d7365727665722e74797069636f64652e6360008201527f6f6d2f6162636f61746875702f73616d706c656e66742f746f6b656e732f0000602082015250565b7f4552433732313a20746f6b656e20616c7265616479206d696e74656400000000600082015250565b7f4552433732313a207472616e7366657220746f20746865207a65726f2061646460008201527f7265737300000000000000000000000000000000000000000000000000000000602082015250565b7f4552433732313a20617070726f766520746f2063616c6c657200000000000000600082015250565b7f4552433732313a206f70657261746f7220717565727920666f72206e6f6e657860008201527f697374656e7420746f6b656e0000000000000000000000000000000000000000602082015250565b7f4552433732313a20617070726f76652063616c6c6572206973206e6f74206f7760008201527f6e6572206e6f7220617070726f76656420666f7220616c6c0000000000000000602082015250565b7f4552433732313a2062616c616e636520717565727920666f7220746865207a6560008201527f726f206164647265737300000000000000000000000000000000000000000000602082015250565b7f4552433732313a206f776e657220717565727920666f72206e6f6e657869737460008201527f656e7420746f6b656e0000000000000000000000000000000000000000000000602082015250565b7f4552433732313a206d696e7420746f20746865207a65726f2061646472657373600082015250565b7f4552433732313a20617070726f76656420717565727920666f72206e6f6e657860008201527f697374656e7420746f6b656e0000000000000000000000000000000000000000602082015250565b7f4552433732313a207472616e73666572206f6620746f6b656e2074686174206960008201527f73206e6f74206f776e0000000000000000000000000000000000000000000000602082015250565b7f4552433732313a20617070726f76616c20746f2063757272656e74206f776e6560008201527f7200000000000000000000000000000000000000000000000000000000000000602082015250565b7f4552433732313a207472616e736665722063616c6c6572206973206e6f74206f60008201527f776e6572206e6f7220617070726f766564000000000000000000000000000000602082015250565b7f455243373231456e756d657261626c653a20676c6f62616c20696e646578206f60008201527f7574206f6620626f756e64730000000000000000000000000000000000000000602082015250565b612dad816126c6565b8114612db857600080fd5b50565b612dc4816126d8565b8114612dcf57600080fd5b50565b612ddb816126e4565b8114612de657600080fd5b50565b612df281612730565b8114612dfd57600080fd5b5056fea2646970667358221220ab225e42f3649b083efcc1784dcea741082d7464db41392ea66ff8e00b06200f64736f6c63430008040033",
  "linkReferences": {},
  "deployedLinkReferences": {}
}